:020000040800F2
:1000000058480020C101000809710108CF0200080A
:100010000571010831100008AD9F010800000000C3
:100020000000000000000000000000009F9901088F
:10003000A3290008000000001B0200088D9A010897
:10004000DF010008DF010008DF010008DF01000810
:10005000DF010008DF010008DF010008DF01000800
:10006000DF010008DF010008DF010008DF010008F0
:10007000DF010008A1220008DF010008E1220008DA
:10008000DF010008DF010008DF010008DF010008D0
:10009000DF010008DF010008DF010008DF010008C0
:1000A000DF010008DF010008DF010008DF010008B0
:1000B000DF010008DF010008DF010008DF010008A0
:1000C000DF010008DF010008DF010008DF01000890
:1000D000DF010008DF010008DF010008DF01000880
:1000E000DF010008DF010008DF010008DF01000870
:1000F000DF010008DF010008DF010008DF01000860
:10010000DF010008DF010008DF010008DF0100084F
:10011000DF010008DF010008DF010008DF0100083F
:10012000DF0100081D240008DF010008DF010008CE
:10013000DF010008DF010008DF010008DF0100081F
:10014000DF010008DF010008DF010008DF0100080F
:10015000DF010008DF010008DF010008DF010008FF
:10016000DF010008DF010008DF010008DF010008EF
:10017000DF010008DF010008DF010008DF010008DF
:10018000DF010008DF010008DF010008DF010008CF
:10019000DF010008DF010008DF010008DF010008BF
:1001A000B13C0108DF01000809240008DFF80CD089
:1001B00000F0BCFB00480047E9090008584800204F
:1001C000074880470748804707480047FEE7FEE7A3
:1001D000FEE7FEE7FEE7FEE7FEE7FEE7FEE7FEE7F7
:1001E000B19A010899870108AD010008EFF310806A
:1001F00072B6704780F310887047434A1368012B2A
:1002000004D04FF001031360404A1060404A11606F
:1002100040484FF0805101607047EFF3108272B692
:100220003948016851B34FF0000101603748016857
:1002300091B1EFF309811EF0100F08BF21ED108B73
:1002400021E9F00F4FF000041EF0100F08BF012449
:1002500041F8044D006801602D490968096808C922
:10026000B1E8F00F002B18BFB1EC108B81F30988B7
:100270004EF0100E002B18BF2EF0100E82F31088D7
:100280004EF0040E704722490860EFF3148222F00A
:10029000040282F314881D494FF0000008601A49D7
:1002A0004FF0010008601C484FF47F01D0F8002097
:1002B00041EA0201016017484FF080510160174880
:1002C0000068006880F3088861B662B670471EF067
:1002D000040F0CBFEFF30880EFF3098020E9F00F63
:1002E00040F804ED40F804ED1EF0040F0CBF80F35D
:1002F000088880F3098800B52EF006F85DF804EB55
:100300004EF0040E7047000090020020880200208A
:100310008C02002004ED00E020ED00E008ED00E09C
:1003200010B5441A0346944209D28418114403E0DC
:1003300011F8013D04F8013D521EF9D210BD40EA0A
:100340000104A40703D009E010C9121F10C3042A36
:10035000FAD203E011F8014B03F8014B521EF9D217
:1003600010BDD2B201E000F8012B491EFBD270474C
:100370000022F6E710B513460A4604461946FFF771
:10038000F0FF204610BD421C10F8011B0029FBD1D4
:10039000801A704730B504460020034600E05B1C1D
:1003A000934203D2E05CCD5C401BF8D030BD0346E5
:1003B00011F8012B00F8012B002AF9D118467047DB
:1003C0002DE9FE4F81EA030404F0004421F00041CE
:1003D00000944FF0000B23F0004350EA01045ED07C
:1003E00052EA03045BD0C3F30A54C1F30A552C4408
:1003F000A4F2F3340194A0FB0254C1F3130141F4BD
:100400008011C3F3130343F4801301FB024400FB88
:10041000034E840A970A44EA815447EA8357A4FBAF
:10042000076802958D0A05FB07854FEA932C04FBAC
:100430000C542705029D4FEA065847EA1637B5EBDC
:1004400008056EEB070C870E920E47EA811742EA09
:100450008312A7FB0201B6EB0B0164EB00042B0D2A
:1004600043EA0C335E1844EB1C50DA465146E7FB76
:100470000201C5F313044FEA0B3343EA14534FEA66
:100480000432019C43EA0603A4F10C040294009C8C
:10049000CDE900B400F03CF903B0BDE8F08F0020D6
:1004A0000146F9E72DE9F04D81EA030404F0004B21
:1004B00021F0004514464FF0000A23F0004150EAB5
:1004C000050220D054EA01021DD0C5F30A570246A6
:1004D000C5F31303C1F31300C1F30A5640F48015AA
:1004E00043F48013A7EB0608101BD64608F2FD382C
:1004F00073EB050002D308F1010801E092185B419B
:10050000B8F1000F03DA00200146BDE8F08D0020AD
:100510004FF48011064684460EE0171B73EB050767
:1005200005D3121B63EB050306434CEA010C490893
:100530004FEA300092185B4150EA0107EDD152EAD0
:10054000030012D082EA040083EA0501084305D0C3
:10055000101BAB4106D20122002306E000224FF01F
:10056000004302E06FF0010253101AEB06004CEB5F
:10057000085110EB0A0041EB0B01BDE8F04D00F013
:10058000B8B80EB540F2334102910021CDE9001117
:100590000A460B4600F0BCF803B000BD70B5C1F3CD
:1005A0000A5201F000450024C1F3130140F2FF3369
:1005B00041F480119A4201DA002070BD40F23343C9
:1005C0009A42A2F2334203DC524200F04BF800E0C0
:1005D00090402C43F1D0404270BD00F0004230F01A
:1005E00000400AD0C10D01F56071C0F3160042EA67
:1005F0000151C2084007114370470020014670476F
:1006000001F0004330B421F0004150EA010206D06D
:100610000A0DA2F56072C1F31301002A02DC30BC9E
:1006200000207047440F44EAC104C100E01830BC08
:1006300000EBC25000F026B830B50B460146002052
:100640002022012409E021FA02F59D4205D303FA94
:1006500002F5491B04FA02F52844151EA2F1010215
:10066000F1DC30BD202A04DB203A21FA02F000211F
:10067000704721FA02F3D040C2F1200291400843B2
:10068000194670470029A8BF7047401C490008BFA1
:1006900020F00100704710B4B0FA80FC00FA0CF0B2
:1006A00050EA010404BF10BC704749B1CCF12004EA
:1006B00021FA04F411FA0CF118BF01212143084377
:1006C000A3EB0C01CB1D4FEA00614FEA102042BFA3
:1006D000002010BC704700EBC35010440029A4BF99
:1006E00010BC7047401C490008BF20F0010010BC3E
:1006F000704710B5141E73F1000408DA401C41F174
:10070000000192185B411A4301D120F0010010BD95
:100710002DE9F04D92469B4611B1B1FA81F202E00B
:10072000B0FA80F22032904600F012F904460F46EB
:1007300040EA0A0041EA0B0153465A46084313D0E7
:10074000114653EA010019D0C8F140025046FFF7A4
:1007500089FF05460E4650465946424600F0F8F8D5
:10076000084305D0012004E020463946BDE8F08D5D
:100770000020054346EAE0762C4337430A98630598
:10078000E40AA0EB08000022FD0A44EA47540A30BC
:1007900002D500200146E9E7010510196941DDE9AC
:1007A000084500196941BDE8F04DA2E72DE9FE4F6B
:1007B000804681EA0300C00F0C46009021F0004102
:1007C00023F00045B8EB0200A94105D2404621467E
:1007D00090461C460B46024623F00040104347D08B
:1007E000270DC7F30A00C3F30A510290401A019083
:1007F00040286BDAC3F3130040F4801B0098924644
:1008000020B10023D2EB030A63EB0B0B019859468E
:10081000C0F14002504600F09BF806460D46504697
:100820005946019A00F0A3F810EB0800614100243A
:1008300087EA115284EAE7731A4340D0009A62B300
:10084000019A012A4FEA075215DC001B61EB0201F5
:100850004FF0004202EA0752CDE90042001C41F588
:10086000801132462B46FFF753FF03B0BDE8F08FEF
:1008700040462146F9E7001B61EB0201001C41F5EF
:10088000801300185B412018A2F5001747EB030105
:1008900040EAD570B6196D4111E06D084FEA360691
:1008A00045EAC0754FEA0752001B61EB0201001CCC
:1008B00041F5801149084FEA300000195141324694
:1008C0002B4603B0BDE8F04FFFF713BF009801229D
:1008D00040000023D0EB020263EBE0730098214656
:1008E0004FEAE074B8EB000061EB0401E9E783F044
:1008F00000435BE781F0004158E7000030B5041E7B
:1009000071F1000404DB4FF00044404264EB01014C
:10091000141E73F1000405DB1C464FF000435242E5
:1009200063EB0403994208BF904230BD064C074D6B
:1009300006E0E06840F0010394E8070098471034AF
:10094000AC42F6D3FFF736FCCC170B080C180B089B
:10095000202A04DB203A00FA02F10020704791407F
:10096000C2F1200320FA03F3194390407047202A74
:1009700006DBCB17203A41FA02F043EAE07306E0C7
:1009800041FA02F3D040C2F12002914008431946D7
:10099000704770B58C1810F8015B15F0070301D192
:1009A00010F8013B2A1106D110F8012B03E010F8D2
:1009B000016B01F8016B5B1EF9D12B0705D40023F5
:1009C000521E0DD401F8013BFAE710F8013BCB1A97
:1009D000921C03E013F8015B01F8015B521EF9D58C
:1009E000A142D8D3002070BD10B5FFF7FFFB2EF059
:1009F000A5FF002010BD000038B54468054601463B
:100A0000204619F066FB002808BF38BD464A286812
:100A100011280DD006DC0B282AD00E2838D00F283C
:100A200017D07CE0282873D0B0F5107F0AD076E08C
:100A30009268002A08BF38BD294601B02046BDE8AB
:100A400030401047526801B029462046BDE830408A
:100A500010472546204606F003FA0090406E0468D1
:100A6000684606F0DDFA002C1CBF2846A04738BDBA
:100A7000204606F0F5F90090683006F0EFF800988F
:100A800003216C3006F012F9684606F0C9FA46E018
:100A9000E968486809680D2902D0202918D037E094
:100AA000002835DD4FF48071204619F0DDFB20462B
:100AB00006F0D6F9009090F82850684606F0B0FA93
:100AC00015F0020F1ED0012120461BF0CEFB19E0CD
:100AD000002817DD25464FF48071204619F0C4FB2D
:100AE000284606F0BDF9009090F82840684606F0C8
:100AF00097FA14F0020F08BF38BD012128461BF0F9
:100B0000B4FB38BD2046BDE83840022126F0DCBFEA
:100B1000E86820B920464FF4807119F06BFA284636
:100B2000BDE838401AF014B91C04002070B586B036
:100B30004FF0000CDDE90A450C9ECDE902C5CDE978
:100B40000046CDF810C000F051F806B070BDF0B509
:100B500085B00AAF97E87010002704978DE87010F1
:100B600000F044F805B0F0BD70B5044688B0806967
:100B7000B4F908C0658A00260091CDE90165CDE988
:100B800003C0B4F90C00B4F91050C118B4F90A004C
:100B9000B4F90EC010442B46624600F027F8646892
:100BA000050020D008F0CCFC284606F059F9019049
:100BB000866E01A8009606F033FA214668460DF0CD
:100BC00013FC70B10098B04208D0284606F048F9EE
:100BD00001900099816601A806F022FA28461BF0D0
:100BE0003BFA0BF009FA08B0284670BD2DE9F04F2A
:100BF00085B09846DDE91164DDE90E5791468A46D5
:100C0000834608F09DFC04F14C001749CDE9021021
:100C1000CDE9005743464A465146584619F0DCFF95
:100C200005001BD006F01CF910223146049019F083
:100C30000DFD0E4C0499B4E8CD133431A1E8CD1369
:100C400094E80D10A1E80D1054F82C0D086004A8CC
:100C500006F0E6F920684168284688470BF0CCF991
:100C600005B02846BDE8F08FF909000828040020E7
:100C7000F0B5044680688C4989B051F8205060680E
:100C8000002800F00A81052806D006287DD0122809
:100C900000F0B48000F004B9E869002808BF00261D
:100CA00051D0D5E90012AB688DE80F0004F11001B6
:100CB0000FC90CF043FC002655F826000AF08FFD02
:100CC000A169E8690A1A216901446069304407F0A2
:100CD0001BFFA169E8690A1A21690144E069801BC8
:100CE00007F012FFE169E8690A1A616901442069A5
:100CF000304408F0EBF8E169E8690A1A61690144D7
:100D0000A069801B08F0E2F8761C022ED4DBA868EC
:100D10000AF065FDE069E969D4F814C0431A206956
:100D200042186144801C521E08F05AF9E169E869D2
:100D3000A2690B1A61690144101A401C921E08F046
:100D40004FF9EE6911E055F826000AF048FDE06918
:100D5000831BA069821B606981192069304407F0F8
:100D600055FF761C022EEEDB0226D5E90301CDE904
:100D70000001E169606901444B10A1698A1B811C73
:100D80002069304407F076FC00E011E0D5E9050168
:100D9000CDE90001E0696169831E01440122A06977
:100DA00002EB6101821B2069304407F063FC77E0AD
:100DB000206806F055F8049020681CF0BFFC50B184
:100DC000A068002818BF00200AD10498006F0028EE
:100DD00018BF012004E00498406F002818BF0220CB
:100DE000049901EB8000C56E04A806F019F90023F0
:100DF0001A462846216806F0C7FE51E0206806F032
:100E00002FF80490866E002E08BF04A842D0A16877
:100E1000B0F95C70002908BF012103D003290CBF81
:100E20000221002100EB8101406D0C6C0AF000FDF5
:100E300020460AF0D4FC06A808F000FABDF8181005
:100E4000A88B0144ADF81810BDF81C10081AADF8B5
:100E50001C00BDF81A00801CADF81A00BDF81E0079
:100E6000801EADF81E000498B0F96020B0F95E1045
:100E700006A809F0EEFE04A806F0D2F802200AF057
:100E80007FFD304605F0ECFF3A4606A9059006F0D6
:100E9000F5FF05A806F0C4F802E020681BF0CEFDBF
:100EA00009B00020F0BD000094FF0A0838B505F035
:100EB000D7FF04460090684606F0B2F8204638BDD9
:100EC000044A0349116004494A6A4862104670475F
:100ED000580400201C0400202804002070B505469A
:100EE0000C46104600210A4606F030FE0246214616
:100EF0002846BDE8704000F019B8000038B50C462F
:100F0000054608F01DFB284605F0AAFF009006499B
:100F100084654166684606F083F828461BF09CF815
:100F20000BF06AF838BD000058040020002808BF04
:100F30007047F8B515460C46064608F001FB3046EA
:100F400005F08EFF0090032C0BD200EB84006C3078
:100F500005F084FE009800EB8400C56630461BF067
:100F60007BF8684606F05CF80BF046F8F8BD000028
:100F70002DE9F04707464FF0140838680F2845D18F
:100F800026480AF021FC06F081FB10F045FA2449BE
:100F90004988A0EB010910F0FBF921490988A0EB71
:100FA000010A09EBD97042100AEBDA7041101C48B3
:100FB00007F0BAF8002410F0EBF9814600EBD97085
:100FC0004010022101FB180085B21CE015480068A2
:100FD000A04201D1144800E014480646B6F8029039
:100FE00009EBD9704010C0F1FA02B6F800A00AEB84
:100FF000DA70A5EB6001304607F096F8601C84B209
:1010000005EB080085B2052CE0DB03E0384619F05B
:101010009FFE00BF00BFBDE8F08700008080FF009A
:10102000082C0A0894010020502E0A08AC2C0A084B
:1010300000BFFEE72DE9F04F466804460146CDB0FB
:10104000304619F046F8002804BF4DB0BDE8F08FD7
:10105000FC4F2068DFF8F0B30E280FD00F2800F007
:101060002D82262800F07A83B0F5107F00F0618190
:10107000204619F06DFE4DB0BDE8F08F30461CF0F3
:101080005DFB002804BF4DB0BDE8F08F6C2225A9A0
:10109000304619F0E9FB2B9828B9DDE92501279A9C
:1010A0002D92CDE92B0128992B9888421CBF4DB079
:1010B000BDE8F08F2C99299881421CBF4DB0BDE846
:1010C000F08FE06841680029DCBF4DB0BDE8F08FCB
:1010D000DDE92C450068DDF8AC80132808BFE81D69
:1010E00017D00CDC102808BF681E12D0112808BFCA
:1010F000E81F0ED0122808BF681C0AD00AE0212879
:1011000008BF601E03D0222808BF601C02D12C90AB
:1011100000E02D902C980C2804DD0C382C9008F160
:10112000010005E0012804DA0C302C90A8F1010040
:101130002B900837B7E80F56CDE9400142A880E868
:101140000C5697E80F000DF59079283F89E80F00BD
:101150002C98401E8BFB00214A10A2EBE171A1EB01
:10116000810100EB810040A951F820002C9902294F
:1011700005BF2B9911F0030F0021012108442D997F
:1011800081420DDD081A2D902C98401C2C900C28C3
:101190003BDD2B98401C2B902C980C382C9034E085
:1011A000012932DA2C98401E2C90012805DA2B9860
:1011B000401E2B902C980C302C900837B7E80F5617
:1011C000CDE9400142A880E80C5697E80F000DF5E4
:1011D000907989E80F002C98401E8BFB00214A1063
:1011E000A2EBE171A1EB810100EB810140A850F875
:1011F00021102C98022805BF2B9810F0030F002017
:10120000012008442D9908442D904FF4B0713046C8
:101210001AF00CF907462C9A6FF003003D9900EB89
:1012200082002B9B0A5840A8CDF80800029912F8BA
:10123000010B01F8010B02910028F7D143B1481EC0
:10124000202100F8011B029002A9184606F0B5F80B
:1012500040A9384618F075FD2C9829902B982890B5
:101260006C2225A9304619F015FB2998844204BF49
:10127000289880451CD04FF00000ADF80000DDE953
:101280003B1001443A98ADF80210C0EBC000A0F149
:1012900001023B98ADF80420C0EBC000A0F10100B2
:1012A0000144ADF80610694630461AF065FE30E09C
:1012B0002D9925A8CDE9085107AA40A924F094FA50
:1012C000002508AC54F8253003B3DDE94001CDE931
:1012D0000401002107985B1E0A4644F8253018BF18
:1012E0003A9B0CD0401C072818BF194418D000BFE7
:1012F00054F825C0BCF1010C44F825C0F2D104A873
:1013000009F0A7FC04A930461AF036FE6D1C022D28
:10131000D8D3042130461AF0A8FF4DB0BDE8F08FB5
:10132000A3EB830C01EB4C01DDF8ECC00020624420
:10133000DEE7E468002C04BF4DB0BDE8F08F207AF2
:1013400000287DD06C2225A9304619F08DFADDE900
:101350002B012D9A0792CDE90501D4E9005425A867
:1013600008AA694624F040FA3A983A9995FBF0F0B9
:1013700048433C993B9A611A891A91FBF2F13C9BD4
:10138000083701FB02311144BDF900200DF5807AC8
:10139000801A3A9A90FBF2F2BDF90200081A3B99C2
:1013A00090FBF1F0C0EBC0001044B7E83E138AE8B0
:1013B0003E1397E80E1048AD401C85E80E102999A1
:1013C000491E8BFB01325310A3EBE272A2EB8202A7
:1013D00001EB820140AA52F82110299A022A03BF88
:1013E000289A12F0030F0122002211440128A8BFFD
:1013F00081424CDBDDE92812CDE92C202B910C2217
:101400002BA905A8FEF7C6FFD8B16C2225A9304646
:1014100019F040FA2D990798CDE9400125AB44AA6F
:1014200008A9184624F0E0F9002440AD55F824300E
:1014300033B3DDE90801CDE9420100210A4605E0A8
:1014400035E020E0A4FF0A08ABAAAA2A44985B1E54
:1014500045F8243018BF3A9B0BD0401C072818BF12
:1014600019441BD055F824C0BCF1010C45F824C028
:10147000F3D142A809F0EDFB42A930461AF07CFDF9
:10148000641C022CD2D3042130461AF0EEFE012156
:1014900030461AF0EAFE4DB0BDE8F08FA3EB830CA6
:1014A00001EB4C01DDF8ECC000206244DAE70221D8
:1014B00030461AF0DAFE4DB0BDE8F08F4FF000096B
:1014C0006C2225A93046CDF8089019F0CDF93046A8
:1014D0001AF02CFA804630461AF040FA0446349846
:1014E0006FF0704A504509D00AF079F93C98002114
:1014F000431EA8F10102084607F072FDADF82090E6
:101500003C98ADF822003A98CC4D401EADF824002E
:10151000601EADF82600002425AE3F984A4601190A
:101520000846C5FB01208210A2EBE070A0EBC000D2
:10153000084403900228ACBF0120002006EB800085
:10154000406A504504D00AF04AF908A807F074FD33
:10155000002208A83A9909F07CFB641C072CDCDB0C
:10156000ADF820903C98ADF822003A99491EADF8AC
:1015700024103B990844401EADF8260038980AF024
:1015800057F902200AF0FCF936980AF028F90024ED
:101590003F98494602191046C5FB02108110A1EB85
:1015A000E070A0EBC00010443E9903900E2251F869
:1015B000200008A906F062FC002208A83A9909F068
:1015C00048FB641C072CE3DBBDF92600A8F10302ED
:1015D000022107F099FA03AA08A925A824F004F922
:1015E0003F99002940F31E8111F0010F05D00398A7
:1015F0000628B4BF401C0020039048100CD003996B
:101600000629B4BF491C002103910629B4BF491C17
:1016100000210391401EF2D108370DF5807EB7E816
:101620003F118EE83F1197E80F0048AC84E80F00A7
:101630002998401E8BFB00214A10A2EBE171A1EB1F
:10164000810100EB810040A951F82000299902296D
:1016500005BF289911F0030F0021012100EB0105BE
:101660004FF00004002DCEBFDFF8D4814DB0BDE8AF
:10167000F08F00BF04F131008DF8080014E0092C50
:10168000F8DB601C88FB00108110A1EBE07000F11A
:1016900030018DF808104042611C00EB800001EB26
:1016A000400030308DF809002B992898814241D1B3
:1016B0002C99299881423DD12D98611C884239D1BD
:1016C0003098504504D00AF08AF808A807F0B4FC16
:1016D000339F2599289881420DD1299926988842CF
:1016E00009D12799601C814205D137980AF077F813
:1016F00008A807F0D3FA38460AF071F80E2208A9B4
:1017000002A806F0BBFB0398401C0390072808BF03
:10171000CDF80C903F990398814214D1002108A87C
:101720003B9A09F096FAADF820903A98401EADF831
:1017300024000DE003980228ACBF0120002006EB36
:101740008000076BC5E7002208A83A9909F081FAE2
:10175000641CAC4293DB4DB0BDE8F08FA06819F07B
:10176000F8FEE168B0F5B87F15D0A0F5807071384B
:1017700007BF022901244DB0BDE8F08F4FF06C0285
:101780000AA9304619F070F80E9800190E900AD088
:101790000D280DD011E002290EBF4FF0FF344DB0DF
:1017A000BDE8F08FEAE70D98401E0D900C2003E095
:1017B0000D98401C0D9001200E904FF4B0713046F2
:1017C00019F034FE04460E9A6FF00300229900EBE4
:1017D00082000B5825A90D98CDF80010009A13F837
:1017E000011B02F8011B00920029F7D138B1511EEC
:1017F000202201F8012B0091694605F0DEFD25A9A4
:10180000204618F09EFA6C220AA9304619F042F8D8
:1018100030461AF021FC0A2130461AF026FD4DB060
:10182000BDE8F08F00293FF4F7AE03980628B4BF57
:10183000401C00200390491EF7D1EDE69324499205
:10184000676666662DE9FF4FC9B00E46DDE9574968
:10185000DDE959879A46154670211EA8DDF858B172
:10186000FEF786FD6C2103A8FEF782FDABF10100B7
:101870000C2880F0E280AAF22E6042F2E201884257
:1018800080F0DB8044226F490CA8FEF749FD6E4BC7
:1018900000211A460846E4FB0320C008A0EB4010D4
:1018A0002044CDE903ABCDE9050A0120CDE907B01D
:1018B0006648059BCDF824A0CDE91D90CDE90AB37B
:1018C00018981A9BC0EBC0021998ADF88260C0EB63
:1018D000C0001844ADF888006C202490ADF88A70E0
:1018E0004FF4B870ADF89C000320ADF89E001A9834
:1018F000574B0A38ADF8808025932C93ADF8A4009F
:1019000040F27113ADF88450ADF8B830ADF88620D0
:101910001A9B4FF0050CD21AD21DADF8BA204D4BD0
:101920003393ADF8C0004FF4B073ADF8D430C31C9E
:10193000ADF8A0C0ADF8A200D21AADF8DC00ADF849
:10194000BCC0ADF8D8C0ADF8BE00ADF8D630ADF82B
:10195000DA2000910191404A04211EA8499B05F01C
:101960003DFF050069D06FF0704118F080FF3B49E2
:1019700028461AF097FE4FF4B871284619F056FD24
:101980000446002118F098FC35492046FFF7B6FAC6
:1019900040F27111284619F049FD0446002118F063
:1019A0008BFC2F492046FFF7A9FA4FF4B071284667
:1019B00019F03CFD04462B491AF074FE0E21204616
:1019C00018F0EBF92046139918F0FEF92046179904
:1019D00018F09EF9204619F0AFF82046129918F039
:1019E00075F907996FF003021B9802EB81013AAA7F
:1019F00041580698CDF80020009B11F8012B03F800
:101A0000012B0093002AF7D138B1591E202201F88A
:101A1000012B0091694605F0D0FC3AA9204618F048
:101A200090F928461AF00CFF6C2203A9284618F0FA
:101A300031FF4DB02846BDE8F08F4DB00020BDE825
:101A4000F08F00007005002021841042E1A70108FA
:101A5000690B0008E39B010835100008B1D00208AB
:101A6000F13A020831B7020830B59BB00C46054682
:101A700007F066FD6C226946284618F0F5FEDDE9A0
:101A80000601089AA260C4E900010AF0B5FA1BB089
:101A900030BD0000022828BF7047024A02EB8000D8
:101AA0008162704770050020064A002804BF9163D8
:101AB0007047012804BF11637047022808BF5163B3
:101AC00070470000700500202DE9F04F04460068C3
:101AD00089B028B11BF032FE002808BF012500D0D4
:101AE0000025FE4850F8256060680A2800F07381E0
:101AF00008DC002800F0DD81062841D007280CD042
:101B000000F0E8B9122800F03081192802BFB0694E
:101B100009B0BDE8F08F00F0DDB9256807F010FDD1
:101B2000284605F09DF90090C76F684605F078FAE1
:101B30000AF062FA5FF0000556F8250009F04FFE42
:101B40002069C119491B4B1E61691A462944284462
:101B500007F05CF86D1C032DEED3D6E90301CDE947
:101B60000001D4F810C00CEB0700401B431E606955
:101B70001A4641190CEB050006F07CFD00F0AAB9ED
:101B8000A068401E0690246807F0DAFC204605F0A5
:101B900067F90090D0F87C80684605F041FA0AF0B9
:101BA0002BFADFF83C9359F82570002F1CBF0698DC
:101BB00000EB80000DD000BFB7F84810414505D1BB
:101BC00007EB8001896809B11FB1C4E0FF6C002FE9
:101BD000F2D1502005F0A8F8070000F07B81C14C3D
:101BE000502200212368984770697864A7F84880DC
:101BF00059F82500F864BC48A8F1060880FB0810D5
:101C000049F825704110A1EBE071032008900120F4
:101C1000049007F14000CDE90280069D05EB8500A8
:101C200007EB8000019005EB450007EB80002830B2
:101C3000009008EBD8704210401000EBD073A0EB7E
:101C400063004618501A059008F10700C11700EB11
:101C500051704FEAE00A0AFB08FB584605F064F8A9
:101C60005FEA000977D023685A4600219847DDE9EA
:101C70000420012826DD089B01213046334483429D
:101C80001BDD4FEAE27C02EB5C7E02F0070C802455
:101C900024FA0CFC404509DA0AFB00F404EBEE04DC
:101CA00019F804B04BEA0C0B09F804B06940401C69
:101CB000834202DD0029F9D0ECE70598521C761C1E
:101CC0009042D8DC04990298401A0490904225DD95
:101CD0000899012034463144A1421ADDD31702EBA2
:101CE000537E02F0070C802323FA0CF3444509DAF3
:101CF0000AFB04FC0CEBEE0C19F80CB04BEA030BDE
:101D000009F80CB06840641CA14202DD0028F9D03B
:101D1000ECE70498521C761E9042D9DC0098022110
:101D20000160009901200871009A0399916001995E
:101D3000C88001980021A0F804A00198C0F808907C
:101D400001980161DDE90001C860DDE90101018060
:101D50000198A0F802800698032200EB800007EBB0
:101D60008000114606F0E0F9B4E0206805F078F84C
:101D70000290B0F9547090F85650D0F84490D0F8D2
:101D8000348002A805F04CF9266807F0D9FB3046EC
:101D900005F066F80390B0F87C6003A805F040F900
:101DA0000AF02AF9684619F0F7FABDF8000071192F
:101DB0000844ADF80000246A404609F039FD0220CD
:101DC00009F0DEFD484609F00AFD3A46694620461C
:101DD00006F054F87EE0206805F042F80290B0F971
:101DE000548090F85660D0F83490876C02A805F0C3
:101DF00017F9256807F0A4FB284605F031F8039091
:101E0000B0F87C5003A805F00BF90AF0F5F8684625
:101E100019F0C2FABDF80000A9190844ADF8000095
:101E2000206A07F0AFFA0446484607F0D9FA28F0CE
:101E30000301042904BFBDF80610091A08D00C29B3
:101E400008D1BDF90610091A491C01EBD1714910DE
:101E5000ADF8021028F00C0101290CD0022913D191
:101E6000BDF90410BDF90020891A091B01EBD171DD
:101E700002EB610106E0BDF80420BDF80010521A23
:101E8000121B1144ADF80010BDF80010621E114481
:101E9000ADF80410BDF80210401E0844ADF806006D
:101EA000384609F09CFC4FF0FF31684606F0B6F961
:101EB00010E020681AF0C2FD206804F0D1FF0790FE
:101EC000B0F90610B0F90220891A491CC16707A8A9
:101ED00005F0A6F809B00020BDE8F08FDCFF0A0885
:101EE000F80500209C0B002067666666044A0349DB
:101EF00011600449CA69C86110467047B4050020E2
:101F0000640C0020680C002000B589B0002000900F
:101F10000290039004900590069007900890192075
:101F2000019004480068806841686846884709B0A5
:101F300000BD0000640C002070B5234C054682B043
:101F40002068418CB0F84C2011444184818CB0F859
:101F5000502011448184284607F04AF92168498CB1
:101F6000ADF80010461828460CF068F83044401EC2
:101F7000ADF8040007F0B4F92168898CADF80210BF
:101F80000844401EADF8060068461BF00DFA30B15B
:101F9000284602F059FD1AF0EFFF0028F8D10A2D6B
:101FA00004D0BDF804002168401C48842068418C9E
:101FB000B0F84C20891A4184818CB0F85020891ADD
:101FC000818402B070BD0000300300202DE9FE4383
:101FD00004460E46154620460CF09CFB07460F486B
:101FE00050F8240007FB06080C4850F8240007FBB3
:101FF000050900210A4850F82400CDE900010948EC
:10200000029150F824304A464146204600F09EF99D
:10201000054840F82450BDE8FE83000088000020F9
:102020009800002094000020900000202DE9F04F3F
:1020300085B004460D4616461F46DDE90F8BDDF8D8
:1020400038A020460CF066FB81461C4850F824005E
:102050001B4951F8241009FB01001A4951F82410BA
:1020600006FB0151184A52F8242001FB020004909B
:10207000124850F82400124951F8241009FB0100BD
:10208000104951F824100AFB01710F4A52F824201C
:1020900001FB0200039000210A4850F82400A0EB45
:1020A00008004346CDE900B002912046DDE9032156
:1020B00000F04CF905B0BDE8F08F0000880000206A
:1020C00090000020940000209C0000202DE9FE4F8D
:1020D00004460D4616461F46DDF8309007F0CAF854
:1020E000012810D10022192120460FF0C1FF4B46D4
:1020F0003A46314628460EF0D7FF194A19212046A4
:102100000FF0B6FF2AE0781B00F10108A9EB0600EA
:10211000401C029020460CF0FDFA8246114850F80F
:102120002400114951F824100AFB01000F4951F80D
:10213000241006FB01510E4A52F8242001FB020B29
:102140000A4951F82410A1EB08010D98CDE90010BF
:10215000424659462046029B00F028F9BDE8FE8F12
:10216000CD2000088800002090000020940000206E
:102170009C000020F8B504460D4616461F46032075
:102180003B46324629460090204600F0B7F9F8BD9C
:10219000F8B504460D4616461F4604203B46324617
:1021A00029460090204600F0A9F9F8BDF8B504468C
:1021B0000D4616461F4602203B46324629460090F1
:1021C000204600F09BF9F8BDF8B504460D461646CA
:1021D0001F4600203B46324629460090204600F02C
:1021E0008DF9F8BDF8B504460D4616461F46002089
:1021F0003B46324629460090204600F07FF9F8BD64
:102200001CB519F0FDF80446002000902346044A4E
:1022100002210190034805F0E1FA034908601CBD62
:10222000CDC2020880AE0A08A00100201CB519F03A
:10223000E7F80446002000902346044A022101905A
:10224000034805F0CBFA034908601CBD95C302089A
:10225000B8AE0A08A40100201CB504461A200021CB
:102260002346044ACDE900100221034805F0B6FADE
:102270001CBD000031C802087C5B05081CB5044683
:102280001A2000212346044ACDE900100221034808
:1022900005F0A4FA1CBD0000EDC8020810AD0A0844
:1022A00010B54FF081510B4800F08AF980B101213F
:1022B00009480CF0EFFE0021064800F013F94FF03A
:1022C0008151044800F0F4F80020044909680880AE
:1022D00010BD000040600240005C00402C00002067
:1022E00010B51449144800F06BF910B300211248DE
:1022F00000F0F8F80F49104800F0DAF84FF42040E9
:102300000E49086007E00D490868411E0B4A11603C
:1023100008B92DF028FB0A490A480CF0C7FE00282E
:10232000F1D0012107480CF0B5FE002006490968EC
:10233000087010BD200000207060024028000020BE
:1023400004000010005C0040300000202DE9F05F28
:1023500007460C4615461E46DDE90B9ADDF8288037
:1023600038460CF0FBF983464FF400700E490860C4
:102370000846C460C563C0F81090C0F840A0C0F81B
:102380001CB0404666F31F4048640846006840F0B1
:102390000100086000BF0448006800F00100002848
:1023A000F9D1BDE8F09F000000B002402DE9F047F0
:1023B00007460C4615461E46DDE9088938460CF0EE
:1023C000CDF982460E480F4908600846C0F838909B
:1023D000C463C0F84080C0F834A0304665F31F40A5
:1023E00048640846006840F00100086000BF0548E6
:1023F000006800F001000028F9D1BDE8F087000076
:102400000002030000B0024010B500F001F810BD5A
:10241000022001498860704700B002407047000008
:102420002DE9F04107460C4615461E4632460B493B
:1024300038460EF0EDF93246094920460EF0E8F92B
:102440003346084A0649054800F00EF83246294648
:1024500004480EF0DDF9BDE8F0810000E41F002023
:10246000E42E0020E410002030B50F4C0F4D2C60FE
:102470002C46E0606161E26300242C61AC612C6455
:10248000EC616C626C63012404EB03446C642C46C5
:10249000246844F001042C6000BF044C246804F05C
:1024A0000104002CF9D130BD0002020000B002404E
:1024B0000246094B9A4201D2084801E0064810380A
:1024C00001F000531BB1064B0B40C36002E0044B0C
:1024D0000B408360704700001064024000600240BF
:1024E0007D0F7D0F21B1026842F00102026003E01E
:1024F000026822F001020260704700002DE9F843F3
:1025000005460E4614469846089F22460649284628
:102510000EF088F93B46002231460348009400F053
:1025200005F8BDE8F8830000E410002070B5049CB5
:102530004FF481350D4E35603546E860E96300257E
:10254000356135643546EA616B63012505EB044569
:10255000756435462D6845F00105356000BF034DB3
:102560002D6805F00105002DF9D170BD00B00240C5
:10257000F0B505AC70CC4FF48137DFF840C0CCF833
:1025800000706746F860F9633A613B640527CCF850
:102590001C7067467C6346EA0547CCF84470674682
:1025A0003F6847F00107CCF8007000BF034F3F6859
:1025B00007F00107002FF9D1F0BD000000B0024084
:1025C00030B503460A46002000240B4DAB4201D231
:1025D0000A4901E00849103902F000550DB14C6874
:1025E00000E00C68064D2C4004EA02050DB1012004
:1025F00000E0002030BD0000106402400060024096
:102600007D0F7D0F2DE9F84305460E46144698468A
:10261000089F00233A46064928460094FFF786FFA4
:102620002246314602480EF0FDF8BDE8F88300006E
:10263000E4100020074AD0624A1ED2B2012343EAC6
:102640000222044BDA611A46D26942F02002DA61B2
:102650007047000000B002401EB5034601F07F4005
:10266000B0F17F4F01D118461EBD83F07F4002902C
:1026700081F07F4001901548154C206002A8E06071
:1026800001A86061C4F83CD04FF4803040EA026099
:10269000E061C2F1FF00002444EA00600C4C60627B
:1026A000002060634FF0011060642046006840F035
:1026B0000100206000BF0648006800F0010000280B
:1026C000F9D1009880F07F40CEE7000000020200C0
:1026D00000B0024070B5049C124D134E3560354673
:1026E000E8606961EA634FF4803545EA0365F561A6
:1026F000C3F1FF05002646EA05650B4E756200250D
:102700007563012505EB0445756435462D6845F074
:102710000105356000BF044D2D6805F00105002D51
:10272000F9D170BD0002020000B002402DE9F04175
:10273000044688B0006804F093FB0690468ED0F8FB
:10274000885006A804F06CFC002D18BF012506F087
:10275000010620681AF0F2FF002D18BF00200FD0EC
:102760007D4951F820506068002800F0EE80022872
:1027700000F0CE8005280CD012287DD000F0E8B8FB
:10278000002E18BF0120EBD1002814BF0220032027
:10279000E6E7D5E90123A86A29688DE80F0004F16E
:1027A00010000FC80AF0CAFE5FF0000655F82600B8
:1027B00009F015F8A169A86A0A1A2169014460693B
:1027C000304406F0A1F9A169A86A0A1A21690144F6
:1027D000E069801B06F098F9E169A86A0A1A616944
:1027E00001442069304406F071FBE169A86A0A1AC5
:1027F00061690144A069801B06F068FB761C022E0B
:10280000D4DBA86A02281BDDA86808F0E8FFE169AC
:10281000A86AD4F810C00B1A0CEB00014A1E6169BB
:1028200001440CF1020006F0DBFBE169A86AA26931
:102830000B1A61690144101A401C921E06F0D0FB6D
:10284000D5E90301CDE90001E1696069A2690144AC
:102850004B10A96AD4F810C0521A8C44811C6046EF
:1028600005F008FFD5E90501CDE90001A069AB6AD3
:102870006169C21AE06900E019E001444FF0010CFF
:102880000CEB6101D4F810C09C44831E604605F037
:10289000F1FE686A08F0A3FFE2696169A369501A52
:1028A000181A401C091D121F06F010FB50E020688A
:1028B00004F0D6FA0090B0F88060B0F98280C76C5E
:1028C000684604F0ADFB208AB11C0844ADF808004E
:1028D000A08A801CADF80A00A08BA18A401A218B27
:1028E000891B081AC01EADF80C00A08B801EADF825
:1028F0000E00022009F044F8384608F099FF286AD3
:1029000008F06DFF424602A9206A05F0B7FA1FE001
:102910006169E0694FF0FF32401AA0F1080102EB53
:102920006106411CA269801B4410A2EB6107E869A3
:1029300008F055FF002E0BDBBA19B91B204606F034
:10294000E3F8641C761EF7D502E020681AF076F8EA
:1029500008B00020BDE8F081E4FF0A08044A0349FA
:10296000116004490A6B0863104670470006002096
:10297000A40C0020A80C002038B50D46002404F05B
:102980006FFA0090C06B294604F024FC05466846A7
:1029900004F046FB1DB1284604F062FA04462046C6
:1029A00038BD704770B504460D461646022C0DD151
:1029B000FF2008F014FF06EB460305EB45020A4929
:1029C00001EB0410042103F0E1FE0CE0074808F0DD
:1029D00006FF06EB460305EB4502034901EB041035
:1029E000042103F0D3FE70BDE43D00208080FF0091
:1029F000002808BF70472DE9F04F91B00F460446FC
:102A000006F09EFD204604F02BFA039090F854A0A7
:102A1000D0F83490866DC56C03A804F001FB26B194
:102A200039462046B04700F0ABB900264FF0010808
:102A3000122F7DD006DC082F7BD0102F7AD0112FDB
:102A40003CD006E0132F5BD01D2F00F0E4801E2F3A
:102A500071D0202FC0F29481BAF1000F00F0F28003
:102A6000204604F0FDF90590D0F834A0D0F84C9041
:102A700005A804F0D5FABAF1000F00F0E380504643
:102A800004F0EEF982464946069009F089F981463C
:102A90005046FDF778FC48457DD9D144484609F0B9
:102AA00039F909EB00014846FDF781FC06A804F05E
:102AB000B7FA0521204619F0D8FBC3E0B9F1000FA1
:102AC00000F05E81484604F0CBF9074629460490A1
:102AD00009F066F90744384609F00CF905460296F4
:102AE00009F028F98046681C86B2304609F022F9C0
:102AF0000546A84526D004A804F092FA00F040B993
:102B0000B9F1000F00F03C81484604F0A9F90746EE
:102B10002946049009F044F90744384609F0EAF8D8
:102B20000546029609F006F98046681E86B203E063
:102B300016E021E01AE043E0304609F0FBF80546D4
:102B4000A845D8D1314602A809F0C2F82A4602A900
:102B50003846FDF7E5FB0521204619F086FBCAE75C
:102B6000691C204600F02AFC00F00AB9691E2046C4
:102B700000F024FC00F004B9002D00F00181691E72
:102B8000204600F01BFC204604F06AF90190C76C57
:102B9000456B01A800E052E004F042FA002D00F07D
:102BA000EF80284604F05CF906463946029009F0A9
:102BB000F7F805463046FDF7E6FBA84229D918E0AC
:102BC000204604F04DF90190C76C456B01A804F054
:102BD00027FA002D7ED0284604F042F906463946F1
:102BE000029009F0DDF805463046FDF7CCFBA8421F
:102BF0000FD93544284609F08DF829182846FDF7E5
:102C0000D6FB02A804F00CFA0521204619F02DFB92
:102C1000B6E002A810E0204604F022F90390BAF1D1
:102C2000010F08BF80F8546005D080F85480294611
:102C3000204600F0C3FB03A804F0F2F9A0E006A8C8
:102C400004F0EEF91FFA87FB204604F009F9074665
:102C50000290B0F93800002812DD786B4FF00009BF
:102C600040B104F0FDF800900BF0C4F981466846CD
:102C700004F0D6F9B7F9381009F10100884200DCF8
:102C800046460298C06C079002A804F0C9F9002ECD
:102C900076D0584609F04EF8074626464FF0000811
:102CA000204604F0DDF80B90406B40B104F0D8F8FA
:102CB0000890FDF768FB804608A804F0B1F90B996D
:102CC00007EB0800498F401A00F101080BA804F037
:102CD000A7F900E054E0B8F1000F2CDD304608F110
:102CE000100804F0BDF80090D0F834A0408F804464
:102CF000684604F095F94146504604F0C5F85FEA8D
:102D000000093DD0BAF1000F0AD104F0A9F8204B18
:102D10000D9042461B68002198470DA804F080F9E9
:102D2000304604F09DF80090A0F83A80C0F8349046
:102D3000684604F075F9204604F092F80290466B5C
:102D400002A804F06DF9304604F08AF806460F90A8
:102D5000079909F025F806443046FDF714FB421C9C
:102D6000F0193146FDF7DCFA5946304608F0B0FF5D
:102D70000FA804F055F90521204619F076FAEFE680
:102D8000204619F069F909F037F911B0BDE8F08F64
:102D90009C0B002070B54568044682B028461AF0A6
:102DA000CDFC06462146284617F093F9002804BFBB
:102DB00002B070BD20680F2844D004DC0B2847D037
:102DC0000E2850D066E0A0F58070133804D0A0F52E
:102DD00080702D381FD05DE0284619F0F3FB28469F
:102DE00004F03EF8009090F8561081F0040180F84D
:102DF0005610684604F014F90021284626F06AFDB2
:102E0000284604F02DF80090D0F88400002119F035
:102E100022FB684624E0E06878B1017A41B101689C
:102E2000284600F010F90121284619F01EFA31E079
:102E30000221284619F019FA2CE00321284619F03E
:102E400014FA27E00121284626F044FD02B070BDA7
:102E5000284604F005F80190343003F0FFFE01A885
:102E600004F0DEF816E0AEB1E0684168002911DD3B
:102E700001681B290ED009DC09291CBF0A290D296C
:102E800008D02846FFF7B4FD02B070BD212918BF55
:102E90002229F6D1204617F05BFF02B070BD2DE964
:102EA000F04186B00DF1300898E8F0104FF00008BE
:102EB000CDF814808DE8F01000F004F806B0BDE8FD
:102EC000F08100002DE9FF4F85B09846DDE91654EA
:102ED000DDE9126B91468A46159F06F031FB04F13D
:102EE0006001324A03914BF480500096CDE9010213
:102EF00043464A465146059817F06EFE04004FD0EF
:102F000003F0AEFF10223946049017F09FFB2848CB
:102F1000049990E8CC1701F1600B8BE8CC17006A9C
:102F2000C1F88000012081F85500681C18BF0120FD
:102F300081F88800002DD8BF08252AB20A87002012
:102F400048874863551C04A804F06AF8204603F03B
:102F500087FF0090476B408F0544684604F060F897
:102F60002946384603F090FF060015D057B903F004
:102F700077FF104B01902A461B680021984701A853
:102F800004F04EF8204603F06BFF0090458746633F
:102F9000684604F045F803E0204617F013FF0024CC
:102FA00009F02AF809B02046BDE8F08F952D0008F9
:102FB000E00C00209C0B0020014880687047000056
:102FC000E00C002038B505004FF000040BD006F0EF
:102FD000B7FA284603F044FF0090846C684604F07A
:102FE0001FF809F009F8204638BD002808BF7047CF
:102FF000F8B516460C46054606F0A2FA284603F038
:103000002FFF0090002818BF032C05D200EB84008E
:103010008667284619F020F8684604F001F808F0A1
:10302000EBFFF8BD70B50D46044606F089FA34B1E1
:103030002946204600F0C2F9204619F00DF8BDE8F7
:10304000704008F0D9BF002808BF70472DE9F04153
:1030500086B00C46074606F073FA384603F000FFC8
:103060000090406B002849D003F0FAFE03900098CE
:10307000806E08F0DDFB8046384618F057FC0646A7
:10308000039806F07FF90546009890F8601001F06B
:103090000301012918D002290FD0416EC06A0068CF
:1030A0000844201A441E03980AF0A4FF002C11DAE9
:1030B0000021384600F082F917E0701B401C00EB3D
:1030C000D070A4EB6004EEE7406E711B081A201A62
:1030D000441CE8E7A54204DB0246214603980AF0B7
:1030E0001DFF0146384600F069F903A803F098FF78
:1030F000404608F09DFB384618F0AEFF684603F0E6
:103100008FFF08F079FF06B0BDE8F0812DE9F843A4
:103110001D46DDE9086714468946804606F010FA28
:10312000B8F1000F75D0404603F09AFE3B4900907D
:1031300081653B49C1650021C0E91291C0E90F4595
:1031400080F8446080F85670012180F8541090F89F
:103150008890684603F064FFB9F1000F40D0002D5D
:10316000A7BF01210B460221CB1EB8BF6D422D4ADD
:103170000A2D08DB82FB05C04FEAA00CACEBE07522
:10318000491C0A2DF6DAB3F1FF3F02BF4B1EB342D2
:10319000491C002CBDBF02204FF0FF3C64420120BF
:1031A000A8BF84460A2C07DB82FB04439C10A4EBD7
:1031B000E374401C0A2CF7DABCF1FF3F02BF431E48
:1031C000B342401C002E1CBF401C491C17F0010FCD
:1031D00018BF491C8142D8BF0146404600F026F87E
:1031E000404628F0BFFB404603F03AFE009000F056
:1031F000CFF80D490978884205D10098C06C411C70
:10320000404600F0DBF8684603F00AFF404618F03D
:1032100023FF08F0F1FEBDE8F8830000D1E60108C5
:1032200065B90208676666661C030020002808BFAF
:1032300070472DE9F04184B00C46064606F080F94F
:10324000304603F00DFE0090B0F93810458FA142D2
:1032500048D012DD406B80B103F002FE01900AF00D
:10326000C9FEA04206DD2146019808F099FD019AA9
:103270000021115401A803F0D3FE684603F0D0FEEC
:10328000601B451C304603F0EBFD0290D0F8348003
:10329000408F054402A803F0C3FE2946404603F0D0
:1032A000F3FD070016D0B8F1000F0AD103F0D8FDE6
:1032B000104B03902A461B680021984703A803F08F
:1032C000AFFE304603F0CCFD02904587476302A86D
:1032D00003F0A6FE304603F0C3FD0090048730469D
:1032E00018F0BAFE684603F09BFE08F085FE04B0B5
:1032F000BDE8F0819C0B0020002808BF7047F8B59E
:1033000016460C46054606F01BF9284603F0A8FDB4
:103310000090002818BF032C05D200EB8400C6667D
:10332000284618F099FE684603F07AFE08F064FE1D
:10333000F8BD38B505000C4608BF38BD06F000F9E9
:10334000284603F08DFD0090C16BA1421CDC016C8E
:10335000A1421BDB816CA14210D08464C16D0029A5
:103360001CBF28468847284618F076FE684603F0BA
:1033700057FE0521284618F078FF02E0684603F062
:103380004FFE08F039FE38BD0C46E0E70C46E1E799
:1033900038B50546406B002468B103F061FD00902C
:1033A0000446E96C08F0FCFC204408F0A3FC044649
:1033B000684603F035FE204638BD000010B582B0E7
:1033C0000C4603F04DFD0090406BE8B103F048FD62
:1033D00001900AF00FFE009991F85420002A18BFBE
:1033E0000122002C15DB844215DC00BFB1F9380046
:1033F000801AA04211DBC86CA04218BFCC64002028
:10340000086501A803F00CFE684603F009FE02B04F
:1034100010BD0024E7E70446E8E7B1F93800841A54
:10342000E9E7000010B5024600200023102A03D16E
:103430004FF02044636E0FE0B2F5807F02D10A4C5A
:10344000236809E0B2F5805F03D1074C203423687C
:1034500002E0054CD434236803EA01048C4201D015
:10346000002000E0012010BD840000A00021D0E970
:1034700000231A4383685B1E42EA4312C36842EA90
:103480004321014A11607047500100A070B500222D
:103490000021002300240568AD00A5F1C045D5F842
:1034A00040216FF30E02D0E901563543C66835431B
:1034B000066935434669354386693543C6693543F0
:1034C000066A3543466A35432A43056835B90568B7
:1034D000AD00A5F1C045C5F8402111E03B4D2B687A
:1034E0006FF30E03D0E907563543466A35432B4345
:1034F000364D2B600568AD00A5F1C045C5F84021EB
:10350000056875BB314D0835066855F8261001F081
:103510007041856A2D686D1E866A7668761E45EA5A
:103520000616856AAD686D1E46EA0526856AED6851
:103530006D1E46EA0536856A2D8A6D1E46EA0546E9
:10354000856AAD8A6D1E46EA0556856A2D7E6D1E1A
:1035500046EA056529431D4D0835066845F82610DD
:1035600032E0FFE7194D0835066855F8261001F0DE
:103570007041856A2D686D1E866A7668761E45EAFA
:103580000616856AAD686D1E46EA0526856A2D8A8F
:103590006D1E46EA054529430C4D08352C6804F09C
:1035A0007044856AED686D1E2E03856AAD8A6D1EB6
:1035B00046EA05552C434FF02045C5F84841034DD8
:1035C0000835066845F8261070BD0000400100A0CF
:1035D0000449096841EA40014FF02042C2F8541101
:1035E00070470000540100A02DE9F04389B09846CF
:1035F00015460F4606004FF0000423D000F0C8FC2B
:103600000446304600F0A4FC814605F099FF03A96A
:10361000304600F0B5FF17F0010F17D0BDF91C00C0
:103620008221001B401B401C0096CDE901812346EE
:103630001A464946FDF77AFA0446002116F03CFE88
:1036400008F0DAFC09B02046BDE8F083BDF91800A7
:1036500017F0020F284414BF40F202210221E3E7D1
:1036600010B50523FFF7C0FF0446054A0021FDF70A
:1036700035FC0449204619F015F8204610BD00001D
:10368000CD030208ADC6020810B50723FFF7ACFF53
:103690000446054A0021FDF721FC0449204619F0A3
:1036A00001F8204610BD00002D05020851CA02088D
:1036B00010B50823FFF798FF0446054A0021FDF7DF
:1036C0000DFC0449204618F0EDFF204610BD000017
:1036D000AD07020889CA02082DE9F047446805468B
:1036E0008EB04FF00008204603F0BAFB0090B0F80F
:1036F0007CA0D0F86890D0F88070D0F88860C06D59
:10370000002818BFD0F80080684603F089FC56B145
:1037100071682846884700281CBF0EB0BDE8F087B6
:103720003668002EF4D12868172802BFC5F80C901F
:103730000EB0BDE8F08713DC0F2844D00ADC0B285C
:1037400000F053810D2808BF1AF0080F00F0F68032
:1037500000F054B9112814D0142870D000F04EB9DC
:1037600026286DD006DC1E286BD0202800F0F080C3
:1037700000F044B92A2818D0B0F5107F2AD000F004
:103780003DB92046EE6803F06BFB0190717A002989
:1037900004BF317A012905D1B0F87C1041F4807161
:1037A000A0F87C1001A800F0FDB8204603F058FBFB
:1037B0000090E968002912BFC0F88410D0F8840096
:1037C000E860684649E0B8F1000F1CBF2046C047DA
:1037D00000F014B927462046EE6803F041FB019043
:1037E000B0F87C4001A803F01BFCE868002804BF87
:1037F0000EB0BDE8F087307A20B314F0080F04BF94
:10380000384619F01DF8384617F01EF914F0100F5D
:1038100012BF14F4807F0EB0BDE8F087002314F0CF
:10382000800F1CBF0EB0BDE8F08779483146B0F973
:103830000020384618F078FF0EB0BDE8F0870FE0A2
:1038400018E024E0384603F00BFB0190B0F87C1040
:1038500021F48071A0F87C1001A803F0E1FBEBE7F4
:1038600005A9204600F08CFEDDE90612E86801603B
:103870004260E1E7E8680228DED10C94E8680D9028
:1038800027200A900AA9A8681AF080F9D4E7E86806
:10389000012819D0002CCFD005F052FE204603F0AD
:1038A000DFFA0190B0F87C1011F0080F06D021F07B
:1038B0000801A0F87C10204618F0CEFB01A803F008
:1038C000AFFB08F099FBB7E7384618F04FFC58B14A
:1038D000384618F0B5FF384618F09CFA88B1012137
:1038E000384616F0C1FC0CE0484619F025F80746AA
:1038F000204603F0B5FA0090C0F88070684603F0E7
:103900008FFBB4B105F01CFE204603F0A9FA02902B
:10391000B0F87C1011F0080F06D141F00801A0F8B2
:103920007C10204618F098FB02A803F079FB08F001
:1039300063FB002F04BF0020E8607DE7E868C068F3
:1039400000281FBF007A0028204618F079FF55E0B4
:10395000EE684EB32146706819F0C8FE002827466D
:10396000204622D003F07CFA0490B0F87C1011F0CD
:10397000080F06D141F00801A0F87C10384618F075
:103980006BFB04A803F04CFB2146706819F09AFE0B
:1039900050B1204603F064FA02907168C0F88010BC
:1039A0000DF1080003F03CFB28E003F059FA049005
:1039B000B0F87C1011F0080F06D021F00801A0F833
:1039C0007C10384618F048FB04A803F029FB214678
:1039D000306819F077FE88B1204603F041FA029072
:1039E0003168C0F8801002A8DCE7204603F038FAFE
:1039F0000090703003F032F96846D3E7294620463C
:103A000016F067FB00281CBF284617F0A1F913E742
:103A1000BC06002070B588B0B0F908400DF10C0E5E
:103A20000C9ED0F818C045688EE87010B0F812C02F
:103A30000024CDE90014CDF808C0B0F90C10B0F99D
:103A40001040B0F90EC0B0F90A00194410442346E2
:103A5000624600F003F808B070BD00002DE9FF4F8A
:103A60008BB09946DDE91885DDE91B6792468B46E8
:103A70001E9C05F065FD04F16000444945F4805545
:103A8000CDE90210CDE900854B46524659460B98C8
:103A900017F0A2F8040073D003F0E2F930223146A7
:103AA000049016F0D3FD3A4E049A06F1080102F193
:103AB000340E91E80B1F8EE80B1FD6E90A01C2E90C
:103AC00015011D9850661A98A2F87C004FF0000866
:103AD000C2F88080C2F86C80C2F888807068D065B7
:103AE00004A803F09DFA05A9204600F049FD2948E5
:103AF00041F28271CDF80C800094CDE90110BDF93E
:103B00001E00BDF91A10BDF91C20401A431CBDF956
:103B10001800121A521C17F05FF88046706841684E
:103B200020468847204603F09BF90490C0F868803F
:103B300004A803F075FA42F20400054204BF2046CF
:103B400017F035FA05F0FCFC204603F089F90090E7
:103B5000006F0190684603F063FA394601A80AF045
:103B600043FC58B1204603F07BF9009001990167AE
:103B7000684603F055FA204618F06EFA08F03CFA51
:103B800008F03AFA0FB02046BDE8F08FD9360008A9
:103B9000BC0600203F4900082DE9F041044698B0DA
:103BA000006800F0BDF9002814BFDB4DDB4D6068F4
:103BB000152802BFA86A18B0BDE8F08112DC0B28F6
:103BC0002AD007DC002800F09281052800F02C8123
:103BD00000F09DB90E2800F07781122800F03B819B
:103BE00000F095B9162802BFE86918B0BDE8F08169
:103BF000172802BF286A18B0BDE8F081182802BF54
:103C0000686A18B0BDE8F0811C2802BF686918B066
:103C1000BDE8F08100F07BB920680E901C200F9069
:103C2000206803F01DF90390016D0EA88847064631
:103C300003A803F0F5F9022E11DBD5E90001AA680B
:103C40000292CDE90001D4E904023346A16909F0EA
:103C500073FB20698719A069A0EB06082CE028688F
:103C600007F0BDFD2169E8690844421E606904F05F
:103C70004BFFA269E869101A411C606904F044FF17
:103C80006069471C3946206904F098FF3946A069ED
:103C900004F094FF686807F0A2FD20693946401CD3
:103CA00004F08CFFA0693946401E04F087FF2069AC
:103CB000871CA069A0F10208286807F090FD424621
:103CC0003946606904F020FF686807F088FD606984
:103CD00042463946401C04F017FF686A02287DDD21
:103CE000A86807F07CFD60696A6A811C1044431E65
:103CF0004246384605F074F96069022EACBF0644AE
:103D0000861CE069471E286807F069FD3A4631467F
:103D1000206905F0DBF83A463146A06905F0D6F88F
:103D2000E069871E686807F05AFD20693A46314607
:103D3000401C05F0CBF8A0693A463146401E05F01C
:103D4000C5F8E8690228DCBF286A022820DDA86AD5
:103D50000228C7BFE1690F1AE069871EA86807F04B
:103D60003EFDE969022907DD22693B46901C1144AA
:103D70004A1E314605F034F9286A022808DDA16997
:103D8000E8698A1E081A3B463146401C05F028F9AE
:103D9000286807F024FDD4E90620216904F0B4FE68
:103DA000686807F01CFDA069421E2069411CE0699B
:103DB000401E04F0A9FEA86A02284BDD21698E1C72
:103DC000A1698F1EE169081A441CA1F10208A868C4
:103DD00007F005FD43463A46214600E003E0304641
:103DE00005F0FEF893E0296AB14285DD6069022E94
:103DF00000F10208ACBF871947462069ACBF3044C8
:103E0000801C22693B461144A1F10102414605F0A4
:103E1000E7F8A069022EACBF821B821EE9693B460F
:103E2000401A4146401C65E7208A00B2ADF81800F0
:103E3000A18A09B2ADF81A10228B12B2ADF81C207B
:103E4000A38B1BB2ADF81E30D5E9034CCDE9004C75
:103E500004F010FC5BE0208A298B0844ADF81800C0
:103E6000A08AADF81A00208B298B401AADF81C00EF
:103E7000A08BADF81E00206802F0F2FF0390006FE7
:103E8000F0B1022007F07CFD039991F87C00C0F3AB
:103E9000C00001EB8000006C07F0A1FC0398406BB0
:103EA00007F0C6FC0398006F02F0DAFF03990A904E
:103EB000B1F95A2006A903F0E1FF0AA803F0B0F80F
:103EC00003A803F0ADF822E0208AADF81800A08A1C
:103ED000ADF81A00208BADF81C00A08BADF81E00C9
:103EE000A86807F07CFC06A805F0A6F80FE020689B
:103EF00002F0B6FF0390B0F85A1041F00C01A0F8A0
:103F00005A1003A803F08CF8206818F097FD18B039
:103F10000020BDE8F0810000000700202C070020F1
:103F200038B505004FF0000410D005F009FB284615
:103F300002F096FF009090F87C0010F0080F18BF78
:103F40000124684603F06CF808F056F8204638BDA6
:103F500038B505004FF0000411D005F0F1FA2846FD
:103F600002F07EFF0090C06D002180680268284644
:103F700090470446684603F053F808F03DF82046A1
:103F800038BD00000148406970470000C4060020A9
:103F900030B587B005004FF0000414D005F0D0FA1A
:103FA00001A9284600F0ECFA284602F059FF0090DB
:103FB000B0F95440684603F033F8002C08BFBDF94F
:103FC000044008F019F807B0204630BD002808BFAB
:103FD00070472DE9F04184B0064605F0B1FA30464D
:103FE00002F03EFF0190304602F03AFF009090F858
:103FF0007C1011F0400F3ED0B0F90610B0F902204D
:10400000891A4C1CB0F97A10B0F97600081A451CD0
:10401000684603F005F82A1B0021304618F09AF98B
:10402000304602F01DFF0090806E18F0DDFD009814
:10403000C06E18F0D9FD304600F046FC0098082507
:10404000B0F87C1021F04001A0F87C10C46994B154
:10405000204602F005FF0290204617F07AFAA842A7
:1040600004BF204617F0F8FF0298046A02A802F085
:10407000D7FF002CECD1684602F0D2FF019890F8EF
:104080007C1011F0800F07D001A802F0C9FF04B026
:10409000BDE8F04107F0B0BF806902F0E1FE029098
:1040A000D0E90074806938B90DF072F960F30F043B
:1040B0000DF0B2F960F31F4402A802F0B1FF0198BD
:1040C0004FF00708D0E90012C0E91D12B0F87C10CB
:1040D00041F08001A0F87C10C56995B1284602F036
:1040E000BFFE0090284617F034FA404504BF28462A
:1040F00017F0B2FF0098056A684602F091FF002DA4
:10410000ECD101A802F08CFF3A1439B215460F46E3
:10411000304618F07EF8C5EB2440421C20B2C01B8C
:10412000411C304618F02AFD304600F0CDFBAEE7CA
:10413000002808BF70472DE9F04188B0064605F019
:10414000FFF9304602F08CFE0590304602F088FE02
:10415000019090F87C1011F0800F31D0D0E91D143F
:104160000A1409B215460F46304618F052F8C5EB4E
:104170002440421C20B2C01B411C304618F0FEFCFB
:10418000304600F0A1FB01980725B0F87C1021F023
:104190008001A0F87C10C46994B1204602F060FE52
:1041A0000090204617F0D5F9A84204BF204617F02A
:1041B00053FF0098046A684602F032FF002CECD1ED
:1041C00001A802F02DFF059890F87C1011F0400F27
:1041D00007D005A802F024FF08B0BDE8F04107F0C1
:1041E0000BBFB0F90610B0F90220891A01F10108DD
:1041F00000F06AFA01460598C26A126801EB4201B2
:104200008F1CD0E90012C0E91D12806E17F010FE5D
:104210000598C06E17F00CFE05980825B0F87C10C4
:1042200041F04001A0F87C10C46994B1204602F02E
:1042300017FE0290204617F08CF9A84204BF2046D2
:1042400017F00AFF0298046A02A802F0E9FE002CA7
:10425000ECD105A802F0E4FEA7EB080200213046ED
:1042600018F078F8304600F02FFBB5E7002808BFBB
:104270007047F0B585B0054605F062F9284602F0B2
:10428000EFFD009090F87C1011F0400F3ED0B0F997
:104290000610B0F90220891A4C1CB0F97A10B0F956
:1042A0007600081A461C684602F0BAFE321B00214E
:1042B000284618F04FF8284602F0D2FD0090806E94
:1042C00018F092FC0098C06E18F08EFC284600F0A2
:1042D000FBFA00980826B0F87C1021F04001A0F805
:1042E0007C10C46994B1204602F0BAFD01902046CA
:1042F00017F02FF9B04204BF204617F0ADFE019829
:10430000046A01A802F08CFE002CECD1684602F091
:1043100087FE284602F0A4FD019090F87C1011F071
:10432000800F31D0D0E91D140A1409B217460E4689
:10433000284617F06EFFC7EB2440421C20B2801BBA
:10434000411C284618F01AFC284600F0BDFA0198D6
:104350000725B0F87C1021F08001A0F87C10C4691A
:1043600094B1204602F07CFD0090204617F0F1F851
:10437000A84204BF204617F06FFE0098046A684602
:1043800002F04EFE002CECD101A802F049FE05B06F
:10439000BDE8F04007F030BE064A0549074B116002
:1043A000054AD16958601B68C2E906300846704763
:1043B000F4060020C0060020C4060020EC06002001
:1043C0002DE9F04383B00D46064605F0B9F8002EFE
:1043D00034D0304602F044FD0190C16D00248F6856
:1043E00090F8321011F0200F06D0B0F954401CB9EB
:1043F000406B04F0F5FF841C0198456301A802F0AE
:104400000FFE3A6801213046904780463B68032101
:10441000304698478146D7F800C000213046E04733
:104420000546304600F050FA4B464246214630469B
:10443000009500F0C8F9304617F00EFE07F0DCFDDD
:1044400003B0BDE8F083002808BF704730B583B0E3
:104450000D46044605F074F8204602F001FD009078
:10446000006F0190684602F0DBFD294601A809F0C3
:10447000BBFF58B1204602F0F3FC009001990167A0
:10448000684602F0CDFD204617F0E6FD07F0B4FDCA
:1044900003B030BD002808BF704738B50C4605464C
:1044A00005F04EF8284602F0DBFC0090B0F95A10F7
:1044B000A14204D0A0F85A40284617F0CDFD684626
:1044C00002F0AEFD07F098FD38BD002808BF704728
:1044D0002DE9F04383B00C46804605F031F84046A4
:1044E00002F0BEFC0090428E002C114614BF41F039
:1044F000200621F02006B2423AD04686404600F01F
:10450000E3F9009DEC690CB3204602F0A9FC019090
:10451000076AB0F90200B5F90210A0EB010901A881
:1045200002F07EFDB5F9560048450DD1A86EA042B7
:104530000AD095F8320010F0200F204602D018F073
:1045400053FB01E017F074FC3C00DDD1009890F8BB
:104550007C0010F0400F08D016F0200F404602D02B
:1045600018F042FB01E017F063FC404617F074FDC1
:10457000684602F055FD07F03FFD03B0BDE8F0834B
:104580002DE9F04F00278DB00C468146BA4602F067
:1045900067FC0190C06D0121856848462A689047F4
:1045A00080462A6803214846904707902A680221DE
:1045B0004846904706902A6800214846904706469C
:1045C000019818F0E3FE0590019818F0E6FE834686
:1045D000019890F8321001F02001002918BFB0F9BD
:1045E00058A04FF0000506D0B0F954501DB9406BEB
:1045F00004F0F6FE851C0198C06E10B117F0AEF9FC
:10460000074625806780A4F8048007990598401A1A
:1046100006EB0A01401E294420813944E1800699B5
:10462000ABEB0101491E6181A4F80C802082701956
:10463000E681401E608201A802F0F2FCB4F90C7021
:10464000B4F910604D46484602F00AFC0690C16D70
:10465000D0F8008006A8D1F8089002F0E1FCD9F863
:1046600000200021284690478146284616F043FF47
:10467000050024D002F0F4FB0790B0F900200FFAF7
:1046800088F1B0F90430521A5B1AB0F90210A1EBAC
:10469000284149450BD190F8280010F0800F03D035
:1046A0009642A8BF561E02E09F42D8BF5F1C07A8D3
:1046B00002F0B6FC284616F0E2FF0500DAD1A78129
:1046C00026820DB0BDE8F08F10B50146002091F8AC
:1046D000322012F0200F08BF10BDB1F9540000289D
:1046E00018BF10BD486B04F07BFE801C10BD70B578
:1046F0008AB00E46044602F0B3FB0990C06D85688F
:1047000009A802F08DFC0094002E08BF18200BD0E1
:10471000012E08BF162007D0022E08BF152003D097
:10472000032E08BF172000D10190696868468847AA
:104730000AB070BD2DE9F04383B017468846814624
:1047400002F08EFB0090C16D056868468C6802F02F
:1047500067FC22680021484690470646484616F006
:10476000CAFE040004BF03B0BDE8F08302F078FB8A
:104770000190B0F900102AB2B0F90430891A9A1ADF
:10478000B0F90230A3EB2543B34211D190F82800D1
:1047900010F0800F05D038688842A4BF481E3860EA
:1047A00006E0D8F800009042DCBF501CC8F80000BA
:1047B00001A802F035FC204616F061FF0400D5D1B7
:1047C00003B0BDE8F0832DE9FF4F85B09A469146CE
:1047D0000F46DDF848B0059802F042FB0390C16D2A
:1047E0008C68FFF771FF064603A802F019FC2268E7
:1047F000012105989047029022680321059890476F
:10480000019022680021059890470546BE4204BFEA
:104810000298484506D10198504502BF5D4509B050
:10482000BDE8F08FA6EB07044FF00007B8460598E7
:1048300016F061FE060004BF09B0BDE8F08F0198D4
:10484000A5EB0B05AAEB000A0298A0EB090930467C
:1048500002F006FB0090806A10F0800F03D010F485
:10486000007F06D025E010F4007F22D010F0800FEA
:104870001FD124B122461146304617F06BFD009837
:1048800090F8280010F0800F06D004FB17A12A46EC
:1048900030467F1C17F0DAFC0098008D10F4007F82
:1048A00007D004FB08912A46304608F1010817F0AA
:1048B000CDFC684602F0B4FB304616F0E0FE060080
:1048C000C5D109B0BDE8F08F70B586B0064602F0DC
:1048D000C7FA0590D0E91A4505A802F0A1FB54EAF1
:1048E000050004BF06B070BD69463046FFF748FEBC
:1048F000ACB1BDF90620BDF90410204617F052FCFA
:10490000BDF90A00BDF90610401A421CBDF90800A5
:10491000BDF90410401A411C204618F02FF9002D53
:1049200004BF06B070BDBDF90600BDF90210421A01
:10493000BDF90410284617F035FC06B070BD2DE90E
:10494000F0430446406889B0054616F0CDFE814626
:1049500002F086FA0290D0F88080876C466E02A83A
:1049600002F05EFB2068172862D008DC0E2850D0C9
:104970000F2816D0142818BF152859D052E01E2829
:1049800029D01F283ED0222802BFE76009B0BDE829
:10499000F083312801BF0020E06009B0BDE8F0835A
:1049A00040E06FF07040874204D038460DF014FBB1
:1049B00002F06CFE002E04BF09B0BDE8F083D4E91C
:1049C00002122068CDE90405CDE9061204A8B0471B
:1049D00009B0BDE8F083E068002804BF09B0BDE875
:1049E000F083B8F1000F18BFA84505D0404617F076
:1049F00027FF09B0BDE8F083284617F09DFF09B0F6
:104A0000BDE8F0832146484615F063FB09B0BDE8D8
:104A1000F083E0684168002904DD00680928EBD0D4
:104A20000A280BD0002E1CBFC4F804902046CED11B
:104A3000204616F08DF909B0BDE8F083284617F03E
:104A4000C5FF09B0BDE8F08370B5154C05460A28CE
:104A500013D00D2D08BF70BD04F072FD2068C06931
:104A60000168284688470F48016800291CBF28466E
:104A70008847BDE8704007F0BFBA04F061FD04F05C
:104A80005FFD2068C069457E07F0B6FA2068818C1A
:104A900029448184018C4184BDE8704007F0ACBAA0
:104AA00030030020700300202DE9F04F85B08A46C6
:104AB0008346DDE90E0100F5B4749846914601F590
:104AC000B475B4F5B47F0FDB61424FF4B47091FB61
:104AD000F0F04042002807DDA0EB001000EB4000A2
:104AE00004EBC00405EBC0054FF0FF360127002D95
:104AF000DCBF05B0BDE8F08F5A2C0FDA002C63DB69
:104B00005A2DB4BF28465A204346CDE90040CDE98E
:104B100002764A46514658461BF0F4FE5A3C5A3D2E
:104B2000002DDCBF05B0BDE8F08F5A2C13DA002C45
:104B30004CDB5A2DB4BF28465A20C4F15A01C0F1AB
:104B40005A000090CDE9011643464A465146584660
:104B500003961BF0D7FE5A3C5A3D002DDCBF05B032
:104B6000BDE8F08F5A2C0FDA002C31DB5A2DB4BF80
:104B700028465A204346CDE900404A465146584609
:104B8000CDE902671BF0BEFE5A3C5A3D002DDCBF4A
:104B900005B0BDE8F08F5A2C13DA002C1ADB5A2D21
:104BA000B4BF28465A20C4F15A01C0F15A000090FF
:104BB000CDE9011743464A465146584603971BF034
:104BC000A1FE5A3C5A3D92E7002499E70024B0E741
:104BD0000024CBE70024E2E72DE9F84F0F46DDF88B
:104BE00028900646941BA3EB0708D9F800504FF015
:104BF000000A54EA080063D0002CD4BF604220466B
:104C0000B8F1000FCCBF4146C8F1000188420ADA72
:104C100020464446804630463E46074610461A46E1
:104C200003464FF0010A002CCCBF20466042A04250
:104C300008BF012008D03046164602466442C8F13B
:104C400000081F464FF0FF300090C448C449B8F137
:104C5000000FD0F800C01CBF04EBD4724FEA620B07
:104C6000B8BFCBF1000B30D09CF81A20002A00F01E
:104C7000FA80009A002ABCBF2A19C9F80020002532
:104C8000002CC0F2458100BF08FB05B090FBF4F09A
:104C9000C219D9F8001000980844B049C9F80000BA
:104CA00009688B7E012B00F00081022B00F0078148
:104CB000032B00F00D81042B00F03A8100F019B9AC
:104CC0003046BDE8F84F00F08DBABAF1000F62D05F
:104CD0009CF81AC0BCF1000F14D04FF00008002C53
:104CE000A4BF8A46834640DBDBF8001028466D1CD3
:104CF0008A7E012A0CD0022A14D0032A1BD0042A4F
:104D000035D027E031463846BDE8F84F0CF09AB967
:104D1000801DC21700EB127222F00F02801A0C28BD
:104D20001FDB17E0C21700EB927222F00302801A19
:104D3000022816DB0EE08AFB0032D310A3EBE272EE
:104D4000524202EB820200EB82000C2809DB103891
:104D5000022806D3496E06EB08004A680146384629
:104D6000904708F10108A045BEDD681EDCE07D4AE1
:104D700082FB00329310A3EBE272A2EB820200EB03
:104D8000C2000C28EDDBA0F11002022A24BF143867
:104D90000228E6D3DEE79CF81A80B8F1000F14D0A1
:104DA0004FF00008002CA4BF8A46834642DBDBF8A4
:104DB000001028466D1C8A7E012A0FD0022A17D0C7
:104DC000032A1ED0042A3AD02AE0DCF864003946CF
:104DD000036801B03046BDE8F04F1847801DC21788
:104DE00000EB127222F00F02801A0C281EDB17E073
:104DF000C21700EB927222F00302801A022815DB20
:104E00000EE08AFB0032D310A3EBE272524202EBB7
:104E1000820200EB82000C2808DB1038022805D340
:104E2000496E06EB08004A683946904708F10108C8
:104E3000A045BCDD681EC9F80000BDE8F88F494AEE
:104E400082FB00329310A3EBE272A2EB820200EB32
:104E5000C2000C28EADBA0F11002022A24BF143899
:104E60000228E3D3DCE70025002CACBF8146BDE877
:104E7000F88F00BF08FB05B090FBF4F03844BAF19E
:104E8000000F0AD0D9F800207119526E526890476D
:104E90006D1CA542EEDDBDE8F88FD9F8001073193E
:104EA000496E4A6801461846F1E7801DC31700EBBA
:104EB000137323F00F03C01A0C2825DB19E0C31766
:104EC00000EB937323F00303C01A02281CDB10E0ED
:104ED000234B83FB00C34FEAE30CACEBE3735B4271
:104EE00003EB830300EB83000C280DDB1038022852
:104EF0000AD3496EBAF1000F06EB05004B680EBFEE
:104F000011460146104698476D1CA5427FF7BCAE7E
:104F10000098002804DAD9F800002044C9F80000FD
:104F2000D9F800100098081AC9F80000BDE8F88FF9
:104F30000C4B83FB00C34FEAA30CACEBE373A3EB76
:104F4000830300EBC3000C28DEDBA0F11003022B6F
:104F500024BF14380228D7D3CBE700003003002049
:104F600067666666ABAAAA2A2DE9F047DFF8689261
:104F7000804684B0D9F800000F460C99007E1D468B
:104F80001646012800F0CE80A8EB060C7C1B5CEADC
:104F9000040104BF04B0BDE8F087421E0021BCF14B
:104FA000000FBCBF0121CCF1000C002CBCBF41F0B4
:104FB00002016442644504DD20466446844641F0B3
:104FC0000401A0020CEBDC7300EB630090FBFCF02F
:104FD0008010824C4FEA201C00F00F0034F81C3087
:104FE000C0F1100013FB00F3102807D004EB4C0CA9
:104FF000C0F11000BCF802C01CFB003303F1080034
:10500000C31700EB1370001111F0040F18BFC0F5A7
:10501000806011F0010F18BFC0F5006011F0020FA1
:1050200018BFC0F5805000F5806100F50060C0F346
:105030000B004FF0000AB0F5006FC4BF4FF0010A3B
:10504000A0F50060B0F5806FC8BFC0F500604FEA02
:10505000A01C634B00F03F00C0F1400033F81C403F
:105060004443402818BFBCF1100F07DA03EB4C0C87
:10507000C0F14000BCF802C00CFB004404F1200069
:105080008009BAF1000F18BF404200FB02FC002467
:10509000C1F30B00B0F5006FC4BF0124A0F50060A0
:1050A000B0F5806FC8BFC0F50060811100F03F000F
:1050B000C0F1400033F811A040280AFB00FA18BFE5
:1050C000102906DA03EB4101C0F14000498801FBD9
:1050D00000AA0AF120008009002C18BF404200FB02
:1050E00002F1BCF1000FB4BFCCF500700CF50070FC
:1050F0004FEAA020B8BF40420029BDBFC1F50071F2
:105100008912C1F1000C01F50071A8BF4FEAA12C72
:1051100000280FDD411C01EBD171491000EBD0706C
:1051200042100EE0009139464046FFF755FD04B0AD
:10513000BDE8F08700EBD071401E491000EBD07045
:105140004210BCF1000FC6BF0CF1010000EBD070A3
:105150000CEBDC704FEA6000CEBF0CEBDC73ACF103
:10516000010303EBD3735B1008EB010CADF800C037
:1051700007EB000CADF802C0A8EB020CB21AADF8B8
:1051800004C0ADF808203144A7EB030CEA1AADF8CF
:105190000C102844ADF80A20ADF80E000023ADF83D
:1051A00006C01A460421684600F08EF8D9F800209F
:1051B00040463946527E002A08BF00F013F83046B8
:1051C000D9F800202946527E002A08BF00F00AF8CC
:1051D00004B0BDE8F0870000300300203E040B0857
:1051E0001C040B08064A13681A7E012A05D0521EB9
:1051F00002EBD272521000F005B85A6E5268104796
:10520000300300202DE9F84F06460F4640F2C32038
:1052100050434FF47A7190FBF1F000F1010A02FB68
:1052200002F002EBD271DFF89C8000EB610000908D
:10523000D8F8001014463244496E301B0B683946CA
:1052400098470125BAF1010FB8BFBDE8F88F00BF3C
:1052500005FB05F004FB0400009988421ADD544563
:1052600017DDD8F8003006EB050BA6EB05095B6EE1
:10527000ABF1010239191B6809F101009847D8F810
:105280000030ABF10102391B5B6E09F101001B68B4
:105290009847641ED8F80030321979195B6E301BBC
:1052A00093461B6881469847D8F800305A46791BC8
:1052B0005B6E48461B6898476D1CAA45C8DABDE876
:1052C000F88F0000300300202DE9FF4F83B0074620
:1052D00043F6FF74C4F1000090460E1E0090C4BF58
:1052E000BA1C08460EDD00BFB2F90010A142D8BFBB
:1052F0000C46009B9942D8BF19460091401E02F10E
:105300000402F1D18C490868406970B1B0F90630E7
:10531000069A9B1A009A9342C0F20281B0F90230B9
:10532000069A9A1AA24200F3018100988442D2BFE1
:10533000A6F1010907B0BDE8F08F00207F490546BE
:10534000002E0860C4BF069804EB000A7EDD4D45C0
:10535000B4BF6A1C002207EB850C07EB8201BCF985
:105360000200B1F90230A04255D1A34213D137F95E
:105370002500514600EB080337F922006E4A4044ED
:1053800083421268526ED2F800C0BABF0246184675
:105390001A46E04787E000222946B9F1000F0CDDEC
:1053A000002914BF491E711E07EB8100B0F90200ED
:1053B000A04203D1521C4A45F2DB2046A04272D0E3
:1053C000001B37F925101A1B90EA020F09D45A4A1C
:1053D00001EB080051461268526E13680246984766
:1053E00061E0DFF858B1DBF800C0BCF10C0F5ADA0D
:1053F0000020BCF1000FC4BF6046514A4CDD00BF25
:1054000002EB400333F9023C8B4245DB22F81030BB
:10541000401EF5D140E0A34245D0A8BF844203DA44
:10542000A042A8BF9C423EDB98424EDC0246A0420E
:10543000DFBF18468442BCF90030B1F9001032DCFD
:10544000A1EB030CA11A0CFB01F100E02FE00029F5
:10545000A0EB020CCEBF01EB6C01A1EB6C01491C6F
:10546000801A91FBF0F0DFF8D4B0C118DBF800C06F
:10547000BCF10C0F17DA0020BCF1000FC4BF60466E
:105480002F4A09DD02EB400333F9023C8B4203DB78
:1054900022F81030401EF5D1294A22F810100CF1E4
:1054A0000100CBF800006D1CB542FFF650AF069826
:1054B0000025204401902148AB4601680029C4BF63
:1054C0001F49B1F900A022DD18E01A46A342DEBF51
:1054D0008442B1F90030BCF90010B1DDE3E71849AE
:1054E00031F91BA055B108EB000C134808EB0A0278
:1054F00001990068406E0368604698470F490BF1B8
:10550000010B85F00105096850465945E7DC009814
:10551000641C84427FF711AF07B0BDE8F08F00BF75
:10552000B0F90630069A9A1A0092F7E6B0F902200E
:105530000698141AF9E6000030030020CC0B002076
:105540005843002070B52048046803F0F9FF204656
:105550000CF042FD06F050FD1C48046803F0F0FF1B
:1055600020460CF073FD06F047FD012503F0E8FF2F
:10557000174C2068057606F03FFD03F0E1FF206838
:105580000025858506F038FD03F0DAFF20684585A3
:1055900006F032FD03F0D4FF28460CF085FD06F03E
:1055A0002BFD0C48056803F0CBFF2068002D18BFC9
:1055B000C56106F021FD002503F0C2FF2068857655
:1055C000BDE8704006F018BD2C0300202803002021
:1055D0003003002024030020F0B50A4600210023F8
:1055E000002400BF3DE0012505FA01F3156805EA36
:1055F00003049C4234D105684F000326BE40B543E6
:10560000056015794E00B54006683543056015798B
:10561000012D02D01579022D16D185684F00032681
:10562000BE40B543856055794E00B5408668354328
:105630008560456801268E40B5434560456896798A
:105640008E40B6B235434560C5684F000326BE4064
:10565000B543C560D5794E00B540C6683543C560D1
:10566000491C1029BFD3F0BDF0B5002300244D071D
:10567000ED0E02FA05F3CE1000F1200555F8265084
:105680004E07F70E0F26BE40B543CF1000F120069F
:1056900046F82750CE1000F1200555F8265045EA6F
:1056A0000304CE1000F1200545F82640F0BD4183EB
:1056B0007047018370470AB1018300E0418370475E
:1056C000002808BF704733B583B0044603F038FFA5
:1056D000204601F0C5FB0190456E01A801F0A0FC39
:1056E000049801F0BDFB00908460684601F098FCCE
:1056F000042204A9284601F0B5FC204616F0ACFCB3
:1057000006F07AFC05B030BD002808BF704733B5FD
:1057100083B0044603F014FF204601F0A1FB019082
:10572000856E01A801F07CFC049801F099FB0090C3
:105730008460684601F074FC042204A9284601F044
:1057400091FC204616F088FC06F056FC05B030BDF2
:105750002DE9F04F04460026D4E90005A3B0B0F5CA
:10576000407F08BF01262146284614F0B2FC0746B8
:10577000002E1CBF284621F044FE002F04BF23B09A
:10578000BDE8F08F206805280CD00B2800F00682B9
:105790000F280CD0262804BFE068052800F04C82B2
:1057A00000F082BA284621F02CFE00F07DBA049564
:1057B000E0680890284601F053FB1090416D12916B
:1057C000816D1191C16D0191016E0F91C06A0068E8
:1057D00002901CA815F0E0FD1CA9109814F00FFE13
:1057E000DDE91C01CDE90A0111990298BDF82A20D2
:1057F00008441044ADF82A000F990298BDF82E20F5
:105800000844101AADF82E0012990298BDF828200D
:1058100008441044ADF82800DDE90110BDF82C2043
:105820000844101AADF82C00DDE90A01CDE91E018B
:105830001EA817F0C9F91098406B05F0C5FF01F0DC
:1058400025FF1098D0F8942012B1002104989047B9
:10585000109C94F86C0000287ED0DDE911B906A9EF
:10586000DDF804A0DDF83C80049815F08AFEE06ABB
:10587000BDF9181000682190BDF91C00D4E911761B
:10588000401AA0EB0900A0EB0A00401C1890BDF9DB
:105890001E00BDF91A10401AA0EB0B00A0EB080087
:1058A000401C1690206C05F09AFF03F03DFD2090FF
:1058B0007FB394F87800E16C10F0010F0CBFD4F8BE
:1058C0008C00002038440D18BD4202DBED1BBD42A8
:1058D000FCDA94F87A0006F007F81898854218DA8E
:1058E000219905EB09000844BDF91A10BDF91E20E5
:1058F00094F87A305944A2EB080223B113460246C9
:1059000003F02EF901E003F0E1FA18983D448542D6
:10591000E6DB86B3206DD4F880103044451AB542DA
:1059200002DBAD1BB542FCDA94F87B0005F0DCFF2E
:10593000169885421FDA00BFBDF91810BDF91E0088
:1059400001EB090CBDF91C10A0EB0800A1EB0A0249
:10595000401B94F87B1000E010E029B10346194683
:10596000604603F0FDF802E0614603F0CDF81698BA
:1059700035448542E0DB209805F0B6FF1CA90AA853
:10598000029A08F0E1FC0AA817F01EF9DDF8408041
:10599000FF21D8F83800B1EB106F7DD0DDE9115749
:1059A000019E47EA05010F9C31430498214373D0BF
:1059B000D8F82C10D1F800900CA915F0E2FD15F0E4
:1059C0006BFE169015F07CFE1590BDF93000384442
:1059D0001390BDF9320000EB050BBDF93400801BBC
:1059E0001190BDF93600A0EB040AD8F8380005F094
:1059F000EBFED8F83C0005F0F2FEDFB107EB090042
:105A0000421E0898B0F900101698081A904211DC4E
:105A1000BDF93630BDF930001B1B05EB09015B1CDD
:105A200001F06CFE13980AF10102ABF10101401E76
:105A300003F04CFACDB105EB0900431E0898B0F90C
:105A400002101598081A98420FDCBDF93000BDF914
:105A50003210BDF9342001F051FE1198421C139808
:105A6000411EABF1010003F04FF8E6B10899BDF912
:105A70003420B1F904301699901B591A401C814208
:105A800011DBBDF9363005EB09011B1B5B1C01F076
:105A900035FE0AF1010200E01FE01198ABF10101AF
:105AA000401C03F013FAC4B1BDF93630181B411C79
:105AB0000898B0F906201598101A88420DDBBDF938
:105AC0003000BDF9342001F019FE1198421C1398E2
:105AD000411E0AF1010003F017F81098D0F8942045
