:020000040800F2
:10000000B0450020C1010008273B0108CF020008CD
:10001000233B0108B10D0008F9570108000000005A
:100020000000000000000000000000005F52010816
:100030009F1C0008000000001B0200084D5301082F
:10004000DF010008DF010008DF010008DF01000810
:10005000DF010008DF010008DF010008DF01000800
:10006000DF010008DF010008DF010008DF010008F0
:10007000DF0100089D150008DF010008DD150008FC
:10008000DF010008DF010008DF010008DF010008D0
:10009000DF010008DF010008DF010008DF010008C0
:1000A000DF010008DF010008DF010008DF010008B0
:1000B000DF010008DF010008DF010008DF010008A0
:1000C000DF010008DF010008DF010008DF01000890
:1000D000DF010008DF010008DF010008DF01000880
:1000E000DF010008DF010008DF010008DF01000870
:1000F000DF010008DF010008DF010008DF01000860
:10010000DF010008DF010008DF010008DF0100084F
:10011000DF010008DF010008DF010008DF0100083F
:10012000DF01000819170008DF010008DF010008DF
:10013000DF010008DF010008DF010008DF0100081F
:10014000DF010008DF010008DF010008DF0100080F
:10015000DF010008DF010008DF010008DF010008FF
:10016000DF010008DF010008DF010008DF010008EF
:10017000DF010008DF010008DF010008DF010008DF
:10018000DF010008DF010008DF010008DF010008CF
:10019000DF010008DF010008DF010008DF010008BF
:1001A0005D130108DF01000805170008DFF80CD017
:1001B00000F044FA00480047B3070008B0450020AB
:1001C000074880470748804707480047FEE7FEE7A3
:1001D000FEE7FEE7FEE7FEE7FEE7FEE7FEE7FEE7F7
:1001E00071530108094C0108AD010008EFF31080BC
:1001F00072B6704780F310887047434A1368012B2A
:1002000004D04FF001031360404A1060404A11606F
:1002100040484FF0805101607047EFF3108272B692
:100220003948016851B34FF0000101603748016857
:1002300091B1EFF309811EF0100F08BF21ED108B73
:1002400021E9F00F4FF000041EF0100F08BF012449
:1002500041F8044D006801602D490968096808C922
:10026000B1E8F00F002B18BFB1EC108B81F30988B7
:100270004EF0100E002B18BF2EF0100E82F31088D7
:100280004EF0040E704722490860EFF3148222F00A
:10029000040282F314881D494FF0000008601A49D7
:1002A0004FF0010008601C484FF47F01D0F8002097
:1002B00041EA0201016017484FF080510160174880
:1002C0000068006880F3088861B662B670471EF067
:1002D000040F0CBFEFF30880EFF3098020E9F00F63
:1002E00040F804ED40F804ED1EF0040F0CBF80F35D
:1002F000088880F3098800B527F00EFB5DF804EB51
:100300004EF0040E7047000088020020800200209A
:100310008402002004ED00E020ED00E008ED00E0A4
:1003200010B5441A0346944209D28418114403E0DC
:1003300011F8013D04F8013D521EF9D210BD40EA0A
:100340000104A40703D009E010C9121F10C3042A36
:10035000FAD203E011F8014B03F8014B521EF9D217
:1003600010BDD2B201E000F8012B491EFBD270474C
:100370000022F6E710B513460A4604461946FFF771
:10038000F0FF204610BD421C10F8011B0029FBD1D4
:10039000801A7047034611F8012B00F8012B002A40
:1003A000F9D11846704700F0004230F000400AD002
:1003B000C10D01F56071C0F3160042EA0151C20897
:1003C00040071143704700200146704701F0004389
:1003D00030B421F0004150EA010206D00A0DA2F526
:1003E0006072C1F31301002A02DC30BC00207047A8
:1003F000440F44EAC104C100E01830BC00EBC25015
:1004000000F026B830B50B4601460020202201241A
:1004100009E021FA02F59D4205D303FA02F5491BD2
:1004200004FA02F52844151EA2F10102F1DC30BDE8
:10043000202A04DB203A21FA02F00021704721FA39
:1004400002F3D040C2F120029140084319467047A0
:100450000029A8BF7047401C490008BF20F00100D8
:10046000704710B4B0FA80FC00FA0CF050EA0104B6
:1004700004BF10BC704749B1CCF1200421FA04F448
:1004800011FA0CF118BF012121430843A3EB0C0121
:10049000CB1D4FEA00614FEA102042BF002010BC84
:1004A000704700EBC35010440029A4BF10BC704734
:1004B000401C490008BF20F0010010BC70472DE926
:1004C000FE4F804681EA0300C00F0C46009021F0E9
:1004D000004123F00045B8EB0200A94105D2404697
:1004E000214690461C460B46024623F0004010432E
:1004F00047D0270DC7F30A00C3F30A510290401AF0
:10050000019040286BDAC3F3130040F4801B00987D
:10051000924620B10023D2EB030A63EB0B0B019848
:100520005946C0F14002504600F09AF806460D4682
:1005300050465946019A00F0A2F810EB08006141BC
:10054000002487EA115284EAE7731A4340D0009AE4
:1005500062B3019A012A4FEA075215DC001B61EBD6
:1005600002014FF0004202EA0752CDE90042001CAE
:1005700041F5801132462B4600F0A2F803B0BDE8E9
:10058000F08F40462146F9E7001B61EB0201001C99
:1005900041F5801300185B412018A2F5001747EBC6
:1005A000030140EAD570B6196D4111E06D084FEABC
:1005B000360645EAC0754FEA0752001B61EB02019F
:1005C000001C41F5801149084FEA300000195141E3
:1005D00032462B4603B0BDE8F04F00F062B80098F9
:1005E000012240000023D0EB020263EBE07300988D
:1005F00021464FEAE074B8EB000061EB0401E9E743
:1006000083F000435BE781F0004158E730B5041EFA
:1006100071F1000404DB4FF00044404264EB01013F
:10062000141E73F1000405DB1C464FF000435242D8
:1006300063EB0403994208BF904230BD064C074D5E
:1006400006E0E06840F0010394E8070098471034A2
:10065000AC42F6D3FFF7AEFD58E10E0898E10E0864
:10066000202A04DB203A00FA02F100207047914072
:10067000C2F1200320FA03F3194390407047202A67
:1006800006DBCB17203A41FA02F043EAE07306E0BA
:1006900041FA02F3D040C2F12002914008431946CA
:1006A000704710B5141E73F1000408DA401C41F1C4
:1006B000000192185B411A4301D120F0010010BDE6
:1006C0002DE9F04D92469B4611B1B1FA81F202E05C
:1006D000B0FA80F220329046FFF7C2FF04460F4680
:1006E00040EA0A0041EA0B0153465A46084313D038
:1006F000114653EA010019D0C8F140025046FFF7F5
:1007000097FE05460E46504659464246FFF7A8FF5B
:10071000084305D0012004E020463946BDE8F08DAD
:100720000020054346EAE0762C4337430A986305E8
:10073000E40AA0EB08000022FD0A44EA47540A300C
:1007400002D500200146E9E7010510196941DDE9FC
:10075000084500196941BDE8F04DA2E770B58C1855
:1007600010F8015B15F0070301D110F8013B2A11C5
:1007700006D110F8012B03E010F8016B01F8016BB2
:100780005B1EF9D12B0705D40023521E0DD401F8AE
:10079000013BFAE710F8013BCB1A921C03E013F877
:1007A000015B01F8015B521EF9D5A142D8D30020AC
:1007B00070BD10B5FFF71AFD28F0C8FB002010BD72
:1007C00038B5446805460146204615F06EF8002805
:1007D00008BF38BD464A286811280DD006DC0B2812
:1007E0002AD00E2838D00F2817D07CE0282873D0C4
:1007F000B0F5107F0AD076E09268002A08BF38BDB5
:10080000294601B02046BDE830401047526801B08B
:1008100029462046BDE8304010472546204604F0D2
:1008200019FC0090406E0468684604F0F3FC002C4C
:100830001CBF2846A04738BD204604F00BFC0090A2
:10084000683004F005FB009803216C3004F028FBAD
:10085000684604F0DFFC46E0E968486809680D294D
:1008600002D0202918D037E0002835DD4FF4807100
:10087000204615F0E5F8204604F0ECFB009090F8D7
:100880002850684604F0C6FC15F0020F1ED0012166
:10089000204616F0F0FE19E0002817DD25464FF43B
:1008A0008071204615F0CCF8284604F0D3FB009068
:1008B00090F82840684604F0ADFC14F0020F08BF21
:1008C00038BD0121284616F0D6FE38BD2046BDE8C9
:1008D0003840022121F090B9E86820B920464FF451
:1008E000807114F0ADFF2846BDE8384015F048BCD3
:1008F000D803002070B586B04FF0000CDDE90A4542
:100900000C9ECDE902C5CDE90046CDF810C000F03F
:1009100051F806B070BDF0B585B00AAF97E8701019
:10092000002704978DE8701000F044F805B0F0BD82
:1009300070B5044688B08069B4F908C0658A00269D
:100940000091CDE90165CDE903C0B4F90C00B4F91B
:100950001050C118B4F90A00B4F90EC010442B4667
:10096000624600F027F86468050020D006F082FE99
:10097000284604F06FFB0190866E01A8009604F0F3
:1009800049FC214668460BF09DFA70B10098B042D0
:1009900008D0284604F05EFB01900099816601A80A
:1009A00004F038FC284616F06FFD09F089FA08B00B
:1009B000284670BD2DE9F04F85B09846DDE91164F9
:1009C000DDE90E5791468A46834606F053FE04F150
:1009D0004C001749CDE90210CDE9005743464A467D
:1009E0005146584615F010FB05001BD004F032FBB1
:1009F00010223146049015F05BF90E4C0499B4E8CE
:100A0000CD133431A1E8CD1394E80D10A1E80D10F9
:100A100054F82C0D086004A804F0FCFB2068416821
:100A20002846884709F04CFA05B02846BDE8F08F03
:100A3000C1070008E4030020F0B5044680688C4933
:100A400089B051F820506068002800F00A8105281C
:100A500006D006287DD0122800F0B48000F004B93A
:100A6000E869002808BF002651D0D5E90012AB681C
:100A70008DE80F0004F110010FC90AF0D5FA002625
:100A800055F8260008F01DFEA169E8690A1A2169D7
:100A900001446069304406F025F9A169E8690A1A41
:100AA00021690144E069801B06F01CF9E169E869ED
:100AB0000A1A616901442069304406F0ADFAE1691F
:100AC000E8690A1A61690144A069801B06F0A4FA6A
:100AD000761C022ED4DBA86808F0F3FDE069E96912
:100AE000D4F814C0431A206942186144801C521E75
:100AF00006F01CFBE169E869A2690B1A616901440F
:100B0000101A401C921E06F011FBEE6911E055F818
:100B1000260008F0D6FDE069831BA069821B60698E
:100B200081192069304406F05FF9761C022EEEDB55
:100B30000226D5E90301CDE90001E16960690144BC
:100B40004B10A1698A1B811C2069304405F080FE8E
:100B500000E011E0D5E90501CDE90001E069616936
:100B6000831E01440122A06902EB6101821B2069FE
:100B7000304405F06DFE77E0206804F06BFA0490D5
:100B8000206817F01AFF50B1A068002818BF002095
:100B90000AD10498006F002818BF012004E00498CF
:100BA000406F002818BF0220049901EB8000C56E39
:100BB00004A804F02FFB00231A462846216805F0FC
:100BC000D1F851E0206804F045FA0490866E002EBA
:100BD00008BF04A842D0A168B0F95C70002908BF22
:100BE000012103D003290CBF0221002100EB810168
:100BF000406D0C6C08F08EFD204608F062FD06A8E2
:100C000006F0C2FBBDF81810A88B0144ADF818100F
:100C1000BDF81C10081AADF81C00BDF81A00801CA5
:100C2000ADF81A00BDF81E00801EADF81E00049835
:100C3000B0F96020B0F95E1006A807F0B7FF04A86D
:100C400004F0E8FA022008F0FFFD304604F002FA52
:100C50003A4606A9059005F0FFF905A804F0DAFA6E
:100C600002E0206817F078F809B00020F0BD00001D
:100C700084BA0E08044A0349116004494A6A48626A
:100C80001046704714040020D8030020E40300201D
:100C900070B505460C46104600210A4605F044F89A
:100CA000024621462846BDE87040AFF30080002888
:100CB00008BF7047F8B515460C46064606F0DAFC44
:100CC000304604F0C7F90090032C0BD200EB8400EF
:100CD0006C3004F0BDF8009800EB8400C566304627
:100CE00016F0D2FB684604F095FA09F0E9F8F8BD71
:100CF0002DE9F04707464FF0140838680F2845D112
:100D0000264808F0D3FC04F0AFFD0DF0DBFE2449CB
:100D10004988A0EB01090DF091FE21490988A0EB5B
:100D2000010A09EBD97042100AEBDA7041101C4835
:100D300005F0E8FA00240DF081FE814600EBD97041
:100D40004010022101FB180085B21CE01548006824
:100D5000A04201D1144800E014480646B6F80290BB
:100D600009EBD9704010C0F1FA02B6F800A00AEB06
:100D7000DA70A5EB6001304605F0C4FA601C84B25D
:100D800005EB080085B2052CE0DB03E0384615F0E2
:100D9000F7F900BF00BFBDE8F08700008080FF00CA
:100DA000A06F0E089C010020E8710E0844700E0828
:100DB00000BFFEE72DE9F04F0446006889B028B176
:100DC00017F0FBFD002808BF012500D00025FE48D4
:100DD00050F8256060680A2800F0738108DC00285C
:100DE00000F0DD81062841D007280CD000F0E8B9DA
:100DF000122800F03081192802BFB06909B0BDE89F
:100E0000F08F00F0DDB9256806F034FC284604F0C8
:100E100021F90090C76F684604F0FCF909F050F81A
:100E20005FF0000556F8250008F04BFC2069C11959
:100E3000491B4B1E61691A462944284405F0D4FF1A
:100E40006D1C032DEED3D6E90301CDE90001D4F8E2
:100E500010C00CEB0700401B431E60691A46411985
:100E60000CEB050005F0F4FC00F0AAB9A068401EE8
:100E70000690246806F0FEFB204604F0EBF8009094
:100E8000D0F87C80684604F0C5F909F019F8DFF85D
:100E90003C9359F82570002F1CBF069800EB80008A
:100EA0000DD000BFB7F84810414505D107EB8001D0
:100EB000896809B11FB1C4E0FF6C002FF2D1502046
:100EC00004F02CF8070000F07B81C14C5022002177
:100ED0002368984770697864A7F8488059F8250016
:100EE000F864BC48A8F1060880FB081049F8257092
:100EF0004110A1EBE071032008900120049007F15C
:100F00004000CDE90280069D05EB850007EB8000DF
:100F1000019005EB450007EB80002830009008EBBE
:100F2000D8704210401000EBD073A0EB630046185D
:100F3000501A059008F10700C11700EB51704FEAF5
:100F4000E00A0AFB08FB584603F0E8FF5FEA0009E5
:100F500077D023685A4600219847DDE9042001280C
:100F600026DD089B01213046334483421BDD4FEAD6
:100F7000E27C02EB5C7E02F0070C802424FA0CFC7D
:100F8000404509DA0AFB00F404EBEE0419F804B05A
:100F90004BEA0C0B09F804B06940401C834202DDA7
:100FA0000029F9D0ECE70598521C761C9042D8DC59
:100FB00004990298401A0490904225DD0899012076
:100FC00034463144A1421ADDD31702EB537E02F0BE
:100FD000070C802323FA0CF3444509DA0AFB04FCCE
:100FE0000CEBEE0C19F80CB04BEA030B09F80CB043
:100FF0006840641CA14202DD0028F9D0ECE70498A7
:10100000521C761E9042D9DC0098022101600099A2
:1010100001200871009A039991600199C880019894
:101020000021A0F804A00198C0F80890019801617F
:10103000DDE90001C860DDE9010101800198A0F847
:1010400002800698032200EB800007EB8000114627
:1010500005F058F9B4E0206803F0FCFF0290B0F905
:10106000547090F85650D0F84490D0F8348002A8CC
:1010700004F0D0F8266806F0FDFA304603F0EAFFE7
:101080000390B0F87C6003A804F0C4F808F018FFDF
:10109000684615F099FBBDF8000071190844ADF8D9
:1010A0000000246A404608F035FB022008F0CCFB23
:1010B000484608F006FB3A466946204604F0CCFF55
:1010C0007EE0206803F0C6FF0290B0F9548090F8EB
:1010D0005660D0F83490876C02A804F09BF825681D
:1010E00006F0C8FA284603F0B5FF0390B0F87C502C
:1010F00003A804F08FF808F0E3FE684615F064FBDF
:10110000BDF80000A9190844ADF80000206A06F0F7
:10111000D3F90446484606F0FDF928F003010429F6
:1011200004BFBDF80610091A08D00C2908D1BDF972
:101130000610091A491C01EBD1714910ADF80210D3
:1011400028F00C0101290CD0022913D1BDF904109B
:10115000BDF90020891A091B01EBD17102EB610175
:1011600006E0BDF80420BDF80010521A121B11440D
:10117000ADF80010BDF80010621E1144ADF8041067
:10118000BDF80210401E0844ADF80600384608F0CD
:1011900098FA4FF0FF31684605F02EF910E020680C
:1011A00016F0DAFD206803F055FF0790B0F906103D
:1011B000B0F90220891A491CC16707A804F02AF86F
:1011C00009B00020BDE8F08F94BA0E08E4040020B6
:1011D000D409002067666666044A03491160044921
:1011E000CA69C86110467047A0040020980A002010
:1011F0009C0A002000B589B0002000900290039066
:1012000004900590069007900890192001900448DA
:101210000068806841686846884709B000BD0000E2
:10122000980A002070B5234C054682B02068418C96
:10123000B0F84C2011444184818CB0F85020114406
:101240008184284606F07AF82168498CADF80010B0
:10125000461828460AF060FC3044401EADF80400F1
:1012600006F0E4F82168898CADF802100844401EAD
:10127000ADF80600684617F0E7F930B1284602F0ED
:1012800021F817F007F80028F8D10A2D04D0BDF88E
:1012900004002168401C48842068418CB0F84C2030
:1012A000891A4184818CB0F85020891A818402B057
:1012B00070BD0000EC0200202DE9FE4304460E46FE
:1012C000154620460AF054FF07460F4850F8240000
:1012D00007FB06080C4850F8240007FB050900210D
:1012E0000A4850F82400CDE900010948029150F85D
:1012F00024304A464146204600F0A6F9054840F809
:101300002450BDE8FE83000074000020840000200B
:10131000800000207C0000202DE9F04F85B00446BD
:101320000D4616461F46DDE90F8BDDF838A0204636
:101330000AF01EFF81461C4850F824001B4951F852
:10134000241009FB01001A4951F8241006FB015131
:10135000184A52F8242001FB02000490124850F869
:101360002400124951F8241009FB0100104951F8DA
:1013700024100AFB01710F4A52F8242001FB0200DD
:10138000039000210A4850F82400A0EB08004346CF
:10139000CDE900B002912046DDE9032100F054F9C7
:1013A00005B0BDE8F08F0000740000207C00002034
:1013B00080000020880000202DE9FE4F04460D46E5
:1013C00016461F46DDF8309005F0FAFF012810D1CF
:1013D0000022192120460EF0A1F94B463A4631462B
:1013E00028460DF0B7F9194A192120460EF096F952
:1013F0002AE0781B00F10108A9EB0600401C0290CE
:1014000020460AF0B5FE8246114850F824001149E2
:1014100051F824100AFB01000F4951F8241006FB73
:1014200001510E4A52F8242001FB020B0A4951F8DF
:101430002410A1EB08010D98CDE900104246594651
:101440002046029B00F030F9BDE8FE8FB91300087A
:10145000740000207C000020800000208800002014
:10146000F8B504460D4616461F4603203B46324655
:1014700029460090204600F0BFF9F8BDF8B50446B3
:101480000D4616461F4604203B463246294600902C
:10149000204600F0B1F9F8BDF8B504460D461646F1
:1014A0001F4602203B46324629460090204600F067
:1014B000A3F9F8BDF8B504460D4616461F460020B0
:1014C0003B46324629460090204600F095F9F8BD8B
:1014D000F8B504460D4616461F4600203B463246E8
:1014E00029460090204600F087F9F8BD1CB515F09C
:1014F0009FF90446002000902346044A02210190EF
:10150000034804F059FA034908601CBDFD5C020859
:10151000C0EA0A088C0100201CB515F089F90446C0
:10152000002000902346044A02210190034804F061
:1015300043FA034908601CBDA95D0208F8EA0A08DD
:10154000900100201CB515F073F9044600200090AE
:101550002346044A02210190034804F02DFA03496E
:1015600008601CBD6D5E020830EB0A089401002083
:101570001CB515F05DF90446002000902346044A8E
:1015800002210190034804F017FA034908601CBDCA
:10159000355F020868EB0A089801002010B54FF08B
:1015A00081510B4800F08AF980B1012109480BF004
:1015B0009FFA0021064800F013F94FF081510448CA
:1015C00000F0F4F8002004490968088010BD00000C
:1015D00040600240005C00402C00002010B514491F
:1015E000144800F06BF910B30021124800F0F8F82D
:1015F0000F49104800F0DAF84FF420400E49086017
:1016000007E00D490868411E0B4A116008B927F030
:10161000B2FC0A490A480BF077FA0028F1D0012100
:1016200007480BF065FA002006490968087010BDEC
:1016300020000020706002402800002004000010FC
:10164000005C0040300000202DE9F05F07460C46AA
:1016500015461E46DDE90B9ADDF8288038460AF06B
:10166000ABFD83464FF400700E4908600846C46025
:10167000C563C0F81090C0F840A0C0F81CB0404648
:1016800066F31F4048640846006840F001000860A7
:1016900000BF0448006800F001000028F9D1BDE84F
:1016A000F09F000000B002402DE9F04707460C46CD
:1016B00015461E46DDE9088938460AF07DFD82465A
:1016C0000E480F4908600846C0F83890C463C0F857
:1016D0004080C0F834A0304665F31F404864084697
:1016E000006840F00100086000BF0548006800F095
:1016F00001000028F9D1BDE8F087000000020300D6
:1017000000B0024010B500F001F810BD0220014900
:101710008860704700B00240704700002DE9F0413A
:1017200007460C4615461E4632460B4938460CF015
:10173000C5FB3246094920460CF0C0FB3346084A37
:101740000649054800F00EF83246294604480CF0D8
:10175000B5FBBDE8F0810000781D0020782C00204A
:10176000780E002030B50F4C0F4D2C602C46E060F9
:101770006161E26300242C61AC612C64EC616C62F9
:101780006C63012404EB03446C642C46246844F02D
:1017900001042C6000BF044C246804F00104002CF8
:1017A000F9D130BD0002020000B002400246094BF0
:1017B0009A4201D2084801E00648103801F000536F
:1017C0001BB1064B0B40C36002E0044B0B4083602F
:1017D0007047000010640240006002407D0F7D0FE2
:1017E00021B1026842F00102026003E0026822F0C7
:1017F00001020260704700002DE9F84305460E46DD
:1018000014469846089F2246064928460CF060FB7D
:101810003B46002231460348009400F005F8BDE83D
:10182000F8830000780E002070B5049C4FF48135D9
:101830000D4E35603546E860E96300253561356455
:101840003546EA616B63012505EB04457564354651
:101850002D6845F00105356000BF034D2D6805F08A
:101860000105002DF9D170BD00B00240F0B505AC06
:1018700070CC4FF48137DFF840C0CCF80070674679
:10188000F860F9633A613B640527CCF81C70674641
:101890007C6346EA0547CCF8447067463F6847F0EA
:1018A0000107CCF8007000BF034F3F6807F0010745
:1018B000002FF9D1F0BD000000B0024030B5034662
:1018C0000A46002000240B4DAB4201D20A4901E038
:1018D0000849103902F000550DB14C6800E00C6861
:1018E000064D2C4004EA02050DB1012000E0002065
:1018F00030BD000010640240006002407D0F7D0F8B
:101900002DE9F84305460E4614469846089F0023E5
:101910003A46064928460094FFF786FF224631469C
:1019200002480CF0D5FABDE8F8830000780E0020DC
:10193000074AD0624A1ED2B2012343EA0222044B74
:10194000DA611A46D26942F02002DA61704700007B
:1019500000B002401EB5034601F07F40B0F17F4F5A
:1019600001D118461EBD83F07F40029081F07F4078
:1019700001901548154C206002A8E06001A8606144
:10198000C4F83CD04FF4803040EA0260E061C2F11C
:10199000FF00002444EA00600C4C60620020606399
:1019A0004FF0011060642046006840F001002060A4
:1019B00000BF0648006800F001000028F9D1009837
:1019C00080F07F40CEE700000002020000B002403D
:1019D00070B5049C124D134E35603546E860696160
:1019E000EA634FF4803545EA0365F561C3F1FF050D
:1019F000002646EA05650B4E7562002575630125D4
:101A000005EB0445756435462D6845F001053560E4
:101A100000BF044D2D6805F00105002DF9D170BD02
:101A20000002020000B002402DE9F041044688B0F7
:101A3000006803F00FFB0690468ED0F8885006A889
:101A400003F0E8FB002D18BF012506F00106206811
:101A500016F0B3FF002D18BF00200FD07D4951F8BC
:101A600020506068002800F0EE80022800F0CE8050
:101A700005280CD012287DD000F0E8B8002E18BF41
:101A80000120EBD1002814BF02200320E6E7D5E9AE
:101A90000123A86A29688DE80F0004F110000FC81F
:101AA00009F0C2FA5FF0000655F8260007F009FEBB
:101AB000A169A86A0A1A216901446069304405F0E5
:101AC00011F9A169A86A0A1A21690144E069801B19
:101AD00005F008F9E169A86A0A1A616901442069F8
:101AE000304405F099FAE169A86A0A1A616901446B
:101AF000A069801B05F090FA761C022ED4DBA86A40
:101B000002281BDDA86807F0DCFDE169A86AD4F8AB
:101B100010C00B1A0CEB00014A1E616901440CF164
:101B2000020005F003FBE169A86AA2690B1A61696A
:101B30000144101A401C921E05F0F8FAD5E9030181
:101B4000CDE90001E1696069A26901444B10A96A0D
:101B5000D4F810C0521A8C44811C604604F078FE00
:101B6000D5E90501CDE90001A069AB6A6169C21A36
:101B7000E06900E019E001444FF0010C0CEB610159
:101B8000D4F810C09C44831E604604F061FE686A6D
:101B900007F097FDE2696169A369501A181A401CA1
:101BA000091D121F05F038FA50E0206803F052FAC0
:101BB0000090B0F88060B0F98280C76C684603F08E
:101BC00029FB208AB11C0844ADF80800A08A801CBB
:101BD000ADF80A00A08BA18A401A218B891B081A34
:101BE000C01EADF80C00A08B801EADF80E000220C8
:101BF00007F02AFE384607F08DFD286A07F061FDE0
:101C0000424602A9206A04F027FA1FE06169E069F0
:101C10004FF0FF32401AA0F1080102EB6106411CAF
:101C2000A269801B4410A2EB6107E86907F049FD37
:101C3000002E0BDBBA19B91B204605F053F8641CC3
:101C4000761EF7D502E0206816F086F808B000206E
:101C5000BDE8F0819CBA0E08044A034911600449AA
:101C60000A6B086310467047EC040020D80A002075
:101C7000DC0A002038B50D46002403F0EBF9009093
:101C8000C06B294603F0A0FB0546684603F0C2FA84
:101C90001DB1284603F0DEF90446204638BD7047E2
:101CA00010B5024600200023102A03D14FF0204433
:101CB000636E0FE0B2F5807F02D10A4C236809E021
:101CC000B2F5805F03D1074C2034236802E0054C55
:101CD000D434236803EA01048C4201D0002000E0E0
:101CE000012010BD840000A00021D0E900231A4388
:101CF00083685B1E42EA4312C36842EA4321014AF9
:101D000011607047500100A070B50022002100232F
:101D100000240568AD00A5F1C045D5F840216FF35A
:101D20000E02D0E901563543C6683543066935438E
:101D30004669354386693543C6693543066A354386
:101D4000466A35432A43056835B90568AD00A5F1F3
:101D5000C045C5F8402111E03B4D2B686FF30E03E1
:101D6000D0E907563543466A35432B43364D2B6041
:101D70000568AD00A5F1C045C5F84021056875BBF3
:101D8000314D0835066855F8261001F07041856A16
:101D90002D686D1E866A7668761E45EA0616856A87
:101DA000AD686D1E46EA0526856AED686D1E46EA39
:101DB0000536856A2D8A6D1E46EA0546856AAD8A16
:101DC0006D1E46EA0556856A2D7E6D1E46EA05653E
:101DD00029431D4D0835066845F8261032E0FFE717
:101DE000194D0835066855F8261001F07041856ACE
:101DF0002D686D1E866A7668761E45EA0616856A27
:101E0000AD686D1E46EA0526856A2D8A6D1E46EA76
:101E1000054529430C4D08352C6804F07044856A4B
:101E2000ED686D1E2E03856AAD8A6D1E46EA055566
:101E30002C434FF02045C5F84841034D083506684E
:101E400045F8261070BD0000400100A00449096853
:101E500041EA40014FF02042C2F85411704700009F
:101E6000540100A02DE9F04389B0984615460F466D
:101E700006004FF0000423D000F0C8FC04463046B2
:101E800000F0A4FC814605F0F5FB03A9304600F004
:101E9000B5FF17F0010F17D0BDF91C008221001B00
:101EA000401B401C0096CDE9018123461A46494655
:101EB000FEF720FD0446002113F0EAFD08F000F8CB
:101EC00009B02046BDE8F083BDF9180017F0020FF5
:101ED000284414BF40F202210221E3E710B5052394
:101EE000FFF7C0FF0446054A0021FEF7D1FE044972
:101EF000204615F08FFD204610BD0000E5B001081A
:101F00001B60020810B50723FFF7ACFF0446054A23
:101F10000021FEF7BDFE0449204615F07BFD20465A
:101F200010BD000045B201087561020810B5082314
:101F3000FFF798FF0446054A0021FEF7A9FE044971
:101F4000204615F067FD204610BD0000C5B401080D
:101F5000AD6102082DE9F047446805468EB04FF0A8
:101F60000008204603F076F80090B0F87CA0D0F886
:101F70006890D0F88070D0F88860C06D002818BFD5
:101F8000D0F80080684603F045F956B171682846DC
:101F9000884700281CBF0EB0BDE8F0873668002EC9
:101FA000F4D12868172802BFC5F80C900EB0BDE820
:101FB000F08713DC0F2844D00ADC0B2800F0538193
:101FC0000D2808BF1AF0080F00F0F68000F054B991
:101FD000112814D0142870D000F04EB926286DD0E6
:101FE00006DC1E286BD0202800F0F08000F044B9F9
:101FF0002A2818D0B0F5107F2AD000F03DB920462D
:10200000EE6803F027F80190717A002904BF317A55
:10201000012905D1B0F87C1041F48071A0F87C1042
:1020200001A800F0FDB8204603F014F80090E9681C
:10203000002912BFC0F88410D0F88400E860684618
:1020400049E0B8F1000F1CBF2046C04700F014B9AA
:1020500027462046EE6802F0FDFF0190B0F87C4074
:1020600001A803F0D7F8E868002804BF0EB0BDE867
:10207000F087307A20B314F0080F04BF384615F00B
:102080006DFD384613F018FF14F0100F12BF14F452
:10209000807F0EB0BDE8F087002314F0800F1CBFD6
:1020A0000EB0BDE8F08779483146B0F900203846D7
:1020B00015F0F2FC0EB0BDE8F0870FE018E024E068
:1020C000384602F0C7FF0190B0F87C1021F480710F
:1020D000A0F87C1001A803F09DF8EBE705A92046C5
:1020E00000F08CFEDDE90612E86801604260E1E77D
:1020F000E8680228DED10C94E8680D9027200A9049
:102100000AA9A86816F082FED4E7E868012819D069
:10211000002CCFD005F0AEFA204602F09BFF0190D4
:10212000B0F87C1011F0080F06D021F00801A0F8DB
:102130007C10204615F0A8F901A803F06BF807F011
:10214000BFFEB7E7384615F017FA58B1384615F014
:1021500005FD384615F076F888B10121384613F0B0
:102160006FFC0CE0484615F075FD0746204602F06E
:1021700071FF0090C0F88070684603F04BF8B4B16E
:1021800005F078FA204602F065FF0290B0F87C1066
:1021900011F0080F06D141F00801A0F87C1020468C
:1021A00015F072F902A803F035F807F089FE002F48
:1021B00004BF0020E8607DE7E868C06800281FBF12
:1021C000007A0028204615F0C9FC55E0EE684EB3B1
:1021D0002146706816F0DAFB00282746204622D0F8
:1021E00002F038FF0490B0F87C1011F0080F06D10F
:1021F00041F00801A0F87C10384615F045F904A814
:1022000003F008F82146706816F0ACFB50B1204688
:1022100002F020FF02907168C0F880100DF10800F4
:1022200002F0F8FF28E002F015FF0490B0F87C10EF
:1022300011F0080F06D021F00801A0F87C103846F4
:1022400015F022F904A802F0E5FF2146306816F0E7
:1022500089FB88B1204602F0FDFE02903168C0F88B
:10226000801002A8DCE7204602F0F4FE00907030F7
:1022700002F0EEFD6846D3E72946204613F015FB31
:1022800000281CBF284613F07BFF13E7A805002099
:1022900070B588B0B0F908400DF10C0E0C9ED0F866
:1022A00018C045688EE87010B0F812C00024CDE95F
:1022B0000014CDF808C0B0F90C10B0F91040B0F916
:1022C0000EC0B0F90A00194410442346624600F0DB
:1022D00003F808B070BD00002DE9FF4F8BB09946A0
:1022E000DDE91885DDE91B6792468B461E9C05F0EB
:1022F000C1F904F16000444945F48055CDE902106C
:10230000CDE900854B46524659460B9813F07CFEAA
:10231000040073D002F09EFE30223146049013F088
:10232000C7FC3A4E049A06F1080102F1340E91E816
:102330000B1F8EE80B1FD6E90A01C2E915011D9893
:1023400050661A98A2F87C004FF00008C2F880800E
:10235000C2F86C80C2F888807068D06504A802F06A
:1023600059FF05A9204600F049FD294841F2827134
:10237000CDF80C800094CDE90110BDF91E00BDF927
:102380001A10BDF91C20401A431CBDF91800121A7E
:10239000521C13F039FE8046706841682046884719
:1023A000204602F057FE0490C0F8688004A802F0AE
:1023B00031FF42F20400054204BF204614F00FF83A
:1023C00005F058F9204602F045FE0090006F01909C
:1023D000684602F01FFF394601A809F073FD58B1A5
:1023E000204602F037FE009001990167684602F02E
:1023F00011FF204615F048F807F062FD07F060FD78
:102400000FB02046BDE8F08F551F0008A80500203A
:10241000BB3100082DE9F041044698B0006800F097
:10242000BDF9002814BFDB4DDB4D6068152802BFE5
:10243000A86A18B0BDE8F08112DC0B282AD007DCAE
:10244000002800F09281052800F02C8100F09DB951
:102450000E2800F07781122800F03B8100F095B93A
:10246000162802BFE86918B0BDE8F081172802BF3E
:10247000286A18B0BDE8F081182802BF686A18B051
:10248000BDE8F0811C2802BF686918B0BDE8F08182
:1024900000F07BB920680E901C200F90206802F09D
:1024A000D9FD0390016D0EA88847064603A802F0E7
:1024B000B1FE022E11DBD5E90001AA680292CDE936
:1024C0000001D4E904023346A16908F0ABFC20699D
:1024D0008719A069A0EB06082CE0286807F0F1F83E
:1024E0002169E8690844421E606904F0FBFBA269A7
:1024F000E869101A411C606904F0F4FB6069471C2C
:102500003946206904F048FC3946A06904F044FCCF
:10251000686807F0D6F820693946401C04F03CFC96
:10252000A0693946401E04F037FC2069871CA06969
:10253000A0F10208286807F0C4F8424639466069ED
:1025400004F0D0FB686807F0BCF860694246394681
:10255000401C04F0C7FB686A02287DDDA86807F00C
:10256000B0F860696A6A811C1044431E42463846CE
:1025700004F0DCFD6069022EACBF0644861CE069F5
:10258000471E286807F09DF83A463146206904F056
:1025900043FD3A463146A06904F03EFDE069871EDE
:1025A000686807F08EF820693A463146401C04F00E
:1025B00033FDA0693A463146401E04F02DFDE8691E
:1025C0000228DCBF286A022820DDA86A0228C7BFCB
:1025D000E1690F1AE069871EA86807F072F8E969D7
:1025E000022907DD22693B46901C11444A1E3146F0
:1025F00004F09CFD286A022808DDA169E8698A1EAA
:10260000081A3B463146401C04F090FD286807F04C
:1026100058F8D4E90620216904F064FB686807F0E3
:1026200050F8A069421E2069411CE069401E04F078
:1026300059FBA86A02284BDD21698E1CA1698F1EF7
:10264000E169081A441CA1F10208A86807F039F8EA
:1026500043463A46214600E003E0304604F066FD7A
:1026600093E0296AB14285DD6069022E00F102081B
:10267000ACBF871947462069ACBF3044801C226933
:102680003B461144A1F10102414604F04FFDA0690F
:10269000022EACBF821B821EE9693B46401A4146AE
:1026A000401C65E7208A00B2ADF81800A18A09B283
:1026B000ADF81A10228B12B2ADF81C20A38B1BB2FE
:1026C000ADF81E30D5E9034CCDE9004C04F0C0F85C
:1026D0005BE0208A298B0844ADF81800A08AADF889
:1026E0001A00208B298B401AADF81C00A08BADF886
:1026F0001E00206802F0AEFC0390006FF0B10220D3
:1027000007F0A2F8039991F87C00C0F3C00001EB38
:102710008000006C06F0D5FF0398406B06F0FAFFCE
:102720000398006F02F096FC03990A90B1F95A20C1
:1027300006A903F091FC0AA802F06CFD03A802F0C0
:1027400069FD22E0208AADF81800A08AADF81A00D1
:10275000208BADF81C00A08BADF81E00A86806F019
:10276000B0FF06A804F00EFD0FE0206802F072FC36
:102770000390B0F85A1041F00C01A0F85A1003A8C9
:1027800002F048FD206815F0E7FA18B00020BDE817
:10279000F0810000EC0500201806002038B5050087
:1027A0004FF0000410D004F065FF284602F052FC00
:1027B000009090F87C0010F0080F18BF01246846C4
:1027C00002F028FD07F07CFB204638BD38B5050037
:1027D0004FF0000411D004F04DFF284602F03AFCFF
:1027E0000090C06D0021806802682846904704462A
:1027F000684602F00FFD07F063FB204638BD00007D
:102800000148406970470000B005002030B587B02E
:1028100005004FF0000414D004F02CFF01A9284655
:1028200000F0ECFA284602F015FC0090B0F9544094
:10283000684602F0EFFC002C08BFBDF9044007F029
:102840003FFB07B0204630BD002808BF70472DE988
:10285000F04184B0064604F00DFF304602F0FAFB6A
:102860000190304602F0F6FB009090F87C1011F0D9
:10287000400F3ED0B0F90610B0F90220891A4C1C66
:10288000B0F97A10B0F97600081A451C684602F0D3
:10289000C1FC2A1B0021304614F062FF304602F0D2
:1028A000D9FB0090806E15F02DFB0098C06E15F0DE
:1028B00029FB304600F046FC00980825B0F87C1053
:1028C00021F04001A0F87C10C46994B1204602F0C8
:1028D000C1FB0290204614F054F8A84204BF2046E1
:1028E00014F0D2FD0298046A02A802F093FC002CB6
:1028F000ECD1684602F08EFC019890F87C1011F043
:10290000800F07D001A802F085FC04B0BDE8F041BB
:1029100007F0D6BA806902F09DFB0290D0E90074FE
:10292000806938B90CF08AF860F30F040CF0CAF82B
:1029300060F31F4402A802F06DFC01984FF00708F5
:10294000D0E90012C0E91D12B0F87C1041F08001FE
:10295000A0F87C10C56995B1284602F07BFB009079
:10296000284614F00EF8404504BF284614F08CFDAC
:102970000098056A684602F04DFC002DECD101A8D4
:1029800002F048FC3A1439B215460F46304614F0AE
:1029900046FEC5EB2440421C20B2C01B411C304601
:1029A00015F07AFA304600F0CDFBAEE7002808BFFC
:1029B00070472DE9F04188B0064604F05BFE3046D2
:1029C00002F048FB0590304602F044FB019090F87D
:1029D0007C1011F0800F31D0D0E91D140A1409B217
:1029E00015460F46304614F01AFEC5EB2440421C33
:1029F00020B2C01B411C304615F04EFA304600F0A4
:102A0000A1FB01980725B0F87C1021F08001A0F807
:102A10007C10C46994B1204602F01CFB0090204653
:102A200013F0AFFFA84204BF204614F02DFD00981C
:102A3000046A684602F0EEFB002CECD101A802F01B
:102A4000E9FB059890F87C1011F0400F07D005A81D
:102A500002F0E0FB08B0BDE8F04107F031BAB0F990
:102A60000610B0F90220891A01F1010800F06AFA93
:102A700001460598C26A126801EB42018F1CD0E939
:102A80000012C0E91D12806E14F0EAFB0598C06EBA
:102A900014F0E6FB05980825B0F87C1041F04001E1
:102AA000A0F87C10C46994B1204602F0D3FA0290D9
:102AB000204613F066FFA84204BF204614F0E4FC51
:102AC0000298046A02A802F0A5FB002CECD105A82C
:102AD00002F0A0FBA7EB08020021304614F040FEF4
:102AE000304600F02FFBB5E7002808BF7047F0B56F
:102AF00085B0054604F0BEFD284602F0ABFA009012
:102B000090F87C1011F0400F3ED0B0F90610B0F9EB
:102B10000220891A4C1CB0F97A10B0F97600081A14
:102B2000461C684602F076FB321B0021284614F052
:102B300017FE284602F08EFA0090806E15F0E2F93A
:102B40000098C06E15F0DEF9284600F0FBFA0098F8
:102B50000826B0F87C1021F04001A0F87C10C46970
:102B600094B1204602F076FA0190204613F009FF56
:102B7000B04204BF204614F087FC0198046A01A803
:102B800002F048FB002CECD1684602F043FB2846DB
:102B900002F060FA019090F87C1011F0800F31D0B3
:102BA000D0E91D140A1409B217460E46284614F03F
:102BB00036FDC7EB2440421C20B2801B411C284636
:102BC00015F06AF9284600F0BDFA01980725B0F81B
:102BD0007C1021F08001A0F87C10C46994B12046DB
:102BE00002F038FA0090204613F0CBFEA84204BF52
:102BF000204614F049FC0098046A684602F00AFB7B
:102C0000002CECD101A802F005FB05B0BDE8F040B6
:102C100007F056B9064A0549074B1160054AD169C4
:102C200058601B68C2E9063008467047E00500207E
:102C3000AC050020B0050020D80500202DE9F043A8
:102C400083B00D46064604F015FD002E34D0304604
:102C500002F000FA0190C16D00248F6890F83210E4
:102C600011F0200F06D0B0F954401CB9406B04F0AD
:102C700051FC841C0198456301A802F0CBFA3A6824
:102C800001213046904780463B68032130469847F3
:102C90008146D7F800C000213046E047054630465F
:102CA00000F050FA4B46424621463046009500F06F
:102CB000C8F9304614F0E8FB07F002F903B0BDE8AC
:102CC000F083002808BF704730B583B00D46044636
:102CD00004F0D0FC204602F0BDF90090006F019096
:102CE000684602F097FA294601A809F0EBF858B1B6
:102CF000204602F0AFF9009001990167684602F0A2
:102D000089FA204614F0C0FB07F0DAF803B030BDB2
:102D1000002808BF704738B50C46054604F0AAFCE9
:102D2000284602F097F90090B0F95A10A14204D059
:102D3000A0F85A40284614F0A7FB684602F06AFA49
:102D400007F0BEF838BD002808BF70472DE9F043F2
:102D500083B00C46804604F08DFC404602F07AF9C0
:102D60000090428E002C114614BF41F0200621F045
:102D70002006B2423AD04686404600F0E3F9009D74
:102D8000EC690CB3204602F065F90190076AB0F9CE
:102D90000200B5F90210A0EB010901A802F03AFA0D
:102DA000B5F9560048450DD1A86EA0420AD095F855
:102DB000320010F0200F204602D015F0A3F801E0F9
:102DC00014F04EFA3C00DDD1009890F87C0010F031
:102DD000400F08D016F0200F404602D015F092F8B0
:102DE00001E014F03DFA404614F04EFB684602F054
:102DF00011FA07F065F803B0BDE8F0832DE9F04F54
:102E000000278DB00C468146BA4602F023F90190A6
:102E1000C06D0121856848462A68904780462A6827
:102E200003214846904707902A6802214846904768
:102E300006902A680021484690470646019815F0FA
:102E4000F5FB0590019815F0F8FB8346019890F882
:102E5000321001F02001002918BFB0F958A04FF03E
:102E6000000506D0B0F954501DB9406B04F052FB78
:102E7000851C0198C06E10B113F088FF07462580AD
:102E80006780A4F8048007990598401A06EB0A01A8
:102E9000401E294420813944E1800699ABEB0101B1
:102EA000491E6181A4F80C8020827019E681401EC1
:102EB000608201A802F0AEF9B4F90C70B4F91060A8
:102EC0004D46484602F0C6F80690C16DD0F8008025
:102ED00006A8D1F8089002F09DF9D9F80020002149
:102EE000284690478146284613F01DFD050024D052
:102EF00002F0B0F80790B0F900200FFA88F1B0F9AD
:102F00000430521A5B1AB0F90210A1EB284149456E
:102F10000BD190F8280010F0800F03D09642A8BF84
:102F2000561E02E09F42D8BF5F1C07A802F072F94C
:102F3000284613F0BCFD0500DAD1A78126820DB02A
:102F4000BDE8F08F10B50146002091F8322012F054
:102F5000200F08BF10BDB1F95400002818BF10BDE4
:102F6000486B04F0D7FA801C10BD70B58AB00E46CD
:102F7000044602F06FF80990C06D856809A802F058
:102F800049F90094002E08BF18200BD0012E08BF6D
:102F9000162007D0022E08BF152003D0032E08BF2D
:102FA000172000D101906968684688470AB070BD53
:102FB0002DE9F04383B017468846814602F04AF86F
:102FC0000090C16D056868468C6802F023F922689C
:102FD0000021484690470646484613F0A4FC0400EA
:102FE00004BF03B0BDE8F08302F034F80190B0F9FB
:102FF00000102AB2B0F90430891A9A1AB0F90230D6
:10300000A3EB2543B34211D190F8280010F0800FB4
:1030100005D038688842A4BF481E386006E0D8F85A
:1030200000009042DCBF501CC8F8000001A802F06C
:10303000F1F8204613F03BFD0400D5D103B0BDE804
:10304000F0832DE9FF4F85B09A4691460F46DDF893
:1030500048B0059801F0FEFF0390C16D8C68FFF742
:1030600071FF064603A802F0D5F8226801210598F1
:1030700090470290226803210598904701902268AA
:103080000021059890470546BE4204BF0298484576
:1030900006D10198504502BF5D4509B0BDE8F08FEB
:1030A000A6EB07044FF00007B846059813F03BFC69
:1030B000060004BF09B0BDE8F08F0198A5EB0B0531
:1030C000AAEB000A0298A0EB0909304601F0C2FF02
:1030D0000090806A10F0800F03D010F4007F06D0BB
:1030E00025E010F4007F22D010F0800F1FD124B112
:1030F00022461146304614F033FB009890F8280021
:1031000010F0800F06D004FB17A12A4630467F1C22
:1031100014F0A2FA0098008D10F4007F07D004FB91
:1031200008912A46304608F1010814F095FA6846DD
:1031300002F070F8304613F0BAFC0600C5D109B0B1
:10314000BDE8F08F70B586B0064601F083FF0590AC
:10315000D0E91A4505A802F05DF854EA050004BF5D
:1031600006B070BD69463046FFF748FEACB1BDF908
:103170000620BDF90410204614F01AFABDF90A0021
:10318000BDF90610401A421CBDF90800BDF9041033
:10319000401A411C204614F07FFE002D04BF06B0EB
:1031A00070BDBDF90600BDF90210421ABDF9041048
:1031B000284614F0FDF906B070BD2DE9F043044631
:1031C000406889B0054613F0A7FC814601F042FF34
:1031D0000290D0F88080876C466E02A802F01AF840
:1031E0002068172862D008DC0E2850D00F2816D08F
:1031F000142818BF152859D052E01E2829D01F289E
:103200003ED0222802BFE76009B0BDE8F083312834
:1032100001BF0020E06009B0BDE8F08340E06FF03E
:103220007040874204D038460CF02CFA02F01CFBA8
:10323000002E04BF09B0BDE8F083D4E90212206873
:10324000CDE90405CDE9061204A8B04709B0BDE8F0
:10325000F083E068002804BF09B0BDE8F083B8F14E
:10326000000F18BFA84505D0404614F077FC09B000
:10327000BDE8F083284614F0EDFC09B0BDE8F0830A
:103280002146484612F011FB09B0BDE8F083E06822
:103290004168002904DD00680928EBD00A280BD01A
:1032A000002E1CBFC4F804902046CED1204612F058
:1032B00067FF09B0BDE8F083284614F015FD09B09A
:1032C000BDE8F08370B5154C05460A2813D00D2DC6
:1032D00008BF70BD04F0CEF92068C06901682846B7
:1032E00088470F48016800291CBF28468847BDE869
:1032F000704006F0E5BD04F0BDF904F0BBF92068AC
:10330000C069457E06F0DCFD2068818C29448184FB
:10331000018C4184BDE8704006F0D2BDEC02002073
:103320002C0300202DE9F84F0F46DDF828900646C3
:10333000941BA3EB0708D9F800504FF0000A54EA99
:10334000080063D0002CD4BF60422046B8F1000FC3
:10335000CCBF4146C8F1000188420ADA2046444603
:10336000804630463E46074610461A4603464FF012
:10337000010A002CCCBF20466042A04208BF0120B9
:1033800008D03046164602466442C8F100081F467F
:103390004FF0FF300090C448C449B8F1000FD0F896
:1033A00000C01CBF04EBD4724FEA620BB8BFCBF174
:1033B000000B30D09CF81A20002A00F0FA80009A06
:1033C000002ABCBF2A19C9F800200025002CC0F231
:1033D000458100BF08FB05B090FBF4F0C219D9F895
:1033E000001000980844B049C9F8000009688B7EB5
:1033F000012B00F00081022B00F00781032B00F06D
:103400000D81042B00F03A8100F019B93046BDE877
:10341000F84F00F08DBABAF1000F62D09CF81AC0D4
:10342000BCF1000F14D04FF00008002CA4BF8A4656
:10343000834640DBDBF8001028466D1C8A7E012A9B
:103440000CD0022A14D0032A1BD0042A35D027E03E
:1034500031463846BDE8F84F0BF04AB9801DC21717
:1034600000EB127222F00F02801A0C281FDB17E00B
:10347000C21700EB927222F00302801A022816DBB8
:103480000EE08AFB0032D310A3EBE272524202EB51
:10349000820200EB82000C2809DB1038022806D3D8
:1034A000496E06EB08004A6801463846904708F125
:1034B0000108A045BEDD681EDCE07D4A82FB0032CB
:1034C0009310A3EBE272A2EB820200EBC2000C2885
:1034D000EDDBA0F11002022A24BF14380228E6D343
:1034E000DEE79CF81A80B8F1000F14D04FF0000806
:1034F000002CA4BF8A46834642DBDBF80010284636
:103500006D1C8A7E012A0FD0022A17D0032A1ED0F2
:10351000042A3AD02AE0DCF864003946036801B096
:103520003046BDE8F04F1847801DC21700EB1272FD
:1035300022F00F02801A0C281EDB17E0C21700EBE6
:10354000927222F00302801A022815DB0EE08AFB39
:103550000032D310A3EBE272524202EB820200EB84
:1035600082000C2808DB1038022805D3496E06EBD0
:1035700008004A683946904708F10108A045BCDDBB
:10358000681EC9F80000BDE8F88F494A82FB003286
:103590009310A3EBE272A2EB820200EBC2000C28B4
:1035A000EADBA0F11002022A24BF14380228E3D378
:1035B000DCE70025002CACBF8146BDE8F88F00BFDA
:1035C00008FB05B090FBF4F03844BAF1000F0AD0C4
:1035D000D9F800207119526E526890476D1CA542AF
:1035E000EEDDBDE8F88FD9F800107319496E4A680E
:1035F00001461846F1E7801DC31700EB137323F053
:103600000F03C01A0C2825DB19E0C31700EB9373D6
:1036100023F00303C01A02281CDB10E0234B83FBBA
:1036200000C34FEAE30CACEBE3735B4203EB8303B1
:1036300000EB83000C280DDB103802280AD3496EFA
:10364000BAF1000F06EB05004B680EBF11460146AC
:10365000104698476D1CA5427FF7BCAE0098002825
:1036600004DAD9F800002044C9F80000D9F80010A5
:103670000098081AC9F80000BDE8F88F0C4B83FBCE
:1036800000C34FEAA30CACEBE373A3EB830300EBA3
:10369000C3000C28DEDBA0F11003022B24BF14387A
:1036A0000228D7D3CBE70000EC02002067666666ED
:1036B000ABAAAA2A2DE9F047DFF86892804684B0C9
:1036C000D9F800000F460C99007E1D4616460128C9
:1036D00000F0CE80A8EB060C7C1B5CEA040104BF62
:1036E00004B0BDE8F087421E0021BCF1000FBCBF52
:1036F0000121CCF1000C002CBCBF41F0020164425E
:10370000644504DD20466446844641F00401A0027D
:103710000CEBDC7300EB630090FBFCF08010824C40
:103720004FEA201C00F00F0034F81C30C0F11000EC
:1037300013FB00F3102807D004EB4C0CC0F1100071
:10374000BCF802C01CFB003303F10800C31700EBF8
:103750001370001111F0040F18BFC0F5806011F054
:10376000010F18BFC0F5006011F0020F18BFC0F5BF
:10377000805000F5806100F50060C0F30B004FF051
:10378000000AB0F5006FC4BF4FF0010AA0F5006059
:10379000B0F5806FC8BFC0F500604FEAA01C634B56
:1037A00000F03F00C0F1400033F81C404443402883
:1037B00018BFBCF1100F07DA03EB4C0CC0F140004E
:1037C000BCF802C00CFB004404F120008009BAF1EF
:1037D000000F18BF404200FB02FC0024C1F30B00A5
:1037E000B0F5006FC4BF0124A0F50060B0F5806F94
:1037F000C8BFC0F50060811100F03F00C0F140007B
:1038000033F811A040280AFB00FA18BF102906DA85
:1038100003EB4101C0F14000498801FB00AA0AF115
:1038200020008009002C18BF404200FB02F1BCF1CF
:10383000000FB4BFCCF500700CF500704FEAA0206B
:10384000B8BF40420029BDBFC1F500718912C1F166
:10385000000C01F50071A8BF4FEAA12C00280FDD74
:10386000411C01EBD171491000EBD07042100EE009
:10387000009139464046FFF755FD04B0BDE8F0879A
:1038800000EBD071401E491000EBD0704210BCF12B
:10389000000FC6BF0CF1010000EBD0700CEBDC7028
:1038A0004FEA6000CEBF0CEBDC73ACF1010303EB1D
:1038B000D3735B1008EB010CADF800C007EB000CF4
:1038C000ADF802C0A8EB020CB21AADF804C0ADF816
:1038D00008203144A7EB030CEA1AADF80C10284479
:1038E000ADF80A20ADF80E000023ADF806C01A4668
:1038F0000421684600F08EF8D9F800204046394689
:10390000527E002A08BF00F013F83046D9F8002094
:103910002946527E002A08BF00F00AF804B0BDE82C
:10392000F0870000EC020020F6BE0E08D4BE0E08A0
:10393000064A13681A7E012A05D0521E02EBD27283
:10394000521000F005B85A6E52681047EC02002081
:103950002DE9F84F06460F4640F2C32050434FF47E
:103960007A7190FBF1F000F1010A02FB02F002EB28
:10397000D271DFF89C8000EB61000090D8F8001055
:1039800014463244496E301B0B683946984701256E
:10399000BAF1010FB8BFBDE8F88F00BF05FB05F015
:1039A00004FB0400009988421ADD544517DDD8F85D
:1039B000003006EB050BA6EB05095B6EABF10102CF
:1039C00039191B6809F101009847D8F80030ABF1AC
:1039D0000102391B5B6E09F101001B689847641EE8
:1039E000D8F80030321979195B6E301B93461B688A
:1039F00081469847D8F800305A46791B5B6E484696
:103A00001B6898476D1CAA45C8DABDE8F88F00000E
:103A1000EC0200202DE9FF4F83B0074643F6FF7408
:103A2000C4F1000090460E1E0090C4BFBA1C0846A8
:103A30000EDD00BFB2F90010A142D8BF0C46009BBA
:103A40009942D8BF19460091401E02F10402F1D1FB
:103A50008C490868406970B1B0F90630069A9B1A23
:103A6000009A9342C0F20281B0F90230069A9A1A83
:103A7000A24200F3018100988442D2BFA6F101095D
:103A800007B0BDE8F08F00207F490546002E086092
:103A9000C4BF069804EB000A7EDD4D45B4BF6A1C26
:103AA000002207EB850C07EB8201BCF90200B1F99B
:103AB0000230A04255D1A34213D137F92500514617
:103AC00000EB080337F922006E4A40448342126833
:103AD000526ED2F800C0BABF024618461A46E047F6
:103AE00087E000222946B9F1000F0CDD002914BF40
:103AF000491E711E07EB8100B0F90200A04203D1FC
:103B0000521C4A45F2DB2046A04272D0001B37F916
:103B100025101A1B90EA020F09D45A4A01EB08003B
:103B200051461268526E13680246984761E0DFF80A
:103B300058B1DBF800C0BCF10C0F5ADA0020BCF120
:103B4000000FC4BF6046514A4CDD00BF02EB40038A
:103B500033F9023C8B4245DB22F81030401EF5D190
:103B600040E0A34245D0A8BF844203DAA042A8BFE8
:103B70009C423EDB98424EDC0246A042DFBF184624
:103B80008442BCF90030B1F9001032DCA1EB030C27
:103B9000A11A0CFB01F100E02FE00029A0EB020CC0
:103BA000CEBF01EB6C01A1EB6C01491C801A91FBAB
:103BB000F0F0DFF8D4B0C118DBF800C0BCF10C0F96
:103BC00017DA0020BCF1000FC4BF60462F4A09DDA0
:103BD00002EB400333F9023C8B4203DB22F8103046
:103BE000401EF5D1294A22F810100CF10100CBF843
:103BF00000006D1CB542FFF650AF0698002520442A
:103C000001902148AB4601680029C4BF1F49B1F9A2
:103C100000A022DD18E01A46A342DEBF8442B1F9BB
:103C20000030BCF90010B1DDE3E7184931F91BA001
:103C300055B108EB000C134808EB0A020199006823
:103C4000406E0368604698470F490BF1010B85F001
:103C50000105096850465945E7DC0098641C844218
:103C60007FF711AF07B0BDE8F08F00BFB0F90630A5
:103C7000069A9A1A0092F7E6B0F902200698141AEA
:103C8000F9E60000EC0200205C0D002068410020F5
:103C900070B52048046803F0EDFC20460BF0F2FC00
:103CA00006F00EF91C48046803F0E4FC20460BF013
:103CB00023FD06F005F9012503F0DCFC174C206814
:103CC000057606F0FDF803F0D5FC20680025858513
:103CD00006F0F6F803F0CEFC2068458506F0F0F813
:103CE00003F0C8FC28460BF035FD06F0E9F80C4857
:103CF000056803F0BFFC2068002D18BFC56106F001
:103D0000DFF8002503F0B6FC20688576BDE870403A
:103D100006F0D6B8E8020020E4020020EC02002001
:103D2000E0020020F0B50A4600210023002400BF75
:103D30003DE0012505FA01F3156805EA03049C42FC
:103D400034D105684F000326BE40B54305601579A0
:103D50004E00B5400668354305601579012D02D047
:103D60001579022D16D185684F000326BE40B54354
:103D7000856055794E00B540866835438560456855
:103D800001268E40B5434560456896798E40B6B2AF
:103D900035434560C5684F000326BE40B543C56046
:103DA000D5794E00B540C6683543C560491C102919
:103DB000BFD3F0BDF0B5002300244D07ED0E02FA8D
:103DC00005F3CE1000F1200555F826504E07F70EEA
:103DD0000F26BE40B543CF1000F1200646F827500D
:103DE000CE1000F1200555F8265045EA0304CE1008
:103DF00000F1200545F82640F0BD4183704701835E
:103E000070470AB1018300E041837047002808BF72
:103E1000704733B583B0044603F02CFC204601F014
:103E200019F90190456E01A801F0F4F9049801F028
:103E300011F900908460684601F0ECF9042204A9AD
:103E4000284601F009FA204613F01EFB06F038F868
:103E500005B030BD002808BF704733B583B00446B5
:103E600003F008FC204601F0F5F80190856E01A8EA
:103E700001F0D0F9049801F0EDF8009084606846F4
:103E800001F0C8F9042204A9284601F0E5F920460A
:103E900013F0FAFA06F014F805B030BD2DE9F04F32
:103EA00004460026D4E90005A3B0B0F5407F08BF62
:103EB00001262146284611F0F8FC0746002E1CBFBB
:103EC00028461DF0ACFB002F04BF23B0BDE8F08FE7
:103ED000206805280CD00B2800F006820F280CD093
:103EE000262804BFE068052800F04C8200F082BA62
:103EF00028461DF094FB00F07DBA0495E068089018
:103F0000284601F0A7F81090416D1291816D119132
:103F1000C16D0191016E0F91C06A006802901CA8EA
:103F200012F052FC1CA9109811F055FEDDE91C019D
:103F3000CDE90A0111990298BDF82A2008441044DD
:103F4000ADF82A000F990298BDF82E200844101AE7
:103F5000ADF82E0012990298BDF8282008441044AC
:103F6000ADF82800DDE90110BDF82C200844101A36
:103F7000ADF82C00DDE90A01CDE91E011EA813F001
:103F8000B1FF1098406B05F091FB01F06DFC1098AB
:103F9000D0F8942012B1002104989047109C94F816
:103FA0006C0000287ED0DDE911B906A9DDF804A077
:103FB000DDF83C80049812F0FCFCE06ABDF91810B2
:103FC00000682190BDF91C00D4E91176401AA0EBDD
:103FD0000900A0EB0A00401C1890BDF91E00BDF9B5
:103FE0001A10401AA0EB0B00A0EB0800401C169022
:103FF000206C05F066FB03F03DFA20907FB394F847
:104000007800E16C10F0010F0CBFD4F88C00002098
:1040100038440D18BD4202DBED1BBD42FCDA94F8BA
:104020007A0005F0D3FB1898854218DA219905EB40
:1040300009000844BDF91A10BDF91E2094F87A3021
:104040005944A2EB080223B11346024602F076FE61
:1040500001E002F0E1FF18983D448542E6DB86B3BB
:10406000206DD4F880103044451AB54202DBAD1BF8
:10407000B542FCDA94F87B0005F0A8FB169885425F
:104080001FDA00BFBDF91810BDF91E0001EB090CC5
:10409000BDF91C10A0EB0800A1EB0A02401B94F82C
:1040A0007B1000E010E029B103461946604602F09B
:1040B00045FE02E0614602F015FE16983544854241
:1040C000E0DB209805F082FB1CA90AA8029A07F001
:1040D000A9FE0AA813F006FFDDF84080FF21D8F8FA
:1040E0003800B1EB106F7DD0DDE91157019E47EA32
:1040F00005010F9C31430498214373D0D8F82C104C
:10410000D1F800900CA912F054FC12F0DDFC1690CE
:1041100012F0EEFC1590BDF9300038441390BDF953
:10412000320000EB050BBDF93400801B1190BDF986
:104130003600A0EB040AD8F8380005F0B7FAD8F832
:104140003C0005F0BEFADFB107EB0900421E0898FB
:10415000B0F900101698081A904211DCBDF93630FB
:10416000BDF930001B1B05EB09015B1C01F0B4FB22
:1041700013980AF10102ABF10101401E02F04CFF5D
:10418000CDB105EB0900431E0898B0F9021015984F
:10419000081A98420FDCBDF93000BDF93210BDF9A4
:1041A000342001F099FB1198421C1398411EABF189
:1041B000010002F097FDE6B10899BDF93420B1F98C
:1041C00004301699901B591A401C814211DBBDF92D
:1041D000363005EB09011B1B5B1C01F07DFB0AF16E
:1041E000010200E01FE01198ABF10101401C02F058
:1041F00013FFC4B1BDF93630181B411C0898B0F943
:1042000006201598101A88420DDBBDF93000BDF963
:10421000342001F061FB1198421C1398411E0AF1F1
:10422000010002F05FFD1098D0F8942012B1012136
:10423000049890471EA813F055FE1098406E01F0A8
:10424000B7F806004FF000041BD010982146406ECE
:1042500001F0BAF800F0FEFE099078B10568284632
:1042600000F0F8FE1B9030B102682846089990478C
:104270001BA800F0CFFF09A800F0CCFF641CB442DB
:10428000E3D30AA813F02EFE1098806E01F090F888
:1042900005004FF000041BD010982146806E01F0FD
:1042A00093F800F0D7FE099078B10668304600F028
:1042B000D1FE149030B1026830460899904714A896
:1042C00000F0A8FF09A800F0A5FF641CAC42E3D3EE
:1042D000002013F007FE1098D0F8942012B10221AC
:1042E0000498904710A848E0284600F0B3FE0290DA
:1042F000406E01F05DF8051E4FF000041ADD0298D3
:104300002146406E01F060F800F0A4FE019070B10B
:104310000668304600F09EFE059028B1476805A863
:1043200000F078FF3046B84701A800F073FF641C26
:10433000AC42E4DB0298806E01F03AF8051E4FF0C3
:10434000000411DD02982146806E01F03DF800F076
:1043500081FE019028B1006800F04AFD01A800F03C
:1043600059FF641CAC42EDDB0298406E00F0B6FFD2
:104370000298806E00F0B2FF02A800F04BFF23B05D
:10438000BDE8F08F284612F045FCA768B84215D169
:104390006668304600F05EFE0090384610F0F2FA93
:1043A0000546384612F0EDFAFE281BD11EE03046D5
:1043B00013F06AF8684600F02DFF1BE0284612F063
:1043C000E6FBA768B84215D16668304600F042FEA9
:1043D0000090384610F0D6FA0546384612F0D1FA69
:1043E000FE2803D00098C0F88C50E0E70098C0F891
:1043F0008050DCE723B02046BDE8F04F11F0C0BE8E
:1044000070B586B0B0F90840458AD0F818C00026CB
:10441000CDE90254CDE90016CDF810C0B0F90C106A
:10442000B0F91040B0F90EC0B0F90A0019441044B8
:104430002346624600F002F806B070BD2DE9FF4F3A
:1044400085B09946DDE91564DDE9138592468B4612
:10445000129F03F00FF904F16C001949CDE9021025
:10446000CDE900784B4652465946059811F0CCFDEF
:1044700004001ED000F02FFF074600F02CFF8046FE
:10448000204600F0E7FD0490C0E91978002231468B
:1044900011F00EFC0B490498B1E8CC173430A0E8B9
:1044A000CC1791E80E10A0E80E10858204A800F049
:1044B000B1FE05F005FD09B02046BDE8F08F000013
:1044C0009D3E00084406002013B582B0044603F068
:1044D000D1F8204600F0BEFD009060B1406A00F0C7
:1044E000B9FD01460190022303AA009800F005F9E6
:1044F00001A800F08FFE684600F08CFE05F0E0FC9D
:1045000004B010BD2DE9F04383B01C4690460E4622
:10451000814603F0AFF82C2000F01EFC070024D0E9
:10452000700000F019FC05001CBFB8F1000F002C52
:104530000AD000F08FFD104B019062001B684146CD
:10454000984701A800F066FE384600F083FD0B494D
:10455000009000F10C02456282E8520208490160B5
:1045600008494160684600F055FE05F0A9FC03B01B
:104570003846BDE8F0830000D8090020B9110208D0
:10458000751E0208371C02082DE9F8431E46144622
:104590000F46804603F06EF8302000F0DDFB05008A
:1045A00014D000F057FD0090C0E9058784840A4AC2
:1045B000B7EE000AC66180ED0A0AD2E90012C0E92E
:1045C000031206490160684600F024FE05F078FCFD
:1045D0002846BDE8F8830000740600205B1F02082F
:1045E000F8B50D4606004FF0000411D003F042F874
:1045F000304600F02FFD0090C468AC4203D0C56087
:10460000806812F041FF684600F004FE05F058FC97
:104610002046F8BD002808BF70472DE9F8431C4626
:1046200015460F460646DDF8208003F023F8304695
:1046300000F010FD0090C0F860804765C0E9165496
:10464000684600F0E7FD30461CF0E9FF304612F006
:104650001BFF05F035FCBDE8F883F8B50D460600F4
:104660004FF0000411D003F005F8304600F0F2FCE2
:104670000090446CAC4203D04564304612F004FF15
:10468000684600F0C7FD05F01BFC2046F8BDF8B5F4
:104690000D4606004FF0000411D002F0EBFF30464B
:1046A00000F0D8FC0090846CAC4203D085643046A6
:1046B00012F0EAFE684600F0ADFD05F001FC204670
:1046C000F8BDF8B50D4606004FF0000413D002F017
:1046D000D1FF304600F0BEFC009090F86C40AC4238
:1046E00004D080F86C50304612F0CEFE684600F0E0
:1046F00091FD05F0E5FB2046F8BD2DE9F0410446AB
:10470000806884B01D4617460E46002804BF04B0DA
:10471000BDE8F081D4E9040188420FD1481E00FBB6
:1047200005F271193046FBF7FBFD20692A46401E51
:1047300005FB00603946FBF7F3FD0FE005FB006366
:10474000401C20612A4639461846FBF7E9FDE1681E
:1047500021B104B02046BDE8F0410847A4682046D6
:1047600000F078FC0290B0F85450B0F85860B0F8FF
:104770005C70B0F8608002A800F04CFD69462046ED
:1047800012F017F9BDF8000069462844ADF80000A2
:10479000BDF802003044ADF80200BDF80400C01BB3
:1047A000ADF80400BDF80600A0EB0800ADF8060067
:1047B000204612F0F9FD04B0BDE8F0812DE9F0418A
:1047C00084B0044600F046FC0290B0F85450B0F8B3
:1047D0005860B0F85C70B0F8608002A800F01AFD74
:1047E0006946204612F0E5F8BDF800006946284405
:1047F000ADF80000BDF802003044ADF80200BDF88D
:104800000400C01BADF80400BDF80600A0EB0800D2
:10481000ADF80600204612F0C7FD04B0BDE8F081F7
:10482000014AC2E90001704790020020014AC2E932
:104830000001704798020020014AC2E90001704758
:10484000A8030020014AC2E900017047A00200202D
:10485000014AC2E900017047B00300202DE9F04F82
:104860004B4989B00968B1F922200692D1F81CC0E1
:10487000B1F92470DCF81C40A28982429CBFE38914
:10488000984205D8A0EB02094FF0FF38266812E0E5
:10489000D4E90162002A71D0138883429CBF5588F5
:1048A000A8426BD8C01A526880B202EB8000B0F9FF
:1048B0000090B0F90280B9F1FF3F5FD09CF818007A
:1048C000A27C10FB02FB94F810A00790B1F92A50CB
:1048D00028460AF03FFFC0B208902D4809FB0B6242
:1048E0000068A37C4FF00109816BCDE90293CDE90B
:1048F0000421C0695246C17E807ECDE90001DDE918
:104900000603394609F082FCB8F1FF3F18D045F0A4
:1049100002000AF01FFF1E48A37C08FB0B62006820
:10492000816BCDE90293CDE90421C0695246C17E75
:10493000807ECDE90001DDE90603394609F066FC19
:10494000134E3068C069417E007E814213D9022D2A
:1049500011D085F004000AF0FDFE3068C069017EC8
:10496000C27E11FB0271427ED319827E06981AFB29
:10497000020209F0EFFE08980AF0ECFE0448627C9F
:104980000068418C1144418409B0BDE8F08F0000FB
:10499000EC020020044800290068C069C0691CBFFF
:1049A000027C0A60407C7047EC02002002200880F4
:1049B0007047C06982898A429CBFC289914210D9DE
:1049C000806880B102888A429CBF438899420AD895
:1049D000406800EB8100A0EB8200B0F900000028E5
:1049E00001DB012070470020704700002DE9F043F3
:1049F000394D024687B02868B0F92A60C069C1699C
:104A00001046002904BF07B0BDE8F0830B8883423D
:104A10009CBF4B88984205D989680029F6D107B018
:104A2000BDE8F083002904BF07B0BDE8F083486803
:104A30000988511A00EBC1043046A7780AF08AFEB3
:104A40008046286862680123816BCDE90237CDE991
:104A50000421C169CB7E8A7ECDE900230B7EB0F9AB
:104A600024102278B0F9220009F0D0FB2868C06930
:104A7000417E027E91421FD9C07E11FB00F912FBDC
:104A800000F7022E18D002F084FC064602F04AFC21
:104A900004F017FE29682278CB69B1F92200DB7E89
:104AA00012FB0302B1F9241001EB0903394409F0A8
:104AB00051FE304604F005FE40460AF04BFE2868E1
:104AC0006278C369B0F922109B7E12FB0311418406
:104AD00007B0BDE8F0830000EC02002010B40446EB
:104AE00015480068D0F81CC02046DCF81C2002B332
:104AF000138883429CBF5388984203D99268002A46
:104B0000F6D116E0AAB110885368221A012000EBF2
:104B1000C2009CF81AC0185C10FB0CF0002904BFFE
:104B200010BC704713F8322012FB0CF20A6010BC64
:104B3000704710BC00207047EC0200200120088064
:104B40007047C06968B102888A429CBF428891421E
:104B500003D980680028F6D103E000281CBF01209B
:104B600070470020704700002DE9F047DFF8A4806F
:104B7000DFF8A4A04FF00009D8F80840002CC4BF0B
:104B8000D8F8106000251DDDD8F81000C5EB05171A
:104B900000EBC7007022001DDAF80010FBF7C0FB25
:104BA00046F8789BD8F8100005F1010500EBC70026
:104BB00000F10C018161011D0A1DC0E90F12416461
:104BC000641EE1D1D8F808000024002810DD00BFE1
:104BD00005F095F9D8F81020C4EB041152F8311003
:104BE000814206D081B1D8F80800641C8442EFDB12
:104BF0004C46D8F81010C4EB041001EBC000001DA7
:104C0000CAF80000BDE8F087C4EB041142F8310097
:104C1000EFE70000300A0020EC02002070B51B49CD
:104C200019480860084607F00BF9194CA068C0EB5A
:104C30000010C500284600F071F9164B20612A4685
:104C40001B68002198474FF0FF30206005F084F981
:104C5000A06800250028D8BF70BD00BF05F04FF93F
:104C60002269C5EB051152F83110814208BF70BDB1
:104C700021B16D1CA0688542F0DB70BDC5EB05114C
:104C800042F8310070BD00000D1E0208440A0020E9
:104C9000300A0020D4090020002904BF00207047FA
:104CA0002DE9F0410F46804602F0E4FC02F0E2FC00
:104CB000384614F03FFE044605F002F9002C2FD0D0
:104CC0001A4D3A46E869401CE861686B00EBC40085
:104CD0000178491C01700421686B01EBC401B8F133
:104CE000000F405800F1080605D0114B41463046F0
:104CF0001B68984704E00F4B002130461B6898471B
:104D000056F8081C686B00EBC1000178022904D337
:104D1000E96900291CBF491EE9610178491E01703B
:104D200005F0CEF82046BDE8F0810000D43E00201A
:104D3000D8090020D4090020002808BF704710B50A
:104D4000044602F097FC204614F0F4FD044605F0FA
:104D5000B7F8204610BD00002DE9F041074602F0EB
:104D600089FC002F08BF002430D002F083FC3846B5
:104D700014F0E0FD044605F0A3F8002C26D0164DF3
:104D8000164B3A46E869401CE861686B00EBC400CA
:104D90000178491C01700421686B01EBC4011B6898
:104DA0004058002100F108063046984756F8081C84
:104DB000686B00EBC1000178022904D3E96900297E
:104DC0001CBF491EE9610178491E017005F078F8A1
:104DD0002046BDE8F0810000D43E0020D409002028
:104DE000024A106021F0030050607047943F002099
:104DF000002808BF704770B5044602F03BFC0C4D1C
:104E0000042000EBC406696B8959486814F028F93E
:104E10006868401C6860696B686A8851696B00202B
:104E200001F834006C62BDE8704005F049B800003C
:104E3000D43E0020002808BF7047044AD16B0160AF
:104E4000002918BF4860D06370470000D43E00209E
:104E50002DE9F041064602F00DFC34680027C4B18C
:104E600002F008FC0D4D042000EBC408696B51F8FA
:104E70000810486814F0F4F86868401C6860696BB2
:104E8000686A41F80800686B00F834706C6205F0DD
:104E900017F83760BDE8F04105F012B8D43E0020A5
:104EA0002DE9F05F0F1E81464FF00005C6BFDFF809
:104EB00068804FF0000ABDE8F09F00BF09EB85064F
:104EC00002F0D8FB3468F4B102F0D4FB0420D8F827
:104ED000341000EBC40B51F80B10486814F0C0F804
:104EE000D8F80400401CC8F80400D8F83410D8F8EA
:104EF000240041F80B00D8F8340000F834A0C8F8BA
:104F0000244004F0DDFFC6F800A004F0D9FF6D1CBA
:104F1000BD42D3DBBDE8F09FD43E00202DE9F04137
:104F200004461BF0F9FFE01C274E20F00300051D8E
:104F3000306CA84288BF0546F46BBCB154F8041C21
:104F4000A94210D19CB1206800281CBF6168416053
:104F5000606800281CBF21680160F16BA14204BF9A
:104F60002068F0632DE02468002CE7D10024F1686C
:104F7000B06B00EB010858F8040CA8EB0007386888
:104F800040B100201EF034FF58F8040CA8EB0007D5
:104F90003868B0B97868A84213DB3844401B041D58
:104FA00038461EF0F7FEF068401BF0607069284438
:104FB00070617868401B1CBF394614F051F844F802
:104FC000045C2046BDE8F081D43E002010B50024EA
:104FD0001BF0A2FF0D490F2001EBC002526C8AB1F9
:104FE00001EBC000406C806848B14168A14288BFB5
:104FF0000C46806800281CBF80680028F5D1A4F109
:105000000C0010BD401EE7D5F9E70000D43E00209B
:10501000034800680C380028D8BF00207047000003
:10502000D43E0020002140B10549042202EBC0001B
:10503000496B08584068A0F10C0108467047000011
:10504000D43E002002488169491C816170470000FC
:10505000D43E00200849CA69521CCA614A6B02EB5F
:10506000C00213785B1C1370496B042202EBC00072
:105070000858083070470000D43E00202DE9F05F4A
:105080000E0005464FF0000808BF474674D002F0F6
:10509000F1FA304614F04EFC074604F011FF002FE1
:1050A00018BF002D68D0364C4FF0040909EBC50A33
:1050B000606B50F80A004068A0F10C00B042B8BF25
:1050C000064602F0D7FAE0692E4B401CE061606BA7
:1050D000324600EBC7000178491C0170606B09EB98
:1050E000C701415800EBC50001F1080BE169491CFB
:1050F000E1610178491C0170606B1B6850F80A007F
:1051000000F108094946584698475BF8081C606B4F
:1051100000EBC1000178022904D3E16900291CBF1A
:10512000491EE1610178491E017059F8081C606B45
:1051300000EBC1000178022904D3E16900291CBFFA
:10514000491EE1610178491E017002F093FA606B1B
:1051500050F80A10486813F083FF6068401C6060D4
:10516000616B606A41F80A00606B00F83580656227
:1051700004F0A6FE04F0A4FE3846BDE8F09F00004F
:10518000D43E0020D809002010B502F073FA0024A4
:105190001BF0C2FE194B1A490F2000BF01EBC002E1
:1051A000526CE2B101EBC000406C8068C8B142684B
:1051B000A24288BF1446806800281CBF806800286F
:1051C000F5D1A4F10C00B0F5800F0DD983FB0020C0
:1051D0004211096AA2EBE07000FB01F409E0401EF5
:1051E000DCD5A4F10C00F1E7096A4843A3FB0010E9
:1051F000440904F065FE204610BD00001F85EB51F8
:10520000D43E002002488169491E81617047000038
:10521000D43E00200A4902684B6B52F8082C03EB7D
:10522000C2021378022B04D3CB69002B1CBF5B1E78
:10523000CB611178491E117000210160084670474A
:10524000D43E00200349042202EBC000496B0858F9
:1052500008307047D43E00202DE9F0414FF00006A1
:1052600082B00B465FEA000834462BD032B11146BB
:105270001846FFF711FD060008BF01244046FFF75E
:10528000E9FE0090078845686846FFF7C3FFCCB980
:10529000B800011D2846FFF7F1FE050016D0FFF704
:1052A000D9FE019040F8276001A8FFF7B3FF404600
:1052B000FFF7D0FE009045600188491C01806846D8
:1052C000FFF7A8FF02B02046BDE8F0813046FFF7A7
:1052D0008FFD0124F6E70820FFF73EBD002808BF38
:1052E000704730B583B00546FFF7B4FE00904068C4
:1052F000D8B1FFF7AFFE0190009800240088002885
:1053000009DD019800EB8400FFF7A2FD0098641C02
:105310000088A042F5DC01A8FFF77CFF0098001D83
:10532000FFF796FD0099002008806846FFF772FF9E
:105330002846FFF75DFD03B030BD30B583B00C46A5
:10534000FFF788FE00900188A1422CD9456855B32B
:1053500002F090F92846FFF77DFE019000EB8400F3
:10536000FFF776FD00990888401E80B20880011B77
:10537000002913DD019811F0010F00EB840003D028
:1053800050F8042F40F8042C491007D0426840F828
:10539000082B491E026840F8042CF7D101A8FFF73A
:1053A00039FF04F08DFD6846FFF734FF03B030BDD0
:1053B00038B5002430B1FFF74DFE009004886846F0
:1053C000FFF728FF204638BD30B583B00C460025D6
:1053D00090B1FFF73FFE00900188A14209D94068D3
:1053E00038B1FFF737FE019050F8245001A8FFF7BD
:1053F00011FF6846FFF70EFF03B0284630BD30B5F9
:1054000083B00D460024B8B1FFF724FE0090018858
:10541000A9420ED9406860B1FFF71CFE019050F818
:10542000255001A8FFF7F6FE280002D0FFF712FE74
:1054300004466846FFF7EEFE03B0204630BD00008C
:10544000F0B5074685B00E46154600241046FFF716
:1054500083FC009038B33846FFF7FCFD31460190DD
:1054600000F072F802900098FFF7F4FD0F4B0390E4
:105470002A461B680299984702A8FFF7CBFE03A8AB
:10548000FFF7C8FEDDE90020314600F074F818B1DE
:105490006846FFF7DDFC03E00098FFF7DBFD0446FC
:1054A00001A8FFF7B7FE05B02046F0BDD8090020DF
:1054B0002DE9F043002483B01E4690460D46002897
:1054C0003BD0FFF7C7FD0190B0F80090476801A8F6
:1054D000FFF7A0FE4D4530D27FB33846FFF7BAFD47
:1054E000009050F825406846FFF794FE24B120460E
:1054F000FFF798FDB04211D03046FFF72DFC0400B5
:105500001BD03846FFF7A6FD00EB85050090284626
:10551000FFF79EFC68462C60FFF77CFEB8F1000F99
:105520000BD02046FFF796FD064B029032461B68D3
:105530004146984702A8FFF76DFE03B02046BDE83C
:10554000F0830000D809002038B50C4601880025FA
:10555000A1420ED9406860B1FFF77CFD009050F881
:1055600024406846FFF756FE200002D0FFF772FD88
:105570000546284638BD38B50C46014615460A880A
:105580000120A24298BF38BD4968002908BF38BD34
:105590000846FFF75FFD00EB840400902046FFF70C
:1055A00057FC68462560FFF735FE002038BD000037
:1055B0002DE9F0012D24D3F800C0B0F1004F34D014
:1055C00000250028A8BF4FF0000C07DA0CF10106F7
:1055D0001E608CF8004040424FF0010CA1EB0C0122
:1055E000C9B2002A1CBF491EC9B200291CBF234FE3
:1055F000234E3DD08C46491EC9B2944508D1D3F8FC
:1056000000C03C780CF10108C3F800808CF8004021
:1056100056F8214090FBF4FC0CF0FF0CBCF10A0F93
:1056200026D80CFB140081B909E00CF10106012514
:105630001E606FF000408CF80040491ED0E7002D3E
:105640001CBF0CF1010C0CF0FF0CBCF10A0F03D1D4
:10565000491C4FF0010CC9B20CF13004D3F800C062
:1056600000290CF10108C3F800808CF80040C1D17A
:10567000196800200870BDE8F0017047D8020020CA
:10568000A07D0E080028D8BF70472B230A6802F1BE
:10569000010CC1F800C01370096800220A7070473D
:1056A00010B5044601F0E6FF044904EB840001EB69
:1056B0008000047904F004FC204610BD70400020F6
:1056C0002DE9F84F0E46054601F0D4FF304601F0B3
:1056D0006DFE8246334F344806EB86084FF00109D1
:1056E00057F828B0016839B93149C0F800902F48FF
:1056F0000860084606F0A4FB2A4906EB860001EB89
:105700008004BAF1000F22D0504603F027FF00902A
:105710004FF07F4003F0CAFF00F0A6F800221146C8
:10572000286800F0EFFD286842880188504604F0A0
:105730002FF847F8285084F80490009803F00EFFE3
:10574000304601F033FEF0B9207910BB24E047F871
:10575000285084F80490206918B103F059FB002008
:105760002061CDB1CDF80090E068A9683346421AB7
:10577000A0686968411A286803F062FE206130461B
:1057800001F014FE18B1012104F012F804E02079B0
:1057900010B1206903F024FE04F092FB5846BDE8E6
:1057A000F88F000070400020F0090020B11D0208B1
:1057B000F409002070B514460D46064601F05AFF64
:1057C000204601F0F3FD0300164804EB840109D0E4
:1057D00050F8210041688068711A2A1A184603F0AF
:1057E000C7FF1AE000EB8104A268B24214BF012295
:1057F0000022E368AB4214BF012300231A430CD0FC
:10580000236943B150F82100816840686A1A311A4F
:10581000184603F02BFBC4E90265BDE8704004F0B4
:105820004FBB000070400020C2B2CBB2D21A48BFBA
:10583000524292B202FB02F3C0F30722C1F3072CDB
:10584000B2EB0C0248BF524292B2000CA0EB1140E6
:1058500002FB023200B20028BCBF404200B280B25C
:1058600000FB0020704700002DE9F041002182B0CC
:10587000084601F065FE43F6FF76374601F0FAFE72
:10588000042009F067FF804612484069C16C006D32
:105890008D1B841B0E440744ADF80050ADF8046026
:1058A000ADF80240ADF80670684612F0CDFE48B182
:1058B0003B4632462146284608F04CFF12F0EAFCEF
:1058C0000028F5D1404609F045FF04F0F9FA02B08E
:1058D000BDE8F081D80200202DE9F04182B01C46DD
:1058E00017460D46064601F0C5FE042009F032FFBA
:1058F000804613484169C86C096D064407440D444D
:105900000C44ADF80060ADF80470ADF80250ADF88D
:105910000640684612F098FE48B123463A462946AA
:10592000304608F017FF12F0B5FC0028F5D14046CC
:1059300009F010FF04F0C4FA02B0BDE8F0810000E5
:10594000D80200202DE9F04182B0B0F90050B0F942
:105950000240B0F90460B0F9067001F08BFE04203B
:1059600009F0F8FE804613484169C86C096D05448A
:1059700006440C440F44ADF80050ADF80460ADF897
:105980000240ADF80670684612F05EFE48B13B4634
:1059900032462146284608F0DDFE12F07BFC002846
:1059A000F5D1404609F0D6FE04F08AFA02B0BDE80F
:1059B000F0810000D80200202DE9F8431C00DDE949
:1059C000089816460F46054602D110F031FF0446EE
:1059D0000096D5F800C043464A4621462846E0478F
:1059E000061E08BFBDE8F88310F015FF8146698ADE
:1059F000304610F025F8304612F084FA484612F08E
:105A000081FA7F1E002FC8BF4FF000080FDD00BFD6
:105A1000CDF8008055F81CCF00231A464946284689
:105A2000E04718B312F06EFA7F1E002FF0DC1D2144
:105A3000484611F0C7FFB4F1FF3F14D001F01AFE41
:105A400010F07EFF40B100BFFFF7FCFB8469B44259
:105A500018BF5FEA0400F7D1B4421CBF304612F011
:105A6000F9F804F02DFA3046BDE8F883304610F01E
:105A7000C1FB0020BDE8F8830249496A002908BF3C
:105A800070470847D8020020022BA4BF00207047AF
:105A90002DE9F04106461C4615460F461C20FFF72F
:105AA0003DFA002808BFBDE8F081002F18BF07614C
:105AB0000BD10A4A52F8241039B10A681AB11146BA
:105AC0001268002AFBD10969016184618582002185
:105AD00001604160C0E90216BDE8F08118030020B2
