:020000040800F2
:1000000038490020C1010008997A0108CF02000890
:10001000957A0108DD16000841A9010800000000DA
:100020000000000000000000000000002FA30108F5
:100030004D330008000000001B0200081DA4010849
:10004000DF010008DF010008DF010008DF01000810
:10005000DF010008DF010008DF010008DF01000800
:10006000DF010008DF010008DF010008DF010008F0
:10007000DF010008C92B0008DF010008092C000877
:10008000DF010008DF010008DF010008DF010008D0
:10009000DF010008DF010008DF010008DF010008C0
:1000A000DF010008DF010008DF010008DF010008B0
:1000B000DF010008DF010008DF010008DF010008A0
:1000C000DF010008DF010008DF010008DF01000890
:1000D000DF010008DF010008DF010008DF01000880
:1000E000DF010008DF010008DF010008DF01000870
:1000F000DF010008DF010008DF010008DF01000860
:10010000DF010008DF010008DF010008DF0100084F
:10011000DF010008DF010008DF010008DF0100083F
:10012000DF010008452D0008DF010008DF0100089D
:10013000DF010008DF010008DF010008DF0100081F
:10014000DF010008DF010008DF010008DF0100080F
:10015000DF010008DF010008DF010008DF010008FF
:10016000DF010008DF010008DF010008DF010008EF
:10017000DF010008DF010008DF010008DF010008DF
:10018000DF010008DF010008DF010008DF010008CF
:10019000DF010008DF010008DF010008DF010008BF
:1001A00041460108DF010008312D0008DFF80CD0BE
:1001B00000F0B0FC004800471F100008384900203C
:1001C000074880470748804707480047FEE7FEE7A3
:1001D000FEE7FEE7FEE7FEE7FEE7FEE7FEE7FEE7F7
:1001E00041A4010829910108AD010008EFF3108036
:1001F00072B6704780F310887047434A1368012B2A
:1002000004D04FF001031360404A1060404A11606F
:1002100040484FF0805101607047EFF3108272B692
:100220003948016851B34FF0000101603748016857
:1002300091B1EFF309811EF0100F08BF21ED108B73
:1002400021E9F00F4FF000041EF0100F08BF012449
:1002500041F8044D006801602D490968096808C922
:10026000B1E8F00F002B18BFB1EC108B81F30988B7
:100270004EF0100E002B18BF2EF0100E82F31088D7
:100280004EF0040E704722490860EFF3148222F00A
:10029000040282F314881D494FF0000008601A49D7
:1002A0004FF0010008601C484FF47F01D0F8002097
:1002B00041EA0201016017484FF080510160174880
:1002C0000068006880F3088861B662B670471EF067
:1002D000040F0CBFEFF30880EFF3098020E9F00F63
:1002E00040F804ED40F804ED1EF0040F0CBF80F35D
:1002F000088880F3098800B53EF092FC5DF804EBB5
:100300004EF0040E70470000AC020020A402002052
:10031000A802002004ED00E020ED00E008ED00E080
:1003200010B5441A0346944209D28418114403E0DC
:1003300011F8013D04F8013D521EF9D210BD40EA0A
:100340000104A40703D009E010C9121F10C3042A36
:10035000FAD203E011F8014B03F8014B521EF9D217
:1003600010BDD2B201E000F8012B491EFBD270474C
:100370000022F6E710B513460A4604461946FFF771
:10038000F0FF204610BD10B5044604E00B7800F8DD
:10039000013B03B1491C521EF8D2204610BD421C3D
:1003A00010F8011B0029FBD1801A704730B50446B4
:1003B0000020034600E05B1C934203D2E05CCD5C6E
:1003C000401BF8D030BD034611F8012B00F8012B7B
:1003D000002AF9D1184670472DE9FE4F804681EA80
:1003E0000300C00F0C46009021F0004123F00045AF
:1003F000B8EB0200A94105D24046214690461C4672
:100400000B46024623F00040104347D0270DC7F3A8
:100410000A00C3F30A510290401A019040286BDA97
:10042000C3F3130040F4801B0098924620B10023D0
:10043000D2EB030A63EB0B0B01985946C0F1400263
:10044000504600F03CFA06460D4650465946019A81
:1004500000F054FA10EB08006141002487EA1152C1
:1004600084EAE7731A4340D0009A62B3019A012AE2
:100470004FEA075215DC001B61EB02014FF000420E
:1004800002EA0752CDE90042001C41F580113246D4
:100490002B4600F0D9FA03B0BDE8F08F4046214664
:1004A000F9E7001B61EB0201001C41F58013001805
:1004B0005B412018A2F5001747EB030140EAD57015
:1004C000B6196D4111E06D084FEA360645EAC07570
:1004D0004FEA0752001B61EB0201001C41F580113D
:1004E00049084FEA30000019514132462B4603B00B
:1004F000BDE8F04F00F099BA0098012240000023B7
:10050000D0EB020263EBE073009821464FEAE074FF
:10051000B8EB000061EB0401E9E783F000435BE71F
:1005200081F0004158E72DE9FE4F81EA030404F011
:10053000004421F0004100944FF0000B23F00043F1
:1005400050EA01045ED052EA03045BD0C3F30A54BC
:10055000C1F30A552C44A4F2F3340194A0FB0254D5
:10056000C1F3130141F48011C3F3130343F4801367
:1005700001FB024400FB034E840A970A44EA8154BB
:1005800047EA8357A4FB076802958D0A05FB078598
:100590004FEA932C04FB0C542705029D4FEA0658A2
:1005A00047EA1637B5EB08056EEB070C870E920E7F
:1005B00047EA811742EA8312A7FB0201B6EB0B015F
:1005C00064EB00042B0D43EA0C335E1844EB1C5023
:1005D000DA465146E7FB0201C5F313044FEA0B3339
:1005E00043EA14534FEA0432019C43EA0603A4F1A0
:1005F0000C040294009CCDE900B400F025FA03B08D
:10060000BDE8F08F00200146F9E72DE9F04D81EAC1
:10061000030404F0004B21F0004514464FF0000A9B
:1006200023F0004150EA050220D054EA01021DD017
:10063000C5F30A570246C5F31303C1F31300C1F310
:100640000A5640F4801543F48013A7EB0608101BEC
:10065000D64608F2FD3873EB050002D308F1010815
:1006600001E092185B41B8F1000F03DA0020014667
:10067000BDE8F08D00204FF48011064684460EE060
:10068000171B73EB050705D3121B63EB050306432A
:100690004CEA010C49084FEA300092185B4150EADD
:1006A0000107EDD152EA030012D082EA040083EA86
:1006B0000501084305D0101BAB4106D201220023DF
:1006C00006E000224FF0004302E06FF001025310F9
:1006D0001AEB06004CEB085110EB0A0041EB0B0142
:1006E000BDE8F04D00F0A1B90EB5C10F80EAE07091
:1006F0000844CA07002140F233438DE80E000A4641
:100700000B4600F0A1F903B000BD0EB540F2334135
:1007100002910021CDE900110A460B4600F094F940
:1007200003B000BD70B5C1F30A5201F000450024CA
:10073000C1F3130140F2FF3341F480119A4201DA10
:10074000002070BD40F233439A42A2F2334203DCF0
:10075000524200F0C3F800E090402C43F1D04042F8
:1007600070BDC1F30A5210B5C1F3130140F2FF335B
:1007700041F480119A4201DA002010BD40F2334367
:100780009A42A2F2334203DC524200F0A7F810BDB5
:10079000904010BD00F0004230F000400AD0C10D82
:1007A00001F56071C0F3160042EA0151C20840072A
:1007B00011437047002001467047000030B5041E09
:1007C00071F1000404DB4FF00044404264EB01018E
:1007D000141E73F1000405DB1C464FF00043524227
:1007E00063EB04038B4208BF824230BD30B5041E68
:1007F00071F1000404DB4FF00044404264EB01015E
:10080000141E73F1000405DB1C464FF000435242F6
:1008100063EB0403994208BF904230BD01F00043EE
:1008200030B421F0004150EA010206D00A0DA2F5D1
:100830006072C1F31301002A02DC30BC0020704753
:10084000440F44EAC104C100E01830BC00EBC250C0
:1008500000F0B4B8A0E8004FF0C040F804DB01B5E8
:10086000AFF30080BDE8024001C10020704700F1F5
:100870002C080C4658F8040DAFF3008058F8040D0E
:100880008546200008BF012038E9F00018E9004F34
:10089000704730B50B46014600202022012409E0B4
:1008A00021FA02F59D4205D303FA02F5491B04FA29
:1008B00002F52844151EA2F10102F1DC30BD202A08
:1008C00004DB203A00FA02F1002070479140C2F1A7
:1008D000200320FA03F3194390407047202A04DBD9
:1008E000203A21FA02F00021704721FA02F3D040A9
:1008F000C2F120029140084319467047202A06DBC6
:10090000CB17203A41FA02F043EAE07306E041FADD
:1009100002F3D040C2F120029140084319467047CB
:100920000FB4002300B589B00CA900910B996FF0AA
:100930000042CB601E4B06931E4B07930423CDE968
:1009400001321D4A089202466B46002000F08EF9E3
:1009500009B05DF814FB70B586B006464FF0FF3065
:100960000091CDE90101002015460C460490324665
:10097000694604A8FFF7D4FF02460498211825B160
:1009800008B1084600E020462860049800280DD0F1
:10099000002A02DD0098884208D0081B0094CDE9A7
:1009A00001043246694604A8FFF7BAFF06B070BDDD
:1009B000A50E0008C30E0008390B00080029A8BFC7
:1009C0007047401C490008BF20F00100704710B478
:1009D000B0FA80FC00FA0CF050EA010404BF10BC2D
:1009E000704749B1CCF1200421FA04F411FA0CF15A
:1009F00018BF012121430843A3EB0C01CB1D4FEA93
:100A000000614FEA102042BF002010BC704700EB8D
:100A1000C35010440029A4BF10BC7047401C4900BB
:100A200008BF20F0010010BC704710B5141E73F110
:100A3000000408DA401C41F1000192185B411A439E
:100A400001D120F0010010BD2DE9F04D92469B46EA
:100A500011B1B1FA81F202E0B0FA80F22032904690
:100A6000FFF72DFF04460F4640EA0A0041EA0B015A
:100A700053465A46084313D0114653EA010019D091
:100A8000C8F140025046FFF729FF05460E46504682
:100A900059464246FFF713FF084305D0012004E002
:100AA00020463946BDE8F08D0020054346EAE07651
:100AB0002C4337430A986305E40AA0EB08000022A0
:100AC000FD0A44EA47540A3002D500200146E9E70E
:100AD000010510196941DDE9084500196941BDE8C2
:100AE000F04DA2E770B521F0004303430CD0C1F3F1
:100AF0000A550024D5EB040564EB0403D617AD1AA0
:100B0000B34102DB0020014670BD201841EB0251C9
:100B100070BD0000064C074D06E0E06840F00103A0
:100B200094E8070098471034AC42F6D3FFF742FB35
:100B300000A5100840A51008C0B24FF4F05100F015
:100B400023BA00002DE9FF4F087883B09946FF28AB
:100B500005D0491C2D2804D00024002008E00020E6
:100B60000BE00124F9E700EB800003EB4000491C97
:100B70000B78FF2BF7D104B1404200230293147885
:100B800019461D462D2C01D02B2C04D1521C2D2C86
:100B900013D000240294AA461478FF2C0FD00A2503
:100BA000A3FB057801FB05814FF0000C03FB0C1142
:100BB000521CE3194AEB0101EEE70124EAE7814404
:100BC00053EA010002D019F5C87F06DA0398002124
:100BD000C0E9001107B0BDE8F08F0025AE4E2F46EA
:100BE000DFF8B882184600F0E3F9CDE90001B9F169
:100BF000000002DAC9F1000400E004460023A74A1D
:100C00001AEB030B42EB045A12E0E00707D02A4626
:100C1000334638464146FFF786FC074688462A4653
:100C2000334610461946FFF77EFC05460E46641013
:100C3000002CEAD1DDE90001B9F1000F5A46534614
:100C400006DAFFF7E2FC3A464346FFF7DEFC05E032
:100C5000FFF769FC3A464346FFF765FC029A0AB182
:100C600081F00041039AC2E90001B3E72DE9FF4F8B
:100C70001F468DB0D7E901464FF0FF382E2045467C
:100C80004FF000090B90B9696D1C0E988847396ABE
:100C9000824688470028F6D1BAF1FF3F0AD024F4F3
:100CA000D064002E11DDBAF12B0F08D0BAF12D0F50
:100CB0000BD102E0404611B08DE744F48064B9697D
:100CC0006D1C0E9888478246761E6946600501D5E0
:100CD0002D2000E02B208DF8000001F1010B0DF11B
:100CE000200809E0B9696D1C0E98884782460F9864
:100CF00044F40074761E0560002E02DDBAF1300F58
:100D0000F0D00B998A453ED144F0800406E00F995B
:100D1000681CA9F1010944F400740860B9696D1CEC
:100D2000761E0E98884782463028F0D02BE00B992B
:100D30008A4505D1200603D444F08004761E18E0CD
:100D400050462EF099FB08B30DF11301761E44F4C2
:100D500000748B4508D2AAF130000BF8010B200675
:100D600007D5A9F1010003E0200602D409F1010032
:100D70008146A00502D50F99681C0860B9696D1CF1
:100D80000E9888478246002ED1DC53E0002E51DDBC
:100D9000BAF1650F02D0BAF1450F4BD1A00549D584
:100DA000B9696D1C24F44074761E0E9888478246FB
:100DB000002E0CDD2B2804D0BAF12D0F07D144F4FE
:100DC0008074B9696D1C0E9888478246761EE005CE
:100DD00001D52D2100E02B2108F8011BCDF82C8036
:100DE00021E00DF12901761E44F4007488450CD2EF
:100DF000AAF1300010F0FF0088F8000002D10B9932
:100E0000884509D908F1010806E0E00501D5244824
:100E100001E042F20F708146B9696D1C0E98884757
:100E200082460F980560002E04DD50462EF024FB0C
:100E30000028D6D1F9690E988847FF208BF800006A
:100E400088F800000020069007904B466A4608A9E3
:100E500006A8FFF777FEA00502D46FF001002AE78D
:100E600014F0240F0AD0E00714D1DDE90612386827
:100E7000031D3B600068C0E900120BE0DDE90601DC
:100E8000FFF7CCFC0146E00704D13868021D3A6048
:100E90000068016028460EE7000014400000F03FA3
:100EA000F1D8FFFF426842B1016811F8013B23B15C
:100EB000521EC0E90012184670470121C160881E09
:100EC000704742685AB1C368016843B983688B426E
:100ED00005D0491E521CC0E90012002070474FF097
:100EE000FF3070472DE9F04D00231A461B1A8A4146
:100EF00003DB00200146BDE8F08DC1F30A52C1F3C7
:100F0000130141F480154FF0000BD10702D10018F6
:100F10006D41521E0027044640F2FF11384601EB96
:100F2000620A3E468046024600204FF48011FFF7D9
:100F3000D5FCC2197141BB1846EB0100B4EB030CA0
:100F400075EB000C04D3E41A65EB000517460E465A
:100F5000241908F101006D4180463428E3DDF919B8
:100F600046EB0600091BA84103D24FF0FF3213469F
:100F700001E0002213461BEB070046EB0A51BDE8D7
:100F8000F04DFFF752BD00007F2801D9002208E094
:100F9000064A02EB5002C007127800D1120902F093
:100FA0000F0201209040084070470000C8A11008BF
:100FB0000EB540F2334202920022CDE900221346E0
:100FC000FFF742FD03B000BD70B58C1810F8015B4F
:100FD00015F0070301D110F8013B2A1106D110F8D2
:100FE000012B03E010F8016B01F8016B5B1EF9D1D6
:100FF0002B0705D40023521E0DD401F8013BFAE75C
:1010000010F8013BCB1A921C03E013F8015B01F8C6
:10101000015B521EF9D5A142D8D3002070BD10B596
:10102000FFF7E4F83FF016F9002010BD38B544682A
:1010300005460146204619F016FD002808BF38BDB8
:10104000464A286811280DD006DC0B282AD00E2825
:1010500038D00F2817D07CE0282873D0B0F5107F47
:101060000AD076E09268002A08BF38BD294601B050
:101070002046BDE830401047526801B0294620465E
:10108000BDE8304010472546204606F0B9FA0090EA
:10109000406E0468684606F093FB002C1CBF28468F
:1010A000A04738BD204606F0ABFA0090683006F045
:1010B000A5F9009803216C3006F0C8F9684606F0DF
:1010C0007FFB46E0E968486809680D2902D02029BD
:1010D00018D037E0002835DD4FF48071204619F034
:1010E0008DFD204606F08CFA009090F82850684656
:1010F00006F066FB15F0020F1ED0012120461BF002
:101100007EFD19E0002817DD25464FF4807120464A
:1011100019F074FD284606F073FA009090F8284004
:10112000684606F04DFB14F0020F08BF38BD0121E0
:1011300028461BF064FD38BD2046BDE8384002213A
:1011400027F0EEBCE86820B920464FF4807119F012
:101150001BFC2846BDE838401AF0C4BA98040020A9
:1011600070B586B04FF0000CDDE90A450C9ECDE964
:1011700002C5CDE90046CDF810C000F051F806B028
:1011800070BDF0B585B00AAF97E8701000270497DE
:101190008DE8701000F044F805B0F0BD70B504465D
:1011A00088B08069B4F908C0658A00260091CDE94D
:1011B0000165CDE903C0B4F90C00B4F91050C118B1
:1011C000B4F90A00B4F90EC010442B46624600F090
:1011D00027F86468050020D008F0A4FD284606F032
:1011E0000FFA0190866E01A8009606F0E9FA2146F2
:1011F00068460DF08BFD70B10098B04208D02846CB
:1012000006F0FEF901900099816601A806F0D8FA6F
:1012100028461BF0EBFB0BF081FB08B0284670BDA5
:101220002DE9F04F85B09846DDE91164DDE90E57F0
:1012300091468A46834608F075FD04F14C00174933
:10124000CDE90210CDE9005743464A46514658467B
:101250001AF08CF905001BD006F0D2F910223146A5
:10126000049019F0BDFE0E4C0499B4E8CD1334314E
:10127000A1E8CD1394E80D10A1E80D1054F82C0D41
:10128000086004A806F09CFA206841682846884750
:101290000BF044FB05B02846BDE8F08F2D10000888
:1012A000A4040020F0B5044680688C4989B051F848
:1012B00020506068002800F00A81052806D0062822
:1012C0007DD0122800F0B48000F004B9E86900284D
:1012D00008BF002651D0D5E90012AB688DE80F0099
:1012E00004F110010FC90CF0BBFD002655F82600D3
:1012F0000AF007FFA169E8690A1A216901446069D7
:10130000304407F0F3FFA169E8690A1A2169014432
:10131000E069801B07F0EAFFE169E8690A1A616980
:1013200001442069304408F0C3F9E169E8690A1A08
:1013300061690144A069801B08F0BAF9761C022E8D
:10134000D4DBA8680AF0DDFEE069E969D4F814C0CE
:10135000431A206942186144801C521E08F032FA78
:10136000E169E869A2690B1A61690144101A401C1D
:10137000921E08F027FAEE6911E055F826000AF0EF
:10138000C0FEE069831BA069821B60698119206926
:10139000304408F02DF8761C022EEEDB0226D5E94B
:1013A0000301CDE90001E169606901444B10A169C5
:1013B0008A1B811C2069304407F04EFD00E011E0DB
:1013C000D5E90501CDE90001E0696169831E0144A9
:1013D0000122A06902EB6101821B2069304407F001
:1013E0003BFD77E0206806F00BF9049020681CF0C4
:1013F0006FFE50B1A068002818BF00200AD10498E1
:10140000006F002818BF012004E00498406F0028F6
:1014100018BF0220049901EB8000C56E04A806F0F5
:10142000CFF900231A462846216806F09FFF51E0B5
:10143000206806F0E5F80490866E002E08BF04A828
:1014400042D0A168B0F95C70002908BF012103D027
:1014500003290CBF0221002100EB8101406D0C6CBF
:101460000AF078FE20460AF04CFE06A808F0D8FAEA
:10147000BDF81810A88B0144ADF81810BDF81C1069
:10148000081AADF81C00BDF81A00801CADF81A004F
:10149000BDF81E00801EADF81E000498B0F9602053
:1014A000B0F95E1006A809F0C6FF04A806F088F996
:1014B00002200AF0F7FE304606F0A2F83A4606A9E6
:1014C000059007F0CDF805A806F07AF902E020684B
:1014D0001BF07EFF09B00020F0BD0000188B100843
:1014E00038B506F08DF804460090684606F068F9B5
:1014F000204638BD70B594460C46054619466046F0
:10150000049A06F0F5FE024621462846BDE87040E2
:1015100000F062B8044A0349116004494A6A48620B
:1015200010467047D404002098040020A404002032
:1015300070B505460C46104600210A4606F0F8FE36
:10154000024621462846BDE8704000F045B800003C
:1015500038B50C46054608F0E5FB284606F050F87D
:101560000090064984654166684606F029F92846D8
:101570001BF03CFA0BF0D2F938BD0000D404002077
:10158000F0B583B00F4605004FF0010421D008F0FC
:10159000C9FB284606F034F80190866E01A8009633
:1015A00006F00EF9394668460DF0B0FB78B10098A8
:1015B0000024B04208D0284606F022F80190009995
:1015C000816601A806F0FCF828461BF00FFA0BF024
:1015D000A5F903B02046F0BD002808BF7047F8B554
:1015E00015460C46064608F09DFB304606F008F806
:1015F0000090032C0BD200EB84006C3005F0FEFE53
:10160000009800EB8400C56630461BF0EFF9684691
:1016100006F0D6F80BF082F9F8BD00002DE9F0478E
:1016200007464FF0140838680F2845D126480AF0BD
:101630005DFD06F0FDFB10F0B7FB24494988A0EBE7
:10164000010910F06DFB21490988A0EB010A09EBA3
:10165000D97042100AEBDA7041101C4807F056F9B5
:10166000002410F05DFB814600EBD9704010022190
:1016700001FB180085B21CE015480068A04201D1AA
:10168000144800E014480646B6F8029009EBD970F9
:101690004010C0F1FA02B6F800A00AEBDA70A5EB30
:1016A0006001304607F032F9601C84B205EB080097
:1016B00085B2052CE0DB03E038461AF013F800BFD2
:1016C00000BFBDE8F08700008080FF0038480B08AD
:1016D00098010020804A0B08DC480B0800BFFEE799
:1016E0002DE9F04F466804460146CDB0304619F06A
:1016F000BAF9002804BF4DB0BDE8F08FFC4F206858
:10170000DFF8F0B30E280FD00F2800F02D82262826
:1017100000F07A83B0F5107F00F06181204619F067
:10172000E1FF4DB0BDE8F08F30461CF0D1FC002841
:1017300004BF4DB0BDE8F08F6C2225A9304619F0EA
:101740005DFD2B9828B9DDE92501279A2D92CDE979
:101750002B0128992B9888421CBF4DB0BDE8F08F13
:101760002C99299881421CBF4DB0BDE8F08FE068EC
:1017700041680029DCBF4DB0BDE8F08FDDE92C45A4
:101780000068DDF8AC80132808BFE81D17D00CDC1A
:10179000102808BF681E12D0112808BFE81F0ED0FD
:1017A000122808BF681C0AD00AE0212808BF601E62
:1017B00003D0222808BF601C02D12C9000E02D909D
:1017C0002C980C2804DD0C382C9008F1010005E061
:1017D000012804DA0C302C90A8F101002B90083776
:1017E000B7E80F56CDE9400142A880E80C5697E8CB
:1017F0000F000DF59079283F89E80F002C98401EC6
:101800008BFB00214A10A2EBE171A1EB810100EBFF
:10181000810040A951F820002C99022905BF2B997D
:1018200011F0030F0021012108442D9981420DDDA3
:10183000081A2D902C98401C2C900C283BDD2B98DE
:10184000401C2B902C980C382C9034E0012932DA73
:101850002C98401E2C90012805DA2B98401E2B90C6
:101860002C980C302C900837B7E80F56CDE9400182
:1018700042A880E80C5697E80F000DF5907989E8AA
:101880000F002C98401E8BFB00214A10A2EBE17147
:10189000A1EB810100EB810140A850F821102C98A8
:1018A000022805BF2B9810F0030F002001200844E8
:1018B0002D9908442D904FF4B07130461AF080FAFB
:1018C00007462C9A6FF003003D9900EB82002B9B9A
:1018D0000A5840A8CDF80800029912F8010B01F847
:1018E000010B02910028F7D143B1481E202100F8D6
:1018F000011B029002A9184606F031F940A93846AA
:1019000018F0E7FE2C9829902B9828906C2225A996
:10191000304619F089FC2998844204BF28988045F4
:101920001CD04FF00000ADF80000DDE93B10014491
:101930003A98ADF80210C0EBC000A0F101023B984C
:10194000ADF80420C0EBC000A0F101000144ADF8E7
:101950000610694630461AF0D9FF30E02D9925A8C7
:10196000CDE9085107AA40A924F032FF002508ACB0
:1019700054F8253003B3DDE94001CDE9040100212D
:1019800007985B1E0A4644F8253018BF3A9B0CD0D6
:10199000401C072818BF194418D000BF54F825C0B0
:1019A000BCF1010C44F825C0F2D104A809F043FDB4
:1019B00004A930461AF0AAFF6D1C022DD8D30421C9
:1019C00030461BF01CF94DB0BDE8F08FA3EB830C43
:1019D00001EB4C01DDF8ECC000206244DEE7E46876
:1019E000002C04BF4DB0BDE8F08F207A00287DD0D8
:1019F0006C2225A9304619F001FCDDE92B012D9A56
:101A00000792CDE90501D4E9005425A808AA694642
:101A100024F0DEFE3A983A9995FBF0F048433C9961
:101A20003B9A611A891A91FBF2F13C9B083701FB42
:101A300002311144BDF900200DF5807A801A3A9ADE
:101A400090FBF2F2BDF90200081A3B9990FBF1F00D
:101A5000C0EBC0001044B7E83E138AE83E1397E895
:101A60000E1048AD401C85E80E102999491E8BFBCD
:101A700001325310A3EBE272A2EB820201EB82016E
:101A800040AA52F82110299A022A03BF289A12F07C
:101A9000030F0122002211440128A8BF81424CDB20
:101AA000DDE92812CDE92C202B910C222BA905A8C9
:101AB000FEF77CFCD8B16C2225A9304619F0B4FBA6
:101AC0002D990798CDE9400125AB44AA08A91846ED
:101AD00024F07EFE002440AD55F8243033B3DDE918
:101AE0000801CDE9420100210A4605E035E020E089
:101AF000288B1008ABAAAA2A44985B1E45F824300C
:101B000018BF3A9B0BD0401C072818BF19441BD0A4
:101B100055F824C0BCF1010C45F824C0F3D142A80B
:101B200009F089FC42A930461AF0F0FE641C022C30
:101B3000D2D3042130461BF062F8012130461BF05D
:101B40005EF84DB0BDE8F08FA3EB830C01EB4C01C8
:101B5000DDF8ECC000206244DAE7022130461BF0D9
:101B60004EF84DB0BDE8F08F4FF000096C2225A96A
:101B70003046CDF8089019F041FB30461AF0A0FB32
:101B8000804630461AF0B4FB044634986FF0704A31
:101B9000504509D00AF0B5FA3C980021431EA8F13F
:101BA0000102084607F00EFEADF820903C98ADF813
:101BB00022003A98CC4D401EADF82400601EADF8CE
:101BC0002600002425AE3F984A4601190846C5FB69
:101BD00001208210A2EBE070A0EBC000084403904B
:101BE0000228ACBF0120002006EB8000406A50456F
:101BF00004D00AF086FA08A807F010FE002208A810
:101C00003A9909F018FC641C072CDCDBADF8209035
:101C10003C98ADF822003A99491EADF824103B9942
:101C20000844401EADF8260038980AF093FA0220C6
:101C30000AF038FB36980AF064FA00243F984946C7
:101C400002191046C5FB02108110A1EBE070A0EB59
:101C5000C00010443E9903900E2251F8200008A9BC
:101C600006F0FEFC002208A83A9909F0E4FB641C87
:101C7000072CE3DBBDF92600A8F10302022107F0DF
:101C800035FB03AA08A925A824F0A2FD3F99002945
:101C900040F31E8111F0010F05D003980628B4BF50
:101CA000401C0020039048100CD003990629B4BFB3
:101CB000491C002103910629B4BF491C002103914E
:101CC000401EF2D108370DF5807EB7E83F118EE84F
:101CD0003F1197E80F0048AC84E80F002998401E98
:101CE0008BFB00214A10A2EBE171A1EB810100EB1B
:101CF000810040A951F820002999022905BF28999F
:101D000011F0030F0021012100EB01054FF0000449
:101D1000002DCEBFDFF8D4814DB0BDE8F08F00BFFD
:101D200004F131008DF8080014E0092CF8DB601C88
:101D300088FB00108110A1EBE07000F130018DF8FC
:101D400008104042611C00EB800001EB4000303085
:101D50008DF809002B992898814241D12C99299816
:101D600081423DD12D98611C884239D1309850452F
:101D700004D00AF0C6F908A807F050FD339F259952
:101D8000289881420DD129992698884209D127990E
:101D9000601C814205D137980AF0B3F908A807F012
:101DA0006FFB38460AF0ADF90E2208A902A806F02A
:101DB00057FC0398401C0390072808BFCDF80C90EF
:101DC0003F990398814214D1002108A83B9A09F059
:101DD00032FBADF820903A98401EADF824000DE09B
:101DE00003980228ACBF0120002006EB8000076B9F
:101DF000C5E7002208A83A9909F01DFB641CAC4213
:101E000093DB4DB0BDE8F08FA0681AF06CF8E16884
:101E1000B0F5B87F15D0A0F58070713807BF0229E2
:101E200001244DB0BDE8F08F4FF06C020AA9304696
:101E300019F0E4F90E9800190E900AD00D280DD073
:101E400011E002290EBF4FF0FF344DB0BDE8F08F16
:101E5000EAE70D98401E0D900C2003E00D98401C01
:101E60000D9001200E904FF4B071304619F0A8FF8C
:101E700004460E9A6FF00300229900EB82000B5883
:101E800025A90D98CDF80010009A13F8011B02F84F
:101E9000011B00920029F7D138B1511E202201F810
:101EA000012B0091694605F05AFE25A9204618F03D
:101EB00010FC6C220AA9304619F0B6F930461AF027
:101EC00095FD0A2130461AF09AFE4DB0BDE8F08F1C
:101ED00000293FF4F7AE03980628B4BF401C002049
:101EE0000390491EF7D1EDE6932449926766666632
:101EF0002DE9FF4FC9B00E46DDE95749DDE95987A5
:101F00009A46154670211EA8DDF858B1FEF730FA42
:101F10006C2103A8FEF72CFAABF101000C2880F02D
:101F2000E280AAF22E6042F2E201884280F0DB8079
:101F300044226F490CA8FEF7F3F96E4B00211A46B4
:101F40000846E4FB0320C008A0EB40102044CDE984
:101F500003ABCDE9050A0120CDE907B06648059B32
:101F6000CDF824A0CDE91D90CDE90AB318981A9BAD
:101F7000C0EBC0021998ADF88260C0EBC0001844F5
:101F8000ADF888006C202490ADF88A704FF4B870DA
:101F9000ADF89C000320ADF89E001A98574B0A3804
:101FA000ADF8808025932C93ADF8A40040F2711316
:101FB000ADF88450ADF8B830ADF886201A9B4FF0DC
:101FC000050CD21AD21DADF8BA204D4B3393ADF8A3
:101FD000C0004FF4B073ADF8D430C31CADF8A0C04E
:101FE000ADF8A200D21AADF8DC00ADF8BCC0ADF877
:101FF000D8C0ADF8BE00ADF8D630ADF8DA2000910B
:102000000191404A04211EA8499B05F0B9FF050033
:1020100069D06FF0704119F0F4F83B4928461BF085
:102020000BF84FF4B871284619F0CAFE0446002197
:1020300018F00CFE35492046FFF78AFA40F271117C
:10204000284619F0BDFE0446002118F0FFFD2F4977
:102050002046FFF77DFA4FF4B071284619F0B0FE24
:1020600004462B491AF0E8FF0E21204618F05DFBCC
:102070002046139918F070FB2046179918F010FBB2
:10208000204619F023FA2046129918F0E7FA07992A
:102090006FF003021B9802EB81013AAA415806989F
:1020A000CDF80020009B11F8012B03F8012B0093C1
:1020B000002AF7D138B1591E202201F8012B0091D6
:1020C000694605F04CFD3AA9204618F002FB284667
:1020D0001BF080F86C2203A9284619F0A5F84DB032
:1020E0002846BDE8F08F4DB00020BDE8F08F00001D
:1020F000EC0500202184104275B101089D110008F3
:1021000073A50108E116000839F4020861490208C4
:1021100089C7020830B59BB00C46054607F002FEA1
:102120006C226946284619F069F8DDE90601089A2B
:10213000A260C4E900010AF0F1FB1BB030BD000051
:10214000022828BF7047024A02EB80008162704774
:10215000EC050020064A002804BF9163704701285F
:1021600004BF11637047022808BF51637047000025
:10217000EC0500202DE9F04F0446006889B028B135
:102180001BF0A6FF002808BF012500D00025FE484F
:1021900050F8256060680A2800F0738108DC002888
:1021A00000F0DD81062841D007280CD000F0E8B906
:1021B000122800F03081192802BFB06909B0BDE8CB
:1021C000F08F00F0DDB9256807F0ACFD284605F07A
:1021D00017FA0090C76F684605F0F2FA0AF09EFB06
:1021E0005FF0000556F8250009F08BFF2069C11942
:1021F000491B4B1E61691A462944284407F0F8F828
:102200006D1C032DEED3D6E90301CDE90001D4F80E
:1022100010C00CEB0700401B431E60691A464119B1
:102220000CEB050006F018FE00F0AAB9A068401EED
:102230000690246807F076FD204605F0E1F900904D
:10224000D0F87C80684605F0BBFA0AF067FBDFF83F
:102250003C9359F82570002F1CBF069800EB8000B6
:102260000DD000BFB7F84810414505D107EB8001FC
:10227000896809B11FB1C4E0FF6C002FF2D1502072
:1022800005F022F9070000F07B81C14C50220021AB
:102290002368984770697864A7F8488059F8250042
:1022A000F864BC48A8F1060880FB081049F82570BE
:1022B0004110A1EBE071032008900120049007F188
:1022C0004000CDE90280069D05EB850007EB80000C
:1022D000019005EB450007EB80002830009008EBEB
:1022E000D8704210401000EBD073A0EB630046188A
:1022F000501A059008F10700C11700EB51704FEA22
:10230000E00A0AFB08FB584605F0DEF85FEA000920
:1023100077D023685A4600219847DDE90420012838
:1023200026DD089B01213046334483421BDD4FEA02
:10233000E27C02EB5C7E02F0070C802424FA0CFCA9
:10234000404509DA0AFB00F404EBEE0419F804B086
:102350004BEA0C0B09F804B06940401C834202DDD3
:102360000029F9D0ECE70598521C761C9042D8DC85
:1023700004990298401A0490904225DD08990120A2
:1023800034463144A1421ADDD31702EB537E02F0EA
:10239000070C802323FA0CF3444509DA0AFB04FCFA
:1023A0000CEBEE0C19F80CB04BEA030B09F80CB06F
:1023B0006840641CA14202DD0028F9D0ECE70498D3
:1023C000521C761E9042D9DC0098022101600099CF
:1023D00001200871009A039991600199C8800198C1
:1023E0000021A0F804A00198C0F8089001980161AC
:1023F000DDE90001C860DDE9010101800198A0F874
:1024000002800698032200EB800007EB8000114653
:1024100006F07CFAB4E0206805F0F2F80290B0F91A
:10242000547090F85650D0F84490D0F8348002A8F8
:1024300005F0C6F9266807F075FC304605F0E0F8AF
:102440000390B0F87C6003A805F0BAF90AF066FAC8
:10245000684619F06BFCBDF8000071190844ADF82E
:102460000000246A404609F075FE022009F01AFFB8
:10247000484609F046FE3A466946204606F0F0F81E
:102480007EE0206805F0BCF80290B0F9548090F826
:102490005660D0F83490876C02A805F091F9256851
:1024A00007F040FC284605F0ABF80390B0F87C50EC
:1024B00003A805F085F90AF031FA684619F036FCF0
:1024C000BDF80000A9190844ADF80000206A07F023
:1024D0004BFB0446484607F075FB28F0030104292E
:1024E00004BFBDF80610091A08D00C2908D1BDF99F
:1024F0000610091A491C01EBD1714910ADF8021000
:1025000028F00C0101290CD0022913D1BDF90410C7
:10251000BDF90020891A091B01EBD17102EB6101A1
:1025200006E0BDF80420BDF80010521A121B114439
:10253000ADF80010BDF80010621E1144ADF8041093
:10254000BDF80210401E0844ADF80600384609F0F8
:10255000D8FD4FF0FF31684606F052FA10E02068CF
:102560001AF036FF206805F04BF80790B0F9061016
:10257000B0F90220891A491CC16707A805F020F9A3
:1025800009B00020BDE8F08F608B100874060020B1
:10259000180C002067666666044A03491160044906
:1025A000CA69C8611046704730060020C40C00207C
:1025B000C80C002000B589B0002000900290039064
:1025C0000490059006900790089019200190044807
:1025D0000068806841686846884709B000BD00000F
:1025E000C40C002070B5234C054682B02068418C95
:1025F000B0F84C2011444184818CB0F85020114433
:102600008184284607F0E6F92168498CADF800106E
:10261000461828460CF0A4F93044401EADF80400DA
:1026200007F050FA2168898CADF802100844401E6A
:10263000ADF8060068461BF081FB30B1284602F079
:10264000D3FD1BF063F90028F8D10A2D04D0BDF8A2
:1026500004002168401C48842068418CB0F84C205C
:10266000891A4184818CB0F85020891A818402B083
:1026700070BD0000900300202DE9FE4304460E4685
:10268000154620460CF0D8FC07460F4850F82400A9
:1026900007FB06080C4850F8240007FB0509002139
:1026A0000A4850F82400CDE900010948029150F889
:1026B00024304A464146204600F0DCFA054840F8FE
:1026C0002450BDE8FE8300008C0000209C00002008
:1026D00098000020940000202DE9F04F85B00446BA
:1026E0000D4616461F46DDE90F8BDDF838A0204663
:1026F0000CF0A2FC81461C4850F824001B4951F8FC
:10270000241009FB01001A4951F8241006FB01515D
:10271000184A52F8242001FB02000490124850F895
:102720002400124951F8241009FB0100104951F806
:1027300024100AFB01710F4A52F8242001FB020009
:10274000039000210A4850F82400A0EB08004346FB
:10275000CDE900B002912046DDE9032100F08AFABC
:1027600005B0BDE8F08F00008C0000209400002030
:1027700098000020A00000202DE9FE4F04460D46E1
:1027800016461F46DDF8309007F066F9012810D193
:1027900000221921204610F033F94B463A463146C3
:1027A00028460FF049F9194A1921204610F028F956
:1027B0002AE0781B00F10108A9EB0600401C0290FA
:1027C00020460CF039FC8246114850F8240011498B
:1027D00051F824100AFB01000F4951F8241006FBA0
:1027E00001510E4A52F8242001FB020B0A4951F80C
:1027F0002410A1EB08010D98CDE90010424659467E
:102800002046029B00F066FABDE8FE8F792700089B
:102810008C0000209400002098000020A0000020E0
:10282000F8B504460D4616461F4603203B46324681
:1028300029460090204600F0F5FAF8BDF8B50446A8
:102840000D4616461F4604203B4632462946009058
:10285000204600F0E7FAF8BDF8B504460D461646E6
:102860001F4602203B46324629460090204600F093
:10287000D9FAF8BDF8B504460D4616461F460020A5
:102880003B46324629460090204600F0CBFAF8BD80
:10289000F8B504460D4616461F4600203B46324614
:1028A00029460090204600F0BDFAF8BD1CB504464C
:1028B0001A2000212346044ACDE9001002210348D2
:1028C00005F05EFB1CBD000065E50208AC7706085C
:1028D0007CB519F05FFA0546002000902B460A4AA5
:1028E00006210190094805F04BFB0446204619F0EB
:1028F00044FA054600234FF47A72194618F006FE92
:102900000349086020467CBD5DE80208881B10086A
:10291000C00100201CB504461A2000212346044AA9
:10292000CDE900100221034805F02AFB1CBD000080
:1029300035E6020840C90B081CB504460B48006880
:1029400058B9002000902346094A03210190094804
:1029500005F016FB0549086007E0044800681AF016
:102960000DFE0248006818F039FD1CBDA0010020D2
:1029700099F20208600A0D087CB519F00BFA0546B9
:10298000002000902B460A4A0B210190094805F0CF
:10299000F7FA0446204619F0F0F9054600234FF4F3
:1029A0007A72194618F0B2FD0349086020467CBDD2
:1029B00009E70208B40A0D08BC01002000F086FCFB
:1029C00006E00AA03CF0E2FA4FF47A703CF08FFF88
:1029D00000F066F80028F4D107E00949094800F042
:1029E000A4F84FF47A703CF082FFF6E74448543183
:1029F0003120496E6974204572726F7221000000A7
:102A000069000020680000201CB50121022015F09B
:102A100033FA4FF48050009001208DF8040000201C
:102A20008DF8060001208DF8070002208DF80500C2
:102A30006946024803F0A0F91CBD000000040240F2
:102A400010B500241448006820F040701249086056
:102A500008460068086004E0601CC4B2012000F071
:102A60005BFC0E48006808B1642CF5DB642C01DBCC
:102A7000012010BD002404E0601CC4B2012000F05D
:102A80004BFC0648006808B9642CF5DB642C01DBBC
:102A90000120EEE70020ECE70004024030824042D3
:102AA00010B50648006840F0020004490860FFF7CE
:102AB000ABFF00F067F8FFF7C3FF10BD30380240EE
:102AC00010B5002404E0601CC4B2012000F024FC16
:102AD0000D48006808B1642CF5DB002404E0601C9C
:102AE000C4B2012000F018FC0748006808B9642C43
:102AF000F5DB282000F010FC0348006808B1012035
:102B000010BD0020FCE700003082404270B5002478
:102B1000002506E06006040EFFF7D2FF0443681CA0
:102B2000C5B2082DF6DB204670BD7CB505460E46C5
:102B300000F028F8FFF784FFF8B9002405E0FFF75C
:102B4000E5FF0DF80400601CC4B2052CF7DB9DF80E
:102B500000009DF8011008449DF8021008449DF8FB
:102B6000031008449DF80410884208D19DF8000025
:102B700030709DF80200287001E001207CBD00202B
:102B8000FCE7000010B50D48006820F040700B49CC
:102B900008600846006840F080700860002008491E
:102BA000086044F6206000F0B7FB01200549C1F839
:102BB000B0021E2000F0B0FB10BD00000004024077
:102BC000B08240420080404210B54FF081510B4826
:102BD00000F08AF980B1012109480CF0F1FE0021D2
:102BE000064800F013F94FF08151044800F0F4F862
:102BF000002004490968088010BD000040600240C0
:102C0000005C00402C00002010B51449144800F06E
:102C10006BF910B30021124800F0F8F80F49104882
:102C200000F0DAF84FF420400E49086007E00D4943
:102C30000868411E0B4A116008B93DF020FB0A49A3
:102C40000A480CF0C9FE0028F1D0012107480CF019
:102C5000B7FE002006490968087010BD200000205A
:102C6000706002402800002004000010005C00405A
:102C7000300000202DE9F05F07460C4615461E4641
:102C8000DDE90B9ADDF8288038460CF0F9F9834627
:102C90004FF400700E4908600846C460C563C0F870
:102CA0001090C0F840A0C0F81CB0404666F31F402A
:102CB00048640846006840F00100086000BF04480E
:102CC000006800F001000028F9D1BDE8F09F000085
:102CD00000B002402DE9F04707460C4615461E4657
:102CE000DDE9088938460CF0CBF982460E480F49D9
:102CF00008600846C0F83890C463C0F84080C0F847
:102D000034A0304665F31F4048640846006840F030
:102D10000100086000BF0548006800F001000028BD
:102D2000F9D1BDE8F08700000002030000B00240C6
:102D300010B500F001F810BD02200149886070470D
:102D400000B00240704700002DE9F04107460C46F4
:102D500015461E4632460B4938460EF021FA3246D9
:102D6000094920460EF01CFA3346084A0649054830
:102D700000F00EF83246294604480EF011FABDE87C
:102D8000F0810000C0200020C02F0020C0110020D2
:102D900030B50F4C0F4D2C602C46E0606161E26352
:102DA00000242C61AC612C64EC616C626C630124C6
:102DB00004EB03446C642C46246844F001042C604A
:102DC00000BF044C246804F00104002CF9D130BD8C
:102DD0000002020000B002400246094B9A4201D2B2
:102DE000084801E00648103801F000531BB1064BBB
:102DF0000B40C36002E0044B0B408360704700004F
:102E000010640240006002407D0F7D0F21B1026816
:102E100042F00102026003E0026822F00102026057
:102E2000704700002DE9F84305460E4614469846C3
:102E3000089F2246064928460EF0BCF93B46002270
:102E400031460348009400F005F8BDE8F88300001F
:102E5000C011002070B5049C4FF481350D4E3560D3
:102E60003546E860E9630025356135643546EA6139
:102E70006B63012505EB0445756435462D6845F007
:102E80000105356000BF034D2D6805F00105002DDB
:102E9000F9D170BD00B00240F0B505AC70CC4FF474
:102EA0008137DFF840C0CCF800706746F860F963FE
:102EB0003A613B640527CCF81C7067467C6346EAA0
:102EC0000547CCF8447067463F6847F00107CCF8E7
:102ED000007000BF034F3F6807F00107002FF9D1D2
:102EE000F0BD000000B0024030B503460A460020A5
:102EF00000240B4DAB4201D20A4901E008491039C8
:102F000002F000550DB14C6800E00C68064D2C40F5
:102F100004EA02050DB1012000E0002030BD0000F0
:102F200010640240006002407D0F7D0F2DE9F843E0
:102F300005460E4614469846089F00233A46064921
:102F400028460094FFF786FF2246314602480EF0DD
:102F500031F9BDE8F8830000C0110020074AD062B3
:102F60004A1ED2B2012343EA0222044BDA611A4616
:102F7000D26942F02002DA617047000000B00240DE
:102F80001EB5034601F07F40B0F17F4F01D11846D6
:102F90001EBD83F07F40029081F07F400190154874
:102FA000154C206002A8E06001A86061C4F83CD024
:102FB0004FF4803040EA0260E061C2F1FF0000247B
:102FC00044EA00600C4C6062002060634FF0011026
:102FD00060642046006840F00100206000BF0648A1
:102FE000006800F001000028F9D1009880F07F40CF
:102FF000CEE700000002020000B0024070B5049C61
:10300000124D134E35603546E8606961EA634FF44E
:10301000803545EA0365F561C3F1FF05002646EA00
:1030200005650B4E756200257563012505EB0445AA
:10303000756435462D6845F00105356000BF044DC7
:103040002D6805F00105002DF9D170BD00020200C8
:1030500000B002402DE9F041044688B0006804F059
:10306000CFFA0690468ED0F8885006A804F0A8FB48
:10307000002D18BF012506F0010620681BF028F876
:10308000002D18BF00200FD07D4951F820506068F6
:10309000002800F0EE80022800F0CE8005280CD039
:1030A00012287DD000F0E8B8002E18BF0120EBD127
:1030B000002814BF02200320E6E7D5E90123A86A0F
:1030C00029688DE80F0004F110000FC80AF0C8FE4F
:1030D0005FF0000655F8260009F013F8A169A86A08
:1030E0000A1A216901446069304406F0FFF8A169B9
:1030F000A86A0A1A21690144E069801B06F0F6F803
:10310000E169A86A0A1A616901442069304406F03D
:10311000CFFAE169A86A0A1A61690144A069801BB3
:1031200006F0C6FA761C022ED4DBA86A02281BDD44
:10313000A86808F0E6FFE169A86AD4F810C00B1A85
:103140000CEB00014A1E616901440CF1020006F01B
:1031500039FBE169A86AA2690B1A61690144101A76
:10316000401C921E06F02EFBD5E90301CDE90001BB
:10317000E1696069A26901444B10A96AD4F810C0E2
:10318000521A8C44811C604605F066FED5E90501A3
:10319000CDE90001A069AB6A6169C21AE06900E08B
:1031A00019E001444FF0010C0CEB6101D4F810C0A0
:1031B0009C44831E604605F04FFE686A08F0A1FF3C
:1031C000E2696169A369501A181A401C091D121F8F
:1031D00006F06EFA50E0206804F012FA0090B0F8A1
:1031E0008060B0F98280C76C684604F0E9FA208AF2
:1031F000B11C0844ADF80800A08A801CADF80A0094
:10320000A08BA18A401A218B891B081AC01EADF819
:103210000C00A08B801EADF80E00022009F042F8D1
:10322000384608F097FF286A08F06BFF424602A96B
:10323000206A05F015FA1FE06169E0694FF0FF327E
:10324000401AA0F1080102EB6106411CA269801B33
:103250004410A2EB6107E86908F053FF002E0BDB76
:10326000BA19B91B204606F041F8641C761EF7D542
:1032700002E020681AF0ACF808B00020BDE8F08148
:10328000688B1008044A0349116004490A6B0863FB
:10329000104670477C060020040D0020080D002019
:1032A00038B50D46002404F0ABF90090C06B2946F8
:1032B00004F063FB0546684604F082FA1DB1284617
:1032C00004F09EF90446204638BD0000104800680E
:1032D00020F080700E4908600846006840F0807059
:1032E00008600C48006820F001000A4908600846A0
:1032F000006840F0010008600020486000BF00BF87
:1033000000BF0448406808B1002070470120FCE776
:10331000FCED00E0001000E001B5094948680949EA
:103320000968094AB1FBF2F1009A5143009100BFCC
:1033300003494968091A009A9142F9D308BD00006F
:10334000001000E00000002040420F007047000025
:1033500070B504460D461646022C0DD1FF2008F02C
:10336000D0FE06EB460305EB45020A4901EB0410CB
:10337000042103F0DBFD0CE0074808F0C2FE06EB79
:10338000460305EB4502034901EB0410042103F059
:10339000CDFD70BDC03E00208080FF00002808BF2A
:1033A00070472DE9F04F91B00F46044606F0BAFC85
:1033B000204604F025F9039090F854A0D0F83490FA
:1033C000866DC56C03A804F0FBF926B1394620468A
:1033D000B04700F0ABB900264FF00108122F7DD0A6
:1033E00006DC082F7BD0102F7AD0112F3CD006E0BE
:1033F000132F5BD01D2F00F0E4801E2F71D0202FE3
:10340000C0F29481BAF1000F00F0F280204604F07F
:10341000F7F80590D0F834A0D0F84C9005A804F047
:10342000CFF9BAF1000F00F0E380504604F0E8F85D
:1034300082464946069009F045F981465046FCF718
:10344000AEFF48457DD9D144484609F0F5F809EB6F
:1034500000014846FCF7B7FF06A804F0B1F90521C2
:10346000204619F0CCFBC3E0B9F1000F00F05E81FB
:10347000484604F0C5F807462946049009F022F9A9
:103480000744384609F0C8F80546029609F0E4F802
:103490008046681C86B2304609F0DEF80546A8452D
:1034A00026D004A804F08CF900F040B9B9F1000F5F
:1034B00000F03C81484604F0A3F8074629460490F2
:1034C00009F000F90744384609F0A6F805460296C7
:1034D00009F0C2F88046681E86B203E016E021E0DB
:1034E0001AE043E0304609F0B7F80546A845D8D1C0
:1034F000314602A809F07EF82A4602A93846FCF7B0
:103500000FFF0521204619F07AFBCAE7691C204607
:1035100000F02AFC00F00AB9691E204600F024FCE5
:1035200000F004B9002D00F00181691E204600F072
:103530001BFC204604F064F80190C76C456B01A8A1
:1035400000E052E004F03CF9002D00F0EF80284646
:1035500004F056F806463946029009F0B3F80546DD
:103560003046FCF71CFFA84229D918E0204604F099
:1035700047F80190C76C456B01A804F021F9002DB4
:103580007ED0284604F03CF806463946029009F001
:1035900099F805463046FCF702FFA8420FD935449A
:1035A000284609F049F829182846FCF70CFF02A81C
:1035B00004F006F90521204619F021FBB6E002A827
:1035C00010E0204604F01CF80390BAF1010F08BF88
:1035D00080F8546005D080F854802946204600F0D9
:1035E000C3FB03A804F0ECF8A0E006A804F0E8F898
:1035F0001FFA87FB204604F003F807460290B0F953
:103600003800002812DD786B4FF0000940B103F05C
:10361000F7FF00900BF080F98146684604F0D0F87F
:10362000B7F9381009F10100884200DC46460298DB
:10363000C06C079002A804F0C3F8002E76D058465C
:1036400009F00AF8074626464FF00008204603F026
:10365000D7FF0B90406B40B103F0D2FF0890FCF70E
:103660009EFE804608A804F0ABF80B9907EB080013
:10367000498F401A00F101080BA804F0A1F800E0FE
:1036800054E0B8F1000F2CDD304608F1100803F0CB
:10369000B7FF0090D0F834A0408F8044684604F013
:1036A0008FF84146504603F0BFFF5FEA00093DD066
:1036B000BAF1000F0AD103F0A3FF204B0D90424650
:1036C0001B68002198470DA804F07AF8304603F0F3
:1036D00097FF0090A0F83A80C0F83490684604F054
:1036E0006FF8204603F08CFF0290466B02A804F0AE
:1036F00067F8304603F084FF06460F90079908F0FC
:10370000E1FF06443046FCF74AFE421CF019314600
:10371000FCF706FE5946304608F06CFF0FA804F08F
:103720004FF80521204619F06AFAEFE6204619F015
:103730005DF909F0F3F811B0BDE8F08F180C002026
:1037400070B54568044682B028461AF0C1FC0646AA
:103750002146284617F087F9002804BF02B070BD43
:1037600020680F2844D004DC0B2847D00E2850D006
:1037700066E0A0F58070133804D0A0F580702D3875
:103780001FD05DE0284619F0E7FB284603F038FF1C
:10379000009090F8561081F0040180F856106846A9
:1037A00004F00EF80021284627F0C0F8284603F060
:1037B00027FF0090D0F88400002119F016FB68461E
:1037C00024E0E06878B1017A41B10168284600F050
:1037D00010F90121284619F012FA31E00221284699
:1037E00019F00DFA2CE00321284619F008FA27E019
:1037F0000121284627F09AF802B070BD284603F050
:10380000FFFE0190343003F0F9FD01A803F0D8FF6A
:1038100016E0AEB1E0684168002911DD01681B299E
:103820000ED009DC09291CBF0A290D2908D0284619
:10383000FFF7B4FD02B070BD212918BF2229F6D1CF
:10384000204617F04FFF02B070BD2DE9F04186B061
:103850000DF1300898E8F0104FF00008CDF8148012
:103860008DE8F01000F004F806B0BDE8F08100002B
:103870002DE9FF4F85B09846DDE91654DDE9126B5E
:1038800091468A46159F06F04DFA04F16001324ACE
:1038900003914BF480500096CDE9010243464A461D
:1038A0005146059817F062FE04004FD003F0A8FEC1
:1038B00010223946049017F093FB2848049990E8A9
:1038C000CC1701F1600B8BE8CC17006AC1F88000BF
:1038D000012081F85500681C18BF012081F888007C
:1038E000002DD8BF08252AB20A87002048874863E0
:1038F000551C04A803F064FF204603F081FE0090ED
:10390000476B408F0544684603F05AFF2946384606
:1039100003F08AFE060015D057B903F071FE104B74
:1039200001902A461B680021984701A803F048FF30
:10393000204603F065FE009045874663684603F025
:103940003FFF03E0204617F007FF002408F0E6FFE2
:1039500009B02046BDE8F08F41370008400D002037
:10396000180C00200148806870470000400D0020BE
:1039700038B505004FF000040BD006F0D3F9284607
:1039800003F03EFE0090846C684603F019FF08F0D7
:10399000C5FF204638BD002808BF7047F8B5164659
:1039A0000C46054606F0BEF9284603F029FE0090B5
:1039B000002818BF032C05D200EB84008667284638
:1039C00019F014F8684603F0FBFE08F0A7FFF8BDF5
:1039D00070B50D46044606F0A5F934B129462046D7
:1039E00000F0C2F9204619F001F8BDE8704008F077
:1039F00095BF002808BF70472DE9F04186B00C46FE
:103A0000074606F08FF9384603F0FAFD0090406B48
:103A1000002849D003F0F4FD03900098806E08F070
:103A200099FB8046384618F04BFC0646039806F092
:103A30009BF80546009890F8601001F003010129F9
:103A400018D002290FD0416EC06A00680844201ABD
:103A5000441E03980AF060FF002C11DA002138465A
:103A600000F082F917E0701B401C00EBD070A4EB53
:103A70006004EEE7406E711B081A201A441CE8E748
:103A8000A54204DB0246214603980AF0D9FE01460E
:103A9000384600F069F903A803F092FE404608F0AA
:103AA00059FB384618F0A2FF684603F089FE08F07B
:103AB00035FF06B0BDE8F0812DE9F8431D46DDE98C
:103AC000086714468946804606F02CF9B8F1000FC5
:103AD00075D0404603F094FD3B49009081653B4919
:103AE000C1650021C0E91291C0E90F4580F844602A
:103AF00080F85670012180F8541090F8889068463C
:103B000003F05EFEB9F1000F40D0002DA7BF0121E8
:103B10000B460221CB1EB8BF6D422D4A0A2D08DB91
:103B200082FB05C04FEAA00CACEBE075491C0A2DE6
:103B3000F6DAB3F1FF3F02BF4B1EB342491C002C23
:103B4000BDBF02204FF0FF3C64420120A8BF844665
:103B50000A2C07DB82FB04439C10A4EBE374401C9B
:103B60000A2CF7DABCF1FF3F02BF431EB342401CF0
:103B7000002E1CBF401C491C17F0010F18BF491C28
:103B80008142D8BF0146404600F026F8404628F062
:103B900015FF404603F034FD009000F0CFF80D49CA
:103BA0000978884205D10098C06C411C404600F05D
:103BB000DBF8684603F004FE404618F017FF08F0F3
:103BC000ADFEBDE8F883000065F00108BDC902083C
:103BD000676666667C030020002808BF70472DE9F1
:103BE000F04184B00C46064606F09CF8304603F0DF
:103BF00007FD0090B0F93810458FA14248D012DD82
:103C0000406B80B103F0FCFC01900AF085FEA042FD
:103C100006DD2146019808F055FD019A0021115456
:103C200001A803F0CDFD684603F0CAFD601B451CEA
:103C3000304603F0E5FC0290D0F83480408F054414
:103C400002A803F0BDFD2946404603F0EDFC070045
:103C500016D0B8F1000F0AD103F0D2FC104B03903C
:103C60002A461B680021984703A803F0A9FD3046A7
:103C700003F0C6FC02904587476302A803F0A0FD4D
:103C8000304603F0BDFC00900487304618F0AEFECD
:103C9000684603F095FD08F041FE04B0BDE8F081F0
:103CA000180C0020002808BF7047F8B516460C46CF
:103CB000054606F037F8284603F0A2FC00900028DD
:103CC00018BF032C05D200EB8400C666284618F006
:103CD0008DFE684603F074FD08F020FEF8BD38B58F
:103CE00005000C4608BF38BD06F01CF8284603F056
:103CF00087FC0090C16BA1421CDC016CA1421BDB64
:103D0000816CA14210D08464C16D00291CBF28467B
:103D10008847284618F06AFE684603F051FD0521E1
:103D2000284618F06CFF02E0684603F049FD08F0F1
:103D3000F5FD38BD0C46E0E70C46E1E738B5054631
:103D4000406B002468B103F05BFC00900446E96C12
:103D500008F0B8FC204408F05FFC0446684603F015
:103D60002FFD204638BD000010B582B00C4603F090
:103D700047FC0090406BE8B103F042FC01900AF070
:103D8000CBFD009991F85420002A18BF0122002C85
:103D900015DB844215DC00BFB1F93800801AA0425F
:103DA00011DBC86CA04218BFCC640020086501A8D4
:103DB00003F006FD684603F003FD02B010BD0024C9
:103DC000E7E70446E8E7B1F93800841AE9E70000BC
:103DD00010B5024600200023102A03D14FF02044E2
:103DE000636E0FE0B2F5807F02D10A4C236809E0D0
:103DF000B2F5805F03D1074C2034236802E0054C04
:103E0000D434236803EA01048C4201D0002000E08E
:103E1000012010BD840000A00021D0E900231A4336
:103E200083685B1E42EA4312C36842EA4321014AA7
:103E300011607047500100A070B5002200210023DE
:103E400000240568AD00A5F1C045D5F840216FF309
:103E50000E02D0E901563543C6683543066935433D
:103E60004669354386693543C6693543066A354335
:103E7000466A35432A43056835B90568AD00A5F1A2
:103E8000C045C5F8402111E03B4D2B686FF30E0390
:103E9000D0E907563543466A35432B43364D2B60F0
:103EA0000568AD00A5F1C045C5F84021056875BBA2
:103EB000314D0835066855F8261001F07041856AC5
:103EC0002D686D1E866A7668761E45EA0616856A36
:103ED000AD686D1E46EA0526856AED686D1E46EAE8
:103EE0000536856A2D8A6D1E46EA0546856AAD8AC5
:103EF0006D1E46EA0556856A2D7E6D1E46EA0565ED
:103F000029431D4D0835066845F8261032E0FFE7C5
:103F1000194D0835066855F8261001F07041856A7C
:103F20002D686D1E866A7668761E45EA0616856AD5
:103F3000AD686D1E46EA0526856A2D8A6D1E46EA25
:103F4000054529430C4D08352C6804F07044856AFA
:103F5000ED686D1E2E03856AAD8A6D1E46EA055515
:103F60002C434FF02045C5F84841034D08350668FD
:103F700045F8261070BD0000400100A00449096802
:103F800041EA40014FF02042C2F85411704700004E
:103F9000540100A02DE9F04389B0984615460F461C
:103FA00006004FF0000423D000F0C8FC0446304661
:103FB00000F0A4FC814605F0B5FE03A9304600F0F0
:103FC00030FF17F0010F17D0BDF91C008221001B34
:103FD000401B401C0096CDE9018123461A46494604
:103FE000FDF7BEF80446002116F030FE08F096FCFE
:103FF00009B02046BDE8F083BDF9180017F0020FA4
:10400000284414BF40F202210221E3E710B5052342
:10401000FFF7C0FF0446054A0021FDF789FA04496D
:10402000204619F009F8204610BD0000D9110208F9
:10403000E1E3020810B50723FFF7ACFF0446054A89
:104040000021FDF775FA0449204618F0F5FF2046D7
:1040500010BD000039130208CDEB020810B508238B
:10406000FFF798FF0446054A0021FDF761FA04496D
:10407000204618F0E1FF204610BD0000B9150208E7
:1040800005EC02082DE9F047446805468EB04FF074
:104090000008204603F0B4FA0090B0F87CA0D0F8F5
:1040A0006890D0F88070D0F88860C06D002818BF84
:1040B000D0F80080684603F083FB56B1716828464B
:1040C000884700281CBF0EB0BDE8F0873668002E78
:1040D000F4D12868172802BFC5F80C900EB0BDE8CF
:1040E000F08713DC0F2844D00ADC0B2800F0538142
:1040F0000D2808BF1AF0080F00F0F68000F054B940
:10410000112814D0142870D000F04EB926286DD094
:1041100006DC1E286BD0202800F0F08000F044B9A7
:104120002A2818D0B0F5107F2AD000F03DB92046DB
:10413000EE6803F065FA0190717A002904BF317AC4
:10414000012905D1B0F87C1041F48071A0F87C10F1
:1041500001A800F0FDB8204603F052FA0090E9688B
:10416000002912BFC0F88410D0F88400E8606846C7
:1041700049E0B8F1000F1CBF2046C04700F014B959
:1041800027462046EE6803F03BFA0190B0F87C40E9
:1041900001A803F015FBE868002804BF0EB0BDE8D5
:1041A000F087307A20B314F0080F04BF384619F0B6
:1041B00011F8384617F012F914F0100F12BF14F46A
:1041C000807F0EB0BDE8F087002314F0800F1CBF85
:1041D0000EB0BDE8F08779483146B0F90020384686
:1041E00018F06CFF0EB0BDE8F0870FE018E024E097
:1041F000384603F005FA0190B0F87C1021F4807184
:10420000A0F87C1001A803F0DBFAEBE705A9204633
:1042100000F007FEDDE90612E86801604260E1E7B0
:10422000E8680228DED10C94E8680D9027200A90F7
:104230000AA9A8681AF074F9D4E7E868012819D027
:10424000002CCFD005F06EFD204603F0D9F9019087
:10425000B0F87C1011F0080F06D021F00801A0F88A
:104260007C10204618F0C2FB01A803F0A9FA08F060
:1042700055FBB7E7384618F043FC58B1384618F0FC
:10428000A9FF384618F090FA88B10121384616F097
:10429000B5FC0CE0484619F019F80746204603F033
:1042A000AFF90090C0F88070684603F089FAB4B1A5
:1042B00005F038FD204603F0A3F90290B0F87C1019
:1042C00011F0080F06D141F00801A0F87C1020463B
:1042D00018F08CFB02A803F073FA08F01FFB002F04
:1042E00004BF0020E8607DE7E868C06800281FBFC1
:1042F000007A0028204618F06DFF55E0EE684EB3B6
:104300002146706819F0BCFE00282746204622D0BE
:1043100003F076F90490B0F87C1011F0080F06D184
:1043200041F00801A0F87C10384618F05FFB04A8A3
:1043300003F046FA2146706819F08EFE50B120460F
:1043400003F05EF902907168C0F880100DF108006A
:1043500003F036FA28E003F053F90490B0F87C102B
:1043600011F0080F06D021F00801A0F87C103846A3
:1043700018F03CFB04A803F023FA2146306819F03A
:104380006BFE88B1204603F03BF902903168C0F81B
:10439000801002A8DCE7204603F032F9009070306C
:1043A00003F02CF86846D3E72946204616F05BFB5D
:1043B00000281CBF284617F095F913E7380700209E
:1043C00070B588B0B0F908400DF10C0E0C9ED0F815
:1043D00018C045688EE87010B0F812C00024CDE90E
:1043E0000014CDF808C0B0F90C10B0F91040B0F9C5
:1043F0000EC0B0F90A00194410442346624600F08A
:1044000003F808B070BD00002DE9FF4F8BB099464E
:10441000DDE91885DDE91B6792468B461E9C05F099
:1044200081FC04F16000444945F48055CDE9021057
:10443000CDE900854B46524659460B9817F096F841
:10444000040073D003F0DCF830223146049016F0FB
:10445000C7FD3A4E049A06F1080102F1340E91E8C4
:104460000B1F8EE80B1FD6E90A01C2E915011D9842
:1044700050661A98A2F87C004FF00008C2F88080BD
:10448000C2F86C80C2F888807068D06504A803F018
:1044900097F905A9204600F0C4FC294841F2827131
:1044A000CDF80C800094CDE90110BDF91E00BDF9D6
:1044B0001A10BDF91C20401A431CBDF91800121A2D
:1044C000521C17F053F880467068416820468847B0
:1044D000204603F095F80490C0F8688004A803F023
:1044E0006FF942F20400054204BF204617F029FA92
:1044F00005F018FC204603F083F80090006F01904F
:10450000684603F05DF9394601A80AF0FFFB58B18F
:10451000204603F075F8009001990167684603F0A2
:104520004FF9204618F062FA08F0F8F908F0F6F9A9
:104530000FB02046BDE8F08F854000083807002006
:10454000DF5000082DE9F041044698B0006800F003
:10455000BDF9002814BFDB4DDB4D6068152802BF94
:10456000A86A18B0BDE8F08112DC0B282AD007DC5D
:10457000002800F09281052800F02C8100F09DB900
:104580000E2800F07781122800F03B8100F095B9E9
:10459000162802BFE86918B0BDE8F081172802BFED
:1045A000286A18B0BDE8F081182802BF686A18B000
:1045B000BDE8F0811C2802BF686918B0BDE8F08131
:1045C00000F07BB920680E901C200F90206803F04B
:1045D00017F80390016D0EA88847064603A803F05C
:1045E000EFF8022E11DBD5E90001AA680292CDE9AD
:1045F0000001D4E904023346A16909F02FFB2069C8
:104600008719A069A0EB06082CE0286807F079FD5F
:104610002169E8690844421E606904F067FEA269E6
:10462000E869101A411C606904F060FE6069471C6B
:104630003946206904F0B4FE3946A06904F0B0FEA2
:10464000686807F05EFD20693946401C04F0A8FE4A
:10465000A0693946401E04F0A3FE2069871CA069AA
:10466000A0F10208286807F04CFD4246394660690F
:1046700004F03CFE686807F044FD60694246394634
:10468000401C04F033FE686A02287DDDA86807F04C
:1046900038FD60696A6A811C1044431E42463846F0
:1046A00005F090F86069022EACBF0644861CE069F4
:1046B000471E286807F025FD3A463146206904F078
:1046C000F7FF3A463146A06904F0F2FFE069871E21
:1046D000686807F016FD20693A463146401C04F030
:1046E000E7FFA0693A463146401E04F0E1FFE86961
:1046F0000228DCBF286A022820DDA86A0228C7BF7A
:10470000E1690F1AE069871EA86807F0FAFCE969F9
:10471000022907DD22693B46901C11444A1E31469E
:1047200005F050F8286A022808DDA169E8698A1EA8
:10473000081A3B463146401C05F044F8286807F04B
:10474000E0FCD4E90620216904F0D0FD686807F098
:10475000D8FCA069421E2069411CE069401E04F09B
:10476000C5FDA86A02284BDD21698E1CA1698F1E38
:10477000E169081A441CA1F10208A86807F0C1FC0D
:1047800043463A46214600E003E0304605F01AF879
:1047900093E0296AB14285DD6069022E00F10208CA
:1047A000ACBF871947462069ACBF3044801C2269E2
:1047B0003B461144A1F10102414605F003F8A0690E
:1047C000022EACBF821B821EE9693B46401A41465D
:1047D000401C65E7208A00B2ADF81800A18A09B232
:1047E000ADF81A10228B12B2ADF81C20A38B1BB2AD
:1047F000ADF81E30D5E9034CCDE9004C04F02CFB9C
:104800005BE0208A298B0844ADF81800A08AADF837
:104810001A00208B298B401AADF81C00A08BADF834
:104820001E00206802F0ECFE0390006FF0B1022041
:1048300007F038FD039991F87C00C0F3C00001EB4C
:104840008000006C07F05DFC0398406B07F082FC71
:104850000398006F02F0D4FE03990A90B1F95A2030
:1048600006A903F0FDFE0AA802F0AAFF03A802F0C1
:10487000A7FF22E0208AADF81800A08AADF81A0040
:10488000208BADF81C00A08BADF81E00A86807F0C7
:1048900038FC06A804F0C2FF0FE0206802F0B0FE6A
:1048A0000390B0F85A1041F00C01A0F85A1003A878
:1048B00002F086FF206818F08BFD18B00020BDE8DC
:1048C000F08100007C070020A807002038B5050013
:1048D0004FF0000410D005F025FA284602F090FEB3
:1048E000009090F87C0010F0080F18BF0124684673
:1048F00002F066FF08F012F8204638BD38B5050012
:104900004FF0000411D005F00DFA284602F078FEB1
:104910000090C06D002180680268284690470446D8
:10492000684602F04DFF07F0F9FF204638BD000051
:1049300001484069704700004007002030B587B04B
:1049400005004FF0000414D005F0ECF901A9284649
:1049500000F067FA284602F053FE0090B0F9544088
:10496000684602F02DFF002C08BFBDF9044007F097
:10497000D5FF07B0204630BD002808BF70472DE99D
:10498000F04184B0064605F0CDF9304602F038FE1D
:104990000190304602F034FE009090F87C1011F047
:1049A000400F3ED0B0F90610B0F90220891A4C1C15
:1049B000B0F97A10B0F97600081A451C684602F082
:1049C000FFFE2A1B0021304618F08EF9304602F017
:1049D00017FE0090806E18F0D1FD0098C06E18F0A0
:1049E000CDFD304600F040FB00980825B0F87C1063
:1049F00021F04001A0F87C10C46994B1204602F077
:104A0000FFFD0290204617F06EFAA84204BF204630
:104A100017F0ECFF0298046A02A802F0D1FE002C05
:104A2000ECD1684602F0CCFE019890F87C1011F0B1
:104A3000800F07D001A802F0C3FE04B0BDE8F0412A
:104A400007F06CBF806902F0DBFD0290D0E90074D2
:104A5000806938B90DF064F960F30F040DF0A4F922
:104A600060F31F4402A802F0ABFE01984FF0070864
:104A7000D0E90012C0E91D12B0F87C1041F08001AD
:104A8000A0F87C10C56995B1284602F0B9FD0090E8
:104A9000284617F028FA404504BF284617F0A6FF1D
:104AA0000098056A684602F08BFE002DECD101A843
:104AB00002F086FE3A1439B215460F46304618F019
:104AC00072F8C5EB2440421C20B2C01B411C30468A
:104AD00018F01EFD304600F0C7FAAEE7002808BF08
:104AE00070472DE9F04188B0064605F01BF93046C5
:104AF00002F086FD0590304602F082FD019090F8AC
:104B00007C1011F0800F31D0D0E91D140A1409B2C5
:104B100015460F46304618F046F8C5EB2440421CB7
:104B200020B2C01B411C304618F0F2FC304600F0A9
:104B30009BFA01980725B0F87C1021F08001A0F8BD
:104B40007C10C46994B1204602F05AFD00902046C2
:104B500017F0C9F9A84204BF204617F047FF009894
:104B6000046A684602F02CFE002CECD101A802F089
:104B700027FE059890F87C1011F0400F07D005A88B
:104B800002F01EFE08B0BDE8F04107F0C7BEB0F964
:104B90000610B0F90220891A01F1010800F0E5F9C8
:104BA00001460598C26A126801EB42018F1CD0E9E8
:104BB0000012C0E91D12806E17F004FE0598C06E49
:104BC00017F000FE05980825B0F87C1041F0400170
:104BD000A0F87C10C46994B1204602F011FD029047
:104BE000204617F080F9A84204BF204617F0FEFEC9
:104BF0000298046A02A802F0E3FD002CECD105A89B
:104C000002F0DEFDA7EB08020021304618F06CF838
:104C1000304600F029FAB5E7002808BF7047F0B524
:104C200085B0054605F07EF8284602F0E9FC0090C4
:104C300090F87C1011F0400F3ED0B0F90610B0F99A
:104C40000220891A4C1CB0F97A10B0F97600081AC3
:104C5000461C684602F0B4FD321B0021284618F0BD
:104C600043F8284602F0CCFC0090806E18F086FCD9
:104C70000098C06E18F082FC284600F0F5F9009804
:104C80000826B0F87C1021F04001A0F87C10C4691F
:104C900094B1204602F0B4FC0190204617F023F9AD
:104CA000B04204BF204617F0A1FE0198046A01A893
:104CB00002F086FD002CECD1684602F081FD28460A
:104CC00002F09EFC019090F87C1011F0800F31D022
:104CD000D0E91D140A1409B217460E46284617F0EB
:104CE00062FFC7EB2440421C20B2801B411C2846B7
:104CF00018F00EFC284600F0B7F901980725B0F827
:104D00007C1021F08001A0F87C10C46994B1204689
:104D100002F076FC0090204617F0E5F8A84204BFA8
:104D2000204617F063FE0098046A684602F048FDCA
:104D3000002CECD101A802F043FD05B0BDE8F04025
:104D400007F0ECBD064A0549074B1160054AD169D9
:104D500058601B68C2E9063008467047700700209B
:104D60003C0700204007002068070020002808BFFB
:104D700070472DE9F04383B00C46804604F0D2FF23
:104D8000404602F03DFC0090428E002C114614BFBC
:104D900041F0200621F02006B2423AD04686404635
:104DA00000F062F9009DEC690CB3204602F028FC8B
:104DB0000190076AB0F90200B5F90210A0EB0109F1
:104DC00001A802F0FDFCB5F9560048450DD1A86ECA
:104DD000A0420AD095F8320010F0200F204602D0F1
:104DE00018F0CCFB01E017F0EDFC3C00DDD10098A1
:104DF00090F87C0010F0400F08D016F0200F4046CD
:104E000002D018F0BBFB01E017F0DCFC404617F0C5
:104E1000EDFD684602F0D4FC07F080FD03B0BDE86C
:104E2000F0832DE9F04F00278DB00C468146BA463D
:104E300002F0E6FB0190C06D0121856848462A68B2
:104E4000904780462A6803214846904707902A6881
:104E500002214846904706902A680021484690471C
:104E60000646019818F05CFF0590019818F05FFF66
:104E70008346019890F8321001F02001002918BFF4
:104E8000B0F958A04FF0000506D0B0F954501DB944
:104E9000406B04F097FE851C0198C06E10B117F0AE
:104EA00027FA074625806780A4F8048007990598AB
:104EB000401A06EB0A01401E294420813944E18052
:104EC0000699ABEB0101491E6181A4F80C80208298
:104ED0007019E681401E608201A802F071FCB4F9ED
:104EE0000C70B4F910604D46484602F089FB0690FC
:104EF000C16DD0F8008006A8D1F8089002F060FCDF
:104F0000D9F800200021284690478146284616F00F
:104F1000BCFF050024D002F073FB0790B0F900201D
:104F20000FFA88F1B0F90430521A5B1AB0F9021086
:104F3000A1EB284149450BD190F8280010F0800FD3
:104F400003D09642A8BF561E02E09F42D8BF5F1C06
:104F500007A802F035FC284617F05BF80500DAD107
:104F6000A78126820DB0BDE8F08F10B50146002064
:104F700091F8322012F0200F08BF10BDB1F9540093
:104F8000002818BF10BD486B04F01CFE801C10BD2B
:104F900070B58AB00E46044602F032FB0990C06D2F
:104FA000856809A802F00CFC0094002E08BF1820A8
:104FB0000BD0012E08BF162007D0022E08BF1520E7
:104FC00003D0032E08BF172000D1019069686846FE
:104FD00088470AB070BD2DE9F04383B01746884674
:104FE000814602F00DFB0090C16D056868468C6833
:104FF00002F0E6FB226800214846904706464846F4
:1050000016F043FF040004BF03B0BDE8F08302F0D4
:10501000F7FA0190B0F900102AB2B0F90430891AF9
:105020009A1AB0F90230A3EB2543B34211D190F89C
:10503000280010F0800F05D038688842A4BF481EB1
:10504000386006E0D8F800009042DCBF501CC8F879
:10505000000001A802F0B4FB204616F0DAFF0400BD
:10506000D5D103B0BDE8F08370B586B0064602F036
:10507000C7FA0590D0E91A4505A802F0A1FB54EA49
:10508000050004BF06B070BD69463046FFF7C9FE93
:10509000ACB1BDF90620BDF90410204617F04CFD57
:1050A000BDF90A00BDF90610401A421CBDF90800FE
:1050B000BDF90410401A411C204618F029FA002DB1
:1050C00004BF06B070BDBDF90600BDF90210421A5A
:1050D000BDF90410284617F02FFD06B070BD2DE96C
:1050E000F0430446406889B0054616F0C7FF814684
:1050F00002F086FA0290D0F88080876C466E02A893
:1051000002F05EFB2068172862D008DC0E2850D021
:105110000F2816D0142818BF152859D052E01E2881
:1051200029D01F283ED0222802BFE76009B0BDE881
:10513000F083312801BF0020E06009B0BDE8F083B2
:1051400040E06FF07040874204D038460DF00CFC10
:1051500002F06EFE002E04BF09B0BDE8F083D4E972
:1051600002122068CDE90405CDE9061204A8B04773
:1051700009B0BDE8F083E068002804BF09B0BDE8CD
:10518000F083B8F1000F18BFA84505D0404618F0CD
:1051900021F809B0BDE8F083284618F097F809B067
:1051A000BDE8F0832146484615F05DFC09B0BDE836
:1051B000F083E0684168002904DD00680928EBD02D
:1051C0000A280BD0002E1CBFC4F804902046CED174
:1051D000204616F087FA09B0BDE8F083284618F09B
:1051E000BFF809B0BDE8F08370B5154C05460A2834
:1051F00013D00D2D08BF70BD04F094FD2068C06968
:105200000168284688470F48016800291CBF2846C6
:105210008847BDE8704007F081BB04F083FD04F0CF
:1052200081FD2068C069457E07F078FB2068818C8D
:1052300029448184018C4184BDE8704007F06EBB35
:1052400090030020D00300202DE9F04F85B08A465E
:105250008346DDE90E0100F5B4749846914601F5E8
:10526000B475B4F5B47F0FDB61424FF4B47091FBB9
:10527000F0F04042002807DDA0EB001000EB4000FA
:1052800004EBC00405EBC0054FF0FF360127002DED
:10529000DCBF05B0BDE8F08F5A2C0FDA002C63DBC1
:1052A0005A2DB4BF28465A204346CDE90040CDE9E7
:1052B00002764A46514658461CF02AFA5A3C5A3D54
:1052C000002DDCBF05B0BDE8F08F5A2C13DA002C9E
:1052D0004CDB5A2DB4BF28465A20C4F15A01C0F104
:1052E0005A000090CDE9011643464A4651465846B9
:1052F00003961CF00DFA5A3C5A3D002DDCBF05B058
:10530000BDE8F08F5A2C0FDA002C31DB5A2DB4BFD8
:1053100028465A204346CDE900404A465146584661
:10532000CDE902671CF0F4F95A3C5A3D002DDCBF70
:1053300005B0BDE8F08F5A2C13DA002C1ADB5A2D79
:10534000B4BF28465A20C4F15A01C0F15A00009057
:10535000CDE9011743464A465146584603971CF08B
:10536000D7F95A3C5A3D92E7002499E70024B0E768
:105370000024CBE70024E2E72DE9F84F0F46DDF8E3
:1053800028900646941BA3EB0708D9F800504FF06D
:10539000000A54EA080063D0002CD4BF60422046C3
:1053A000B8F1000FCCBF4146C8F1000188420ADACB
:1053B00020464446804630463E46074610461A463A
:1053C00003464FF0010A002CCCBF20466042A042A9
:1053D00008BF012008D03046164602466442C8F194
:1053E00000081F464FF0FF300090C448C449B8F190
:1053F000000FD0F800C01CBF04EBD4724FEA620B60
:10540000B8BFCBF1000B30D09CF81A20002A00F076
:10541000FA80009A002ABCBF2A19C9F8002000258A
:10542000002CC0F2458100BF08FB05B090FBF4F0F2
:10543000C219D9F8001000980844B049C9F8000012
:1054400009688B7E012B00F00081022B00F00781A0
:10545000032B00F00D81042B00F03A8100F019B904
:105460003046BDE8F84F00F08DBABAF1000F62D0B7
:105470009CF81AC0BCF1000F14D04FF00008002CAB
:10548000A4BF8A46834640DBDBF8001028466D1C2B
:105490008A7E012A0CD0022A14D0032A1BD0042AA7
:1054A00035D027E031463846BDE8F84F0CF092BAC7
:1054B000801DC21700EB127222F00F02801A0C2816
:1054C0001FDB17E0C21700EB927222F00302801A72
:1054D000022816DB0EE08AFB0032D310A3EBE27247
:1054E000524202EB820200EB82000C2809DB1038EA
:1054F000022806D3496E06EB08004A680146384682
:10550000904708F10108A045BEDD681EDCE07D4A39
:1055100082FB00329310A3EBE272A2EB820200EB5B
:10552000C2000C28EDDBA0F11002022A24BF1438BF
:105530000228E6D3DEE79CF81A80B8F1000F14D0F9
:105540004FF00008002CA4BF8A46834642DBDBF8FC
:10555000001028466D1C8A7E012A0FD0022A17D01F
:10556000032A1ED0042A3AD02AE0DCF86400394627
:10557000036801B03046BDE8F04F1847801DC217E0
:1055800000EB127222F00F02801A0C281EDB17E0CB
:10559000C21700EB927222F00302801A022815DB78
:1055A0000EE08AFB0032D310A3EBE272524202EB10
:1055B000820200EB82000C2808DB1038022805D399
:1055C000496E06EB08004A683946904708F1010821
:1055D000A045BCDD681EC9F80000BDE8F88F494A47
:1055E00082FB00329310A3EBE272A2EB820200EB8B
:1055F000C2000C28EADBA0F11002022A24BF1438F2
:105600000228E3D3DCE70025002CACBF8146BDE8CF
:10561000F88F00BF08FB05B090FBF4F03844BAF1F6
:10562000000F0AD0D9F800207119526E52689047C5
:105630006D1CA542EEDDBDE8F88FD9F80010731996
:10564000496E4A6801461846F1E7801DC31700EB12
:10565000137323F00F03C01A0C2825DB19E0C317BE
:1056600000EB937323F00303C01A02281CDB10E045
:10567000234B83FB00C34FEAE30CACEBE3735B42C9
:1056800003EB830300EB83000C280DDB10380228AA
:105690000AD3496EBAF1000F06EB05004B680EBF46
:1056A00011460146104698476D1CA5427FF7BCAED7
:1056B0000098002804DAD9F800002044C9F8000056
:1056C000D9F800100098081AC9F80000BDE8F88F52
:1056D0000C4B83FB00C34FEAA30CACEBE373A3EBCF
:1056E000830300EBC3000C28DEDBA0F11003022BC8
:1056F00024BF14380228D7D3CBE700009003002042
:1057000067666666ABAAAA2A2DE9F047DFF86892B9
:10571000804684B0D9F800000F460C99007E1D46E3
:105720001646012800F0CE80A8EB060C7C1B5CEA34
:10573000040104BF04B0BDE8F087421E0021BCF1A3
:10574000000FBCBF0121CCF1000C002CBCBF41F00C
:1057500002016442644504DD20466446844641F00B
:105760000401A0020CEBDC7300EB630090FBFCF087
:105770008010824C4FEA201C00F00F0034F81C30DF
:10578000C0F1100013FB00F3102807D004EB4C0C01
:10579000C0F11000BCF802C01CFB003303F108008C
:1057A000C31700EB1370001111F0040F18BFC0F500
:1057B000806011F0010F18BFC0F5006011F0020FFA
:1057C00018BFC0F5805000F5806100F50060C0F39F
:1057D0000B004FF0000AB0F5006FC4BF4FF0010A94
:1057E000A0F50060B0F5806FC8BFC0F500604FEA5B
:1057F000A01C634B00F03F00C0F1400033F81C4098
:105800004443402818BFBCF1100F07DA03EB4C0CDF
:10581000C0F14000BCF802C00CFB004404F12000C1
:105820008009BAF1000F18BF404200FB02FC0024BF
:10583000C1F30B00B0F5006FC4BF0124A0F50060F8
:10584000B0F5806FC8BFC0F50060811100F03F0067
:10585000C0F1400033F811A040280AFB00FA18BF3D
:10586000102906DA03EB4101C0F14000498801FB31
:1058700000AA0AF120008009002C18BF404200FB5A
:1058800002F1BCF1000FB4BFCCF500700CF5007054
:105890004FEAA020B8BF40420029BDBFC1F500714A
:1058A0008912C1F1000C01F50071A8BF4FEAA12CCB
:1058B00000280FDD411C01EBD171491000EBD070C5
:1058C00042100EE0009139464046FFF755FD04B006
:1058D000BDE8F08700EBD071401E491000EBD0709E
:1058E0004210BCF1000FC6BF0CF1010000EBD070FC
:1058F0000CEBDC704FEA6000CEBF0CEBDC73ACF15C
:10590000010303EBD3735B1008EB010CADF800C08F
:1059100007EB000CADF802C0A8EB020CB21AADF810
:1059200004C0ADF808203144A7EB030CEA1AADF827
:105930000C102844ADF80A20ADF80E000023ADF895
:1059400006C01A460421684600F08EF8D9F80020F7
:1059500040463946527E002A08BF00F013F8304610
:10596000D9F800202946527E002A08BF00F00AF824
:1059700004B0BDE8F087000090030020C28F10083B
:10598000A08F1008064A13681A7E012A05D0521EFD
:1059900002EBD272521000F005B85A6E52681047EE
:1059A000900300202DE9F84F06460F4640F2C32031
:1059B00050434FF47A7190FBF1F000F1010A02FBC1
:1059C00002F002EBD271DFF89C8000EB61000090E6
:1059D000D8F8001014463244496E301B0B68394623
:1059E00098470125BAF1010FB8BFBDE8F88F00BF95
:1059F00005FB05F004FB0400009988421ADD5445BC
:105A000017DDD8F8003006EB050BA6EB05095B6E39
:105A1000ABF1010239191B6809F101009847D8F868
:105A20000030ABF10102391B5B6E09F101001B680C
:105A30009847641ED8F80030321979195B6E301B14
:105A400093461B6881469847D8F800305A46791B20
:105A50005B6E48461B6898476D1CAA45C8DABDE8CE
:105A6000F88F0000900300202DE9FF4F83B0074618
:105A700043F6FF74C4F1000090460E1E0090C4BFB0
:105A8000BA1C08460EDD00BFB2F90010A142D8BF13
:105A90000C46009B9942D8BF19460091401E02F166
:105AA0000402F1D18C490868406970B1B0F9063040
:105AB000069A9B1A009A9342C0F20281B0F9023012
:105AC000069A9A1AA24200F3018100988442D2BF3A
:105AD000A6F1010907B0BDE8F08F00207F49054617
