:020000040800F2
:1000000068480020C1010008956B0108CF02000874
:10001000916B0108A91000083D9A0108000000003A
:100020000000000000000000000000002B94010808
:10003000032A0008000000001B02000819950108AF
:10004000DF010008DF010008DF010008DF01000810
:10005000DF010008DF010008DF010008DF01000800
:10006000DF010008DF010008DF010008DF010008F0
:10007000DF01000801230008DF0100084123000818
:10008000DF010008DF010008DF010008DF010008D0
:10009000DF010008DF010008DF010008DF010008C0
:1000A000DF010008DF010008DF010008DF010008B0
:1000B000DF010008DF010008DF010008DF010008A0
:1000C000DF010008DF010008DF010008DF01000890
:1000D000DF010008DF010008DF010008DF01000880
:1000E000DF010008DF010008DF010008DF01000870
:1000F000DF010008DF010008DF010008DF01000860
:10010000DF010008DF010008DF010008DF0100084F
:10011000DF010008DF010008DF010008DF0100083F
:10012000DF0100087D240008DF010008DF0100086E
:10013000DF010008DF010008DF010008DF0100081F
:10014000DF010008DF010008DF010008DF0100080F
:10015000DF010008DF010008DF010008DF010008FF
:10016000DF010008DF010008DF010008DF010008EF
:10017000DF010008DF010008DF010008DF010008DF
:10018000DF010008DF010008DF010008DF010008CF
:10019000DF010008DF010008DF010008DF010008BF
:1001A0003D370108DF01000869240008DFF80CD0A2
:1001B00000F0BCFB00480047E9090008684800203F
:1001C000074880470748804707480047FEE7FEE7A3
:1001D000FEE7FEE7FEE7FEE7FEE7FEE7FEE7FEE7F7
:1001E0003D95010825820108AD010008EFF310805C
:1001F00072B6704780F310887047434A1368012B2A
:1002000004D04FF001031360404A1060404A11606F
:1002100040484FF0805101607047EFF3108272B692
:100220003948016851B34FF0000101603748016857
:1002300091B1EFF309811EF0100F08BF21ED108B73
:1002400021E9F00F4FF000041EF0100F08BF012449
:1002500041F8044D006801602D490968096808C922
:10026000B1E8F00F002B18BFB1EC108B81F30988B7
:100270004EF0100E002B18BF2EF0100E82F31088D7
:100280004EF0040E704722490860EFF3148222F00A
:10029000040282F314881D494FF0000008601A49D7
:1002A0004FF0010008601C484FF47F01D0F8002097
:1002B00041EA0201016017484FF080510160174880
:1002C0000068006880F3088861B662B670471EF067
:1002D000040F0CBFEFF30880EFF3098020E9F00F63
:1002E00040F804ED40F804ED1EF0040F0CBF80F35D
:1002F000088880F3098800B52DF006FC5DF804EB52
:100300004EF0040E70470000A0020020980200206A
:100310009C02002004ED00E020ED00E008ED00E08C
:1003200010B5441A0346944209D28418114403E0DC
:1003300011F8013D04F8013D521EF9D210BD40EA0A
:100340000104A40703D009E010C9121F10C3042A36
:10035000FAD203E011F8014B03F8014B521EF9D217
:1003600010BDD2B201E000F8012B491EFBD270474C
:100370000022F6E710B513460A4604461946FFF771
:10038000F0FF204610BD421C10F8011B0029FBD1D4
:10039000801A704730B504460020034600E05B1C1D
:1003A000934203D2E05CCD5C401BF8D030BD0346E5
:1003B00011F8012B00F8012B002AF9D118467047DB
:1003C0002DE9FE4F81EA030404F0004421F00041CE
:1003D00000944FF0000B23F0004350EA01045ED07C
:1003E00052EA03045BD0C3F30A54C1F30A552C4408
:1003F000A4F2F3340194A0FB0254C1F3130141F4BD
:100400008011C3F3130343F4801301FB024400FB88
:10041000034E840A970A44EA815447EA8357A4FBAF
:10042000076802958D0A05FB07854FEA932C04FBAC
:100430000C542705029D4FEA065847EA1637B5EBDC
:1004400008056EEB070C870E920E47EA811742EA09
:100450008312A7FB0201B6EB0B0164EB00042B0D2A
:1004600043EA0C335E1844EB1C50DA465146E7FB76
:100470000201C5F313044FEA0B3343EA14534FEA66
:100480000432019C43EA0603A4F10C040294009C8C
:10049000CDE900B400F03CF903B0BDE8F08F0020D6
:1004A0000146F9E72DE9F04D81EA030404F0004B21
:1004B00021F0004514464FF0000A23F0004150EAB5
:1004C000050220D054EA01021DD0C5F30A570246A6
:1004D000C5F31303C1F31300C1F30A5640F48015AA
:1004E00043F48013A7EB0608101BD64608F2FD382C
:1004F00073EB050002D308F1010801E092185B419B
:10050000B8F1000F03DA00200146BDE8F08D0020AD
:100510004FF48011064684460EE0171B73EB050767
:1005200005D3121B63EB050306434CEA010C490893
:100530004FEA300092185B4150EA0107EDD152EAD0
:10054000030012D082EA040083EA0501084305D0C3
:10055000101BAB4106D20122002306E000224FF01F
:10056000004302E06FF0010253101AEB06004CEB5F
:10057000085110EB0A0041EB0B01BDE8F04D00F013
:10058000B8B80EB540F2334102910021CDE9001117
:100590000A460B4600F0BCF803B000BD70B5C1F3CD
:1005A0000A5201F000450024C1F3130140F2FF3369
:1005B00041F480119A4201DA002070BD40F23343C9
:1005C0009A42A2F2334203DC524200F04BF800E0C0
:1005D00090402C43F1D0404270BD00F0004230F01A
:1005E00000400AD0C10D01F56071C0F3160042EA67
:1005F0000151C2084007114370470020014670476F
:1006000001F0004330B421F0004150EA010206D06D
:100610000A0DA2F56072C1F31301002A02DC30BC9E
:1006200000207047440F44EAC104C100E01830BC08
:1006300000EBC25000F026B830B50B460146002052
:100640002022012409E021FA02F59D4205D303FA94
:1006500002F5491B04FA02F52844151EA2F1010215
:10066000F1DC30BD202A04DB203A21FA02F000211F
:10067000704721FA02F3D040C2F1200291400843B2
:10068000194670470029A8BF7047401C490008BFA1
:1006900020F00100704710B4B0FA80FC00FA0CF0B2
:1006A00050EA010404BF10BC704749B1CCF12004EA
:1006B00021FA04F411FA0CF118BF01212143084377
:1006C000A3EB0C01CB1D4FEA00614FEA102042BFA3
:1006D000002010BC704700EBC35010440029A4BF99
:1006E00010BC7047401C490008BF20F0010010BC3E
:1006F000704710B5141E73F1000408DA401C41F174
:10070000000192185B411A4301D120F0010010BD95
:100710002DE9F04D92469B4611B1B1FA81F202E00B
:10072000B0FA80F22032904600F012F904460F46EB
:1007300040EA0A0041EA0B0153465A46084313D0E7
:10074000114653EA010019D0C8F140025046FFF7A4
:1007500089FF05460E4650465946424600F0F8F8D5
:10076000084305D0012004E020463946BDE8F08D5D
:100770000020054346EAE0762C4337430A98630598
:10078000E40AA0EB08000022FD0A44EA47540A30BC
:1007900002D500200146E9E7010510196941DDE9AC
:1007A000084500196941BDE8F04DA2E72DE9FE4F6B
:1007B000804681EA0300C00F0C46009021F0004102
:1007C00023F00045B8EB0200A94105D2404621467E
:1007D00090461C460B46024623F00040104347D08B
:1007E000270DC7F30A00C3F30A510290401A019083
:1007F00040286BDAC3F3130040F4801B0098924644
:1008000020B10023D2EB030A63EB0B0B019859468E
:10081000C0F14002504600F09BF806460D46504697
:100820005946019A00F0A3F810EB0800614100243A
:1008300087EA115284EAE7731A4340D0009A62B300
:10084000019A012A4FEA075215DC001B61EB0201F5
:100850004FF0004202EA0752CDE90042001C41F588
:10086000801132462B46FFF753FF03B0BDE8F08FEF
:1008700040462146F9E7001B61EB0201001C41F5EF
:10088000801300185B412018A2F5001747EB030105
:1008900040EAD570B6196D4111E06D084FEA360691
:1008A00045EAC0754FEA0752001B61EB0201001CCC
:1008B00041F5801149084FEA300000195141324694
:1008C0002B4603B0BDE8F04FFFF713BF009801229D
:1008D00040000023D0EB020263EBE0730098214656
:1008E0004FEAE074B8EB000061EB0401E9E783F044
:1008F00000435BE781F0004158E7000030B5041E7B
:1009000071F1000404DB4FF00044404264EB01014C
:10091000141E73F1000405DB1C464FF000435242E5
:1009200063EB0403994208BF904230BD064C074D6B
:1009300006E0E06840F0010394E8070098471034AF
:10094000AC42F6D3FFF736FCE0FE0A0820FF0A08A7
:10095000202A04DB203A00FA02F10020704791407F
:10096000C2F1200320FA03F3194390407047202A74
:1009700006DBCB17203A41FA02F043EAE07306E0C7
:1009800041FA02F3D040C2F12002914008431946D7
:10099000704770B58C1810F8015B15F0070301D192
:1009A00010F8013B2A1106D110F8012B03E010F8D2
:1009B000016B01F8016B5B1EF9D12B0705D40023F5
:1009C000521E0DD401F8013BFAE710F8013BCB1A97
:1009D000921C03E013F8015B01F8015B521EF9D58C
:1009E000A142D8D3002070BD10B5FFF7FFFB2EF059
:1009F000A5FB002010BD000038B54468054601463F
:100A0000204619F0AEF8002808BF38BD464A2868CD
:100A100011280DD006DC0B282AD00E2838D00F283C
:100A200017D07CE0282873D0B0F5107F0AD076E08C
:100A30009268002A08BF38BD294601B02046BDE8AB
:100A400030401047526801B029462046BDE830408A
:100A500010472546204605F01FFF0090406E0468B1
:100A6000684605F0F9FF002C1CBF2846A04738BD9A
:100A7000204605F011FF0090683005F00BFE00984D
:100A800003216C3005F02EFE684605F0E5FF46E0D8
:100A9000E968486809680D2902D0202918D037E094
:100AA000002835DD4FF48071204619F025F92046E5
:100AB00005F0F2FE009090F82850684605F0CCFF53
:100AC00015F0020F1ED0012120461BF016F919E087
:100AD000002817DD25464FF48071204619F00CF9E7
:100AE000284605F0D9FE009090F82840684605F0A9
:100AF000B3FF14F0020F08BF38BD012128461BF0D8
:100B0000FCF838BD2046BDE83840022126F070BB15
:100B1000E86820B920464FF4807118F0B3FF2846EA
:100B2000BDE8384019F05CBE2C04002070B586B0DA
:100B30004FF0000CDDE90A450C9ECDE902C5CDE978
:100B40000046CDF810C000F051F806B070BDF0B509
:100B500085B00AAF97E87010002704978DE87010F1
:100B600000F044F805B0F0BD70B5044688B0806967
:100B7000B4F908C0658A00260091CDE90165CDE988
:100B800003C0B4F90C00B4F91050C118B4F90A004C
:100B9000B4F90EC010442B46624600F027F8646892
:100BA000050020D008F008FA284605F075FE0190EF
:100BB000866E01A8009605F04FFF214668460DF0AD
:100BC0004FF970B10098B04208D0284605F064FE95
:100BD00001900099816601A805F03EFF28461AF0B1
:100BE00083FF0AF045FF08B0284670BD2DE9F04F9D
:100BF00085B09846DDE91164DDE90E5791468A46D5
:100C0000834608F0D9F904F14C001749CDE90210E8
:100C1000CDE9005743464A465146584619F024FD4F
:100C200005001BD005F038FE10223146049019F063
:100C300055FA0E4C0499B4E8CD133431A1E8CD1324
:100C400094E80D10A1E80D1054F82C0D086004A8CC
:100C500005F002FF20684168284688470AF008FF2F
:100C600005B02846BDE8F08FF909000838040020D7
:100C7000F0B5044680688C4989B051F8205060680E
:100C8000002800F00A81052806D006287DD0122809
:100C900000F0B48000F004B9E869002808BF00261D
:100CA00051D0D5E90012AB688DE80F0004F11001B6
:100CB0000FC90CF07FF9002655F826000AF0CBFA90
:100CC000A169E8690A1A216901446069304407F0A2
:100CD00057FCA169E8690A1A21690144E069801B8F
:100CE00007F04EFCE169E8690A1A6169014420696C
:100CF000304407F027FEE169E8690A1A6169014496
:100D0000A069801B07F01EFE761C022ED4DBA868AB
:100D10000AF0A1FAE069E969D4F814C0431A20691D
:100D200042186144801C521E07F096FEE169E86992
:100D3000A2690B1A61690144101A401C921E07F047
:100D40008BFEEE6911E055F826000AF084FAE0699E
:100D5000831BA069821B606981192069304407F0F8
:100D600091FC761C022EEEDB0226D5E90301CDE9CB
:100D70000001E169606901444B10A1698A1B811C73
:100D80002069304407F0B2F900E011E0D5E905012F
:100D9000CDE90001E0696169831E01440122A06977
:100DA00002EB6101821B2069304407F09FF977E074
:100DB000206805F071FD049020681CF007FA50B11E
:100DC000A068002818BF00200AD10498006F0028EE
:100DD00018BF012004E00498406F002818BF0220CB
:100DE000049901EB8000C56E04A805F035FE0023D0
:100DF0001A462846216806F003FC51E0206805F0F9
:100E00004BFD0490866E002E08BF04A842D0A16856
:100E1000B0F95C70002908BF012103D003290CBF81
:100E20000221002100EB8101406D0C6C0AF03CFABC
:100E300020460AF010FA06A807F03CFFBDF818108B
:100E4000A88B0144ADF81810BDF81C10081AADF8B5
:100E50001C00BDF81A00801CADF81A00BDF81E0079
:100E6000801EADF81E000498B0F96020B0F95E1045
:100E700006A809F02AFC04A805F0EEFD02200AF0FD
:100E8000BBFA304605F008FD3A4606A9059006F083
:100E900031FD05A805F0E0FD02E020681BF016FB1F
:100EA00009B00020F0BD000090E60A0838B505F052
:100EB000F3FC04460090684605F0CEFD204638BDA0
:100EC00070B594460C46054619466046049A06F0ED
:100ED00059FB024621462846BDE8704000F062B842
:100EE000044A0349116004494A6A4862104670473F
:100EF000680400202C0400203804002070B505464A
:100F00000C46104600210A4606F05CFB02462146CC
:100F10002846BDE8704000F045B8000038B50C46E2
:100F2000054608F049F8284605F0B6FC0090064949
:100F300084654166684605F08FFD28461AF0D4FDA9
:100F40000AF096FD38BD000068040020F0B583B0BB
:100F50000F4605004FF0010421D008F02DF8284677
:100F600005F09AFC0190866E01A8009605F074FDCC
:100F7000394668460CF074FF78B100980024B042FE
:100F800008D0284605F088FC01900099816601A8E8
:100F900005F062FD28461AF0A7FD0AF069FD03B0CE
:100FA0002046F0BD002808BF7047F8B515460C462E
:100FB000064608F001F8304605F06EFC0090032C60
:100FC0000BD200EB84006C3005F064FB009800EB62
:100FD0008400C56630461AF087FD684605F03CFD82
:100FE0000AF046FDF8BD00002DE9F04707464FF036
:100FF000140838680F2845D126480AF021F906F070
:1010000061F80FF04FFF24494988A0EB01090FF068
:1010100005FF21490988A0EB010A09EBD9704210AC
:101020000AEBDA7041101C4806F0BAFD00240FF0FC
:10103000F5FE814600EBD9704010022101FB18003B
:1010400085B21CE015480068A04201D1144800E0B8
:1010500014480646B6F8029009EBD9704010C0F16A
:10106000FA02B6F800A00AEBDA70A5EB6001304690
:1010700006F096FD601C84B205EB080085B2052CD5
:10108000E0DB03E0384619F0ABFB00BF00BFBDE872
:10109000F08700008080FF00C8350A089401002016
:1010A00010380A086C360A0800BFFEE72DE9F04F39
:1010B000466804460146CDB0304618F052FD00287F
:1010C00004BF4DB0BDE8F08FFC4F2068DFF8F0B3EF
:1010D0000E280FD00F2800F02D82262800F07A83EA
:1010E000B0F5107F00F06181204619F079FB4DB01A
:1010F000BDE8F08F30461CF069F8002804BF4DB001
:10110000BDE8F08F6C2225A9304619F0F5F82B9830
:1011100028B9DDE92501279A2D92CDE92B012899DF
:101120002B9888421CBF4DB0BDE8F08F2C992998B0
:1011300081421CBF4DB0BDE8F08FE06841680029D6
:10114000DCBF4DB0BDE8F08FDDE92C450068DDF86F
:10115000AC80132808BFE81D17D00CDC102808BF8E
:10116000681E12D0112808BFE81F0ED0122808BF31
:10117000681C0AD00AE0212808BF601E03D022287C
:1011800008BF601C02D12C9000E02D902C980C28F8
:1011900004DD0C382C9008F1010005E0012804DA88
:1011A0000C302C90A8F101002B900837B7E80F56AF
:1011B000CDE9400142A880E80C5697E80F000DF5F4
:1011C0009079283F89E80F002C98401E8BFB002166
:1011D0004A10A2EBE171A1EB810100EB810040A973
:1011E00051F820002C99022905BF2B9911F0030F0B
:1011F0000021012108442D9981420DDD081A2D900E
:101200002C98401C2C900C283BDD2B98401C2B90DC
:101210002C980C382C9034E0012932DA2C98401E9E
:101220002C90012805DA2B98401E2B902C980C301E
:101230002C900837B7E80F56CDE9400142A880E866
:101240000C5697E80F000DF5907989E80F002C985F
:10125000401E8BFB00214A10A2EBE171A1EB810142
:1012600000EB810140A850F821102C98022805BFFE
:101270002B9810F0030F0020012008442D990844FA
:101280002D904FF4B071304619F018FE07462C9A95
:101290006FF003003D9900EB82002B9B0A5840A899
:1012A000CDF80800029912F8010B01F8010B029128
:1012B0000028F7D143B1481E202100F8011B0290FD
:1012C00002A9184605F095FD40A9384618F07FFAA6
:1012D0002C9829902B9828906C2225A9304619F03B
:1012E00021F82998844204BF289880451CD04FF0EB
:1012F0000000ADF80000DDE93B1001443A98ADF87C
:101300000210C0EBC000A0F101023B98ADF8042030
:10131000C0EBC000A0F101000144ADF80610694621
:1013200030461AF071FB30E02D9925A8CDE908511F
:1013300007AA40A923F0D8FD002508AC54F82530B1
:1013400003B3DDE94001CDE90401002107985B1EEC
:101350000A4644F8253018BF3A9B0CD0401C072899
:1013600018BF194418D000BF54F825C0BCF1010CB7
:1013700044F825C0F2D104A809F0A7F904A9304621
:101380001AF042FB6D1C022DD8D3042130461AF00E
:10139000B4FC4DB0BDE8F08FA3EB830C01EB4C0126
:1013A000DDF8ECC000206244DEE7E468002C04BFF6
:1013B0004DB0BDE8F08F207A00287DD06C2225A9A1
:1013C000304618F099FFDDE92B012D9A0792CDE9FF
:1013D0000501D4E9005425A808AA694623F084FD34
:1013E0003A983A9995FBF0F048433C993B9A611A38
:1013F000891A91FBF2F13C9B083701FB0231114441
:10140000BDF900200DF5807A801A3A9A90FBF2F22D
:10141000BDF90200081A3B9990FBF1F0C0EBC00047
:101420001044B7E83E138AE83E1397E80E1048AD23
:10143000401C85E80E102999491E8BFB0132531080
:10144000A3EBE272A2EB820201EB820140AA52F806
:101450002110299A022A03BF289A12F0030F0122B1
:10146000002211440128A8BF81424CDBDDE928128B
:10147000CDE92C202B910C222BA905A8FEF78AFF81
:10148000D8B16C2225A9304618F04CFF2D99079849
:10149000CDE9400125AB44AA08A9184623F024FD54
:1014A000002440AD55F8243033B3DDE90801CDE91F
:1014B000420100210A4605E035E020E0A0E60A08E6
:1014C000ABAAAA2A44985B1E45F8243018BF3A9B61
:1014D0000BD0401C072818BF19441BD055F824C056
:1014E000BCF1010C45F824C0F3D142A809F0EDF895
:1014F00042A930461AF088FA641C022CD2D3042187
:1015000030461AF0FAFB012130461AF0F6FB4DB0D6
:10151000BDE8F08FA3EB830C01EB4C01DDF8ECC0D0
:1015200000206244DAE7022130461AF0E6FB4DB0B3
:10153000BDE8F08F4FF000096C2225A93046CDF8A8
:10154000089018F0D9FE304619F038FF8046304632
:1015500019F04CFF044634986FF0704A504509D09A
:1015600009F079FE3C980021431EA8F101020846CB
:1015700007F072FAADF820903C98ADF822003A9846
:10158000CC4D401EADF82400601EADF826000024AE
:1015900025AE3F984A4601190846C5FB0120821036
:1015A000A2EBE070A0EBC000084403900228ACBF9F
:1015B0000120002006EB8000406A504504D009F06D
:1015C0004AFE08A807F074FA002208A83A9909F020
:1015D0007CF8641C072CDCDBADF820903C98ADF85F
:1015E00022003A99491EADF824103B990844401E48
:1015F000ADF82600389809F057FE022009F0FCFEED
:10160000369809F028FE00243F98494602191046F2
:10161000C5FB02108110A1EBE070A0EBC0001044EC
:101620003E9903900E2251F8200008A906F062F9B5
:10163000002208A83A9909F048F8641C072CE3DB5B
:10164000BDF92600A8F10302022106F099FF03AAC2
:1016500008A925A823F048FC3F99002940F31E81E2
:1016600011F0010F05D003980628B4BF401C0020DC
:10167000039048100CD003990629B4BF491C0021DF
:1016800003910629B4BF491C00210391401EF2D1E9
:1016900008370DF5807EB7E83F118EE83F1197E8D7
:1016A0000F0048AC84E80F002998401E8BFB0021F6
:1016B0004A10A2EBE171A1EB810100EB810040A98E
:1016C00051F820002999022905BF289911F0030F2C
:1016D0000021012100EB01054FF00004002DCEBFD9
:1016E000DFF8D4814DB0BDE8F08F00BF04F13100C8
:1016F0008DF8080014E0092CF8DB601C88FB001052
:101700008110A1EBE07000F130018DF8081040422B
:10171000611C00EB800001EB400030308DF80900C7
:101720002B992898814241D12C99299881423DD109
:101730002D98611C884239D13098504504D009F069
:101740008AFD08A807F0B4F9339F259928988142AB
:101750000DD129992698884209D12799601C814288
:1017600005D1379809F077FD08A806F0D3FF384671
:1017700009F071FD0E2208A902A806F0BBF8039833
:10178000401C0390072808BFCDF80C903F990398A0
:10179000814214D1002108A83B9A08F096FFADF8C9
:1017A00020903A98401EADF824000DE003980228DE
:1017B000ACBF0120002006EB8000076BC5E70022CC
:1017C00008A83A9908F081FF641CAC4293DB4DB045
:1017D000BDE8F08FA06819F004FCE168B0F5B87FAF
:1017E00015D0A0F58070713807BF022901244DB0D3
:1017F000BDE8F08F4FF06C020AA9304618F07CFD6E
:101800000E9800190E900AD00D280DD011E0022973
:101810000EBF4FF0FF344DB0BDE8F08FEAE70D98F2
:10182000401E0D900C2003E00D98401C0D900120EF
:101830000E904FF4B071304619F040FB04460E9AFA
:101840006FF00300229900EB82000B5825A90D9838
:10185000CDF80010009A13F8011B02F8011B00924A
:101860000029F7D138B1511E202201F8012B009137
:10187000694605F0BEFA25A9204617F0A8FF6C229C
:101880000AA9304618F04EFD30461AF02DF90A210B
:1018900030461AF032FA4DB0BDE8F08F00293FF41F
:1018A000F7AE03980628B4BF401C00200390491EE1
:1018B000F7D1EDE693244992676666662DE9FF4FFE
:1018C000C9B00E46DDE95749DDE959879A46154604
:1018D00070211EA8DDF858B1FEF74AFD6C2103A85F
:1018E000FEF746FDABF101000C2880F0E280AAF281
:1018F0002E6042F2E201884280F0DB8044226F4990
:101900000CA8FEF70DFD6E4B00211A460846E4FBBD
:101910000320C008A0EB40102044CDE903ABCDE983
:10192000050A0120CDE907B06648059BCDF824A043
:10193000CDE91D90CDE90AB318981A9BC0EBC002FF
:101940001998ADF88260C0EBC0001844ADF888006B
:101950006C202490ADF88A704FF4B870ADF89C00FC
:101960000320ADF89E001A98574B0A38ADF88080D6
:1019700025932C93ADF8A40040F27113ADF8845078
:10198000ADF8B830ADF886201A9B4FF0050CD21A8E
:10199000D21DADF8BA204D4B3393ADF8C0004FF4D3
:1019A000B073ADF8D430C31CADF8A0C0ADF8A20040
:1019B000D21AADF8DC00ADF8BCC0ADF8D8C0ADF8B7
:1019C000BE00ADF8D630ADF8DA2000910191404A62
:1019D00004211EA8499B05F01DFC050069D06FF08D
:1019E000704118F08CFC3B4928461AF0A3FB4FF4D9
:1019F000B871284619F062FA0446002118F0A4F9DB
:101A000035492046FFF78AFA40F27111284619F04D
:101A100055FA0446002118F097F92F492046FFF7A0
:101A20007DFA4FF4B071284619F048FA04462B4964
:101A30001AF080FB0E21204617F0F5FE2046139980
:101A400017F008FF2046179917F0A8FE204618F057
:101A5000BBFD2046129917F07FFE07996FF0030235
:101A60001B9802EB81013AAA41580698CDF8002054
:101A7000009B11F8012B03F8012B0093002AF7D1EA
:101A800038B1591E202201F8012B0091694605F05A
:101A9000B0F93AA9204617F09AFE28461AF018FC29
:101AA0006C2203A9284618F03DFC4DB02846BDE83D
:101AB000F08F4DB00020BDE8F08F000080050020C1
:101AC0002184104271A20108690B00086F96010879
:101AD000AD100008DDC80208F131020859AE020855
:101AE00030B59BB00C46054607F066FA6C22694695
:101AF000284618F001FCDDE90601089AA260C4E955
:101B0000000109F0B5FF1BB030BD0000022828BF5E
:101B10007047024A02EB8000816270478005002016
:101B2000064A002804BF91637047012804BF11636F
:101B30007047022808BF51637047000080050020ED
:101B40002DE9F04F0446006889B028B11BF03EFB38
:101B5000002808BF012500D00025FE4850F8256068
:101B600060680A2800F0738108DC002800F0DD813D
:101B7000062841D007280CD000F0E8B9122800F060
:101B80003081192802BFB06909B0BDE8F08F00F0BC
:101B9000DDB9256807F010FA284604F07DFE0090B4
:101BA000C76F684604F058FF09F062FF5FF0000558
:101BB00056F8250009F04FFB2069C119491B4B1E3F
:101BC00061691A462944284406F05CFD6D1C032D0A
:101BD000EED3D6E90301CDE90001D4F810C00CEB37
:101BE0000700401B431E60691A4641190CEB0500B3
:101BF00006F07CFA00F0AAB9A068401E069024689E
:101C000007F0DAF9204604F047FE0090D0F87C8017
:101C1000684604F021FF09F02BFFDFF83C9359F8E8
:101C20002570002F1CBF069800EB80000DD000BF70
:101C3000B7F84810414505D107EB8001896809B123
:101C40001FB1C4E0FF6C002FF2D1502004F088FDDA
:101C5000070000F07B81C14C502200212368984787
:101C600070697864A7F8488059F82500F864BC4882
:101C7000A8F1060880FB081049F825704110A1EB77
:101C8000E071032008900120049007F14000CDE9A5
:101C90000280069D05EB850007EB8000019005EBB7
:101CA000450007EB80002830009008EBD870421008
:101CB000401000EBD073A0EB63004618501A05905B
:101CC00008F10700C11700EB51704FEAE00A0AFB68
:101CD00008FB584604F044FD5FEA000977D023680A
:101CE0005A4600219847DDE90420012826DD089B9B
:101CF00001213046334483421BDD4FEAE27C02EB94
:101D00005C7E02F0070C802424FA0CFC404509DAC2
:101D10000AFB00F404EBEE0419F804B04BEA0C0BD8
:101D200009F804B06940401C834202DD0029F9D063
:101D3000ECE70598521C761C9042D8DC0499029876
:101D4000401A0490904225DD089901203446314420
:101D5000A1421ADDD31702EB537E02F0070C802359
:101D600023FA0CF3444509DA0AFB04FC0CEBEE0CF5
:101D700019F80CB04BEA030B09F80CB06840641C6E
:101D8000A14202DD0028F9D0ECE70498521C761E2F
:101D90009042D9DC0098022101600099012008716D
:101DA000009A039991600199C88001980021A0F8D8
:101DB00004A00198C0F8089001980161DDE90001D4
:101DC000C860DDE9010101800198A0F80280069851
:101DD000032200EB800007EB8000114605F0E0FED7
:101DE000B4E0206804F058FD0290B0F9547090F807
:101DF0005650D0F84490D0F8348002A804F02CFE5D
:101E0000266807F0D9F8304604F046FD0390B0F894
:101E10007C6003A804F020FE09F02AFE684619F051
:101E200003F8BDF8000071190844ADF80000246AF9
:101E3000404609F039FA022009F0DEFA484609F076
:101E40000AFA3A466946204605F054FD7EE02068CD
:101E500004F022FD0290B0F9548090F85660D0F85A
:101E60003490876C02A804F0F7FD256807F0A4F809
:101E7000284604F011FD0390B0F87C5003A804F04C
:101E8000EBFD09F0F5FD684618F0CEFFBDF8000047
:101E9000A9190844ADF80000206A06F0AFFF044617
:101EA000484606F0D9FF28F00301042904BFBDF815
:101EB0000610091A08D00C2908D1BDF90610091A14
:101EC000491C01EBD1714910ADF8021028F00C014A
:101ED00001290CD0022913D1BDF90410BDF900204D
:101EE000891A091B01EBD17102EB610106E0BDF813
:101EF0000420BDF80010521A121B1144ADF8001056
:101F0000BDF80010621E1144ADF80410BDF80210B7
:101F1000401E0844ADF80600384609F09CF94FF021
:101F2000FF31684605F0B6FE10E020681AF0CEFAE0
:101F3000206804F0B1FC0790B0F90610B0F9022057
:101F4000891A491CC16707A804F086FD09B0002062
:101F5000BDE8F08FD8E60A0808060020AC0B002088
:101F600067666666044A034911600449CA69C86124
:101F700010467047C4050020740C0020780C002027
:101F800000B589B000200090029003900490059065
:101F90000690079008901920019004480068806816
:101FA00041686846884709B000BD0000740C0020F5
:101FB00070B5234C054682B02068418CB0F84C20A7
:101FC00011444184818CB0F850201144818428460A
:101FD00006F04AFE2168498CADF8001046182846E4
:101FE0000BF068FD3044401EADF8040006F0B4FE6E
:101FF0002168898CADF802100844401EADF8060037
:1020000068461AF019FF30B1284602F039FA1AF082
:10201000FBFC0028F8D10A2D04D0BDF8040021688B
:10202000401C48842068418CB0F84C20891A4184B7
:10203000818CB0F85020891A818402B070BD0000F4
:10204000400300202DE9FE4304460E461546204677
:102050000CF09CF807460F4850F8240007FB0608D0
:102060000C4850F8240007FB050900210A4850F8E5
:102070002400CDE900010948029150F824304A4675
:102080004146204600F092F9054840F82450BDE84A
:10209000FE830000880000209800002094000020AB
:1020A000900000202DE9F04F85B004460D461646FD
:1020B0001F46DDE90F8BDDF838A020460CF066F8EE
:1020C00081461C4850F824001B4951F8241009FB94
:1020D00001001A4951F8241006FB0151184A52F820
:1020E000242001FB02000490124850F824001249F9
:1020F00051F8241009FB0100104951F824100AFB83
:1021000001710F4A52F8242001FB020003900021C4
:102110000A4850F82400A0EB08004346CDE900B07F
:1021200002912046DDE9032100F040F905B0BDE849
:10213000F08F000088000020900000209400002014
:102140009C0000202DE9FE4F04460D4616461F4612
:10215000DDF8309006F0CAFD012810D100221921C7
:1021600020460FF0CBFC4B463A46314628460EF04F
:10217000E1FC194A192120460FF0C0FC2AE0781B27
:1021800000F10108A9EB0600401C029020460BF06C
:10219000FDFF8246114850F82400114951F82410DF
:1021A0000AFB01000F4951F8241006FB01510E4AA9
:1021B00052F8242001FB020B0A4951F82410A1EB2C
:1021C00008010D98CDE90010424659462046029B71
:1021D00000F01CF9BDE8FE8F4521000888000020B2
:1021E00090000020940000209C000020F8B50446D8
:1021F0000D4616461F4603203B46324629460090B0
:10220000204600F0ABF9F8BDF8B504460D46164679
:102210001F4604203B46324629460090204600F0E7
:102220009DF9F8BDF8B504460D4616461F46022036
:102230003B46324629460090204600F08FF9F8BD13
:10224000F8B504460D4616461F4600203B4632466A
:1022500029460090204600F081F9F8BDF8B5044603
:102260000D4616461F4600203B4632462946009042
:10227000204600F073F9F8BD1CB504461A20002171
:102280002346044ACDE900100221034804F0C2FFAE
:102290001CBD0000C9BD02083C6505081CB504460C
:1022A0001A2000212346044ACDE9001002210348E8
:1022B00004F0B0FF1CBD000085BE0208D0B60A08BD
:1022C0001CB504460B48006858B90020009023460E
:1022D000094A03210190094804F09CFF0549086060
:1022E00007E0044800681AF0C7F90248006818F0CF
:1022F000F3F81CBD9C0100203DC7020820B80A0865
:1023000010B54FF081510B4800F08AF980B10121DE
:1023100009480CF0FFFB0021064800F013F94FF0CC
:102320008151044800F0F4F800200449096808804D
:1023300010BD000040600240005C00402C00002006
:1023400010B51449144800F06BF910B3002112487D
:1023500000F0F8F80F49104800F0DAF84FF4204088
:102360000E49086007E00D490868411E0B4A1160DC
:1023700008B92CF0F8FE0A490A480CF0D7FB0028EF
:10238000F1D0012107480CF0C5FB0020064909687F
:10239000087010BD2000002070600240280000205E
:1023A00004000010005C0040300000202DE9F05FC8
:1023B00007460C4615461E46DDE90B9ADDF82880D7
:1023C00038460BF007FF83464FF400700E49086053
:1023D0000846C460C563C0F81090C0F840A0C0F8BB
:1023E0001CB0404666F31F4048640846006840F051
:1023F0000100086000BF0448006800F001000028E8
:10240000F9D1BDE8F09F000000B002402DE9F0478F
:1024100007460C4615461E46DDE9088938460BF08E
:10242000D9FE82460E480F4908600846C0F8389029
:10243000C463C0F84080C0F834A0304665F31F4044
:1024400048640846006840F00100086000BF054885
:10245000006800F001000028F9D1BDE8F087000015
:102460000002030000B0024010B500F001F810BDFA
:10247000022001498860704700B0024070470000A8
:102480002DE9F04107460C4615461E4632460B49DB
:1024900038460DF003FF3246094920460DF0FEFE96
:1024A0003346084A0649054800F00EF832462946E8
:1024B00004480DF0F3FEBDE8F0810000F41F002099
:1024C000F42E0020F410002030B50F4C0F4D2C607E
:1024D0002C46E0606161E26300242C61AC612C64F5
:1024E000EC616C626C63012404EB03446C642C4665
:1024F000246844F001042C6000BF044C246804F0FC
:102500000104002CF9D130BD0002020000B00240ED
:102510000246094B9A4201D2084801E006481038A9
:1025200001F000531BB1064B0B40C36002E0044BAB
:102530000B4083607047000010640240006002405E
:102540007D0F7D0F21B1026842F00102026003E0BD
:10255000026822F001020260704700002DE9F84392
:1025600005460E4614469846089F224606492846C8
:102570000DF09EFE3B46002231460348009400F0D9
:1025800005F8BDE8F8830000F410002070B5049C45
:102590004FF481350D4E35603546E860E96300251E
:1025A000356135643546EA616B63012505EB044509
:1025B000756435462D6845F00105356000BF034D53
:1025C0002D6805F00105002DF9D170BD00B0024065
:1025D000F0B505AC70CC4FF48137DFF840C0CCF8D3
:1025E00000706746F860F9633A613B640527CCF8F0
:1025F0001C7067467C6346EA0547CCF84470674622
:102600003F6847F00107CCF8007000BF034F3F68F8
:1026100007F00107002FF9D1F0BD000000B0024023
:1026200030B503460A46002000240B4DAB4201D2D0
:102630000A4901E00849103902F000550DB14C6813
:1026400000E00C68064D2C4004EA02050DB10120A3
:1026500000E0002030BD0000106402400060024035
:102660007D0F7D0F2DE9F84305460E46144698462A
:10267000089F00233A46064928460094FFF786FF44
:102680002246314602480DF013FEBDE8F8830000F3
:10269000F4100020074AD0624A1ED2B2012343EA56
:1026A0000222044BDA611A46D26942F02002DA6152
:1026B0007047000000B002401EB5034601F07F40A5
:1026C000B0F17F4F01D118461EBD83F07F400290CC
:1026D00081F07F4001901548154C206002A8E06011
:1026E00001A86061C4F83CD04FF4803040EA026039
:1026F000E061C2F1FF00002444EA00600C4C60621B
:10270000002060634FF0011060642046006840F0D4
:102710000100206000BF0648006800F001000028AA
:10272000F9D1009880F07F40CEE70000000202005F
:1027300000B0024070B5049C124D134E3560354612
:10274000E8606961EA634FF4803545EA0365F56145
:10275000C3F1FF05002646EA05650B4E75620025AC
:102760007563012505EB0445756435462D6845F014
:102770000105356000BF044D2D6805F00105002DF1
:10278000F9D170BD0002020000B002402DE9F04115
:10279000044688B0006804F07FF80690468ED0F8B2
:1027A000885006A804F058F9002D18BF012506F03E
:1027B000010620681AF00AFD002D18BF00200FD076
:1027C0007D4951F820506068002800F0EE80022812
:1027D00000F0CE8005280CD012287DD000F0E8B89B
:1027E000002E18BF0120EBD1002814BF02200320C7
:1027F000E6E7D5E90123A86A29688DE80F0004F10E
:1028000010000FC80AF0D6FB5FF0000655F826004E
:1028100008F021FDA169A86A0A1A216901446069CA
:10282000304405F0ADFEA169A86A0A1A2169014485
:10283000E069801B05F0A4FEE169A86A0A1A6169D3
:1028400001442069304406F07DF8E169A86A0A1A5B
:1028500061690144A069801B06F074F8761C022EA1
:10286000D4DBA86A02281BDDA86808F0F4FCE16943
:10287000A86AD4F810C00B1A0CEB00014A1E61695B
:1028800001440CF1020006F0E7F8E169A86AA269C8
:102890000B1A61690144101A401C921E06F0DCF804
:1028A000D5E90301CDE90001E1696069A26901444C
:1028B0004B10A96AD4F810C0521A8C44811C60468F
:1028C00005F014FCD5E90501CDE90001A069AB6A6A
:1028D0006169C21AE06900E019E001444FF0010C9F
:1028E0000CEB6101D4F810C09C44831E604605F0D7
:1028F000FDFB686A08F0AFFCE2696169A369501AE0
:10290000181A401C091D121F06F01CF850E0206820
:1029100003F0C2FF0090B0F88060B0F98280C76C0D
:10292000684604F099F8208AB11C0844ADF8080004
:10293000A08A801CADF80A00A08BA18A401A218BC6
:10294000891B081AC01EADF80C00A08B801EADF8C4
:102950000E00022008F050FD384608F0A5FC286A59
:1029600008F079FC424602A9206A04F0C3FF1FE088
:102970006169E0694FF0FF32401AA0F1080102EBF3
:102980006106411CA269801B4410A2EB6107E86943
:1029900008F061FC002E0BDBBA19B91B204605F0CC
:1029A000EFFD641C761EF7D502E0206819F08EFD5D
:1029B00008B00020BDE8F081E0E60A08044A0349B7
:1029C000116004490A6B0863104670471006002026
:1029D000B40C0020B80C002038B50D46002403F0DC
:1029E0005BFF0090C06B294604F010F9054668466D
:1029F00004F032F81DB1284603F04EFF044620468D
:102A000038BD704770B504460D461646022C0DD1F0
:102A1000FF2008F020FC06EB460305EB45020A49BF
:102A200001EB0410042103F0CDFB0CE0074808F093
:102A300012FC06EB460305EB4502034901EB0410CB
:102A4000042103F0BFFB70BDF43D00208080FF0037
:102A5000002808BF70472DE9F04F91B00F4604469B
:102A600006F0AAFA204603F017FF039090F854A04E
:102A7000D0F83490866DC56C03A803F0EDFF26B145
:102A800039462046B04700F0ABB900264FF00108A8
:102A9000122F7DD006DC082F7BD0102F7AD0112F7B
:102AA0003CD006E0132F5BD01D2F00F0E4801E2FDA
:102AB00071D0202FC0F29481BAF1000F00F0F280A3
:102AC000204603F0E9FE0590D0F834A0D0F84C90F1
:102AD00005A803F0C1FFBAF1000F00F0E3805046F3
:102AE00003F0DAFE82464946069008F095FE8146DC
:102AF0005046FDF748FC48457DD9D144484608F08A
:102B000045FE09EB00014846FDF751FC06A803F01D
:102B1000A3FF0521204619F0F0F8C3E0B9F1000F3A
:102B200000F05E81484603F0B7FE07462946049050
:102B300008F072FE0744384608F018FE0546029673
:102B400008F034FE8046681C86B2304608F02EFE3F
:102B50000546A84526D004A803F07EFF00F040B942
:102B6000B9F1000F00F03C81484603F095FE07469E
:102B70002946049008F050FE0744384608F0F6FD58
:102B80000546029608F012FE8046681E86B203E0F3
:102B900016E021E01AE043E0304608F007FE054663
:102BA000A845D8D1314602A808F0CEFD2A4602A990
:102BB0003846FDF7B5FB0521204619F09EF8CAE717
:102BC000691C204600F02AFC00F00AB9691E204664
:102BD00000F024FC00F004B9002D00F00181691E12
:102BE000204600F01BFC204603F056FE0190C76C07
:102BF000456B01A800E052E003F02EFF002D00F02D
:102C0000EF80284603F048FE06463946029008F059
:102C100003FE05463046FDF7B6FBA84229D918E069
:102C2000204603F039FE0190C76C456B01A803F004
:102C300013FF002D7ED0284603F02EFE06463946AF
:102C4000029008F0E9FD05463046FDF79CFBA842DE
:102C50000FD93544284608F099FD29182846FDF774
:102C6000A6FB02A803F0F8FE0521204619F045F85E
:102C7000B6E002A810E0204603F00EFE0390BAF181
:102C8000010F08BF80F8546005D080F854802946B1
:102C9000204600F0C3FB03A803F0DEFEA0E006A878
:102CA00003F0DAFE1FFA87FB204603F0F5FD074626
:102CB0000290B0F93800002812DD786B4FF000095F
:102CC00040B103F0E9FD00900AF0D0FE814668466D
:102CD00003F0C2FEB7F9381009F10100884200DCA8
:102CE00046460298C06C079002A803F0B5FE002E7D
:102CF00076D0584608F05AFD074626464FF00008A1
:102D0000204603F0C9FD0B90406B40B103F0C4FDB9
:102D10000890FDF738FB804608A803F09DFE0B994C
:102D200007EB0800498F401A00F101080BA803F0D7
:102D300093FE00E054E0B8F1000F2CDD304608F1BE
:102D4000100803F0A9FD0090D0F834A0408F804413
:102D5000684603F081FE4146504603F0B1FD5FEA4C
:102D600000093DD0BAF1000F0AD103F095FD204BC8
:102D70000D9042461B68002198470DA803F06CFE99
:102D8000304603F089FD0090A0F83A80C0F83490F6
:102D9000684603F061FE204603F07EFD0290466B1C
:102DA00002A803F059FE304603F076FD06460F9068
:102DB000079908F031FD06443046FDF7E4FA421C5D
:102DC000F0193146FDF7ACFA5946304608F0BCFC24
:102DD0000FA803F041FE0521204618F08EFFEFE614
:102DE000204618F081FE08F043FE11B0BDE8F08FD8
:102DF000AC0B002070B54568044682B028461AF036
:102E0000E5F906462146284616F0ABFE002804BF29
:102E100002B070BD20680F2844D004DC0B2847D0D6
:102E20000E2850D066E0A0F58070133804D0A0F5CD
:102E300080702D381FD05DE0284619F00BF9284628
:102E400003F02AFD009090F8561081F0040180F8FC
:102E50005610684603F000FE0021284626F0CEF802
:102E6000284603F019FD0090D0F88400002119F0E5
:102E70003AF8684624E0E06878B1017A41B1016827
:102E8000284600F010F90121284618F036FF31E0FD
:102E90000221284618F031FF2CE00321284618F0C3
:102EA0002CFF27E00121284626F0A8F802B070BDCB
:102EB000284603F0F1FC0190343003F0EBFB01A84D
:102EC00003F0CAFD16E0AEB1E0684168002911DDEB
:102ED00001681B290ED009DC09291CBF0A290D290C
:102EE00008D02846FFF7B4FD02B070BD212918BFF5
:102EF0002229F6D1204617F073FC02B070BD2DE9EF
:102F0000F04186B00DF1300898E8F0104FF000085D
:102F1000CDF814808DE8F01000F004F806B0BDE89C
:102F2000F08100002DE9FF4F85B09846DDE9165489
:102F3000DDE9126B91468A46159F06F03DF804F1D3
:102F40006001324A03914BF480500096CDE90102B2
:102F500043464A465146059817F086FB04004FD079
:102F600003F09AFC10223946049017F0B7F828486D
:102F7000049990E8CC1701F1600B8BE8CC17006A3C
:102F8000C1F88000012081F85500681C18BF01209D
:102F900081F88800002DD8BF08252AB20A870020B2
:102FA00048874863551C04A803F056FD204603F0EB
:102FB00073FC0090476B408F0544684603F04CFD5E
:102FC0002946384603F07CFC060015D057B903F0BB
:102FD00063FC104B01902A461B680021984701A80A
:102FE00003F03AFD204603F057FC00904587466306
:102FF000684603F031FD03E0204617F02BFC002467
:1030000008F036FD09B02046BDE8F08FF52D000828
:10301000F00C0020AC0B00200148806870470000D5
:10302000F00C002038B505004FF000040BD005F07F
:10303000C3FF284603F030FC0090846C684603F020
:103040000BFD08F015FD204638BD002808BF70476D
:10305000F8B516460C46054605F0AEFF284603F0C7
:103060001BFC0090002818BF032C05D200EB840045
:103070008667284618F038FD684603F0EDFC08F036
:10308000F7FCF8BD70B50D46044605F095FF34B168
:103090002946204600F0C2F9204618F025FDBDE87B
:1030A000704008F0E5BC002808BF70472DE9F041EA
:1030B00086B00C46074605F07FFF384603F0ECFB70
:1030C0000090406B002849D003F0E6FB0390009885
:1030D000806E08F0E9F88046384618F06FF9064629
:1030E000039805F08BFE0546009890F8601001F0FB
:1030F0000301012918D002290FD0416EC06A00686F
:103100000844201A441E03980AF0B0FC002C11DA7F
:103110000021384600F082F917E0701B401C00EBDC
:10312000D070A4EB6004EEE7406E711B081A201A01
:10313000441CE8E7A54204DB0246214603980AF056
:1031400029FC0146384600F069F903A803F084FC25
:10315000404608F0A9F8384618F0C6FC684603F067
:103160007BFC08F085FC06B0BDE8F0812DE9F84352
:103170001D46DDE9086714468946804605F01CFFB8
:10318000B8F1000F75D0404603F086FB3B49009034
:1031900081653B49C1650021C0E91291C0E90F4535
:1031A00080F8446080F85670012180F8541090F83F
:1031B0008890684603F050FCB9F1000F40D0002D14
:1031C000A7BF01210B460221CB1EB8BF6D422D4A7D
:1031D0000A2D08DB82FB05C04FEAA00CACEBE075C2
:1031E000491C0A2DF6DAB3F1FF3F02BF4B1EB34272
:1031F000491C002CBDBF02204FF0FF3C644201205F
:10320000A8BF84460A2C07DB82FB04439C10A4EB76
:10321000E374401C0A2CF7DABCF1FF3F02BF431EE7
:10322000B342401C002E1CBF401C491C17F0010F6C
:1032300018BF491C8142D8BF0146404600F026F81D
:10324000404627F023FF404603F026FB009000F0A5
:10325000CFF80D490978884205D10098C06C411C0F
:10326000404600F0DBF8684603F0F6FB404618F0F5
:103270003BFC08F0FDFBBDE8F883000061E10108BC
:103280008DB00208676666662C030020002808BF20
:1032900070472DE9F04184B00C46064605F08CFEDF
:1032A000304603F0F9FA0090B0F93810458FA1428A
:1032B00048D012DD406B80B103F0EEFA01900AF0C5
:1032C000D5FBA04206DD2146019808F0A5FA019A37
:1032D0000021115401A803F0BFFB684603F0BCFBBA
:1032E000601B451C304603F0D7FA0290D0F83480BA
:1032F000408F054402A803F0AFFB2946404603F087
:10330000DFFA070016D0B8F1000F0AD103F0C4FAB3
:10331000104B03902A461B680021984703A803F02E
:103320009BFB304603F0B8FA02904587476302A83A
:1033300003F092FB304603F0AFFA0090048730466A
:1033400018F0D2FB684603F087FB08F091FB04B04D
:10335000BDE8F081AC0B0020002808BF7047F8B52D
:1033600016460C46054605F027FE284603F094FA5B
:103370000090002818BF032C05D200EB8400C6661D
:10338000284618F0B1FB684603F066FB08F070FBB6
:10339000F8BD38B505000C4608BF38BD05F00CFE79
:1033A000284603F079FA0090C16BA1421CDC016C45
:1033B000A1421BDB816CA14210D08464C16D002945
:1033C0001CBF28468847284618F08EFB684603F045
:1033D00043FB0521284618F090FC02E0684603F004
:1033E0003BFB08F045FB38BD0C46E0E70C46E1E747
:1033F00038B50546406B002468B103F04DFA0090E3
:103400000446E96C08F008FA204408F0AFF90446D5
:10341000684603F021FB204638BD000010B582B09D
:103420000C4603F039FA0090406BE8B103F034FA2F
:1034300001900AF01BFB009991F85420002A18BF54
:103440000122002C15DB844215DC00BFB1F93800E5
:10345000801AA04211DBC86CA04218BFCC640020C7
:10346000086501A803F0F8FA684603F0F5FA02B01F
:1034700010BD0024E7E70446E8E7B1F93800841AF4
:10348000E9E7000010B5024600200023102A03D10E
:103490004FF02044636E0FE0B2F5807F02D10A4CFA
:1034A000236809E0B2F5805F03D1074C203423681C
:1034B00002E0054CD434236803EA01048C4201D0B5
:1034C000002000E0012010BD840000A00021D0E910
:1034D00000231A4383685B1E42EA4312C36842EA30
:1034E0004321014A11607047500100A070B50022CD
:1034F0000021002300240568AD00A5F1C045D5F8E2
:1035000040216FF30E02D0E901563543C6683543BA
:10351000066935434669354386693543C66935438F
:10352000066A3543466A35432A43056835B9056856
:10353000AD00A5F1C045C5F8402111E03B4D2B6819
:103540006FF30E03D0E907563543466A35432B43E4
:10355000364D2B600568AD00A5F1C045C5F840218A
:10356000056875BB314D0835066855F8261001F021
:103570007041856A2D686D1E866A7668761E45EAFA
:103580000616856AAD686D1E46EA0526856AED68F1
:103590006D1E46EA0536856A2D8A6D1E46EA054689
:1035A000856AAD8A6D1E46EA0556856A2D7E6D1EBA
:1035B00046EA056529431D4D0835066845F826107D
:1035C00032E0FFE7194D0835066855F8261001F07E
:1035D0007041856A2D686D1E866A7668761E45EA9A
:1035E0000616856AAD686D1E46EA0526856A2D8A2F
:1035F0006D1E46EA054529430C4D08352C6804F03C
:103600007044856AED686D1E2E03856AAD8A6D1E55
:1036100046EA05552C434FF02045C5F84841034D77
:103620000835066845F8261070BD0000400100A06E
:103630000449096841EA40014FF02042C2F85411A0
:1036400070470000540100A02DE9F04389B098466E
:1036500015460F4606004FF0000423D000F0A0FCF2
:103660000446304600F07CFC814605F0A5FC03A929
:10367000304600F022FD17F0010F17D0BDF91C00F5
:103680008221001B401B401C0096CDE9018123468E
:103690001A464946FDF74AFA0446002116F054FB43
:1036A00008F0E6F909B02046BDE8F083BDF918003E
:1036B00017F0020F284414BF40F202210221E3E771
:1036C00010B50523FFF7C0FF0446054A0021FDF7AA
:1036D00015FC0449204618F02DFD204610BD0000C1
:1036E0005DFE010845BC02082DE9F0474468054627
:1036F0008EB04FF00008204603F0CEF80090B0F8EE
:103700007CA0D0F86890D0F88070D0F88860C06D48
:10371000002818BFD0F80080684603F09DF956B124
:1037200071682846884700281CBF0EB0BDE8F087A6
:103730003668002EF4D12868172802BFC5F80C900F
:103740000EB0BDE8F08713DC0F2844D00ADC0B284C
:1037500000F053810D2808BF1AF0080F00F0F68022
:1037600000F054B9112814D0142870D000F04EB9CC
:1037700026286DD006DC1E286BD0202800F0F080B3
:1037800000F044B92A2818D0B0F5107F2AD000F0F4
:103790003DB92046EE6803F07FF80190717A002968
:1037A00004BF317A012905D1B0F87C1041F4807151
:1037B000A0F87C1001A800F0FDB8204603F06CF8DA
:1037C0000090E968002912BFC0F88410D0F8840086
:1037D000E860684649E0B8F1000F1CBF2046C047CA
:1037E00000F014B927462046EE6803F055F8019022
:1037F000B0F87C4001A803F02FF9E868002804BF66
:103800000EB0BDE8F087307A20B314F0080F04BF83
:10381000384618F05DFD384616F05EFE14F0100FC5
:1038200012BF14F4807F0EB0BDE8F087002314F0BF
:10383000800F1CBF0EB0BDE8F08779483146B0F963
:103840000020384618F0B8FC0EB0BDE8F0870FE055
:1038500018E024E0384603F01FF80190B0F87C101F
:1038600021F48071A0F87C1001A803F0F5F8EBE7D3
:1038700005A9204600F021FCDDE90612E868016098
:103880004260E1E7E8680228DED10C94E8680D9018
:1038900027200A900AA9A86819F0C0FED4E7E868B2
:1038A000012819D0002CCFD005F086FB204602F06D
:1038B000F3FF0190B0F87C1011F0080F06D021F052
:1038C0000801A0F87C10204618F00EF901A803F0BA
:1038D000C3F808F0CDF8B7E7384618F08FF958B1BB
:1038E000384618F0F5FC384617F0DCFF88B10121A6
:1038F000384616F001FA0CE0484618F065FD074618
:10390000204602F0C9FF0090C0F88070684603F0BE
:10391000A3F8B4B105F050FB204602F0BDFF0290C1
:10392000B0F87C1011F0080F06D141F00801A0F8A2
:103930007C10204618F0D8F802A803F08DF808F0A3
:1039400097F8002F04BF0020E8607DE7E868C068B2
:1039500000281FBF007A0028204618F0B9FC55E067
:10396000EE684EB32146706819F008FC002827461F
:10397000204622D002F090FF0490B0F87C1011F0A5
:10398000080F06D141F00801A0F87C10384618F065
:10399000ABF804A803F060F82146706819F0DAFB70
:1039A00050B1204602F078FF02907168C0F8801094
:1039B0000DF1080003F050F828E002F06DFF0490CC
:1039C000B0F87C1011F0080F06D021F00801A0F823
:1039D0007C10384618F088F804A803F03DF821461A
:1039E000306819F0B7FB88B1204602F055FF02900D
:1039F0003168C0F8801002A8DCE7204602F04CFFD6
:103A00000090703002F046FE6846D3E72946204613
:103A100016F0A7F800281CBF284616F0E1FE13E7B1
:103A2000CC06002070B588B0B0F908400DF10C0E3E
:103A30000C9ED0F818C045688EE87010B0F812C01F
:103A40000024CDE90014CDF808C0B0F90C10B0F98D
:103A50001040B0F90EC0B0F90A00194410442346D2
:103A6000624600F003F808B070BD00002DE9FF4F7A
:103A70008BB09946DDE91885DDE91B6792468B46D8
:103A80001E9C05F099FA04F16000444945F4805504
:103A9000CDE90210CDE900854B46524659460B98B8
:103AA00016F0E2FD040073D002F0F6FE302231463B
:103AB000049016F013FB3A4E049A06F1080102F145
:103AC000340E91E80B1F8EE80B1FD6E90A01C2E9FC
:103AD00015011D9850661A98A2F87C004FF0000856
:103AE000C2F88080C2F86C80C2F888807068D065A7
:103AF00004A802F0B1FF05A9204600F0DEFA29482B
:103B000041F28271CDF80C800094CDE90110BDF92D
:103B10001E00BDF91A10BDF91C20401A431CBDF946
:103B20001800121A521C16F09FFD804670684168FA
:103B300020468847204602F0AFFE0490C0F8688017
:103B400004A802F089FF42F20400054204BF2046A7
:103B500016F075FF05F030FA204602F09DFE009049
:103B6000006F0190684602F077FF394601A80AF01D
:103B700077F958B1204602F08FFE00900199016755
:103B8000684602F069FF204617F0AEFF07F070FFAD
:103B900007F06EFF0FB02046BDE8F08FE936000851
:103BA000CC060020774300082DE9F041044698B088
:103BB000006800F0BDF9002814BFDB4DDB4D6068E4
:103BC000152802BFA86A18B0BDE8F08112DC0B28E6
:103BD0002AD007DC002800F09281052800F02C8113
:103BE00000F09DB90E2800F07781122800F03B818B
:103BF00000F095B9162802BFE86918B0BDE8F08159
:103C0000172802BF286A18B0BDE8F081182802BF43
:103C1000686A18B0BDE8F0811C2802BF686918B056
:103C2000BDE8F08100F07BB920680E901C200F9059
:103C3000206802F031FE0390016D0EA88847064609
:103C400003A802F009FF022E11DBD5E90001AA68E2
:103C50000292CDE90001D4E904023346A16909F0DA
:103C6000A7F820698719A069A0EB06082CE028684E
:103C700007F0F1FA2169E8690844421E606904F01E
:103C80007FFCA269E869101A411C606904F078FCA5
:103C90006069471C3946206904F0CCFC3946A069AC
:103CA00004F0C8FC686807F0D6FA20693946401C61
:103CB00004F0C0FCA0693946401E04F0BBFC20693A
:103CC000871CA069A0F10208286807F0C4FA4246E0
:103CD0003946606904F054FC686807F0BCFA606912
:103CE00042463946401C04F04BFC686A02287DDDE0
:103CF000A86807F0B0FA60696A6A811C1044431E24
:103D00004246384604F0A8FE6069022EACBF064465
:103D1000861CE069471E286807F09DFA3A4631463E
:103D2000206904F00FFE3A463146A06904F00AFE0D
:103D3000E069871E686807F08EFA20693A463146C6
:103D4000401C04F0FFFDA0693A463146401E04F0D5
:103D5000F9FDE8690228DCBF286A022820DDA86A8C
:103D60000228C7BFE1690F1AE069871EA86807F03B
:103D700072FAE969022907DD22693B46901C114469
:103D80004A1E314604F068FE286A022808DDA1694F
:103D9000E8698A1E081A3B463146401C04F05CFE66
:103DA000286807F058FAD4E90620216904F0E8FBF6
:103DB000686807F050FAA069421E2069411CE0695A
:103DC000401E04F0DDFBA86A02284BDD21698E1C31
:103DD000A1698F1EE169081A441CA1F10208A868B4
:103DE00007F039FA43463A46214600E003E0304600
:103DF00004F032FE93E0296AB14285DD6069022E4B
:103E000000F10208ACBF871947462069ACBF3044B7
:103E1000801C22693B461144A1F10102414604F095
:103E20001BFEA069022EACBF821B821EE9693B46C5
:103E3000401A4146401C65E7208A00B2ADF81800E0
:103E4000A18A09B2ADF81A10228B12B2ADF81C206B
:103E5000A38B1BB2ADF81E30D5E9034CCDE9004C65
:103E600004F044F95BE0208A298B0844ADF818007F
:103E7000A08AADF81A00208B298B401AADF81C00DF
:103E8000A08BADF81E00206802F006FD0390006FC5
:103E9000F0B1022007F0B0FA039991F87C00C0F36A
:103EA000C00001EB8000006C07F0D5F90398406B6F
:103EB00007F0FAF90398006F02F0EEFC03990A90FC
:103EC000B1F95A2006A903F015FD0AA802F0C4FDB5
:103ED00003A802F0C1FD22E0208AADF81800A08AF4
:103EE000ADF81A00208BADF81C00A08BADF81E00B9
:103EF000A86807F0B0F906A804F0DAFD0FE0206822
:103F000002F0CAFC0390B0F85A1041F00C01A0F87E
:103F10005A1003A802F0A0FD206818F0D7FA18B0D4
:103F20000020BDE8F0810000100700203C070020C1
:103F300038B505004FF0000410D005F03DF82846D4
:103F400002F0AAFC009090F87C0010F0080F18BF57
:103F50000124684602F080FD07F08AFD204638BD46
:103F600038B505004FF0000411D005F025F82846BB
:103F700002F092FC0090C06D002180680268284623
:103F800090470446684602F067FD07F071FD204641
:103F900038BD00000148406970470000D406002089
:103FA00030B587B005004FF0000414D005F004F8D8
:103FB00001A9284600F081F8284602F06DFC009027
:103FC000B0F95440684602F047FD002C08BFBDF927
:103FD000044007F04DFD07B0204630BD064A0549B4
:103FE000074B1160054AD16958601B68C2E9063069
:103FF0000846704704070020D0060020D4060020A1
:10400000FC060020002808BF70472DE9F04383B06C
:104010000C46804604F0D0FF404602F03DFC009084
:10402000428E002C114614BF41F0200621F02006DC
:10403000B2423AD04686404600F062F9009DEC69F3
:104040000CB3204602F028FC0190076AB0F9020088
:10405000B5F90210A0EB010901A802F0FDFCB5F9C9
:10406000560048450DD1A86EA0420AD095F83200FE
:1040700010F0200F204602D018F0FEFA01E017F0F1
:104080001FFC3C00DDD1009890F87C0010F0400F40
:1040900008D016F0200F404602D018F0EDFA01E0EB
:1040A00017F00EFC404617F01FFD684602F0D4FCE6
:1040B00007F0DEFC03B0BDE8F0832DE9F04F0027E8
:1040C0008DB00C468146BA4602F0E6FB0190C06D09
:1040D0000121856848462A68904780462A6803215E
:1040E0004846904707902A68022148469047069024
:1040F0002A680021484690470646019818F08EFE2F
:104100000590019818F091FE8346019890F83210BE
:1041100001F02001002918BFB0F958A04FF00005A8
:1041200006D0B0F954501DB9406B04F095FE851CC3
:104130000198C06E10B117F059F9074625806780C5
:10414000A4F8048007990598401A06EB0A01401E5E
:10415000294420813944E1800699ABEB0101491ED5
:104160006181A4F80C8020827019E681401E608273
:1041700001A802F071FCB4F90C70B4F910604D465E
:10418000484602F089FB0690C16DD0F8008006A871
:10419000D1F8089002F060FCD9F8002000212846F0
:1041A00090478146284616F0EEFE050024D002F026
:1041B00073FB0790B0F900200FFA88F1B0F90430D2
:1041C000521A5B1AB0F90210A1EB284149450BD1F4
:1041D00090F8280010F0800F03D09642A8BF561E1A
:1041E00002E09F42D8BF5F1C07A802F035FC2846BA
:1041F00016F08DFF0500DAD1A78126820DB0BDE84B
:10420000F08F10B50146002091F8322012F0200FF7
:1042100008BF10BDB1F95400002818BF10BD486B8D
:1042200004F01AFE801C10BD70B58AB00E4604461C
:1042300002F032FB0990C06D856809A802F00CFC01
:104240000094002E08BF18200BD0012E08BF1620A6
:1042500007D0022E08BF152003D0032E08BF172059
:1042600000D101906968684688470AB070BD2DE9A1
:10427000F04383B017468846814602F00DFB00905C
:10428000C16D056868468C6802F0E6FB2268002173
:10429000484690470646484616F075FE040004BF9F
:1042A00003B0BDE8F08302F0F7FA0190B0F9001016
:1042B0002AB2B0F90430891A9A1AB0F90230A3EB85
:1042C0002543B34211D190F8280010F0800F05D09B
:1042D00038688842A4BF481E386006E0D8F800005D
:1042E0009042DCBF501CC8F8000001A802F0B4FBEB
:1042F000204616F00CFF0400D5D103B0BDE8F083D2
:1043000070B586B0064602F0C7FA0590D0E91A45A6
:1043100005A802F0A1FB54EA050004BF06B070BD79
:1043200069463046FFF7C9FEACB1BDF90620BDF9BC
:104330000410204617F07EFCBDF90A00BDF90610F6
:10434000401A421CBDF90800BDF90410401A411C76
:10435000204618F05BF9002D04BF06B070BDBDF912
:104360000600BDF90210421ABDF90410284617F0E4
:1043700061FC06B070BD2DE9F0430446406889B089
:10438000054616F0F9FE814602F086FA0290D0F852
:104390008080876C466E02A802F05EFB20681728BA
:1043A00062D008DC0E2850D00F2816D0142818BF71
:1043B000152859D052E01E2829D01F283ED0222887
:1043C00002BFE76009B0BDE8F083312801BF0020DB
:1043D000E06009B0BDE8F08340E06FF070408742D4
:1043E00004D038460DF03EFB02F06CFE002E04BFF8
:1043F00009B0BDE8F083D4E902122068CDE90405D4
:10440000CDE9061204A8B04709B0BDE8F083E06822
:10441000002804BF09B0BDE8F083B8F1000F18BF51
:10442000A84505D0404617F053FF09B0BDE8F0831A
:10443000284617F0C9FF09B0BDE8F0832146484679
:1044400015F08FFB09B0BDE8F083E06841680029F2
:1044500004DD00680928EBD00A280BD0002E1CBF11
:10446000C4F804902046CED1204616F0B9F909B020
:10447000BDE8F083284617F0F1FF09B0BDE8F083EE
:1044800070B5154C05460A2813D00D2D08BF70BD18
:1044900004F092FD2068C0690168284688470F48EB
:1044A000016800291CBF28468847BDE8704007F016
:1044B000DFBA04F081FD04F07FFD2068C069457E0D
:1044C00007F0D6FA2068818C29448184018C4184CC
:1044D000BDE8704007F0CCBA400300208003002004
:1044E0002DE9F04F85B08A468346DDE90E0100F5DF
:1044F000B4749846914601F5B475B4F5B47F0FDBFA
:1045000061424FF4B47091FBF0F04042002807DDA7
:10451000A0EB001000EB400004EBC00405EBC0056D
:104520004FF0FF360127002DDCBF05B0BDE8F08F4E
:104530005A2C0FDA002C63DB5A2DB4BF28465A20C0
:104540004346CDE90040CDE902764A4651465846F9
:104550001BF040FD5A3C5A3D002DDCBF05B0BDE8C4
:10456000F08F5A2C13DA002C4CDB5A2DB4BF28469E
:104570005A20C4F15A01C0F15A000090CDE9011649
:1045800043464A465146584603961BF023FD5A3C83
:104590005A3D002DDCBF05B0BDE8F08F5A2C0FDA74
:1045A000002C31DB5A2DB4BF28465A204346CDE9B2
:1045B00000404A4651465846CDE902671BF00AFDC5
:1045C0005A3C5A3D002DDCBF05B0BDE8F08F5A2C97
:1045D00013DA002C1ADB5A2DB4BF28465A20C4F136
:1045E0005A01C0F15A000090CDE9011743464A46EE
:1045F0005146584603971BF0EDFC5A3C5A3D92E752
:10460000002499E70024B0E70024CBE70024E2E788
:104610002DE9F84F0F46DDF828900646941BA3EBD2
:104620000708D9F800504FF0000A54EA080063D098
:10463000002CD4BF60422046B8F1000FCCBF4146E9
:10464000C8F1000188420ADA2046444680463046D6
:104650003E46074610461A4603464FF0010A002C14
:10466000CCBF20466042A04208BF012008D030469F
:10467000164602466442C8F100081F464FF0FF305C
:104680000090C448C449B8F1000FD0F800C01CBF66
:1046900004EBD4724FEA620BB8BFCBF1000B30D001
:1046A0009CF81A20002A00F0FA80009A002ABCBF69
:1046B0002A19C9F800200025002CC0F2458100BF4E
:1046C00008FB05B090FBF4F0C219D9F8001000986F
:1046D0000844B049C9F8000009688B7E012B00F03E
:1046E0000081022B00F00781032B00F00D81042BC9
:1046F00000F03A8100F019B93046BDE8F84F00F0FB
:104700008DBABAF1000F62D09CF81AC0BCF1000F4C
:1047100014D04FF00008002CA4BF8A46834640DB2B
:10472000DBF8001028466D1C8A7E012A0CD0022A74
:1047300014D0032A1BD0042A35D027E0314638464E
:10474000BDE8F84F0CF0C4B9801DC21700EB12721F
:1047500022F00F02801A0C281FDB17E0C21700EBB3
:10476000927222F00302801A022816DB0EE08AFB06
:104770000032D310A3EBE272524202EB820200EB52
:1047800082000C2809DB1038022806D3496E06EB9C
:1047900008004A6801463846904708F10108A045DC
:1047A000BEDD681EDCE07D4A82FB00329310A3EB85
:1047B000E272A2EB820200EBC2000C28EDDBA0F15A
:1047C0001002022A24BF14380228E6D3DEE79CF840
:1047D0001A80B8F1000F14D04FF00008002CA4BFCD
:1047E0008A46834642DBDBF8001028466D1C8A7E31
:1047F000012A0FD0022A17D0032A1ED0042A3AD049
:104800002AE0DCF864003946036801B03046BDE8B0
:10481000F04F1847801DC21700EB127222F00F02F2
:10482000801A0C281EDB17E0C21700EB927222F0F0
:104830000302801A022815DB0EE08AFB0032D31037
:10484000A3EBE272524202EB820200EB82000C28E0
:1048500008DB1038022805D3496E06EB08004A68C9
:104860003946904708F10108A045BCDD681EC9F82B
:104870000000BDE8F88F494A82FB00329310A3EB99
:10488000E272A2EB820200EBC2000C28EADBA0F18C
:104890001002022A24BF14380228E3D3DCE70025E3
:1048A000002CACBF8146BDE8F88F00BF08FB05B007
:1048B00090FBF4F03844BAF1000F0AD0D9F8002088
:1048C0007119526E526890476D1CA542EEDDBDE82D
:1048D000F88FD9F800107319496E4A6801461846D6
:1048E000F1E7801DC31700EB137323F00F03C01A09
:1048F0000C2825DB19E0C31700EB937323F00303A7
:10490000C01A02281CDB10E0234B83FB00C34FEAD4
:10491000E30CACEBE3735B4203EB830300EB83003C
:104920000C280DDB103802280AD3496EBAF1000FAB
:1049300006EB05004B680EBF11460146104698472E
:104940006D1CA5427FF7BCAE0098002804DAD9F8A8
:1049500000002044C9F80000D9F800100098081A97
:10496000C9F80000BDE8F88F0C4B83FB00C34FEA89
:10497000A30CACEBE373A3EB830300EBC3000C28A5
:10498000DEDBA0F11003022B24BF14380228D7D39A
:10499000CBE700004003002067666666ABAAAA2A40
:1049A0002DE9F047DFF86892804684B0D9F800001E
:1049B0000F460C99007E1D461646012800F0CE8059
:1049C000A8EB060C7C1B5CEA040104BF04B0BDE844
:1049D000F087421E0021BCF1000FBCBF0121CCF1C9
:1049E000000C002CBCBF41F002016442644504DDB0
:1049F00020466446844641F00401A0020CEBDC73BF
:104A000000EB630090FBFCF08010824C4FEA201C0E
:104A100000F00F0034F81C30C0F1100013FB00F35D
:104A2000102807D004EB4C0CC0F11000BCF802C0F9
:104A30001CFB003303F10800C31700EB13700011D7
:104A400011F0040F18BFC0F5806011F0010F18BFFE
:104A5000C0F5006011F0020F18BFC0F5805000F5DE
:104A6000806100F50060C0F30B004FF0000AB0F564
:104A7000006FC4BF4FF0010AA0F50060B0F5806F71
:104A8000C8BFC0F500604FEAA01C634B00F03F00B8
:104A9000C0F1400033F81C404443402818BFBCF12B
:104AA000100F07DA03EB4C0CC0F14000BCF802C059
:104AB0000CFB004404F120008009BAF1000F18BF7C
:104AC000404200FB02FC0024C1F30B00B0F5006F74
:104AD000C4BF0124A0F50060B0F5806FC8BFC0F569
:104AE0000060811100F03F00C0F1400033F811A0D8
:104AF00040280AFB00FA18BF102906DA03EB41012F
:104B0000C0F14000498801FB00AA0AF12000800999
:104B1000002C18BF404200FB02F1BCF1000FB4BFF3
:104B2000CCF500700CF500704FEAA020B8BF4042F1
:104B30000029BDBFC1F500718912C1F1000C01F55A
:104B40000071A8BF4FEAA12C00280FDD411C01EB2A
:104B5000D171491000EBD07042100EE0009139463F
:104B60004046FFF755FD04B0BDE8F08700EBD0717B
:104B7000401E491000EBD0704210BCF1000FC6BFC0
:104B80000CF1010000EBD0700CEBDC704FEA600020
:104B9000CEBF0CEBDC73ACF1010303EBD3735B1002
:104BA00008EB010CADF800C007EB000CADF802C03B
:104BB000A8EB020CB21AADF804C0ADF808203144DD
:104BC000A7EB030CEA1AADF80C102844ADF80A2044
:104BD000ADF80E000023ADF806C01A460421684661
:104BE00000F08EF8D9F8002040463946527E002A5F
:104BF00008BF00F013F83046D9F800202946527E4D
:104C0000002A08BF00F00AF804B0BDE8F0870000F1
:104C1000400300203AEB0A0818EB0A08064A13681A
:104C20001A7E012A05D0521E02EBD272521000F0F9
:104C300005B85A6E52681047400300202DE9F84F1E
:104C400006460F4640F2C32050434FF47A7190FB62
:104C5000F1F000F1010A02FB02F002EBD271DFF881
:104C60009C8000EB61000090D8F80010144632449C
:104C7000496E301B0B68394698470125BAF1010F80
:104C8000B8BFBDE8F88F00BF05FB05F004FB0400CA
:104C9000009988421ADD544517DDD8F8003006EB3C
:104CA000050BA6EB05095B6EABF1010239191B6818
:104CB00009F101009847D8F80030ABF10102391B27
:104CC0005B6E09F101001B689847641ED8F800303C
:104CD000321979195B6E301B93461B6881469847E1
:104CE000D8F800305A46791B5B6E48461B689847D7
:104CF0006D1CAA45C8DABDE8F88F0000400300200B
:104D00002DE9FF4F83B0074643F6FF74C4F100005E
:104D100090460E1E0090C4BFBA1C08460EDD00BFB0
:104D2000B2F90010A142D8BF0C46009B9942D8BFEF
:104D300019460091401E02F10402F1D18C49086825
:104D4000406970B1B0F90630069A9B1A009A9342F6
:104D5000C0F20281B0F90230069A9A1AA24200F318
:104D6000018100988442D2BFA6F1010907B0BDE8D5
:104D7000F08F00207F490546002E0860C4BF0698CA
:104D800004EB000A7EDD4D45B4BF6A1C002207EB30
:104D9000850C07EB8201BCF90200B1F90230A04298
:104DA00055D1A34213D137F92500514600EB080332
:104DB00037F922006E4A404483421268526ED2F89C
:104DC00000C0BABF024618461A46E04787E00022F4
:104DD0002946B9F1000F0CDD002914BF491E711ED0
:104DE00007EB8100B0F90200A04203D1521C4A45F2
:104DF000F2DB2046A04272D0001B37F925101A1BA7
:104E000090EA020F09D45A4A01EB08005146126891
:104E1000526E13680246984761E0DFF858B1DBF83C
:104E200000C0BCF10C0F5ADA0020BCF1000FC4BF67
:104E30006046514A4CDD00BF02EB400333F9023CAF
:104E40008B4245DB22F81030401EF5D140E0A342F2
:104E500045D0A8BF844203DAA042A8BF9C423EDBF3
:104E600098424EDC0246A042DFBF18468442BCF99D
:104E70000030B1F9001032DCA1EB030CA11A0CFBDD
:104E800001F100E02FE00029A0EB020CCEBF01EB06
:104E90006C01A1EB6C01491C801A91FBF0F0DFF86A
:104EA000D4B0C118DBF800C0BCF10C0F17DA002039
:104EB000BCF1000FC4BF60462F4A09DD02EB40037E
:104EC00033F9023C8B4203DB22F81030401EF5D14F
:104ED000294A22F810100CF10100CBF800006D1CDB
:104EE000B542FFF650AF06980025204401902148B6
:104EF000AB4601680029C4BF1F49B1F900A022DDFB
:104F000018E01A46A342DEBF8442B1F90030BCF972
:104F10000010B1DDE3E7184931F91BA055B108EBEA
:104F2000000C134808EB0A0201990068406E036800
:104F3000604698470F490BF1010B85F001050968A0
:104F400050465945E7DC0098641C84427FF711AF56
:104F500007B0BDE8F08F00BFB0F90630069A9A1A84
:104F60000092F7E6B0F902200698141AF9E600005C
:104F700040030020DC0B00206843002070B520486F
:104F8000046804F019F820460CF06CFD06F070FD82
:104F90001C48046804F010F820460CF09DFD06F053
:104FA00067FD012504F008F8174C2068057606F027
:104FB0005FFD04F001F820680025858506F058FDA6
:104FC00003F0FAFF2068458506F052FD03F0F4FF78
:104FD00028460CF0AFFD06F04BFD0C48056803F0C9
:104FE000EBFF2068002D18BFC56106F041FD0025CC
:104FF00003F0E2FF20688576BDE8704006F038BD1A
:105000003C0300203803002040030020340300202C
:10501000F0B50A4600210023002400BF3DE0012531
:1050200005FA01F3156805EA03049C4234D10568CA
:105030004F000326BE40B543056015794E00B540CC
:105040000668354305601579012D02D01579022DCA
:1050500016D185684F000326BE40B543856055795B
:105060004E00B540866835438560456801268E4010
:10507000B5434560456896798E40B6B23543456084
:10508000C5684F000326BE40B543C560D5794E00C4
:10509000B540C6683543C560491C1029BFD3F0BD73
:1050A000F0B5002300244D07ED0E02FA05F3CE10F3
:1050B00000F1200555F826504E07F70E0F26BE408A
:1050C000B543CF1000F1200646F82750CE1000F16E
:1050D000200555F8265045EA0304CE1000F12005BE
:1050E00045F82640F0BD41837047018370470AB1FF
:1050F000018300E041837047002808BF704733B543
:1051000083B0044603F058FF204601F0C5FB019030
:10511000456E01A801F0A0FC049801F0BDFB0090D1
:105120008460684601F098FC042204A9284601F036
:10513000B5FC204616F0D8FC06F09AFC05B030BD50
:10514000002808BF704733B583B0044603F034FF2E
:10515000204601F0A1FB0190856E01A801F07CFCC6
:10516000049801F099FB00908460684601F074FC9B
:10517000042204A9284601F091FC204616F0B4FC54
:1051800006F076FC05B030BD2DE9F04F0446002650
:10519000D4E90005A3B0B0F5407F08BF0126214641
:1051A000284614F0DEFC0746002E1CBF284621F0DE
:1051B000BCFC002F04BF23B0BDE8F08F2068052899
:1051C0000CD00B2800F006820F280CD0262804BF34
:1051D000E068052800F04C8200F082BA284621F0F1
:1051E000A4FC00F07DBA0495E0680890284601F020
:1051F00053FB1090416D1291816D1191C16D019120
:10520000016E0F91C06A006802901CA815F00CFE98
:105210001CA9109814F03BFEDDE91C01CDE90A0140
:1052200011990298BDF82A2008441044ADF82A00CC
:105230000F990298BDF82E200844101AADF82E00E0
:1052400012990298BDF8282008441044ADF82800AF
:10525000DDE90110BDF82C200844101AADF82C002F
:10526000DDE90A01CDE91E011EA817F0F5F9109835
:10527000406B05F0E5FF01F025FF1098D0F8942071
:1052800012B1002104989047109C94F86C000028FB
:105290007ED0DDE911B906A9DDF804A0DDF83C8077
:1052A000049815F0B6FEE06ABDF918100068219068
:1052B000BDF91C00D4E91176401AA0EB0900A0EB5F
:1052C0000A00401C1890BDF91E00BDF91A10401AC2
:1052D000A0EB0B00A0EB0800401C1690206C05F022
:1052E000BAFF03F05DFD20907FB394F87800E16C85
:1052F00010F0010F0CBFD4F88C00002038440D18BA
:10530000BD4202DBED1BBD42FCDA94F87A0006F0E8
:1053100027F81898854218DA219905EB0900084406
:10532000BDF91A10BDF91E2094F87A305944A2EB49
:10533000080223B11346024603F04EF901E003F0E0
:1053400001FB18983D448542E6DB86B3206DD4F816
:1053500080103044451AB54202DBAD1BB542FCDA81
:1053600094F87B0005F0FCFF169885421FDA00BF19
:10537000BDF91810BDF91E0001EB090CBDF91C1098
:10538000A0EB0800A1EB0A02401B94F87B1000E0A0
:1053900010E029B103461946604603F01DF902E00A
:1053A000614603F0EDF8169835448542E0DB20981D
:1053B00005F0D6FF1CA90AA8029A08F001FD0AA868
:1053C00017F04AF9DDF84080FF21D8F83800B1EB3A
:1053D000106F7DD0DDE91157019E47EA05010F9C52
:1053E00031430498214373D0D8F82C10D1F80090A1
:1053F0000CA915F00EFE15F097FE169015F0A8FEFC
:105400001590BDF9300038441390BDF9320000EB1F
:10541000050BBDF93400801B1190BDF93600A0EBDF
:10542000040AD8F8380005F00BFFD8F83C0005F066
:1054300012FFDFB107EB0900421E0898B0F9001017
:105440001698081A904211DCBDF93630BDF93000CB
:105450001B1B05EB09015B1C01F06CFE13980AF1A4
:105460000102ABF10101401E03F06CFACDB105EB76
:105470000900431E0898B0F902101598081A9842BE
:105480000FDCBDF93000BDF93210BDF9342001F058
:1054900051FE1198421C1398411EABF1010003F01C
:1054A0006FF8E6B10899BDF93420B1F904301699C6
:1054B000901B591A401C814211DBBDF9363005EBB7
:1054C00009011B1B5B1C01F035FE0AF1010200E023
:1054D0001FE01198ABF10101401C03F033FAC4B195
:1054E000BDF93630181B411C0898B0F906201598F4
:1054F000101A88420DDBBDF93000BDF9342001F0EF
:1055000019FE1198421C1398411E0AF1010003F084
:1055100037F81098D0F8942012B1012104989047E0
:105520001EA817F099F81098406E01F063FB060072
:105530004FF000041BD010982146406E01F066FB2E
:1055400001F0AAF9099078B10568284601F0A4F99C
:105550001B9030B102682846089990471BA801F0BB
:105560007BFA09A801F078FA641CB442E3D30AA8D4
:1055700017F072F81098806E01F03CFB05004FF0B8
:1055800000041BD010982146806E01F03FFB01F013
:1055900083F9099078B10668304601F07DF91490DE
:1055A00030B1026830460899904714A801F054FAC7
:1055B00009A801F051FA641CAC42E3D3002017F0B3
:1055C0004BF81098D0F8942012B10221049890471B
:1055D00010A848E0284601F05FF90290406E01F003
:1055E00009FB051E4FF000041ADD02982146406EAB
:1055F00001F00CFB01F050F9019070B106683046E3
:1056000001F04AF9059028B1476805A801F024FA8D
:105610003046B84701A801F01FFA641CAC42E4DB35
:105620000298806E01F0E6FA051E4FF0000411DDCD
:1056300002982146806E01F0E9FA01F02DF90190FF
:1056400028B1006800F0F6FF01A801F005FA641C1B
:10565000AC42EDDB0298406E01F062FA0298806E77
:1056600001F05EFA02A801F0F7F923B0BDE8F08F6F
:10567000284615F0FFFDA768B84215D16668304688
:1056800001F00AF90090384612F02AFC0546384627
:1056900015F0A7FCFE281BD11EE0304616F024FAB8
:1056A000684601F0D9F91BE0284615F0A0FDA7686F
:1056B000B84215D16668304601F0EEF800903846E1
:1056C00012F00EFC0546384615F08BFCFE2803D080
:1056D0000098C0F88C50E0E70098C0F88050DCE7F4
:1056E00023B02046BDE8F04F15F07AB870B586B00B
:1056F000B0F90840458AD0F818C00026CDE9025418
:10570000CDE90016CDF810C0B0F90C10B0F910407A
:10571000B0F90EC0B0F90A0019441044234662469D
:1057200000F002F806B070BD2DE9FF4F85B0994634
:10573000DDE91564DDE9138592468B46129F03F07F
:105740003BFC04F16C001949CDE90210CDE9007869
:105750004B4652465946059814F086FF04001ED069
:1057600001F0DBF9074601F0D8F98046204601F048
:1057700093F80490C0E919780022314614F0AEFC89
:105780000B490498B1E8CC173430A0E8CC1791E865
:105790000E10A0E80E10858204A801F05DF906F055
:1057A00067F909B02046BDE8F08F00008951000874
:1057B0006807002013B582B0044603F0FDFB2046C5
:1057C00001F06AF8009060B1406A01F065F80146A6
:1057D0000190022303AA009800F005F901A801F046
:1057E0003BF9684601F038F906F042F904B010BD03
:1057F0002DE9F04383B01C4690460E46814603F0E7
:10580000DBFB2C2000F0CAFE070024D0700000F063
:10581000C5FE05001CBFB8F1000F002C0AD001F036
:105820003BF8104B019062001B684146984701A865
:1058300001F012F9384601F02FF80B49009000F101
:105840000C02456282E85202084901600849416041
:10585000684601F001F906F00BF903B03846BDE8DF
:10586000F0830000B00B0020C5660208F174020846
:105870009D7202082DE9F8431E4614460F468046E5
:1058800003F09AFB302000F089FE050014D001F0EF
:1058900003F80090C0E9058784840A4AB7EE000A3D
:1058A000C66180ED0A0AD2E90012C0E90312064976
:1058B0000160684601F0D0F806F0DAF82846BDE845
:1058C000F883000098070020D7750208F8B50D4648
:1058D00006004FF0000411D003F06EFB304600F0DC
:1058E000DBFF0090C468AC4203D0C560806816F04E
:1058F000FBF8684601F0B0F806F0BAF82046F8BDAB
:10590000002808BF70472DE9F8431C4615460F468E
:105910000646DDF8208003F04FFB304600F0BCFF68
:105920000090C0F860804765C0E91654684601F0F1
:1059300093F8304621F0F9F8304616F0D5F806F025
:1059400097F8BDE8F883F8B50D4606004FF000045F
:1059500011D003F031FB304600F09EFF0090446C04
:10596000AC4203D04564304616F0BEF8684601F0FC
:1059700073F806F07DF82046F8BDF8B50D46060030
:105980004FF0000411D003F017FB304600F084FF05
:105990000090846CAC4203D08564304616F0A4F8C5
:1059A000684601F059F806F063F82046F8BDF8B5EE
:1059B0000D4606004FF0000413D003F0FDFA304608
:1059C00000F06AFF009090F86C40AC4204D080F880
:1059D0006C50304616F088F8684601F03DF806F045
:1059E00047F82046F8BD2DE9F0410446806884B0B0
:1059F0001D4617460E46002804BF04B0BDE8F081DE
:105A0000D4E9040188420FD1481E00FB05F2711948
:105A10003046FAF785FC20692A46401E05FB0060E7
:105A20003946FAF77DFC0FE005FB0063401C20615E
:105A30002A4639461846FAF773FCE16821B104B0EA
:105A40002046BDE8F0410847A468204600F024FF46
:105A50000290B0F85450B0F85860B0F85C70B0F8EC
:105A6000608002A800F0F8FF6946204615F0D1FAE0
:105A7000BDF8000069462844ADF80000BDF80200FA
:105A80003044ADF80200BDF80400C01BADF80400BE
:105A9000BDF80600A0EB0800ADF80600204615F0A2
:105AA000B3FF04B0BDE8F0812DE9F04184B00446B5
:105AB00000F0F2FE0290B0F85450B0F85860B0F820
:105AC0005C70B0F8608002A800F0C6FF694620460E
:105AD00015F09FFABDF8000069462844ADF80000B3
