:020000040800F2
:10000000405A0020C1010008F3E90008CF020008AF
:10001000EFE90008B1090008A1060108000000008E
:10002000000000000000000000000000F7000108D0
:100030000B180008000000001B020008E501010881
:10004000DF010008DF010008DF010008DF01000810
:10005000DF010008DF010008DF010008DF01000800
:10006000DF010008DF010008DF010008DF010008F0
:10007000DF01000809110008DF010008491100082C
:10008000DF010008DF010008DF010008DF010008D0
:10009000DF010008DF010008DF010008DF010008C0
:1000A000DF010008DF010008DF010008DF010008B0
:1000B000DF010008DF010008DF010008DF010008A0
:1000C000DF010008DF010008DF010008DF01000890
:1000D000DF010008DF010008DF010008DF01000880
:1000E000DF010008DF010008DF010008DF01000870
:1000F000DF010008DF010008DF010008DF01000860
:10010000DF010008DF010008DF010008DF0100084F
:10011000DF010008DF010008DF010008DF0100083F
:10012000DF01000885120008DF010008DF01000878
:10013000DF010008DF010008DF010008DF0100081F
:10014000DF010008DF010008DF010008DF0100080F
:10015000DF010008DF010008DF010008DF010008FF
:10016000DF010008DF010008DF010008DF010008EF
:10017000DF010008DF010008DF010008DF010008DF
:10018000DF010008DF010008DF010008DF010008CF
:10019000DF010008DF010008DF010008DF010008BF
:1001A000A1DD0008DF01000871120008DFF80CD0A3
:1001B00000F010F9004800474F040008405A0020A2
:1001C000074880470748804707480047FEE7FEE7A3
:1001D000FEE7FEE7FEE7FEE7FEE7FEE7FEE7FEE7F7
:1001E00009020108A1FA0008AD010008EFF3108030
:1001F00072B6704780F310887047434A1368012B2A
:1002000004D04FF001031360404A1060404A11606F
:1002100040484FF0805101607047EFF3108272B692
:100220003948016851B34FF0000101603748016857
:1002300091B1EFF309811EF0100F08BF21ED108B73
:1002400021E9F00F4FF000041EF0100F08BF012449
:1002500041F8044D006801602D490968096808C922
:10026000B1E8F00F002B18BFB1EC108B81F30988B7
:100270004EF0100E002B18BF2EF0100E82F31088D7
:100280004EF0040E704722490860EFF3148222F00A
:10029000040282F314881D494FF0000008601A49D7
:1002A0004FF0010008601C484FF47F01D0F8002097
:1002B00041EA0201016017484FF080510160174880
:1002C0000068006880F3088861B662B670471EF067
:1002D000040F0CBFEFF30880EFF3098020E9F00F63
:1002E00040F804ED40F804ED1EF0040F0CBF80F35D
:1002F000088880F3098800B51BF0A4FC5DF804EBC6
:100300004EF0040E7047000098010020900100207C
:100310009401002004ED00E020ED00E008ED00E095
:1003200010B5441A0346944209D28418114403E0DC
:1003300011F8013D04F8013D521EF9D210BD40EA0A
:100340000104A40703D009E010C9121F10C3042A36
:10035000FAD203E011F8014B03F8014B521EF9D217
:1003600010BDD2B201E000F8012B491EFBD270474C
:100370000022F6E710B513460A4604461946FFF771
:10038000F0FF204610BD421C10F8011B0029FBD1D4
:10039000801A7047034611F8012B00F8012B002A40
:1003A000F9D11846704730B50B460146002020228F
:1003B000012409E021FA02F59D4205D303FA02F572
:1003C000491B04FA02F52844151EA2F10102F1DCD2
:1003D00030BD0000064C074D06E0E06840F0010328
:1003E00094E8070098471034AC42F6D3FFF7E2FEDA
:1003F0008C030E08BC030E0870B58C1810F8015B56
:1004000015F0070301D110F8013B2A1106D110F8AD
:10041000012B03E010F8016B01F8016B5B1EF9D1B1
:100420002B0705D40023521E0DD401F8013BFAE737
:1004300010F8013BCB1A921C03E013F8015B01F8A2
:10044000015B521EF9D5A142D8D3002070BD10B572
:10045000FFF7CCFE1CF0F0FE002010BD38B544685C
:1004600005460146204610F05AF9002808BF38BD5D
:10047000464A286811280DD006DC0B282AD00E2801
:1004800038D00F2817D07CE0282873D0B0F5107F23
:100490000AD076E09268002A08BF38BD294601B02C
:1004A0002046BDE830401047526801B0294620463A
:1004B000BDE8304010472546204603F0E7FD009098
:1004C000406E0468684603F0C1FE002C1CBF28463D
:1004D000A04738BD204603F0D9FD0090683003F0F6
:1004E000D3FC009803216C3003F0F6FC684603F05F
:1004F000ADFE46E0E968486809680D2902D0202968
:1005000018D037E0002835DD4FF48071204610F018
:10051000D1F9204603F0BAFD009090F828506846C3
:1005200003F094FE15F0020F1ED00121204611F0B9
:10053000F6FD19E0002817DD25464FF480712046AE
:1005400010F0B8F9284603F0A1FD009090F828407B
:10055000684603F07BFE14F0020F08BF38BD01218E
:10056000284611F0DCFD38BD2046BDE838400221A8
:1005700018F084BBE86820B920464FF4807110F071
:10058000B3F82846BDE8384010F0C0BB3C08002056
:1005900070B586B04FF0000CDDE90A450C9ECDE940
:1005A00002C5CDE90046CDF810C000F003F806B052
:1005B00070BD00002DE9F04F85B09846DDE911646B
:1005C000DDE90E5791468A46834605F09BFA04F111
:1005D0004C001749CDE90210CDE9005743464A4681
:1005E0005146584610F0D6FA05001BD003F04EFDD8
:1005F00010223146049010F0EBF90E4C0499B4E847
:10060000CD133431A1E8CD1394E80D10A1E80D10FD
:1006100054F82C0D086004A803F018FE2068416807
:100620002846884707F016FD05B02846BDE8F08F3C
:100630005D04000848080020F0B5044680688C4935
:1006400089B051F820506068002800F00A81052820
:1006500006D006287DD0122800F0B48000F004B93E
:10066000E869002808BF002651D0D5E90012AB6820
:100670008DE80F0004F110010FC908F09FFD00265E
:1006800055F8260007F075F9A169E8690A1A216989
:1006900001446069304404F08FFEA169E8690A1AD8
:1006A00021690144E069801B04F086FEE169E86984
:1006B0000A1A616901442069304404F047FFE16986
:1006C000E8690A1A61690144A069801B04F03EFFD1
:1006D000761C022ED4DBA86807F04BF9E069E969C3
:1006E000D4F814C0431A206942186144801C521E79
:1006F00004F0B6FFE169E869A2690B1A6169014477
:10070000101A401C921E04F0ABFFEE6911E055F880
:10071000260007F02EF9E069831BA069821B60693F
:1007200081192069304404F0C9FE761C022EEEDBEC
:100730000226D5E90301CDE90001E16960690144C0
:100740004B10A1698A1B811C2069304404F026FDEE
:1007500000E011E0D5E90501CDE90001E06961693A
:10076000831E01440122A06902EB6101821B206902
:10077000304404F013FD77E0206803F087FC049018
:10078000206812F0F0FD50B1A068002818BF0020CA
:100790000AD10498006F002818BF012004E00498D3
:1007A000406F002818BF0220049901EB8000C56E3D
:1007B00004A803F04BFD00231A462846216804F0E4
:1007C000BDF851E0206803F061FC0490866E002EB5
:1007D00008BF04A842D0A168B0F95C70002908BF26
:1007E000012103D003290CBF0221002100EB81016C
:1007F000406D0C6C07F0E6F8204607F0BAF806A842
:1008000005F018F8BDF81810A88B0144ADF81810C1
:10081000BDF81C10081AADF81C00BDF81A00801CA9
:10082000ADF81A00BDF81E00801EADF81E00049839
:10083000B0F96020B0F95E1006A806F0E5FB04A848
:1008400003F004FD022007F01BF9304603F01EFC04
:100850003A4606A9059004F081F905A803F0F6FCD4
:1008600002E0206811F0BEFF09B00020F0BD0000DA
:1008700078E30D08044A0349116004494A6A486252
:1008800010467047E80200203C080020480800207D
:1008900070B505460C46104600210A4604F030F8B3
:1008A000024621462846BDE87040AFF3008000288C
:1008B00008BF7047F8B515460C46064605F022F904
:1008C000304603F0E3FB0090032C0BD200EB8400D6
:1008D0006C3003F0D9FA009800EB8400C56630460E
:1008E00011F026FB684603F0B1FC07F0B3FBF8BD3E
:1008F0002DE9F04707464FF0140838680F2845D116
:10090000264807F02BF803F0D5FD0BF09BFE244999
:100910004988A0EB01090BF051FE21490988A0EBA1
:10092000010A09EBD97042100AEBDA7041101C4839
:1009300004F06AFA00240BF041FE814600EBD97006
:100940004010022101FB180085B21CE01548006828
:10095000A04201D1144800E014480646B6F80290BF
:1009600009EBD9704010C0F1FA02B6F800A00AEB0A
:10097000DA70A5EB6001304604F046FA601C84B2E0
:1009800005EB080085B2052CE0DB03E0384610F0EB
:10099000BDF900BF00BFBDE8F08700008080FF0008
:1009A00090B10D08AC000020D8B30D0834B20D088A
:1009B00000BFFEE72DE9F04F0446006889B028B17A
:1009C00012F0D1FC002808BF012500D00025FE4808
:1009D00050F8256060680A2800F0738108DC002860
:1009E00000F0DD81062841D007280CD000F0E8B9DE
:1009F000122800F03081192802BFB06909B0BDE8A3
:100A0000F08F00F0DDB9256805F07CF8284603F08A
:100A10003DFB0090C76F684603F018FC07F01AFB17
:100A20005FF0000556F8250006F0A3FF2069C11904
:100A3000491B4B1E61691A462944284404F03EFDB7
:100A40006D1C032DEED3D6E90301CDE90001D4F8E6
:100A500010C00CEB0700401B431E60691A46411989
:100A60000CEB050004F09AFB00F0AAB9A068401E48
:100A70000690246805F046F8204603F007FB009036
:100A8000D0F87C80684603F0E1FB07F0E3FADFF87A
:100A90003C9359F82570002F1CBF069800EB80008E
:100AA0000DD000BFB7F84810414505D107EB8001D4
:100AB000896809B11FB1C4E0FF6C002FF2D150204A
:100AC00003F048FA070000F07B81C14C502200215E
:100AD0002368984770697864A7F8488059F825001A
:100AE000F864BC48A8F1060880FB081049F8257096
:100AF0004110A1EBE071032008900120049007F160
:100B00004000CDE90280069D05EB850007EB8000E3
:100B1000019005EB450007EB80002830009008EBC2
:100B2000D8704210401000EBD073A0EB6300461861
:100B3000501A059008F10700C11700EB51704FEAF9
:100B4000E00A0AFB08FB584603F004FA5FEA0009D2
:100B500077D023685A4600219847DDE90420012810
:100B600026DD089B01213046334483421BDD4FEADA
:100B7000E27C02EB5C7E02F0070C802424FA0CFC81
:100B8000404509DA0AFB00F404EBEE0419F804B05E
:100B90004BEA0C0B09F804B06940401C834202DDAB
:100BA0000029F9D0ECE70598521C761C9042D8DC5D
:100BB00004990298401A0490904225DD089901207A
:100BC00034463144A1421ADDD31702EB537E02F0C2
:100BD000070C802323FA0CF3444509DA0AFB04FCD2
:100BE0000CEBEE0C19F80CB04BEA030B09F80CB047
:100BF0006840641CA14202DD0028F9D0ECE70498AB
:100C0000521C761E9042D9DC0098022101600099A6
:100C100001200871009A039991600199C880019898
:100C20000021A0F804A00198C0F808900198016183
:100C3000DDE90001C860DDE9010101800198A0F84B
:100C400002800698032200EB800007EB800011462B
:100C500004F0DAF8B4E0206803F018FA0290B0F972
:100C6000547090F85650D0F84490D0F8348002A8D0
:100C700003F0ECFA266804F045FF304603F006FA6C
:100C80000390B0F87C6003A803F0E0FA07F0E2F903
:100C9000684610F037FBBDF8000071190844ADF844
:100CA0000000246A404606F08DFE022006F0E8FEB1
:100CB000484606F05EFE3A466946204603F04EFF7F
:100CC0007EE0206803F0E2F90290B0F9548090F8D9
:100CD0005660D0F83490876C02A803F0B7FA256804
:100CE00004F010FF284603F0D1F90390B0F87C50CF
:100CF00003A803F0ABFA07F0ADF9684610F002FB69
:100D0000BDF80000A9190844ADF80000206A04F0FD
:100D10001DFE0446484604F045FE28F00301042960
:100D200004BFBDF80610091A08D00C2908D1BDF976
:100D30000610091A491C01EBD1714910ADF80210D7
:100D400028F00C0101290CD0022913D1BDF904109F
:100D5000BDF90020891A091B01EBD17102EB610179
:100D600006E0BDF80420BDF80010521A121B114411
:100D7000ADF80010BDF80010621E1144ADF804106B
:100D8000BDF80210401E0844ADF80600384606F0D3
:100D9000F0FD4FF0FF31684604F0B0F810E0206835
:100DA00011F020FD206803F071F90790B0F90610EA
:100DB000B0F90220891A491CC16707A803F046FA56
:100DC00009B00020BDE8F08F88E30D08B8030020CB
:100DD000A807002067666666044A03491160044953
:100DE000CA69C86110467047740300207808002063
:100DF0007C08002000B589B000200090029003908C
:100E000004900590069007900890192001900448DE
:100E10000068806841686846884709B000BD0000E6
:100E2000780800202DE9FE4304460E46154620466C
:100E300009F00EFA07460F4850F8240007FB060891
:100E40000C4850F8240007FB050900210A4850F817
:100E50002400CDE900010948029150F824304A46A7
:100E60004146204600F0A6F9054840F82450BDE868
:100E7000FE83000060000020700000206C00002055
:100E8000680000202DE9F04F85B004460D46164657
:100E90001F46DDE90F8BDDF838A0204609F0D8F9B0
:100EA00081461C4850F824001B4951F8241009FBC6
:100EB00001001A4951F8241006FB0151184A52F852
:100EC000242001FB02000490124850F8240012492B
:100ED00051F8241009FB0100104951F824100AFBB5
:100EE00001710F4A52F8242001FB020003900021F7
:100EF0000A4850F82400A0EB08004346CDE900B0B2
:100F000002912046DDE9032100F054F905B0BDE867
:100F1000F08F000060000020680000206C000020BE
:100F2000740000202DE9FE4F04460D4616461F466C
:100F3000DDF8309004F09AFC012810D1002219212C
:100F400020460CF0ABF94B463A46314628460BF0AA
:100F5000C1F9194A192120460CF0A0F92AE0781BA2
:100F600000F10108A9EB0600401C0290204609F0A0
:100F70006FF98246114850F82400114951F82410A5
:100F80000AFB01000F4951F8241006FB01510E4ADB
:100F900052F8242001FB020B0A4951F82410A1EB5E
:100FA00008010D98CDE90010424659462046029BA3
:100FB00000F030F9BDE8FE8F250F0008600000202A
:100FC000680000206C00002074000020F8B5044682
:100FD0000D4616461F4603203B46324629460090E2
:100FE000204600F0BFF9F8BDF8B504460D46164698
:100FF0001F4604203B46324629460090204600F01A
:10100000B1F9F8BDF8B504460D4616461F46022054
:101010003B46324629460090204600F0A3F9F8BD31
:10102000F8B504460D4616461F4600203B4632469C
:1010300029460090204600F095F9F8BDF8B5044621
:101040000D4616461F4600203B4632462946009074
:10105000204600F087F9F8BD1CB510F087F904466A
:10106000002000902346044A02210190034803F027
:101070008FFA034908601CBD11AD0108B02C0A08A5
:101080009C0000201CB510F071F90446002000906F
:101090002346044A02210190034803F079FA0349E8
:1010A00008601CBDBDAD0108E82C0A08A0000020A6
:1010B0001CB510F05BF90446002000902346044A5A
:1010C00002210190034803F063FA034908601CBD44
:1010D00081AE0108202D0A08A40000201CB510F0E4
:1010E00045F90446002000902346044A022101905D
:1010F000034803F04DFA034908601CBD49AF0108DD
:10110000582D0A08A800002010B54FF081510B4857
:1011100000F08AF980B10121094809F0BFFA0021E5
:10112000064800F013F94FF08151044800F0F4F83C
:10113000002004490968088010BD0000406002409A
:10114000005C00402C00002010B51449144800F049
:101150006BF910B30021124800F0F8F80F4910485D
:1011600000F0DAF84FF420400E49086007E00D491E
:101170000868411E0B4A116008B91CF072F80A4950
:101180000A4809F097FA0028F1D00121074809F030
:1011900085FA002006490968087010BD200000206B
:1011A000706002402800002004000010005C004035
:1011B000300000202DE9F05F07460C4615461E461C
:1011C000DDE90B9ADDF82880384609F065F883469A
:1011D0004FF400700E4908600846C460C563C0F84B
:1011E0001090C0F840A0C0F81CB0404666F31F4005
:1011F00048640846006840F00100086000BF0448E9
:10120000006800F001000028F9D1BDE8F09F00005F
:1012100000B002402DE9F04707460C4615461E4631
:10122000DDE90889384609F037F882460E480F494B
:1012300008600846C0F83890C463C0F84080C0F821
:1012400034A0304665F31F4048640846006840F00B
:101250000100086000BF0548006800F00100002898
:10126000F9D1BDE8F08700000002030000B00240A1
:1012700010B500F001F810BD0220014988607047E8
:1012800000B00240704700002DE9F04107460C46CF
:1012900015461E4632460B4938460AF0E5FB3246F3
:1012A000094920460AF0E0FB3346084A064905484A
:1012B00000F00EF83246294604480AF0D5FBBDE896
:1012C000F08100003832002038410020382300200F
:1012D00030B50F4C0F4D2C602C46E0606161E2632D
:1012E00000242C61AC612C64EC616C626C630124A1
:1012F00004EB03446C642C46246844F001042C6025
:1013000000BF044C246804F00104002CF9D130BD66
:101310000002020000B002400246094B9A4201D28C
:10132000084801E00648103801F000531BB1064B95
:101330000B40C36002E0044B0B4083607047000029
:1013400010640240006002407D0F7D0F21B10268F1
:1013500042F00102026003E0026822F00102026032
:10136000704700002DE9F84305460E46144698469E
:10137000089F2246064928460AF080FB3B46002289
:1013800031460348009400F005F8BDE8F8830000FA
:101390003823002070B5049C4FF481350D4E356024
:1013A0003546E860E9630025356135643546EA6114
:1013B0006B63012505EB0445756435462D6845F0E2
:1013C0000105356000BF034D2D6805F00105002DB6
:1013D000F9D170BD00B00240F0B505AC70CC4FF44F
:1013E0008137DFF840C0CCF800706746F860F963D9
:1013F0003A613B640527CCF81C7067467C6346EA7B
:101400000547CCF8447067463F6847F00107CCF8C1
:10141000007000BF034F3F6807F00107002FF9D1AC
:10142000F0BD000000B0024030B503460A4600207F
:1014300000240B4DAB4201D20A4901E008491039A2
:1014400002F000550DB14C6800E00C68064D2C40D0
:1014500004EA02050DB1012000E0002030BD0000CB
:1014600010640240006002407D0F7D0F2DE9F843BB
:1014700005460E4614469846089F00233A460649FC
:1014800028460094FFF786FF2246314602480AF0BC
:10149000F5FABDE8F883000038230020074AD0623F
:1014A0004A1ED2B2012343EA0222044BDA611A46F1
:1014B000D26942F02002DA617047000000B00240B9
:1014C0001EB5034601F07F40B0F17F4F01D11846B1
:1014D0001EBD83F07F40029081F07F40019015484F
:1014E000154C206002A8E06001A86061C4F83CD0FF
:1014F0004FF4803040EA0260E061C2F1FF00002456
:1015000044EA00600C4C6062002060634FF0011000
:1015100060642046006840F00100206000BF06487B
:10152000006800F001000028F9D1009880F07F40A9
:10153000CEE700000002020000B0024070B5049C3B
:10154000124D134E35603546E8606961EA634FF429
:10155000803545EA0365F561C3F1FF05002646EADB
:1015600005650B4E756200257563012505EB044585
:10157000756435462D6845F00105356000BF044DA2
:101580002D6805F00105002DF9D170BD00020200A3
:1015900000B002402DE9F041044688B0006802F036
:1015A00075FD0690468ED0F8885006A802F04EFED3
:1015B000002D18BF012506F00106206811F0D3FEAA
:1015C000002D18BF00200FD07D4951F820506068D1
:1015D000002800F0EE80022800F0CE8005280CD014
:1015E00012287DD000F0E8B8002E18BF0120EBD102
:1015F000002814BF02200320E6E7D5E90123A86AEA
:1016000029688DE80F0004F110000FC807F0D6FD1F
:101610005FF0000655F8260006F0ABF9A169A86A4C
:101620000A1A216901446069304403F0C5FEA169CA
:10163000A86A0A1A21690144E069801B03F0BCFE14
:10164000E169A86A0A1A616901442069304403F01B
:101650007DFFE169A86A0A1A61690144A069801BDB
:1016600003F074FF761C022ED4DBA86A02281BDD6F
:10167000A86806F07EF9E169A86AD4F810C00B1AD0
:101680000CEB00014A1E616901440CF1020003F0F9
:10169000E7FFE169A86AA2690B1A61690144101A9F
:1016A000401C921E03F0DCFFD5E90301CDE90001E7
:1016B000E1696069A26901444B10A96AD4F810C0BD
:1016C000521A8C44811C604603F068FDD5E905017F
:1016D000CDE90001A069AB6A6169C21AE06900E066
:1016E00019E001444FF0010C0CEB6101D4F810C07B
:1016F0009C44831E604603F051FD686A06F039F988
:10170000E2696169A369501A181A401C091D121F69
:1017100003F01CFF50E0206802F0B8FC0090B0F825
:101720008060B0F98280C76C684602F08FFD208A25
:10173000B11C0844ADF80800A08A801CADF80A006E
:10174000A08BA18A401A218B891B081AC01EADF8F4
:101750000C00A08B801EADF80E00022006F090F960
:10176000384606F02FF9286A06F003F9424602A926
:10177000206A03F0F3F91FE06169E0694FF0FF327E
:10178000401AA0F1080102EB6106411CA269801B0E
:101790004410A2EB6107E86906F0EBF8002E0BDBC2
:1017A000BA19B91B204603F007FE641C761EF7D554
:1017B00002E0206811F016F808B00020BDE8F081C2
:1017C00090E30D08044A0349116004490A6B086359
:1017D00010467047C0030020B8080020BC08002055
:1017E00038B50D46002402F051FC0090C06B29462C
:1017F00002F0CBFD0546684602F028FD1DB12846E3
:1018000002F044FC0446204638BD704710B502463D
:1018100000200023102A03D14FF02044636E0FE014
:10182000B2F5807F02D10A4C236809E0B2F5805FEF
:1018300003D1074C2034236802E0054CD4342368DC
:1018400003EA01048C4201D0002000E0012010BD19
:10185000840000A00021D0E900231A4383685B1EA6
:1018600042EA4312C36842EA4321014A11607047C9
:10187000500100A070B5002200210023002405685B
:10188000AD00A5F1C045D5F840216FF30E02D0E9B7
:1018900001563543C66835430669354346693543C5
:1018A00086693543C6693543066A3543466A35431A
:1018B0002A43056835B90568AD00A5F1C045C5F8EE
:1018C000402111E03B4D2B686FF30E03D0E9075622
:1018D0003543466A35432B43364D2B600568AD00D2
:1018E000A5F1C045C5F84021056875BB314D0835E7
:1018F000066855F8261001F07041856A2D686D1E46
:10190000866A7668761E45EA0616856AAD686D1E9B
:1019100046EA0526856AED686D1E46EA0536856A43
:101920002D8A6D1E46EA0546856AAD8A6D1E46EA19
:101930000556856A2D7E6D1E46EA056529431D4DB7
:101940000835066845F8261032E0FFE7194D0835DE
:10195000066855F8261001F07041856A2D686D1EE5
:10196000866A7668761E45EA0616856AAD686D1E3B
:1019700046EA0526856A2D8A6D1E46EA05452943F5
:101980000C4D08352C6804F07044856AED686D1EB6
:101990002E03856AAD8A6D1E46EA05552C434FF02D
:1019A0002045C5F84841034D0835066845F826101E
:1019B00070BD0000400100A00449096841EA4001EF
:1019C0004FF02042C2F8541170470000540100A0AB
:1019D0002DE9F04389B0984615460F4606004FF0B2
:1019E000000423D000F0C1FC0446304600F0A4FC03
:1019F000814604F087F803A9304600F054FF17F041
:101A0000010F17D0BDF91C008221001B401B401C98
:101A10000096CDE9018123461A464946FEF7B8FDF6
:101A2000044600210EF061FF06F014FB09B02046C9
:101A3000BDE8F083BDF9180017F0020F284414BF69
:101A400040F202210221E3E710B50523FFF7C0FFB2
:101A50000446054A0021FEF71BFF0449204610F00A
:101A60001FFD204610BD00003147010811B00108DC
:101A700010B50723FFF7ACFF0446054A0021FEF727
:101A800007FF0449204610F00BFD204610BD000062
:101A90009148010827B0010810B50823FFF798FF07
:101AA0000446054A0021FEF7F3FE0449204610F0E3
:101AB000F7FC204610BD0000114B01085FB0010883
:101AC0002DE9F047446805468EB04FF000082046E7
:101AD00002F0DCFA0090B0F87CA0D0F86890D0F862
:101AE0008070D0F88860C06D002818BFD0F80080E2
:101AF000684602F0ABFB56B171682846884700285B
:101B00001CBF0EB0BDE8F0873668002EF4D12868FF
:101B1000172802BFC5F80C900EB0BDE8F08713DCA3
:101B20000F2844D00ADC0B2800F053810D2808BF91
:101B30001AF0080F00F0F68000F054B9112814D004
:101B4000142870D000F04EB926286DD006DC1E286F
:101B50006BD0202800F0F08000F044B92A2818D07B
:101B6000B0F5107F2AD000F03DB92046EE6802F0B3
:101B70008DFA0190717A002904BF317A012905D1CB
:101B8000B0F87C1041F48071A0F87C1001A800F03E
:101B9000FDB8204602F07AFA0090E968002912BFE9
:101BA000C0F88410D0F88400E860684649E0B8F1D5
:101BB000000F1CBF2046C04700F014B9274620463E
:101BC000EE6802F063FA0190B0F87C4001A802F0E0
:101BD0003DFBE868002804BF0EB0BDE8F087307A0E
:101BE00020B314F0080F04BF384610F0FDFC38464F
:101BF0000EF05CFF14F0100F12BF14F4807F0EB0D3
:101C0000BDE8F087002314F0800F1CBF0EB0BDE8C4
:101C1000F08779483146B0F90020384610F082FC50
:101C20000EB0BDE8F0870FE018E024E0384602F07F
:101C30002DFA0190B0F87C1021F48071A0F87C108E
:101C400001A802F003FBEBE705A9204600F02BFEFC
:101C5000DDE90612E86801604260E1E7E868022811
:101C6000DED10C94E8680D9027200A900AA9A86894
:101C700011F04AFDD4E7E868012819D0002CCFD034
:101C800003F040FF204602F001FA0190B0F87C100A
:101C900011F0080F06D021F00801A0F87C102046B2
:101CA00010F046F901A802F0D1FA06F0D3F9B7E72F
:101CB000384610F0B5F958B1384610F095FC384662
:101CC00010F014F888B1012138460EF0F3FD0CE055
:101CD000484610F005FD0746204602F0D7F900906F
:101CE000C0F88070684602F0B1FAB4B103F00AFFA0
:101CF000204602F0CBF90290B0F87C1011F0080FEA
:101D000006D141F00801A0F87C10204610F010F92F
:101D100002A802F09BFA06F09DF9002F04BF0020F4
:101D2000E8607DE7E868C06800281FBF007A0028E7
:101D3000204610F059FC55E0EE684EB3214670681D
:101D400011F0FAFA00282746204622D002F09EF928
:101D50000490B0F87C1011F0080F06D141F0080192
:101D6000A0F87C10384610F0E3F804A802F06EFAF0
:101D70002146706811F0CCFA50B1204602F086F985
:101D800002907168C0F880100DF1080002F05EFA50
:101D900028E002F07BF90490B0F87C1011F0080FF5
:101DA00006D021F00801A0F87C10384610F0C0F8E9
:101DB00004A802F04BFA2146306811F0A9FA88B164
:101DC000204602F063F902903168C0F8801002A842
:101DD000DCE7204602F05AF90090703002F054F827
:101DE0006846D3E7294620460EF099FC00281CBF20
:101DF00028460EF08BFF13E77C04002070B588B0F6
:101E0000B0F908400DF10C0E0C9ED0F818C04568D2
:101E10008EE87010B0F812C00024CDE90014CDF89F
:101E200008C0B0F90C10B0F91040B0F90EC0B0F90C
:101E30000A00194410442346624600F003F808B033
:101E400070BD00002DE9FF4F8BB09946DDE9188584
:101E5000DDE91B6792468B461E9C03F053FE04F19E
:101E60006000444945F48055CDE90210CDE9008574
:101E70004B46524659460B980EF08CFE040073D028
:101E800002F004F93022314604900EF0A1FD3A4EE2
:101E9000049A06F1080102F1340E91E80B1F8EE856
:101EA0000B1FD6E90A01C2E915011D9850661A9860
:101EB000A2F87C004FF00008C2F88080C2F86C8065
:101EC000C2F888807068D06504A802F0BFF905A93F
:101ED000204600F0E8FC294841F28271CDF80C80E0
:101EE0000094CDE90110BDF91E00BDF91A10BDF92D
:101EF0001C20401A431CBDF91800121A521C0EF087
:101F000049FE80467068416820468847204602F0B6
:101F1000BDF80490C0F8688004A802F097F942F276
:101F20000400054204BF20460EF0F8FF03F0EAFD6E
:101F3000204602F0ABF80090006F0190684602F076
:101F400085F9394601A808F039F858B1204602F061
:101F50009DF8009001990167684602F077F92046E4
:101F60000FF0E6FF06F076F806F074F80FB02046A2
:101F7000BDE8F08FC11A00087C040020652C000821
:101F80002DE9F041044698B0006800F0BDF9002842
:101F900014BFDB4DDB4D6068152802BFA86A18B07E
:101FA000BDE8F08112DC0B282AD007DC002800F005
:101FB0009281052800F02C8100F09DB90E2800F0D8
:101FC0007781122800F03B8100F095B9162802BFF6
:101FD000E86918B0BDE8F081172802BF286A18B078
:101FE000BDE8F081182802BF686A18B0BDE8F0812A
:101FF0001C2802BF686918B0BDE8F08100F07BB909
:1020000020680E901C200F90206802F03FF803908B
:10201000016D0EA88847064603A802F017F9022EA4
:1020200011DBD5E90001AA680292CDE90001D4E9EB
:1020300004023346A16906F0BFFF20698719A06931
:10204000A0EB06082CE0286805F093FC2169E869FC
:102050000844421E606903F0AFF9A269E869101AEA
:10206000411C606903F0A8F96069471C3946206982
:1020700003F0FCF93946A06903F0F8F9686805F047
:1020800078FC20693946401C03F0F0F9A069394614
:10209000401E03F0EBF92069871CA069A0F102083B
:1020A000286805F066FC42463946606903F084F909
:1020B000686805F05EFC606942463946401C03F0E2
:1020C0007BF9686A02287DDDA86805F052FC60692A
:1020D0006A6A811C1044431E4246384603F0C0FA27
:1020E0006069022EACBF0644861CE069471E286862
:1020F00005F03FFC3A463146206903F027FA3A469C
:102100003146A06903F022FAE069871E686805F08D
:1021100030FC20693A463146401C03F017FAA069AA
:102120003A463146401E03F011FAE8690228DCBF46
:10213000286A022820DDA86A0228C7BFE1690F1AB1
:10214000E069871EA86805F014FCE969022907DD2B
:1021500022693B46901C11444A1E314603F080FA26
:10216000286A022808DDA169E8698A1E081A3B4628
:102170003146401C03F074FA286805F0FAFBD4E9F4
:102180000620216903F018F9686805F0F2FBA069E0
:10219000421E2069411CE069401E03F00DF9A86A47
:1021A00002284BDD21698E1CA1698F1EE169081A86
:1021B000441CA1F10208A86805F0DBFB43463A463F
:1021C000214600E003E0304603F04AFA93E0296A32
:1021D000B14285DD6069022E00F10208ACBF8719AB
:1021E00047462069ACBF3044801C22693B461144FD
:1021F000A1F10102414603F033FAA069022EACBFFF
:10220000821B821EE9693B46401A4146401C65E735
:10221000208A00B2ADF81800A18A09B2ADF81A10F0
:10222000228B12B2ADF81C20A38B1BB2ADF81E306E
:10223000D5E9034CCDE9004C02F0B0FF5BE0208A09
:10224000298B0844ADF81800A08AADF81A00208B3D
:10225000298B401AADF81C00A08BADF81E00206839
:1022600001F014FF0390006FF0B1022005F008FCAC
:10227000039991F87C00C0F3C00001EB8000006C72
:1022800005F077FB0398406B05F09CFB0398006F0B
:1022900001F0FCFE03990A90B1F95A2006A902F058
:1022A0005DFC0AA801F0D2FF03A801F0CFFF22E0F5
:1022B000208AADF81800A08AADF81A00208BADF87E
:1022C0001C00A08BADF81E00A86805F052FB06A804
:1022D00003F0F2F90FE0206801F0D8FE0390B0F8A7
:1022E0005A1041F00C01A0F85A1003A801F0AEFFFB
:1022F000206810F077FA18B00020BDE8F0810000E7
:10230000C0040020EC04002038B505004FF00004A4
:1023100010D003F0F7FB284601F0B8FE009090F8CB
:102320007C0010F0080F18BF0124684601F08EFFF2
:1023300005F090FE204638BD38B505004FF000048A
:1023400011D003F0DFFB284601F0A0FE0090C06D25
:10235000002180680268284690470446684601F0DC
:1023600075FF05F077FE204638BD30B587B0050013
:102370004FF0000414D003F0C5FB01A9284600F07B
:1023800092FA284601F082FE0090B0F95440684667
:1023900001F05CFF002C08BFBDF9044005F05AFEB7
:1023A00007B0204630BD002808BF70472DE9F04136
:1023B00084B0064603F0A6FB304601F067FE0190AC
:1023C000304601F063FE009090F87C1011F0400F51
:1023D0003ED0B0F90610B0F90220891A4C1CB0F9B1
:1023E0007A10B0F97600081A451C684601F02EFFF5
:1023F0002A1B002130460FF0F9FE304601F046FE60
:102400000090806E10F084FA0098C06E10F080FA90
:10241000304600F0ECFB00980825B0F87C1021F065
:102420004001A0F87C10C46994B1204601F02EFE52
:10243000029020460FF043F8A84204BF20460FF058
:1024400077FD0298046A02A801F000FF002CECD18D
:10245000684601F0FBFE019890F87C1011F0800FA7
:1024600007D001A801F0F2FE04B0BDE8F04105F08C
:10247000F1BD806901F00AFE0290D0E90074806924
:1024800038B90AF09BF860F30F040AF0DBF860F348
:102490001F4402A801F0DAFE01984FF00708D0E9C6
:1024A0000012C0E91D12B0F87C1041F08001A0F8C4
:1024B0007C10C56995B1284601F0E8FD00902846DA
:1024C0000EF0FDFF404504BF28460FF031FD009897
:1024D000056A684601F0BAFE002DECD101A801F0B2
:1024E000B5FE3A1439B215460F4630460FF0EBFDF3
:1024F000C5EB2440421C20B2C01B411C304610F0EA
:10250000D1F9304600F073FBAEE7002808BF7047F2
:102510002DE9F04188B0064603F0F4FA304601F0A8
:10252000B5FD0590304601F0B1FD019090F87C10AA
:1025300011F0800F31D0D0E91D140A1409B21546EC
:102540000F4630460FF0BFFDC5EB2440421C20B2C1
:10255000C01B411C304610F0A5F9304600F047FB87
:1025600001980725B0F87C1021F08001A0F87C10BC
:10257000C46994B1204601F089FD009020460EF018
:102580009EFFA84204BF20460FF0D2FC0098046AC8
:10259000684601F05BFE002CECD101A801F056FE6C
:1025A000059890F87C1011F0400F07D005A801F0B5
:1025B0004DFE08B0BDE8F04105F04CBDB0F9061085
:1025C000B0F90220891A01F1010800F010FA014661
:1025D0000598C26A126801EB42018F1CD0E9001213
:1025E000C0E91D12806E0FF08FFB0598C06E0FF0D2
:1025F0008BFB05980825B0F87C1041F04001A0F84D
:102600007C10C46994B1204601F040FD0290204640
:102610000EF055FFA84204BF20460FF089FC029837
:10262000046A02A801F012FE002CECD105A801F00A
:102630000DFEA7EB0802002130460FF0D7FD304613
:1026400000F0D5FAB5E7002808BF7047F0B585B0AF
:10265000054603F057FA284601F018FD009090F85F
:102660007C1011F0400F3ED0B0F90610B0F90220F6
:10267000891A4C1CB0F97A10B0F97600081A461C79
:10268000684601F0E3FD321B002128460FF0AEFD45
:10269000284601F0FBFC0090806E10F039F900989C
:1026A000C06E10F035F9284600F0A1FA009808260F
:1026B000B0F87C1021F04001A0F87C10C46994B1FE
:1026C000204601F0E3FC019020460EF0F8FEB042F7
:1026D00004BF20460FF02CFC0198046A01A801F009
:1026E000B5FD002CECD1684601F0B0FD284601F0A4
:1026F000CDFC019090F87C1011F0800F31D0D0E922
:102700001D140A1409B217460E4628460FF0DBFCCA
:10271000C7EB2440421C20B2801B411C284610F00D
:10272000C1F8284600F063FA01980725B0F87C103C
:1027300021F08001A0F87C10C46994B1204601F01A
:10274000A5FC009020460EF0BAFEA84204BF204629
:102750000FF0EEFB0098046A684601F077FD002C4C
:10276000ECD101A801F072FD05B0BDE8F04005F024
:1027700071BC0000064A0549074B1160054AD16942
:1027800058601B68C2E9063008467047B404002050
:102790008004002084040020AC0400202DE9F043D4
:1027A00083B00D46064603F0ADF9002E34D0304616
:1027B00001F06CFC0190C16D00248F6890F832101C
:1027C00011F0200F06D0B0F954401CB9406B03F053
:1027D000E9F8841C0198456301A801F037FD3A68C7
:1027E00001213046904780463B6803213046984798
:1027F0008146D7F800C000213046E0470546304604
:1028000000F0F5F94B46424621463046009500F06F
:102810006DF930460FF08CFB05F01CFC03B0BDE8F1
:10282000F083002808BF704730B583B00D460446DA
:1028300003F068F9204601F029FC0090006F019038
:10284000684601F003FD294601A807F0B7FB58B11F
:10285000204601F01BFC009001990167684601F0D9
:10286000F5FC20460FF064FB05F0F4FB03B030BD2F
:10287000002808BF704738B50C46054603F042F9FA
:10288000284601F003FC0090B0F95A10A14204D090
:10289000A0F85A4028460FF04BFB684601F0D6FCE2
:1028A00005F0D8FB38BD2DE9F04F00278DB00C4660
:1028B0008146BA4601F0EAFB0190C06D01218568AE
:1028C00048462A68904780462A6803214846904730
:1028D00007902A6802214846904706902A680021FE
:1028E000484690470646019810F076FB05900198FF
:1028F00010F079FB8346019890F8321001F0200126
:10290000002918BFB0F958A04FF0000506D0B0F963
:1029100054501DB9406B03F045F8851C0198C06EFA
:1029200010B10EF087FF074625806780A4F8048069
:1029300007990598401A06EB0A01401E2944208198
:102940003944E1800699ABEB0101491E6181A4F88D
:102950000C8020827019E681401E608201A801F07F
:1029600075FCB4F90C70B4F910604D46484601F09E
:102970008DFB0690C16DD0F8008006A8D1F80890B4
:1029800001F064FCD9F800200021284690478146D8
:1029900028460EF066FD050024D001F077FB079075
:1029A000B0F900200FFA88F1B0F90430521A5B1A1E
:1029B000B0F90210A1EB284149450BD190F828004D
:1029C00010F0800F03D09642A8BF561E02E09F422F
:1029D000D8BF5F1C07A801F039FC28460EF005FEA1
:1029E0000500DAD1A78126820DB0BDE8F08F10B5C1
:1029F0000146002091F8322012F0200F08BF10BDD0
:102A0000B1F95400002818BF10BD486B02F0CAFF8E
:102A1000801C10BD70B58AB00E46044601F036FB2E
:102A20000990C06D856809A801F010FC0094002E83
:102A300008BF18200BD0012E08BF162007D0022E89
:102A400008BF152003D0032E08BF172000D1019026
:102A50006968684688470AB070BD2DE9F04383B0C5
:102A600017468846814601F011FB0090C16D05684C
:102A700068468C6801F0EAFB2268002148469047CE
:102A8000064648460EF0EDFC040004BF03B0BDE866
:102A9000F08301F0FBFA0190B0F900102AB2B0F90E
:102AA0000430891A9A1AB0F90230A3EB2543B342D5
:102AB00011D190F8280010F0800F05D038688842B6
:102AC000A4BF481E386006E0D8F800009042DCBF82
:102AD000501CC8F8000001A801F0B8FB20460EF019
:102AE00084FD0400D5D103B0BDE8F0832DE9FF4F8C
:102AF00085B09A4691460F46DDF848B0059801F03A
:102B0000C5FA0390C16D8C68FFF771FF064603A8F4
:102B100001F09CFB226801210598904702902268F1
:102B2000032105989047019022680021059890475D
:102B30000546BE4204BF0298484506D1019850455B
:102B400002BF5D4509B0BDE8F08FA6EB07044FF06A
:102B50000007B84605980EF084FC060004BF09B0D3
:102B6000BDE8F08F0198A5EB0B05AAEB000A0298CF
:102B7000A0EB0909304601F089FA0090806A10F054
:102B8000800F03D010F4007F06D025E010F4007F02
:102B900022D010F0800F1FD124B1224611463046BA
:102BA0000FF024FB009890F8280010F0800F06D05A
:102BB00004FB17A12A4630467F1C0FF0A1FA0098AB
:102BC000008D10F4007F07D004FB08912A463046A0
:102BD00008F101080FF094FA684601F037FB30461F
:102BE0000EF003FD0600C5D109B0BDE8F08F70B549
:102BF00086B0064601F04AFA0590D0E91A4505A8C4
:102C000001F024FB54EA050004BF06B070BD69461C
:102C10003046FFF748FEACB1BDF90620BDF90410FF
:102C200020460FF019FABDF90A00BDF90610401A46
:102C3000421CBDF90800BDF90410401A411C204691
:102C40000FF030FE002D04BF06B070BDBDF90600C8
:102C5000BDF90210421ABDF9041028460FF0FCF924
:102C600006B070BD2DE9F0430446406889B00546C2
:102C70000EF0C8FC814601F009FA0290D0F880807D
:102C8000876C466E02A801F0E1FA2068172862D02E
:102C900008DC0E2850D00F2816D0142818BF15288D
:102CA00059D052E01E2829D01F283ED0222802BF2A
:102CB000E76009B0BDE8F083312801BF0020E06083
:102CC00009B0BDE8F08340E06FF07040874204D067
:102CD00038460AF097FA01F0EDFB002E04BF09B068
:102CE000BDE8F083D4E902122068CDE90405CDE9FE
:102CF000061204A8B04709B0BDE8F083E0680028D8
:102D000004BF09B0BDE8F083B8F1000F18BFA845B3
:102D100005D040460FF068FC09B0BDE8F0832846B6
:102D20000FF0DEFC09B0BDE8F083214648460DF007
:102D3000F6FC09B0BDE8F083E0684168002904DDD5
:102D400000680928EBD00A280BD0002E1CBFC4F85D
:102D500004902046CED120460DF0D8FF09B0BDE842
:102D6000F08328460FF006FD09B0BDE8F0830000AF
:102D70002DE9F84F0F46DDF828900646941BA3EB8B
:102D80000708D9F800504FF0000A54EA080063D051
:102D9000002CD4BF60422046B8F1000FCCBF4146A2
:102DA000C8F1000188420ADA20464446804630468F
:102DB0003E46074610461A4603464FF0010A002CCD
:102DC000CCBF20466042A04208BF012008D0304658
:102DD000164602466442C8F100081F464FF0FF3015
:102DE0000090C448C449B8F1000FD0F800C01CBF1F
:102DF00004EBD4724FEA620BB8BFCBF1000B30D0BA
:102E00009CF81A20002A00F0FA80009A002ABCBF21
:102E10002A19C9F800200025002CC0F2458100BF06
:102E200008FB05B090FBF4F0C219D9F80010009827
:102E30000844B049C9F8000009688B7E012B00F0F6
:102E40000081022B00F00781032B00F00D81042B81
:102E500000F03A8100F019B93046BDE8F84F00F0B3
:102E60008DBABAF1000F62D09CF81AC0BCF1000F05
:102E700014D04FF00008002CA4BF8A46834640DBE4
:102E8000DBF8001028466D1C8A7E012A0CD0022A2D
:102E900014D0032A1BD0042A35D027E03146384607
:102EA000BDE8F84F09F0E4B9801DC21700EB1272BB
:102EB00022F00F02801A0C281FDB17E0C21700EB6C
:102EC000927222F00302801A022816DB0EE08AFBBF
:102ED0000032D310A3EBE272524202EB820200EB0B
:102EE00082000C2809DB1038022806D3496E06EB55
:102EF00008004A6801463846904708F10108A04595
:102F0000BEDD681EDCE07D4A82FB00329310A3EB3D
:102F1000E272A2EB820200EBC2000C28EDDBA0F112
:102F20001002022A24BF14380228E6D3DEE79CF8F8
:102F30001A80B8F1000F14D04FF00008002CA4BF85
:102F40008A46834642DBDBF8001028466D1C8A7EE9
:102F5000012A0FD0022A17D0032A1ED0042A3AD001
:102F60002AE0DCF864003946036801B03046BDE869
:102F7000F04F1847801DC21700EB127222F00F02AB
:102F8000801A0C281EDB17E0C21700EB927222F0A9
:102F90000302801A022815DB0EE08AFB0032D310F0
:102FA000A3EBE272524202EB820200EB82000C2899
:102FB00008DB1038022805D3496E06EB08004A6882
:102FC0003946904708F10108A045BCDD681EC9F8E4
:102FD0000000BDE8F88F494A82FB00329310A3EB52
:102FE000E272A2EB820200EBC2000C28EADBA0F145
:102FF0001002022A24BF14380228E3D3DCE700259C
:10300000002CACBF8146BDE8F88F00BF08FB05B0BF
:1030100090FBF4F03844BAF1000F0AD0D9F8002040
:103020007119526E526890476D1CA542EEDDBDE8E5
:10303000F88FD9F800107319496E4A68014618468E
:10304000F1E7801DC31700EB137323F00F03C01AC1
:103050000C2825DB19E0C31700EB937323F003035F
:10306000C01A02281CDB10E0234B83FB00C34FEA8D
:10307000E30CACEBE3735B4203EB830300EB8300F5
:103080000C280DDB103802280AD3496EBAF1000F64
:1030900006EB05004B680EBF1146014610469847E7
:1030A0006D1CA5427FF7BCAE0098002804DAD9F861
:1030B00000002044C9F80000D9F800100098081A50
:1030C000C9F80000BDE8F88F0C4B83FB00C34FEA42
:1030D000A30CACEBE373A3EB830300EBC3000C285E
:1030E000DEDBA0F11003022B24BF14380228D7D353
:1030F000CBE70000FC01002067666666ABAAAA2A3F
:103100002DE9F047DFF86892804684B0D9F80000D6
:103110000F460C99007E1D461646012800F0CE8011
:10312000A8EB060C7C1B5CEA040104BF04B0BDE8FC
:10313000F087421E0021BCF1000FBCBF0121CCF181
:10314000000C002CBCBF41F002016442644504DD68
:1031500020466446844641F00401A0020CEBDC7377
:1031600000EB630090FBFCF08010824C4FEA201CC7
:1031700000F00F0034F81C30C0F1100013FB00F316
:10318000102807D004EB4C0CC0F11000BCF802C0B2
:103190001CFB003303F10800C31700EB1370001190
:1031A00011F0040F18BFC0F5806011F0010F18BFB7
:1031B000C0F5006011F0020F18BFC0F5805000F597
:1031C000806100F50060C0F30B004FF0000AB0F51D
:1031D000006FC4BF4FF0010AA0F50060B0F5806F2A
:1031E000C8BFC0F500604FEAA01C634B00F03F0071
:1031F000C0F1400033F81C404443402818BFBCF1E4
:10320000100F07DA03EB4C0CC0F14000BCF802C011
:103210000CFB004404F120008009BAF1000F18BF34
:10322000404200FB02FC0024C1F30B00B0F5006F2C
:10323000C4BF0124A0F50060B0F5806FC8BFC0F521
:103240000060811100F03F00C0F1400033F811A090
:1032500040280AFB00FA18BF102906DA03EB4101E7
:10326000C0F14000498801FB00AA0AF12000800952
:10327000002C18BF404200FB02F1BCF1000FB4BFAC
:10328000CCF500700CF500704FEAA020B8BF4042AA
:103290000029BDBFC1F500718912C1F1000C01F513
:1032A0000071A8BF4FEAA12C00280FDD411C01EBE3
:1032B000D171491000EBD07042100EE000913946F8
:1032C0004046FFF755FD04B0BDE8F08700EBD07134
:1032D000401E491000EBD0704210BCF1000FC6BF79
:1032E0000CF1010000EBD0700CEBDC704FEA6000D9
:1032F000CEBF0CEBDC73ACF1010303EBD3735B10BB
:1033000008EB010CADF800C007EB000CADF802C0F3
:10331000A8EB020CB21AADF804C0ADF80820314495
:10332000A7EB030CEA1AADF80C102844ADF80A20FC
:10333000ADF80E000023ADF806C01A460421684619
:1033400000F08EF8D9F8002040463946527E002A17
:1033500008BF00F013F83046D9F800202946527E05
:10336000002A08BF00F00AF804B0BDE8F0870000AA
:10337000FC0100205AE70D0838E70D08064A1368DB
:103380001A7E012A05D0521E02EBD272521000F0B2
:1033900005B85A6E52681047FC0100202DE9F84F1D
:1033A00006460F4640F2C32050434FF47A7190FB1B
:1033B000F1F000F1010A02FB02F002EBD271DFF83A
:1033C0009C8000EB61000090D8F800101446324455
:1033D000496E301B0B68394698470125BAF1010F39
:1033E000B8BFBDE8F88F00BF05FB05F004FB040083
:1033F000009988421ADD544517DDD8F8003006EBF5
:10340000050BA6EB05095B6EABF1010239191B68D0
:1034100009F101009847D8F80030ABF10102391BDF
:103420005B6E09F101001B689847641ED8F80030F4
:10343000321979195B6E301B93461B688146984799
:10344000D8F800305A46791B5B6E48461B6898478F
:103450006D1CAA45C8DABDE8F88F0000FC01002009
:103460002DE9FF4F83B0074643F6FF74C4F1000017
:1034700090460E1E0090C4BFBA1C08460EDD00BF69
:10348000B2F90010A142D8BF0C46009B9942D8BFA8
:1034900019460091401E02F10402F1D18C490868DE
:1034A000406970B1B0F90630069A9B1A009A9342AF
:1034B000C0F20281B0F90230069A9A1AA24200F3D1
:1034C000018100988442D2BFA6F1010907B0BDE88E
:1034D000F08F00207F490546002E0860C4BF069883
:1034E00004EB000A7EDD4D45B4BF6A1C002207EBE9
:1034F000850C07EB8201BCF90200B1F90230A04251
:1035000055D1A34213D137F92500514600EB0803EA
:1035100037F922006E4A404483421268526ED2F854
:1035200000C0BABF024618461A46E04787E00022AC
:103530002946B9F1000F0CDD002914BF491E711E88
:1035400007EB8100B0F90200A04203D1521C4A45AA
:10355000F2DB2046A04272D0001B37F925101A1B5F
:1035600090EA020F09D45A4A01EB0800514612684A
:10357000526E13680246984761E0DFF858B1DBF8F5
:1035800000C0BCF10C0F5ADA0020BCF1000FC4BF20
:103590006046514A4CDD00BF02EB400333F9023C68
:1035A0008B4245DB22F81030401EF5D140E0A342AB
:1035B00045D0A8BF844203DAA042A8BF9C423EDBAC
:1035C00098424EDC0246A042DFBF18468442BCF956
:1035D0000030B1F9001032DCA1EB030CA11A0CFB96
:1035E00001F100E02FE00029A0EB020CCEBF01EBBF
:1035F0006C01A1EB6C01491C801A91FBF0F0DFF823
:10360000D4B0C118DBF800C0BCF10C0F17DA0020F1
:10361000BCF1000FC4BF60462F4A09DD02EB400336
:1036200033F9023C8B4203DB22F81030401EF5D107
:10363000294A22F810100CF10100CBF800006D1C93
:10364000B542FFF650AF069800252044019021486E
:10365000AB4601680029C4BF1F49B1F900A022DDB3
:1036600018E01A46A342DEBF8442B1F90030BCF92B
:103670000010B1DDE3E7184931F91BA055B108EBA3
:10368000000C134808EB0A0201990068406E0368B9
:10369000604698470F490BF1010B85F00105096859
:1036A00050465945E7DC0098641C84427FF711AF0F
:1036B00007B0BDE8F08F00BFB0F90630069A9A1A3D
:1036C0000092F7E6B0F902200698141AF9E6000015
:1036D000FC0100200C0A0020DC55002070B52048B9
:1036E000046802F00FFA204609F08CFD04F0B2FCE9
:1036F0001C48046802F006FA204609F0BDFD04F0FB
:10370000A9FC012502F0FEF9174C2068057604F0AB
:10371000A1FC02F0F7F920680025858504F09AFCE9
:1037200002F0F0F92068458504F094FC02F0EAF913
:10373000284609F0CFFD04F08DFC0C48056802F026
:10374000E1F92068002D18BFC56104F083FC002555
:1037500002F0D8F920688576BDE8704004F07ABCA4
:10376000F8010020F4010020FC010020F0010020FD
:10377000F0B50A4600210023002400BF3DE00125EA
:1037800005FA01F3156805EA03049C4234D1056883
:103790004F000326BE40B543056015794E00B54085
:1037A0000668354305601579012D02D01579022D83
:1037B00016D185684F000326BE40B5438560557914
:1037C0004E00B540866835438560456801268E40C9
:1037D000B5434560456896798E40B6B2354345603D
:1037E000C5684F000326BE40B543C560D5794E007D
:1037F000B540C6683543C560491C1029BFD3F0BD2C
:10380000F0B5002300244D07ED0E02FA05F3CE10AB
:1038100000F1200555F826504E07F70E0F26BE4042
:10382000B543CF1000F1200646F82750CE1000F126
:10383000200555F8265045EA0304CE1000F1200576
:1038400045F82640F0BD41837047018370470AB1B7
:10385000018300E041837047014AC2E900017047DB
:10386000A0010020014AC2E900017047A801002020
:10387000014AC2E900017047B8020020014AC2E9CA
:1038800000017047B0010020014AC2E90001704701
:10389000C00200202DE9F04F4B4989B00968B1F909
:1038A00022200692D1F81CC0B1F92470DCF81C402B
:1038B000A28982429CBFE389984205D8A0EB020905
:1038C0004FF0FF38266812E0D4E90162002A71D077
:1038D000138883429CBF5588A8426BD8C01A52688F
:1038E00080B202EB8000B0F90090B0F90280B9F12B
:1038F000FF3F5FD09CF81800A27C10FB02FB94F8FD
:1039000010A00790B1F92A50284609F0E3FCC0B294
:1039100008902D4809FB0B620068A37C4FF0010959
:10392000816BCDE90293CDE90421C0695246C17E85
:10393000807ECDE90001DDE90603394608F026FA6C
:10394000B8F1FF3F18D045F0020009F0C3FC1E4853
:10395000A37C08FB0B620068816BCDE90293CDE983
:103960000421C0695246C17E807ECDE90001DDE9B7
:103970000603394608F00AFA134E3068C069417EE2
:10398000007E814213D9022D11D085F0040009F088
:10399000A1FC3068C069017EC27E11FB0271427ECB
:1039A000D319827E06981AFB020208F093FC08984D
:1039B00009F090FC0448627C0068418C1144418409
:1039C00009B0BDE8F08F0000FC0100200448002988
:1039D0000068C069C0691CBF027C0A60407C7047F7
:1039E000FC010020022008807047C06982898A4259
:1039F0009CBFC289914210D9806880B102888A42F6
:103A00009CBF438899420AD8406800EB8100A0EB34
:103A10008200B0F90000002801DB0120704700207F
:103A2000704700002DE9F043394D024687B0286801
:103A3000B0F92A60C069C1691046002904BF07B007
:103A4000BDE8F0830B8883429CBF4B88984205D920
:103A500089680029F6D107B0BDE8F083002904BFCA
:103A600007B0BDE8F08348680988511A00EBC1042B
:103A70003046A77809F02EFC80462868626801234A
:103A8000816BCDE90237CDE90421C169CB7E8A7E05
:103A9000CDE900230B7EB0F924102278B0F9220082
:103AA00008F074F92868C069417E027E91421FD9EE
:103AB000C07E11FB00F912FB00F7022E18D001F0B6
:103AC000BEFE064601F084FE03F053FF296822780B
:103AD000CB69B1F92200DB7E12FB0302B1F924109D
:103AE00001EB0903394408F0F5FB304603F041FFD0
:103AF000404609F0EFFB28686278C369B0F92210EC
:103B00009B7E12FB0311418407B0BDE8F0830000E7
:103B1000FC01002010B4044615480068D0F81CC011
:103B20002046DCF81C2002B3138883429CBF5388D4
:103B3000984203D99268002AF6D116E0AAB11088FB
:103B40005368221A012000EBC2009CF81AC0185CCE
:103B500010FB0CF0002904BF10BC704713F8322092
:103B600012FB0CF20A6010BC704710BC00207047BA
:103B7000FC010020012008807047C06968B10288FC
:103B80008A429CBF4288914203D980680028F6D1BE
:103B900003E000281CBF0120704700207047000090
:103BA0002DE9F047DFF8A480DFF8A4A04FF000096A
:103BB000D8F80840002CC4BFD8F8106000251DDDDF
:103BC000D8F81000C5EB051700EBC7007022001DE8
:103BD000DAF80010FCF7A4FB46F8789BD8F8100040
:103BE00005F1010500EBC70000F10C018161011D29
:103BF0000A1DC0E90F124164641EE1D1D8F8080023
:103C00000024002810DD00BF04F043FAD8F810208B
:103C1000C4EB041152F83110814206D081B1D8F8BA
:103C20000800641C8442EFDB4C46D8F81010C4EB4B
:103C3000041001EBC000001DCAF80000BDE8F087C9
:103C4000C4EB041142F83100EFE70000E807002060
:103C5000FC01002070B51B4919480860084606F0B1
:103C60006BF9194CA068C0EB0010C500284600F0A5
:103C700071F9164B20612A461B68002198474FF0C6
:103C8000FF30206004F032FAA06800250028D8BF79
:103C900070BD00BF04F0FDF92269C5EB051152F8B3
:103CA0003110814208BF70BD21B16D1CA0688542F2
:103CB000F0DB70BDC5EB051142F8310070BD0000AE
:103CC0004D8E0108FC070020E8070020A80700200F
:103CD000002904BF002070472DE9F0410F468046BF
:103CE00001F010FF01F00EFF38460FF083FE04468E
:103CF00004F0B0F9002C2FD01A4D3A46E869401C68
:103D0000E861686B00EBC4000178491C0170042174
:103D1000686B01EBC401B8F1000F405800F10806D0
:103D200005D0114B414630461B68984704E00F4BC5
:103D3000002130461B68984756F8081C686B00EB5A
:103D4000C1000178022904D3E96900291CBF491E7A
:103D5000E9610178491E017004F07CF92046BDE854
:103D6000F081000060530020AC070020A80700206D
:103D7000002808BF704710B5044601F0C3FE204676
:103D80000FF038FE044604F065F9204610BD00002F
:103D90002DE9F041074601F0B5FE002F08BF0024D1
:103DA00030D001F0AFFE38460FF024FE044604F098
:103DB00051F9002C26D0164D164B3A46E869401CA6
:103DC000E861686B00EBC4000178491C01700421B4
:103DD000686B01EBC4011B684058002100F1080624
:103DE0003046984756F8081C686B00EBC100017814
:103DF000022904D3E96900291CBF491EE961017841
:103E0000491E017004F026F92046BDE8F08100004B
:103E100060530020A8070020024A106021F0030030
:103E20005060704720540020002808BF704770B5CC
:103E3000044601F067FE0C4D042000EBC406696BDC
:103E4000895948680FF078FD6868401C6860696BA4
:103E5000686A8851696B002001F834006C62BDE823
:103E6000704004F0F7B8000060530020002808BF3D
:103E70007047044AD16B0160002918BF4860D063C5
:103E800070470000605300202DE9F041064601F024
:103E900039FE34680027C4B101F034FE0D4D042012
:103EA00000EBC408696B51F8081048680FF044FD36
:103EB0006868401C6860696B686A41F80800686B54
:103EC00000F834706C6204F0C5F83760BDE8F0416A
:103ED00004F0C0B8605300202DE9F05F0F1E81464A
:103EE0004FF00005C6BFDFF868804FF0000ABDE85C
:103EF000F09F00BF09EB850601F004FE3468F4B1C1
:103F000001F000FE0420D8F8341000EBC40B51F887
:103F10000B1048680FF010FDD8F80400401CC8F8DA
:103F20000400D8F83410D8F8240041F80B00D8F871
:103F3000340000F834A0C8F8244004F08BF8C6F828
:103F400000A004F087F86D1CBD42D3DBBDE8F09FF4
:103F5000605300202DE9F041044614F04DFBE01CB5
:103F6000274E20F00300051D306CA84288BF05468F
:103F7000F46BBCB154F8041CA94210D19CB1206868
:103F800000281CBF61684160606800281CBF216870
:103F90000160F16BA14204BF2068F0632DE024684A
:103FA000002CE7D10024F168B06B00EB010858F851
:103FB000040CA8EB0007386840B1002016F0BCF8EC
:103FC00058F8040CA8EB00073868B0B97868A84224
:103FD00013DB3844401B041D384616F07FF8F068A8
:103FE000401BF0607069284470617868401B1CBFFA
:103FF00039460FF0A1FC44F8045C2046BDE8F0818E
:104000006053002010B5002414F0F6FA0D490F207B
:1040100001EBC002526C8AB101EBC000406C8068B9
:1040200048B14168A14288BF0C46806800281CBF87
:1040300080680028F5D1A4F10C0010BD401EE7D522
:10404000F9E7000060530020034800680C3800289E
:10405000D8BF00207047000060530020002140B10D
:104060000549042202EBC000496B08584068A0F1E2
:104070000C01084670470000605300200248816927
:10408000491C816170470000605300200849CA69DB
:10409000521CCA614A6B02EBC00213785B1C13709E
:1040A000496B042202EBC00008580830704700003A
:1040B000605300202DE9F05F0E0005464FF0000828
:1040C00008BF474674D001F01DFD30460FF092FC4A
:1040D000074603F0BFFF002F18BF002D68D0364CF5
:1040E0004FF0040909EBC50A606B50F80A004068FC
:1040F000A0F10C00B042B8BF064601F003FDE06934
:104100002E4B401CE061606B324600EBC70001782B
:10411000491C0170606B09EBC701415800EBC500F9
:1041200001F1080BE169491CE1610178491C01704A
:10413000606B1B6850F80A0000F1080949465846B0
:1041400098475BF8081C606B00EBC10001780229FE
:1041500004D3E16900291CBF491EE1610178491EB1
:10416000017059F8081C606B00EBC100017802294E
:1041700004D3E16900291CBF491EE1610178491E91
:10418000017001F0BFFC606B50F80A1048680FF036
:10419000D3FB6068401C6060616B606A41F80A0094
:1041A000606B00F83580656203F054FF03F052FF46
:1041B0003846BDE8F09F000060530020AC070020A7
:1041C00010B501F09FFC002414F016FA194B1A499F
:1041D0000F2000BF01EBC002526CE2B101EBC00046
:1041E000406C8068C8B14268A24288BF14468068AB
:1041F00000281CBF80680028F5D1A4F10C00B0F5A0
:10420000800F0DD983FB00204211096AA2EBE070F8
:1042100000FB01F409E0401EDCD5A4F10C00F1E73D
:10422000096A4843A3FB0010440903F013FF20462A
:1042300010BD00001F85EB516053002002488169CA
:10424000491E816170470000605300200A490268DE
:104250004B6B52F8082C03EBC2021378022B04D3E9
:10426000CB69002B1CBF5B1ECB611178491E1170FE
:104270000021016008467047605300200349042272
:1042800002EBC000496B08580830704760530020AB
:104290002DE9F0414FF0000682B00B465FEA0008BE
:1042A00034462BD032B111461846FFF711FD0600F7
:1042B00008BF01244046FFF7E9FE009007884568E3
:1042C0006846FFF7C3FFCCB9B800011D2846FFF7C9
:1042D000F1FE050016D0FFF7D9FE019040F82760E7
:1042E00001A8FFF7B3FF4046FFF7D0FE00904560FE
:1042F0000188491C01806846FFF7A8FF02B02046EC
:10430000BDE8F0813046FFF78FFD0124F6E7082075
:10431000FFF73EBD002808BF704730B583B00546A3
:10432000FFF7B4FE00904068D8B1FFF7AFFE0190F0
:10433000009800240088002809DD019800EB840023
:10434000FFF7A2FD0098641C0088A042F5DC01A8DC
:10435000FFF77CFF0098001DFFF796FD00990020F5
:1043600008806846FFF772FF2846FFF75DFD03B03F
:1043700030BD38B5002430B1FFF788FE00900488C6
:104380006846FFF763FF204638BD30B583B00C4662
:10439000002590B1FFF77AFE00900188A14209D96B
:1043A000406838B1FFF772FE019050F8245001A820
:1043B000FFF74CFF6846FFF749FF03B0284630BDC2
:1043C00030B583B00D460024B8B1FFF75FFE009012
:1043D0000188A9420ED9406860B1FFF757FE0190ED
:1043E00050F8255001A8FFF731FF280002D0FFF751
:1043F0004DFE04466846FFF729FF03B0204630BD56
:1044000070B514460D46064601F07CFB204601F0CF
:1044100023FA0300164804EB840109D050F8210068
:1044200041688068711A2A1A184603F0F9FA1AE0EE
:1044300000EB8104A268B24214BF01220022E368AB
:10444000AB4214BF012300231A430CD0236943B1AC
:1044500050F82100816840686A1A311A184602F043
:1044600005FFC4E90265BDE8704003F0F3BD00003C
:104470009C550020C2B2CBB2D21A48BF524292B26F
:1044800002FB02F3C0F30722C1F3072CB2EB0C02CC
:1044900048BF524292B2000CA0EB114002FB023224
:1044A00000B20028BCBF404200B280B200FB002036
:1044B000704700002DE9F041002182B0084601F06C
:1044C00087FA43F6FF76374601F01CFB042008F01C
:1044D00001FF804612484069C16C006D8D1B841B32
:1044E0000E440744ADF80050ADF80460ADF802404A
:1044F000ADF8067068460EF07DFD48B13B46324689
:104500002146284607F0E6FE0EF09AFB0028F5D17A
:10451000404608F0DFFE03F09DFD02B0BDE8F081EB
:10452000E80100202DE9F04182B01C4617460D46F7
:10453000064601F0E7FA042008F0CCFE8046134856
:104540004169C86C096D064407440D440C44ADF83C
:104550000060ADF80470ADF80250ADF80640684652
:104560000EF048FD48B123463A462946304607F04A
:10457000B1FE0EF065FB0028F5D1404608F0AAFE1A
:1045800003F068FD02B0BDE8F0810000E801002002
:104590002DE9F8431C00DDE9089816460F4605464C
:1045A00002D10CF0E3FE04460096D5F800C0434665
:1045B0004A4621462846E047061E08BFBDE8F88364
:1045C0000CF0C7FE8146698A30460CF073F930461C
:1045D0000EF09EF948460EF09BF97F1E002FC8BFD3
:1045E0004FF000080FDD00BFCDF8008055F81CCF5C
:1045F00000231A4649462846E04718B30EF088F9CA
:104600007F1E002FF0DC1D2148460DF021FFB4F184
:10461000FF3F14D001F076FA0CF030FF40B100BF3C
:10462000FFF72CFE8469B44218BF5FEA0400F7D19B
:10463000B4421CBF30460EF053F803F00BFD304679
:10464000BDE8F88330460CF09BFB0020BDE8F88302
:104650000249496A002908BF70470847E80100205D
:10466000022BA4BF002070472DE9F04106461C46EE
:1046700015460F461C20FFF76DFC002808BFBDE85B
:10468000F081002F18BF07610BD10A4A52F824109D
:1046900039B10A681AB111461268002AFBD10969BA
:1046A000016184618582002101604160C0E90216D8
:1046B000BDE8F081280200202DE9F04100241D46CC
:1046C000074688461646022B27DA1C20FFF742FCD5
:1046D00018B3B8F1000F18BFC0F810800BD1104A02
:1046E00052F8251039B10A681AB111461268002A29
:1046F000FBD1096901618561868204604460C0E97B
:104700000247040009D000F011F8E068006820B901
:104710000448006800EB850084652046BDE8F08110
:1047200028020020FC010020FFF7A0BB00281CBFCE
:104730008369022BA4BF01207047234A591C92F8B9
:1047400000C08C45B8BF117010B4204C54F8231031
:10475000002908BF44F8230030D04A682AB1114626
:104760005268002AFBD100292BD0C268D2F800C0C1
:10477000CA681268624503DD09680029F8D120E0A3
:10478000F9B1CA681268624504BF828A012A08D159
:104790000A682AB11146D26812686245F8DA00E068
:1047A00079B14A68002A1DBF10604A68426044F827
:1047B00023004860884208BF0021016010BC00202F
:1047C000704710BC012070474E02002028020020D4
:1047D000002808BF704770B4244D254CD0F800C0A5
:1047E00000281CBF8669022E3ADA2A78711C8A4298
:1047F000B8BF297054F82610002908BF44F82600D5
:104800002ED04A6822B111465268002AFBD139B332
:10481000C2681268CB681B68934203DD09680029EF
:10482000F8D11DE0E1B1CB681B68934204BF838AD5
:10483000012B08D10B682BB11946DB681B6893422A
:10484000F8DA00E061B14A68002A1DBF10604A68CA
:10485000426044F826004860884208BF0021016099
:104860005FEA0C00BAD170BC704700004E02002015
:10487000280200200D4B8269002153F822C0844594
:1048800007D1D0F800C043F822C00268002A18BF40
:1048900051604268002A1CBF036813600268002A46
:1048A0001CBF4368536001604160704728020020CC
:1048B0000020704702280BDA064A52F8200038B16F
:1048C000C26812688A4208BF704700680028F7D1A2
:1048D00000207047280200200228A4BF0020704753
:1048E000064951F82000002808BF7047C1680968D0
:1048F00000291CBF00680028F8D17047280200205A
:10490000F8B5074614460D460C20FFF741FA06009D
:104910000FD001F0F7F83046FFF7B8FB06490090DA
:10492000C0E90017058144816846FFF78FFC03F05A
:1049300091FB3046F8BD00005C020E08002808BF5D
:1049400070472DE9F8431E46174688460446FFF790
:104950009DFB0090006805686846FFF777FC3346CA
:104960003A4641462046A847BDE8F88338B50400DA
:104970004FF0000008BF38BD2046FFF787FB0090CE
:10498000006845686846FFF761FC2046A84738BDC7
:1049900038B504004FF0000008BF38BD2046FFF7CF
:1049A00075FB0090006885686846FFF74FFC20465D
:1049B000A84738BD2DE9F047044603F071FB00EB32
:1049C0000408174FDFF85C901EE000BF00F006FE01
:1049D00038688642C8BF064601F094F8D9F800400E
:1049E000FFF74CFB250017D003F034FB6D1EFBD105
:1049F000304603F043FB1CB101F084F8641EFBD188
:104A0000FFF71CFC03F026FB03F04AFBA8EB0006B3
:104A1000002EDBDCBDE8F087304603F02FFBEFE72C
:104A2000B4020020F4070020002808BF70472DE9D9
:104A3000F04F83B0054601F065F800F023FF3C4CD1
:104A400080462068B0F9227000F08CFF8246206812
:104A5000818CA1EB0A0181842878002818BFA8F175
:104A6000010946D047F6FF71284605F0C9F883468C
:104A70000146284605F08AF82168064691F82C0080
:104A800000F00300012808BF304605D0022812BFFD
:104A9000002006EBD67040104A8C101A4884ADF8FE
:104AA0000000721E1044ADF80400888CADF80200BE
:104AB0004844ADF806006A465946284603F02AFDE8
:104AC0002168BDF8020088845946284603F096F90B
:104AD000054428780A2818BF0D2817D0BDF8000013
:104AE000216830444884287818B115F8010F00284F
:104AF000B8D12068818C51448184818D21F00301DB
:104B0000818503F0A7FA03B0BDE8F08F206890F824
:104B10002C1001F0030101291DBF0229018C4184E1
:104B2000478429780A29DED1818C41448184DAE7DF
:104B3000FC01002070B514460D46064600F0E2FF69
:104B40000548016830464D848C84FFF76DFFBDE851
:104B5000704003F07FBA0000FC0100202DE9F04115
:104B600082B006000D46174647F6FF784FF0000466
:104B700004BF02B0BDE8F08100F0C4FF65B1284673
:104B80000DF0B6FE040007D002462946684605F03F
:104B9000B0F868460DF0ACFE43463A46294630462A
:104BA00003F0AAFD20460DF0A3FE03F053FA02B075
:104BB000BDE8F0812DE9FF4F85B09A46129E9346DD
:104BC0000C46002E48D00027B9460097019700F008
:104BD00099FFACB161682068CDE900012148DDE9A9
:104BE00000120160426020460DF082FE070007D0EF
:104BF0000246214602A805F07CF802A80DF078FED6
:104C000000F080FFDFF86480174DD8F800002C68B2
:104C1000C0F814902E6003F01DFA7168684688474A
:104C200053465A466946059803F066FD38460DF02E
:104C30005FFE00F067FFD8F80000002C12BFC0F83C
:104C4000149000F1080141612C6003F003FA03F0B5
:104C500001FA09B0BDE8F08F059809B0BDE8F04F42
:104C600000F006B8B407002054020020FC01002028
:104C70002DE9F04182B01F4690460D4606004FF0E8
:104C8000000404BF02B0BDE8F08100F03BFF65B155
:104C900028460DF02DFE040007D00246294668463E
:104CA00005F027F868460DF023FE3B4642462946AC
:104CB000304603F021FD20460DF01AFE03F0CAF93C
:104CC00002B0BDE8F081002808BF70472DE9FF4F12
:104CD00087B093460E46054600F014FF34687768A7
:104CE00021B238B2401A401C029000F0CBFD82463F
:104CF0001BF00C0F2FD0029801900A98A8464FF095
:104D00000009009000F0FEFEDDE90021404605F0BC
:104D1000B7F98044002818BF09F10109F4D103F064
:104D200099F90BF00C00042818BF082802D00C28B1
:104D300005D010E0381409FB1A00401C09E02114CA
:104D4000C1EB274009FB1A00401C00EBD07001EBBF
:104D5000600060F31F4430460DF0CAFD5FEA0009B1
:104D600009D0CDE904470246314604A804F0C1FF4A
:104D700004A80DF0BDFDAAF1010828460A9A02997F
:104D800005F0C0F9039008EB244060F31F47CDE91C
:104D900000472846039904F0F9FE1BF0030108BF01
:104DA00030880ED001290FD0022912D1B6F9042083
:104DB000B6F90010521A101A401C00EBD07001EB2B
:104DC0006000ADF8000004E0B188081A401CADF89E
:104DD00000006A462846039903F09CFB28460A9A7D
:104DE000029905F04DF905440AEB244060F31F4495
:104DF00028780028C1D148460DF07AFD03F02AF941
:104E00000BB0BDE8F08F00002DE9F04F89B01546DA
:104E10000E46044600F076FE364F3868C16C006DD1
:104E20000E4405442088711E0844ADF81860ADF8A2
:104E30001C006088691E0844ADF81E00ADF81A50C9
:104E400006A80EF0D7F800281CBFDFF8ACB04FF072
:104E5000010A42D00020D4F80C9002F0A7FD804651
:104E6000B9F1000F1BBF99F80400002828F00200D8
:104E700048F0020002F09AFD206970B1D4E90212F4
:104E80000091CDE9012ACDF80CA0D0F800C06388CC
:104E9000228829463046E04718E03868DBF80030C1
:104EA0002146427CE0689847E0B1A288E388A16887
:104EB000CDF800A0CDE90410CDE90232CDF804A070
:104EC000638822882946304606F060FF404602F09B
:104ED0006DFD0DF0B5FE0028BCD103F0BBF809B0A4
:104EE000BDE8F08FE088012812BF00203868806B91
:104EF000DBE70000FC010020EC01002010B50A46B1
:104F000082B00146684605F009F800F0FBFD2B4829
:104F1000BDF800100068B0F84C201144ADF8001046
:104F2000BDF80210B0F850201144ADF80210BDF8E1
:104F30000410B0F84C201144ADF80410BDF8061070
:104F4000B0F850000844ADF8060068460EF052F87C
:104F500078B300BFBDF90040BDF90400A0420EDBEC
:104F6000BDF90210204607F04BF9BDF906102046A6
:104F700007F046F9BDF90400A41CA042F0DABDF91F
:104F80000240BDF90600A0420FDB00BFBDF90000E2
:104F9000214607F035F9BDF90400214607F030F944
:104FA000BDF90600A41CA042F0DA0DF049FE00286D
:104FB000D0D103F04FF802B010BD0000FC0100207A
:104FC0002DE9FF4FA3B01C4615460E46074600F0DC
:104FD00099FD70480168D1F84CC00CEB0700239094
:104FE000096D881924900CEB05002590081926906E
:104FF0002398ADF868002598ADF86C002498ADF8BA
:105000006A002698ADF86E001AA80DF0F3FF00288C
:1050100000F0BA8025992398091A31980391C1B2FA
:105020003098C0B2091A1C9103994843109001EBC3
:10503000D1700C9030983199C0F30720C1F307214B
:10504000091A199103994843119030983199C0F386
:105050000740C1F30741091A1D9103994843129073
:1050600030983199000EC0EB11611E9103994843AD
:1050700013902498029023980890269801902598E0
:10508000DDE9304506904448049000F0D8FB1F90BD
:10509000AC4209D1204608F0EFF8DDE90131069A6B
:1050A000089807F017F966E0039F0126002F65D0E6
:1050B0001C991791109A0C99089C02EB610B199A94
:1050C0001692119A02EB610A1D9A1592129A02EB3E
:1050D00061091E9A1492139A02EB610806998C4298
:1050E00042DC00BF9BFBF7FC9AFBF7F3179999FB97
:1050F000F7F28B441699149D8A4415994CEA0323C0
:10510000894498FBF7F1A84443EA024242EA016568
:1051100008998C4214DD854208BF761C10D008F037
:10512000ABF8012E06DDDDE90131A01B621E07F0A0
:10513000D1F804E0DDE90121049B601E98470126B7
:105140000699641C28468C42CCDD08F095F8069838
:10515000012E0CDD811B01F1010CDDE9013102465C
:10516000604607F0B7F806E008F086F80698DDE933
:105170000121049B98471F9808F07EF80DF060FD10
:1051800000287FF476AF00BF02F064FF27B0BDE8CF
:10519000F08F0000FC01002071C200082DE9FF4FD4
:1051A000A3B01C4615460E46074600F0ABFC8048EF
:1051B0000168D1F84CC00CEB07002390086D8119F1
:1051C00024910CEB05012044CDE925102398ADF87E
:1051D0006800ADF86C1026982499ADF86E00ADF813
:1051E0006A101AA80DF006FF002800F0DB8026994F
:1051F0002498081A02903198C2B23098C1B2501A5D
:105200001C90029848431090029800EBD0700F90C9
:105210003098C0F307213198C0F30720401A199045
:105220000298484311903098C0F307413198C0F379
:105230000740401A1D900298484312903098010E82
:105240003198C1EB10601E90029848431390239848
:10525000039024980790259801902698DDE9304521
:105260000590544804900120209000F0E8FA1F9027
:10527000AC4207D1204607F0FFFF059B019A079932
:10528000039879E0029F0125002F6ED01C99179199
:10529000DDE90F1202EB610B199A1692119A079C25
:1052A00002EB610A1D9A1592129A02EB61091E9A8D
:1052B0001492139A02EB610805998C4251DC00BFED
:1052C0009BFBF7FC9AFBF7F3179999FBF7F28B44DA
:1052D0001699149E8A4415994CEA0323894498FB35
:1052E000F7F1B04443EA024242EA016607998C4270
:1052F00016DD864208BF6D1C12D007F0BDFF209856
:10530000012D23DD00281FBF611B631E019A039836
:1053100001BF601B019B621E039906F0DBFF0125A4
:105320000599641C30468C42CADD07F0A5FF05983C
:105330002099012D23DD0029A0EB050116D003469D
:10534000491C019A039806F0C5FF23E0019A002842
:1053500019BF611EDDE90303601EDDE903139847F1
:10536000DDE707F089FF05980FE016E001F1010C79
:1053700002466046019B039906F0ACFF0AE0002953
:1053800004BF019ADDE9031303D00146DDE90303FD
:10539000019A98471F9807F06FFF0DF051FC002805
:1053A0007FF455AF02F056FE27B0BDE8F08F000045
:1053B000FC0100209DC10008F0B583B015460E46E3
:1053C000074600F09FFB114C2168C86C096D06442C
:1053D00005440F44ADF80060ADF80450ADF802701C
:1053E000ADF8067068460DF005FE50B120682A46FB
:1053F0003946406E0368304698470DF021FC00287E
:10540000F4D102F027FE03B0F0BD0000FC01002043
:105410002DE9F04383B01C4615460E46074600F0C2
:1054200071FB11480168C86C096D074405440E44BE
:105430000C4400200DF0DEFD00281CBF4FF00008DA
:105440000DF104090BD0CDE90098384631462A46C3
:105450002346FDF755FE0DF0F3FB0028F3D103B012
:10546000BDE8F04302F0F6BDFC01002070B582B04B
:105470000D46064600F046FB0F4C2068C16C006DDF
:105480000E440544ADF80460ADF80060ADF8065078
:10549000ADF8025068460DF0ADFD48B120682946D0
:1054A000406E4268304690470DF0CAFB0028F5D1A7
:1054B00002F0D0FD02B070BDFC0100202DE9F041EA
:1054C00082B0984617460D46064600F01BFB1E4864
:1054D0000468207E216DA0F1010CE06C0D440644AF
:1054E0000744A6EB0C00ADF8000007EB0C00ADF88C
:1054F0000400A5EB0C0001EB0804ADF8020004EB7E
:105500000C00ADF8060068460DF074FDB8B13A46DF
:105510002946304606F042FE3A462146304606F01D
:105520003DFE621E691C304606F0A2FE621E691C2A
:10553000384606F09DFE0DF083FB0028E7D102F00F
:1055400089FD02B0BDE8F081FC01002070B582B099
:1055500014460D46064600F0D5FA10480068C16CA6
:10556000006D0E4405440444ADF80060ADF80460DD
:10557000ADF80250ADF8064068460DF03BFD40B175
:1055800022462946304606F073FE0DF059FB0028EE
:10559000F6D102F05FFD02B070BD0000FC010020FA
:1055A00030B585B00D4600210191029103912A2169
:1055B0000091044669460CF03BFF039A002A1CBF89
:1055C0000120C2E9000500F09DFA20460DF0C8FA5E
:1055D00005B0BDE8304002F03DBD00002DE9F041CE
:1055E0001C4E00252C46306818B18047002818BF93
:1055F00001240BF0A7FC002818BF0124164F3868BF
:1056000018B18047002818BF0124DFF85080D8F86F
:105610000000002818BF8047CCB101253068002465
:1056200018B18047002818BF01240BF08BFC00281C
:1056300018BF0124386818B18047002818BF01241A
:10564000D8F80000002818BF8047002CE5D1284674
:10565000BDE8F08108020020340200203002002062
:10566000F0B583B01C4615460E46074600F04AFAD0
:1056700010480168C86C096D074405440E440C4489
:10568000ADF80070ADF80450ADF80260ADF806401A
:1056900068460DF0AFFC48B123462A4631463846ED
:1056A00006F018FE0DF0CCFA0028F5D102F0D2FC7D
:1056B00003B0F0BDFC010020F0B583B0B0F90040AC
:1056C000B0F90250B0F90460B0F9067000F01AFAAF
:1056D00010480168C86C096D044406440D440F4429
:1056E000ADF80040ADF80460ADF80250ADF80670BA
:1056F00068460DF07FFC48B13B46324629462046BD
:1057000006F0E8FD0DF09CFA0028F5D102F0A2FCAD
:1057100003B0F0BDFC010020002808BF7047B0F8BE
:1057200006C083888068BCF1080F02BF02FB03112A
:10573000405C704709DCBCF1010F0ED0BCF1020FD8
:1057400017D0BCF1040F21D005E0BCF1100F28D018
:10575000BCF1200F2BD0002070475A4302EBD1023E
:1057600001F00701805CC1F10701C84000F00100B1
:1057700070475A4302EB9102805C062202EA410123
:10578000C1F10601C84000F0030070475A4302EB24
:10579000510211F0010F805C14BF00F00F000009EE
:1057A00070475B0802FB031130F8110070479B083B
:1057B00002FB031150F8210070470000034951F823
:1057C0002000C1688A6A08211047000028020020D2
:1057D00010B500F097F906F0C3FD06F0EBFF0446A4
:1057E00002F038FC204610BD10B5044600F08AF9DE
:1057F000054920460968C9694A680021904704465E
:1058000002F028FC204610BDFC01002070B50C46BB
:10581000054600F077F9064A214628461268D26903
:1058200052689047044602F015FC204670BD000007
:10583000FC010020002808BF70470BF063BD10B5C5
:1058400000F060F906F094FD06F0B4FF044602F0A3
:1058500001FC204610BD0000002102283CBF024987
:1058600051F8201008467047AC02002010B500F037
:1058700049F903480068047C02F0ECFB204610BDA7
:10588000FC01002010B500F03DF904480068C06933
:10589000447E02F0DFFB204610BD0000FC0100202A
:1058A00070B50D46044600F02DF914B9094800689A
:1058B000C469294694F82000A87094F82200287141
:1058C00094F82100E870A26820469047BDE8704037
:1058D00002F0C0BBFC01002010B500F013F9054830
:1058E0000068C069017EC07E11FB00F402F0B2FBCB
:1058F000204610BDFC01002070B515460E4604463A
:1059000000F000F92A463146204606F0F9FD040071
:1059100002D000203060286002F09CFB204670BD61
:1059200070B50C46054600F0EDF80648B0F90000E9
:1059300028600548B0F900002060BDE8704002F022
:1059400089BB0000580200205A02002010B504460E
:1059500004F078F901462046BDE8104004F016B97D
:1059600002F09EBB10B5002400F0CCF80C48006893
:1059700090F82C1001F00C01042904D0082918BF5C
:105980000C2905D008E0C069007EA0F1010403E005
:10599000C069007E4FEA500402F05CFB204610BD57
:1059A000FC010020017EC07E11FB00F0704700006A
:1059B000024951F820000069006870472802002061
:1059C000024951F820000069406870472802002011
:1059D00070B50C46054600F095F80448006845840B
:1059E000848402F037FB002070BD0000FC01002021
:1059F0002DE9F0413948016821F001010160384882
:105A00000126866081680029FCD136490160006862
:105A10003549884200D0FEE7344D686B70B96E633B
:105A200002F022FBFEF716F907F090FE05F13801AF
:105A30002F4808600846296B416028632E20287093
:105A400002F032FB68692B4C011DC0E90E010064B5
:105A5000091D6161417C284850F82100C1680A6B2A
:105A600004F10801904725486066A868E06168690C
:105A70000830606126760BF079FCA064032084F87E
:105A800068006FF0704020636063286907F0BAFB1C
:105A9000E86807F0F1FB1A48E86115F009FD0446D3
:105AA00006F0A0FD10B106F0E1FD38B906F0F3FDF7
:105AB000074606F0ACFD394607F006FC0021084613
:105AC00001F0BEFF0CF040F9FEF76AF8A869002863
:105AD00018BF8047AE702046BDE8F081002000E08E
