:020000040800F2
:10000000E8440020C101000833030108CF020008C2
:100010002F030108C9090008E11F010800000000C2
:10002000000000000000000000000000371A010876
:1000300023180008000000001B020008251B01080F
:10004000DF010008DF010008DF010008DF01000810
:10005000DF010008DF010008DF010008DF01000800
:10006000DF010008DF010008DF010008DF010008F0
:10007000DF01000821110008DF01000861110008FC
:10008000DF010008DF010008DF010008DF010008D0
:10009000DF010008DF010008DF010008DF010008C0
:1000A000DF010008DF010008DF010008DF010008B0
:1000B000DF010008DF010008DF010008DF010008A0
:1000C000DF010008DF010008DF010008DF01000890
:1000D000DF010008DF010008DF010008DF01000880
:1000E000DF010008DF010008DF010008DF01000870
:1000F000DF010008DF010008DF010008DF01000860
:10010000DF010008DF010008DF010008DF0100084F
:10011000DF010008DF010008DF010008DF0100083F
:10012000DF0100089D120008DF010008DF01000860
:10013000DF010008DF010008DF010008DF0100081F
:10014000DF010008DF010008DF010008DF0100080F
:10015000DF010008DF010008DF010008DF010008FF
:10016000DF010008DF010008DF010008DF010008EF
:10017000DF010008DF010008DF010008DF010008DF
:10018000DF010008DF010008DF010008DF010008CF
:10019000DF010008DF010008DF010008DF010008BF
:1001A00091E20008DF01000889120008DFF80CD096
:1001B00000F010F9004800474F040008E844002010
:1001C000074880470748804707480047FEE7FEE7A3
:1001D000FEE7FEE7FEE7FEE7FEE7FEE7FEE7FEE7F7
:1001E000491B0108E1130108AD010008EFF310807D
:1001F00072B6704780F310887047434A1368012B2A
:1002000004D04FF001031360404A1060404A11606F
:1002100040484FF0805101607047EFF3108272B692
:100220003948016851B34FF0000101603748016857
:1002300091B1EFF309811EF0100F08BF21ED108B73
:1002400021E9F00F4FF000041EF0100F08BF012449
:1002500041F8044D006801602D490968096808C922
:10026000B1E8F00F002B18BFB1EC108B81F30988B7
:100270004EF0100E002B18BF2EF0100E82F31088D7
:100280004EF0040E704722490860EFF3148222F00A
:10029000040282F314881D494FF0000008601A49D7
:1002A0004FF0010008601C484FF47F01D0F8002097
:1002B00041EA0201016017484FF080510160174880
:1002C0000068006880F3088861B662B670471EF067
:1002D000040F0CBFEFF30880EFF3098020E9F00F63
:1002E00040F804ED40F804ED1EF0040F0CBF80F35D
:1002F000088880F3098800B51EF016FE5DF804EB4F
:100300004EF0040E70470000640200205C020020E2
:100310006002002004ED00E020ED00E008ED00E0C8
:1003200010B5441A0346944209D28418114403E0DC
:1003300011F8013D04F8013D521EF9D210BD40EA0A
:100340000104A40703D009E010C9121F10C3042A36
:10035000FAD203E011F8014B03F8014B521EF9D217
:1003600010BDD2B201E000F8012B491EFBD270474C
:100370000022F6E710B513460A4604461946FFF771
:10038000F0FF204610BD421C10F8011B0029FBD1D4
:10039000801A7047034611F8012B00F8012B002A40
:1003A000F9D11846704730B50B460146002020228F
:1003B000012409E021FA02F59D4205D303FA02F572
:1003C000491B04FA02F52844151EA2F10102F1DCD2
:1003D00030BD0000064C074D06E0E06840F0010328
:1003E00094E8070098471034AC42F6D3FFF7E2FEDA
:1003F0009C490E08DC490E0870B58C1810F8015B9A
:1004000015F0070301D110F8013B2A1106D110F8AD
:10041000012B03E010F8016B01F8016B5B1EF9D1B1
:100420002B0705D40023521E0DD401F8013BFAE737
:1004300010F8013BCB1A921C03E013F8015B01F8A2
:10044000015B521EF9D5A142D8D3002070BD10B572
:10045000FFF7CCFE20F082F8002010BD38B54468CC
:1004600005460146204611F00DFE002808BF38BDA4
:10047000464A286811280DD006DC0B282AD00E2801
:1004800038D00F2817D07CE0282873D0B0F5107F23
:100490000AD076E09268002A08BF38BD294601B02C
:1004A0002046BDE830401047526801B0294620463A
:1004B000BDE8304010472546204603F0F9FD009086
:1004C000406E0468684603F0D3FE002C1CBF28462B
:1004D000A04738BD204603F0EBFD0090683003F0E4
:1004E000E5FC009803216C3003F008FD684603F03A
:1004F000BFFE46E0E968486809680D2902D0202956
:1005000018D037E0002835DD4FF48071204611F017
:1005100084FE204603F0CCFD009090F828506846F9
:1005200003F0A6FE15F0020F1ED00121204613F0A5
:1005300082FB19E0002817DD25464FF48071204624
:1005400011F06BFE284603F0B3FD009090F82840B0
:10055000684603F08DFE14F0020F08BF38BD01217C
:10056000284613F068FB38BD2046BDE8384002211C
:100570001AF012BFE86820B920464FF4807111F0DC
:1005800053FD2846BDE8384012F002B9B4030020FC
:1005900070B586B04FF0000CDDE90A450C9ECDE940
:1005A00002C5CDE90046CDF810C000F00FF806B046
:1005B00070BDF0B585B00AAF97E8701000270497BA
:1005C0008DE8701000F002F805B0F0BD2DE9F04F95
:1005D00085B09846DDE91164DDE90E5791468A46FB
:1005E000834605F0F7FC04F14C001749CDE90210F1
:1005F000CDE9005743464A465146584612F00CF89A
:1006000005001BD003F054FD10223146049011F078
:100610009FFE0E4C0499B4E8CD133431A1E8CD13FC
:1006200094E80D10A1E80D1054F82C0D086004A8F2
:1006300003F01EFE206841682846884707F082FFC5
:1006400005B02846BDE8F08F5D040008C003002017
:10065000F0B5044680688C4989B051F82050606834
:10066000002800F00A81052806D006287DD012282F
:1006700000F0B48000F004B9E869002808BF002643
:1006800051D0D5E90012AB688DE80F0004F11001DC
:100690000FC909F00BF8002655F8260007F0D1FB2A
:1006A000A169E8690A1A216901446069304405F0CA
:1006B00019F8A169E8690A1A21690144E069801BF7
:1006C00005F010F8E169E8690A1A616901442069D6
:1006D000304405F0A1F9E169E8690A1A6169014449
:1006E000A069801B05F098F9761C022ED4DBA8685F
:1006F00007F0A7FBE069E969D4F814C0431A206940
:1007000042186144801C521E05F010FAE169E86944
:10071000A2690B1A61690144101A401C921E05F06F
:1007200005FAEE6911E055F8260007F08AFBE0694A
:10073000831BA069821B606981192069304405F020
:1007400053F8761C022EEEDB0226D5E90301CDE933
:100750000001E169606901444B10A1698A1B811C99
:100760002069304404F0B0FE00E011E0D5E9050155
:10077000CDE90001E0696169831E01440122A0699D
:1007800002EB6101821B2069304404F09DFE77E09A
:10079000206803F08DFC0490206814F0AEFB50B18B
:1007A000A068002818BF00200AD10498006F002814
:1007B00018BF012004E00498406F002818BF0220F1
:1007C000049901EB8000C56E04A803F051FD0023DD
:1007D0001A462846216804F04BF951E0206803F0DE
:1007E00067FC0490866E002E08BF04A842D0A16862
:1007F000B0F95C70002908BF012103D003290CBFA8
:100800000221002100EB8101406D0C6C07F042FBDE
:10081000204607F016FB06A805F072FABDF818107E
:10082000A88B0144ADF81810BDF81C10081AADF8DB
:100830001C00BDF81A00801CADF81A00BDF81E009F
:10084000801EADF81E000498B0F96020B0F95E106B
:1008500006A806F041FE04A803F00AFD022007F0F6
:1008600087FB304603F024FC3A4606A9059004F0C5
:100870002FFA05A803F0FCFC02E0206813F04CFD01
:1008800009B00020F0BD000028290E08044A0349E1
:10089000116004494A6A486210467047F00300201C
:1008A000B4030020C003002070B505460C46104676
:1008B00000210A4604F0BEF8024621462846BDE85B
:1008C0007040AFF30080002808BF7047F8B51546A8
:1008D0000C46064605F07EFB304603F0E9FB00902F
:1008E000032C0BD200EB84006C3003F0DFFA00988D
:1008F00000EB8400C566304613F0A6F8684603F0A6
:10090000B7FC07F01FFEF8BD2DE9F04707464FF092
:10091000140838680F2845D1264807F087FA03F0F5
:1009200063FE0CF007F924494988A0EB01090CF09B
:10093000BDF821490988A0EB010A09EBD9704210E2
:100940000AEBDA7041101C4804F018FB00240CF08C
:10095000ADF8814600EBD9704010022101FB180070
:1009600085B21CE015480068A04201D1144800E09F
:1009700014480646B6F8029009EBD9704010C0F151
:10098000FA02B6F800A00AEBDA70A5EB6001304677
:1009900004F0F4FA601C84B205EB080085B2052C63
:1009A000E0DB03E0384611F0F3FE00BF00BFBDE816
:1009B000F08700008080FF00B4E40D08780100207B
:1009C000FCE60D0858E50D0800BFFEE72DE9F04FE5
:1009D0000446006889B028B114F08FFA002808BFD7
:1009E000012500D00025FE4850F8256060680A28DF
:1009F00000F0738108DC002800F0DD81062841D07A
:100A000007280CD000F0E8B9122800F0308119282E
:100A100002BFB06909B0BDE8F08F00F0DDB925680C
:100A200005F0D8FA284603F043FB0090C76F6846EC
:100A300003F01EFC07F086FD5FF0000556F8250068
:100A400007F0FFF92069C119491B4B1E61691A465D
:100A50002944284404F0C8FE6D1C032DEED3D6E9CA
:100A60000301CDE90001D4F810C00CEB0700401BD6
:100A7000431E60691A4641190CEB050004F024FD81
:100A800000F0AAB9A068401E0690246805F0A2FAFA
:100A9000204603F00DFB0090D0F87C80684603F000
:100AA000E7FB07F04FFDDFF83C9359F82570002F66
:100AB0001CBF069800EB80000DD000BFB7F84810AF
:100AC000414505D107EB8001896809B11FB1C4E038
:100AD000FF6C002FF2D1502003F04EFA070000F017
:100AE0007B81C14C5022002123689847706978644B
:100AF000A7F8488059F82500F864BC48A8F1060812
:100B000080FB081049F825704110A1EBE07103202B
:100B100008900120049007F14000CDE90280069D75
:100B200005EB850007EB8000019005EB450007EB26
:100B300080002830009008EBD8704210401000EB85
:100B4000D073A0EB63004618501A059008F1070017
:100B5000C11700EB51704FEAE00A0AFB08FB584648
:100B600003F00AFA5FEA000977D023685A460021A9
:100B70009847DDE90420012826DD089B0121304645
:100B8000334483421BDD4FEAE27C02EB5C7E02F0E1
:100B9000070C802424FA0CFC404509DA0AFB00F417
:100BA00004EBEE0419F804B04BEA0C0B09F804B09E
:100BB0006940401C834202DD0029F9D0ECE705982A
:100BC000521C761C9042D8DC04990298401A04907A
:100BD000904225DD0899012034463144A1421ADDB6
:100BE000D31702EB537E02F0070C802323FA0CF399
:100BF000444509DA0AFB04FC0CEBEE0C19F80CB0C6
:100C00004BEA030B09F80CB06840641CA14202DDFA
:100C10000028F9D0ECE70498521C761E9042D9DCEB
:100C2000009802210160009901200871009A03993F
:100C300091600199C88001980021A0F804A0019852
:100C4000C0F8089001980161DDE90001C860DDE9A4
:100C5000010101800198A0F802800698032200EBB0
:100C6000800007EB8000114604F088F9B4E02068AA
:100C700003F01EFA0290B0F9547090F85650D0F874
:100C80004490D0F8348002A803F0F2FA266805F008
:100C9000A1F9304603F00CFA0390B0F87C6003A889
:100CA00003F0E6FA07F04EFC684612F095F8BDF83E
:100CB000000071190844ADF80000246A404607F0AE
:100CC000E9F8022007F054F9484607F0BAF83A4626
:100CD0006946204603F0FCFF7EE0206803F0E8F957
:100CE0000290B0F9548090F85660D0F83490876C38
:100CF00002A803F0BDFA256805F06CF9284603F058
:100D0000D7F90390B0F87C5003A803F0B1FA07F0CC
:100D100019FC684612F060F8BDF80000A9190844F3
:100D2000ADF80000206A05F077F80446484605F063
:100D3000A1F828F00301042904BFBDF80610091A20
:100D400008D00C2908D1BDF90610091A491C01EB7D
:100D5000D1714910ADF8021028F00C0101290CD016
:100D6000022913D1BDF90410BDF90020891A091B0D
:100D700001EBD17102EB610106E0BDF80420BDF882
:100D80000010521A121B1144ADF80010BDF80010EB
:100D9000621E1144ADF80410BDF80210401E084454
:100DA000ADF80600384607F04CF84FF0FF316846C2
:100DB00004F05EF910E0206813F0AEFA206803F04A
:100DC00077F90790B0F90610B0F90220891A491C8A
:100DD000C16707A803F04CFA09B00020BDE8F08F06
:100DE00038290E08C0040020F008002067666666F7
:100DF000044A034911600449CA69C8611046704732
:100E00007C040020A8090020AC09002000B589B0AE
:100E100000200090029003900490059006900790A7
:100E2000089019200190044800688068416868466D
:100E3000884709B000BD0000A80900202DE9FE4345
:100E400004460E461546204609F07AFC07460F4830
:100E500050F8240007FB06080C4850F8240007FB54
:100E6000050900210A4850F82400CDE9000109488D
:100E7000029150F824304A464146204600F0A6F937
:100E8000054840F82450BDE8FE8300006C000020B7
:100E90007C00002078000020740000202DE9F04F35
:100EA00085B004460D4616461F46DDE90F8BDDF87A
:100EB00038A0204609F044FC81461C4850F8240024
:100EC0001B4951F8241009FB01001A4951F824105C
:100ED00006FB0151184A52F8242001FB020004903D
:100EE000124850F82400124951F8241009FB01005F
:100EF000104951F824100AFB01710F4A52F82420BE
:100F000001FB0200039000210A4850F82400A0EBE6
:100F100008004346CDE900B002912046DDE90321F7
:100F200000F054F905B0BDE8F08F00006C0000201F
:100F30007400002078000020800000202DE9FE4F82
:100F400004460D4616461F46DDF8309004F0F4FEC8
:100F5000012810D10022192120460CF017FC4B4625
:100F60003A46314628460BF02DFC194A19212046F5
:100F70000CF00CFC2AE0781B00F10108A9EB06003C
:100F8000401C0290204609F0DBFB8246114850F8D5
:100F90002400114951F824100AFB01000F4951F8AF
:100FA000241006FB01510E4A52F8242001FB020BCB
:100FB0000A4951F82410A1EB08010D98CDE9001061
:100FC000424659462046029B00F030F9BDE8FE8FAC
:100FD0003D0F00086C000020740000207800002005
:100FE00080000020F8B504460D4616461F46032033
:100FF0003B46324629460090204600F0BFF9F8BD36
:10100000F8B504460D4616461F4604203B463246B8
:1010100029460090204600F0B1F9F8BDF8B5044625
:101020000D4616461F4602203B4632462946009092
:10103000204600F0A3F9F8BDF8B504460D46164663
:101040001F4600203B46324629460090204600F0CD
:1010500095F9F8BDF8B504460D4616461F46002022
:101060003B46324629460090204600F087F9F8BDFD
:101070001CB511F0E5FE0446002000902346044A0A
:1010800002210190034803F01DFB034908601CBDC9
:1010900075D90108D45F0A08680100201CB511F059
:1010A000CFFE0446002000902346044A022101900E
:1010B000034803F007FB034908601CBD21DA01085F
:1010C0000C600A086C0100201CB511F0B9FE044642
:1010D000002000902346044A02210190034803F0B7
:1010E000F1FA034908601CBDE5DA010844600A080A
:1010F000700100201CB511F0A3FE044600200090F2
:101100002346044A02210190034803F0DBFA034915
:1011100008601CBDADDB01087C600A08740100207A
:1011200010B54FF081510B4800F08AF980B10121D0
:10113000094809F02BFD0021064800F013F94FF093
:101140008151044800F0F4F800200449096808803F
:1011500010BD000040600240005C00402C000020F8
:1011600010B51449144800F06BF910B3002112486F
:1011700000F0F8F80F49104800F0DAF84FF420407A
:101180000E49086007E00D490868411E0B4A1160CE
:1011900008B91FF0F8F90A490A4809F003FD0028C8
:1011A000F1D00121074809F0F1FC00200649096847
:1011B000087010BD20000020706002402800002050
:1011C00004000010005C0040300000202DE9F05FBA
:1011D00007460C4615461E46DDE90B9ADDF82880C9
:1011E000384609F0D1FA83464FF400700E49086082
:1011F0000846C460C563C0F81090C0F840A0C0F8AD
:101200001CB0404666F31F4048640846006840F042
:101210000100086000BF0448006800F001000028D9
:10122000F9D1BDE8F09F000000B002402DE9F04781
:1012300007460C4615461E46DDE90889384609F082
:10124000A3FA82460E480F4908600846C0F8389055
:10125000C463C0F84080C0F834A0304665F31F4036
:1012600048640846006840F00100086000BF054877
:10127000006800F001000028F9D1BDE8F087000007
:101280000002030000B0024010B500F001F810BDEC
:10129000022001498860704700B00240704700009A
:1012A0002DE9F04107460C4615461E4632460B49CD
:1012B00038460AF051FE3246094920460AF04CFEF3
:1012C0003346084A0649054800F00EF832462946DA
:1012D00004480AF041FEBDE8F0810000B01C002087
:1012E000B02B0020B00D002030B50F4C0F4D2C60FE
:1012F0002C46E0606161E26300242C61AC612C64E7
:10130000EC616C626C63012404EB03446C642C4656
:10131000246844F001042C6000BF044C246804F0ED
:101320000104002CF9D130BD0002020000B00240DF
:101330000246094B9A4201D2084801E0064810389B
:1013400001F000531BB1064B0B40C36002E0044B9D
:101350000B40836070470000106402400060024050
:101360007D0F7D0F21B1026842F00102026003E0AF
:10137000026822F001020260704700002DE9F84384
:1013800005460E4614469846089F224606492846BA
:101390000AF0ECFD3B46002231460348009400F081
:1013A00005F8BDE8F8830000B00D002070B5049C7E
:1013B0004FF481350D4E35603546E860E963002510
:1013C000356135643546EA616B63012505EB0445FB
:1013D000756435462D6845F00105356000BF034D45
:1013E0002D6805F00105002DF9D170BD00B0024057
:1013F000F0B505AC70CC4FF48137DFF840C0CCF8C5
:1014000000706746F860F9633A613B640527CCF8E1
:101410001C7067467C6346EA0547CCF84470674613
:101420003F6847F00107CCF8007000BF034F3F68EA
:1014300007F00107002FF9D1F0BD000000B0024015
:1014400030B503460A46002000240B4DAB4201D2C2
:101450000A4901E00849103902F000550DB14C6805
:1014600000E00C68064D2C4004EA02050DB1012095
:1014700000E0002030BD0000106402400060024027
:101480007D0F7D0F2DE9F84305460E46144698461C
:10149000089F00233A46064928460094FFF786FF36
:1014A0002246314602480AF061FDBDE8F88300009B
:1014B000B00D0020074AD0624A1ED2B2012343EA8F
:1014C0000222044BDA611A46D26942F02002DA6144
:1014D0007047000000B002401EB5034601F07F4097
:1014E000B0F17F4F01D118461EBD83F07F400290BE
:1014F00081F07F4001901548154C206002A8E06003
:1015000001A86061C4F83CD04FF4803040EA02602A
:10151000E061C2F1FF00002444EA00600C4C60620C
:10152000002060634FF0011060642046006840F0C6
:101530000100206000BF0648006800F0010000289C
:10154000F9D1009880F07F40CEE700000002020051
:1015500000B0024070B5049C124D134E3560354604
:10156000E8606961EA634FF4803545EA0365F56137
:10157000C3F1FF05002646EA05650B4E756200259E
:101580007563012505EB0445756435462D6845F006
:101590000105356000BF044D2D6805F00105002DE3
:1015A000F9D170BD0002020000B002402DE9F04107
:1015B000044688B0006802F07BFD0690468ED0F8A5
:1015C000885006A802F054FE002D18BF012506F031
:1015D0000106206813F091FC002D18BF00200FD0E9
:1015E0007D4951F820506068002800F0EE80022804
:1015F00000F0CE8005280CD012287DD000F0E8B88D
:10160000002E18BF0120EBD1002814BF02200320B8
:10161000E6E7D5E90123A86A29688DE80F0004F1FF
:1016200010000FC808F042F85FF0000655F82600D9
:1016300006F007FCA169A86A0A1A216901446069D9
:10164000304404F04FF8A169A86A0A1A21690144DC
:10165000E069801B04F046F8E169A86A0A1A61692A
:1016600001442069304404F0D7F9E169A86A0A1AF4
:1016700061690144A069801B04F0CEF9761C022E3A
:10168000D4DBA86A02281BDDA86806F0DAFBE16952
:10169000A86AD4F810C00B1A0CEB00014A1E61694D
:1016A00001440CF1020004F041FAE169A86AA26960
:1016B0000B1A61690144101A401C921E04F036FA9C
:1016C000D5E90301CDE90001E1696069A26901443E
:1016D0004B10A96AD4F810C0521A8C44811C604681
:1016E00003F0F2FED5E90501CDE90001A069AB6A7E
:1016F0006169C21AE06900E019E001444FF0010C91
:101700000CEB6101D4F810C09C44831E604603F0CA
:10171000DBFE686A06F095FBE2696169A369501A0D
:10172000181A401C091D121F04F076F950E02068B9
:1017300002F0BEFC0090B0F88060B0F98280C76C07
:10174000684602F095FD208AB11C0844ADF80800F7
:10175000A08A801CADF80A00A08BA18A401A218BB8
:10176000891B081AC01EADF80C00A08B801EADF8B6
:101770000E00022006F0FCFB384606F08BFB286AC0
:1017800006F05FFB424602A9206A03F0A1FA1FE0BF
:101790006169E0694FF0FF32401AA0F1080102EBE5
:1017A0006106411CA269801B4410A2EB6107E86935
:1017B00006F047FB002E0BDBBA19B91B204603F0DD
:1017C00091FF641C761EF7D502E0206812F0A4FD9C
:1017D00008B00020BDE8F08140290E08044A034902
:1017E000116004490A6B086310467047C804002062
:1017F000E8090020EC09002038B50D46002402F06D
:1018000057FC0090C06B294602F00CFE0546684666
:1018100002F02EFD1DB1284602F04AFC0446204687
:1018200038BD704710B5024600200023102A03D1AE
:101830004FF02044636E0FE0B2F5807F02D10A4C76
:10184000236809E0B2F5805F03D1074C2034236898
:1018500002E0054CD434236803EA01048C4201D031
:10186000002000E0012010BD840000A00021D0E98C
:1018700000231A4383685B1E42EA4312C36842EAAC
:101880004321014A11607047500100A070B5002249
:101890000021002300240568AD00A5F1C045D5F85E
:1018A00040216FF30E02D0E901563543C668354337
:1018B000066935434669354386693543C66935430C
:1018C000066A3543466A35432A43056835B90568D3
:1018D000AD00A5F1C045C5F8402111E03B4D2B6896
:1018E0006FF30E03D0E907563543466A35432B4361
:1018F000364D2B600568AD00A5F1C045C5F8402107
:10190000056875BB314D0835066855F8261001F09D
:101910007041856A2D686D1E866A7668761E45EA76
:101920000616856AAD686D1E46EA0526856AED686D
:101930006D1E46EA0536856A2D8A6D1E46EA054605
:10194000856AAD8A6D1E46EA0556856A2D7E6D1E36
:1019500046EA056529431D4D0835066845F82610F9
:1019600032E0FFE7194D0835066855F8261001F0FA
:101970007041856A2D686D1E866A7668761E45EA16
:101980000616856AAD686D1E46EA0526856A2D8AAB
:101990006D1E46EA054529430C4D08352C6804F0B8
:1019A0007044856AED686D1E2E03856AAD8A6D1ED2
:1019B00046EA05552C434FF02045C5F84841034DF4
:1019C0000835066845F8261070BD0000400100A0EB
:1019D0000449096841EA40014FF02042C2F854111D
:1019E00070470000540100A02DE9F04389B09846EB
:1019F00015460F4606004FF0000423D000F0C8FC47
:101A00000446304600F0A4FC814604F0E3FA03A942
:101A1000304600F05AFF17F0010F17D0BDF91C0037
:101A20008221001B401B401C0096CDE9018123460A
:101A30001A464946FEF7ACFD0446002110F015FC9D
:101A400006F080FD09B02046BDE8F083BDF918001E
:101A500017F0020F284414BF40F202210221E3E7ED
:101A600010B50523FFF7C0FF0446054A0021FEF725
:101A70001BFF0449204612F0ADFA204610BD0000BD
:101A80000565010893DC010810B50723FFF7ACFFDB
:101A90000446054A0021FEF707FF0449204612F0DC
:101AA00099FA204610BD000065660108A9DC01080E
:101AB00010B50823FFF798FF0446054A0021FEF7FA
:101AC000F3FE0449204612F085FA204610BD0000BE
:101AD000E5680108E1DC01082DE9F04744680546A6
:101AE0008EB04FF00008204602F0E2FA0090B0F805
:101AF0007CA0D0F86890D0F88070D0F88860C06D75
:101B0000002818BFD0F80080684602F0B1FB56B13B
:101B100071682846884700281CBF0EB0BDE8F087D2
:101B20003668002EF4D12868172802BFC5F80C903B
:101B30000EB0BDE8F08713DC0F2844D00ADC0B2878
:101B400000F053810D2808BF1AF0080F00F0F6804E
:101B500000F054B9112814D0142870D000F04EB9F8
:101B600026286DD006DC1E286BD0202800F0F080DF
:101B700000F044B92A2818D0B0F5107F2AD000F020
:101B80003DB92046EE6802F093FA0190717A00297F
:101B900004BF317A012905D1B0F87C1041F480717D
:101BA000A0F87C1001A800F0FDB8204602F080FAF1
:101BB0000090E968002912BFC0F88410D0F88400B2
:101BC000E860684649E0B8F1000F1CBF2046C047F6
:101BD00000F014B927462046EE6802F069FA019039
:101BE000B0F87C4001A802F043FBE868002804BF7D
:101BF0000EB0BDE8F087307A20B314F0080F04BFB0
:101C0000384612F08BFA384610F092FC14F0100FA0
:101C100012BF14F4807F0EB0BDE8F087002314F0EB
:101C2000800F1CBF0EB0BDE8F08779483146B0F98F
:101C30000020384612F010FA0EB0BDE8F0870FE031
:101C400018E024E0384602F033FA0190B0F87C1036
:101C500021F48071A0F87C1001A802F009FBEBE7E9
:101C600005A9204600F031FEDDE90612E8680160B2
:101C70004260E1E7E8680228DED10C94E8680D9044
:101C800027200A900AA9A86813F056FBD4E7E86851
:101C9000012819D0002CCFD004F09CF9204602F086
:101CA00007FA0190B0F87C1011F0080F06D021F06F
:101CB0000801A0F87C10204611F0C6FE01A802F031
:101CC000D7FA06F03FFCB7E7384611F035FF58B1B8
:101CD000384612F023FA384611F094FD88B10121FC
:101CE000384610F09AFA0CE0484612F093FA07468C
:101CF000204602F0DDF90090C0F88070684602F0DE
:101D0000B7FAB4B104F066F9204602F0D1F90290B6
:101D1000B0F87C1011F0080F06D141F00801A0F8CE
:101D20007C10204611F090FE02A802F0A1FA06F005
:101D300009FC002F04BF0020E8607DE7E868C06868
:101D400000281FBF007A0028204612F0E7F955E06E
:101D5000EE684EB32146706813F0B8F800282746A5
:101D6000204622D002F0A4F90490B0F87C1011F0C3
:101D7000080F06D141F00801A0F87C10384611F098
:101D800063FE04A802F074FA2146706813F08AF822
:101D900050B1204602F08CF902907168C0F88010B2
:101DA0000DF1080002F064FA28E002F081F90490D5
:101DB000B0F87C1011F0080F06D021F00801A0F84F
:101DC0007C10384611F040FE04A802F051FA21467A
:101DD000306813F067F888B1204602F069F9029084
:101DE0003168C0F8801002A8DCE7204602F060F9F4
:101DF0000090703002F05AF86846D3E72946204632
:101E000010F040F900281CBF284610F0C1FC13E771
:101E10008405002070B588B0B0F908400DF10C0EB3
:101E20000C9ED0F818C045688EE87010B0F812C04B
:101E30000024CDE90014CDF808C0B0F90C10B0F9B9
:101E40001040B0F90EC0B0F90A00194410442346FE
:101E5000624600F003F808B070BD00002DE9FF4FA6
:101E60008BB09946DDE91885DDE91B6792468B4604
:101E70001E9C04F0AFF804F16000444945F480551D
:101E8000CDE90210CDE900854B46524659460B98E4
:101E900010F0C2FB040073D002F00AF93022314680
:101EA000049010F055FA3A4E049A06F1080102F136
:101EB000340E91E80B1F8EE80B1FD6E90A01C2E928
:101EC00015011D9850661A98A2F87C004FF0000882
:101ED000C2F88080C2F86C80C2F888807068D065D3
:101EE00004A802F0C5F905A9204600F0EEFC294837
:101EF00041F28271CDF80C800094CDE90110BDF95A
:101F00001E00BDF91A10BDF91C20401A431CBDF972
:101F10001800121A521C10F07FFB8046706841684E
:101F200020468847204602F0C3F80490C0F8688035
:101F300004A802F09DF942F20400054204BF2046C5
:101F400010F055FD04F046F8204602F0B1F800907C
:101F5000006F0190684602F08BF9394601A808F03D
:101F6000A5FA58B1204602F0A3F800900199016744
:101F7000684602F07DF9204611F066FD06F0E2FAAF
:101F800006F0E0FA0FB02046BDE8F08FD91A00083D
:101F900084050020892C00082DE9F041044698B002
:101FA000006800F0BDF9002814BFDB4DDB4D606810
:101FB000152802BFA86A18B0BDE8F08112DC0B2812
:101FC0002AD007DC002800F09281052800F02C813F
:101FD00000F09DB90E2800F07781122800F03B81B7
:101FE00000F095B9162802BFE86918B0BDE8F08185
:101FF000172802BF286A18B0BDE8F081182802BF70
:10200000686A18B0BDE8F0811C2802BF686918B082
:10201000BDE8F08100F07BB920680E901C200F9085
:10202000206802F045F80390016D0EA88847064627
:1020300003A802F01DF9022E11DBD5E90001AA6800
:102040000292CDE90001D4E904023346A16907F008
:102050002BFA20698719A069A0EB06082CE02868F4
:1020600005F0EFFE2169E8690844421E606903F04B
:1020700039FBA269E869101A411C606903F032FB60
:102080006069471C3946206903F086FB3946A06920
:1020900003F082FB686805F0D4FE20693946401CD5
:1020A00003F07AFBA0693946401E03F075FB2069F6
:1020B000871CA069A0F10208286805F0C2FE42460C
:1020C0003946606903F00EFB686805F0BAFE606986
:1020D00042463946401C03F005FB686A02287DDD54
:1020E000A86805F0AEFE60696A6A811C1044431E50
:1020F0004246384603F01AFD6069022EACBF064422
:10210000861CE069471E286805F09BFE3A4631466A
:10211000206903F081FC3A463146A06903F07CFC5B
:10212000E069871E686805F08CFE20693A463146F2
:10213000401C03F071FCA0693A463146401E03F092
:102140006BFCE8690228DCBF286A022820DDA86A47
:102150000228C7BFE1690F1AE069871EA86805F069
:1021600070FEE969022907DD22693B46901C114493
:102170004A1E314603F0DAFC286A022808DDA1690C
:10218000E8698A1E081A3B463146401C03F0CEFC23
:10219000286805F056FED4E90620216903F0A2FA6A
:1021A000686805F04EFEA069421E2069411CE06986
:1021B000401E03F097FAA86A02284BDD21698E1CA5
:1021C000A1698F1EE169081A441CA1F10208A868E0
:1021D00005F037FE43463A46214600E003E030462C
:1021E00003F0A4FC93E0296AB14285DD6069022E08
:1021F00000F10208ACBF871947462069ACBF3044E4
:10220000801C22693B461144A1F10102414603F0C2
:102210008DFCA069022EACBF821B821EE9693B4681
:10222000401A4146401C65E7208A00B2ADF818000C
:10223000A18A09B2ADF81A10228B12B2ADF81C2097
:10224000A38B1BB2ADF81E30D5E9034CCDE9004C91
:1022500003F03AF95BE0208A298B0844ADF81800B6
:10226000A08AADF81A00208B298B401AADF81C000B
:10227000A08BADF81E00206801F01AFF0390006FDC
:10228000F0B1022005F074FE039991F87C00C0F3D0
:10229000C00001EB8000006C05F0D3FD0398406B9B
:1022A00005F0F8FD0398006F01F002FF03990A9012
:1022B000B1F95A2006A902F00BFD0AA801F0D8FFD7
:1022C00003A801F0D5FF22E0208AADF81800A08A0B
:1022D000ADF81A00208BADF81C00A08BADF81E00E5
:1022E000A86805F0AEFD06A803F04CFC0FE02068DE
:1022F00001F0DEFE0390B0F85A1041F00C01A0F896
:102300005A1003A801F0B4FF206812F005F818B0C5
:102310000020BDE8F0810000C8050020F405002081
:1023200038B505004FF0000410D003F053FE2846E6
:1023300001F0BEFE009090F87C0010F0080F18BF6E
:102340000124684601F094FF06F0FCF8204638BDF1
:1023500038B505004FF0000411D003F03BFE2846CD
:1023600001F0A6FE0090C06D00218068026828463A
:1023700090470446684601F07BFF06F0E3F82046EC
:1023800038BD000001484069704700008C050020FE
:1023900030B587B005004FF0000414D003F01AFEEA
:1023A00001A9284600F091FA284601F081FE00902C
:1023B000B0F95440684601F05BFF002C08BFBDF93E
:1023C000044006F0BFF807B0204630BD002808BF23
:1023D00070472DE9F04184B0064603F0FBFD30461E
:1023E00001F066FE0190304601F062FE009090F828
:1023F0007C1011F0400F3ED0B0F90610B0F9022069
:10240000891A4C1CB0F97A10B0F97600081A451CEC
:10241000684601F02DFF2A1B0021304611F080FC98
:10242000304601F045FE0090806E12F00BF80098E7
:10243000C06E12F007F8304600F0EBFB009808255C
:10244000B0F87C1021F04001A0F87C10C46994B170
:10245000204601F02DFE0290204610F09AFDA84281
:1024600004BF204611F0F0FA0298046A02A801F0B5
:10247000FFFE002CECD1684601F0FAFE019890F8BE
:102480007C1011F0800F07D001A801F0F1FE04B01C
:10249000BDE8F04106F056B8806901F009FE0290EF
:1024A000D0E90074806938B90AF000FB60F30F04CA
:1024B0000AF040FB60F31F4402A801F0D9FE019826
:1024C0004FF00708D0E90012C0E91D12B0F87C10E7
:1024D00041F08001A0F87C10C56995B1284601F053
:1024E000E7FD0090284610F054FD404504BF284603
:1024F00011F0AAFA0098056A684601F0B9FE002DAD
:10250000ECD101A801F0B4FE3A1439B215460F46D9
:10251000304611F064FBC5EB2440421C20B2C01BC6
:10252000411C304611F058FF304600F072FBAEE718
:10253000002808BF70472DE9F04188B0064603F037
:1025400049FD304601F0B4FD0590304601F0B0FD84
:10255000019090F87C1011F0800F31D0D0E91D145B
:102560000A1409B215460F46304611F038FBC5EB88
:102570002440421C20B2C01B411C304611F02CFFED
:10258000304600F046FB01980725B0F87C1021F09A
:102590008001A0F87C10C46994B1204601F088FD48
:1025A0000090204610F0F5FCA84204BF204611F030
:1025B0004BFA0098046A684601F05AFE002CECD1F0
:1025C00001A801F055FE059890F87C1011F0400F1D
:1025D00007D005A801F04CFE08B0BDE8F04105F0B9
:1025E000B1BFB0F90610B0F90220891A01F1010853
:1025F00000F00FFA01460598C26A126801EB420129
:102600008F1CD0E90012C0E91D12806E11F008F98C
:102610000598C06E11F004F905980825B0F87C10F3
:1026200041F04001A0F87C10C46994B1204601F04B
:102630003FFD0290204610F0ACFCA84204BF2046AB
:1026400011F002FA0298046A02A801F011FE002CAF
:10265000ECD105A801F00CFEA7EB080200213046E2
:1026600011F05EFB304600F0D4FAB5E7002808BF51
:102670007047F0B585B0054603F0ACFC284601F084
:1026800017FD009090F87C1011F0400F3ED0B0F98B
:102690000610B0F90220891A4C1CB0F97A10B0F972
:1026A0007600081A461C684601F0E2FD321B002144
:1026B000284611F035FB284601F0FAFC0090806EA8
:1026C00011F0C0FE0098C06E11F0BCFE284600F06C
:1026D000A0FA00980826B0F87C1021F04001A0F87C
:1026E0007C10C46994B1204601F0E2FC01902046C0
:1026F00010F04FFCB04204BF204611F0A5F901983C
:10270000046A01A801F0B4FD002CECD1684601F088
:10271000AFFD284601F0CCFC019090F87C1011F040
:10272000800F31D0D0E91D140A1409B217460E46A5
:10273000284611F054FAC7EB2440421C20B2801BFB
:10274000411C284611F048FE284600F062FA019824
:102750000725B0F87C1021F08001A0F87C10C46936
:1027600094B1204601F0A4FC0090204610F011FC2A
:10277000A84204BF204611F067F90098046A684631
:1027800001F076FD002CECD101A801F071FD05B03F
:10279000BDE8F04005F0D6BE064A0549074B11607A
:1027A000054AD16958601B68C2E90630084670477F
:1027B000BC050020880500208C050020B405002001
:1027C0002DE9F04383B00D46064603F003FC002ECE
:1027D00034D0304601F06CFC0190C16D00248F684C
:1027E00090F8321011F0200F06D0B0F954401CB907
:1027F000406B03F03FFB841C0198456301A801F086
:1028000037FD3A6801213046904780463B680321F6
:10281000304698478146D7F800C000213046E0474F
:102820000546304600F0F5F94B4642462146304613
:10283000009500F06DF9304611F006F905F082FEC2
:1028400003B0BDE8F083002808BF704730B583B0FF
:102850000D46044603F0BEFB204601F029FC009023
:10286000006F0190684601F003FD294601A807F0BA
:102870001DFE58B1204601F01BFC00900199016734
:10288000684601F0F5FC204611F0DEF805F05AFE2E
:1028900003B030BD002808BF704738B50C46054668
:1028A00003F098FB284601F003FC0090B0F95A10A1
:1028B000A14204D0A0F85A40284611F0C5F8684655
:1028C00001F0D6FC05F03EFE38BD2DE9F04F0027A3
:1028D0008DB00C468146BA4601F0EAFB0190C06D0E
:1028E0000121856848462A68904780462A68032166
:1028F0004846904707902A6802214846904706902C
:102900002A680021484690470646019812F02EF9A1
:102910000590019812F031F98346019890F8321031
:1029200001F02001002918BFB0F958A04FF00005B0
:1029300006D0B0F954501DB9406B03F09BFA851CCA
:102940000198C06E10B110F001FD07462580678028
:10295000A4F8048007990598401A06EB0A01401E66
:10296000294420813944E1800699ABEB0101491EDD
:102970006181A4F80C8020827019E681401E60827B
:1029800001A801F075FCB4F90C70B4F910604D4663
:10299000484601F08DFB0690C16DD0F8008006A876
:1029A000D1F8089001F064FCD9F8002000212846F5
:1029B00090478146284610F0BEFA050024D001F069
:1029C00077FB0790B0F900200FFA88F1B0F90430D6
:1029D000521A5B1AB0F90210A1EB284149450BD1FC
:1029E00090F8280010F0800F03D09642A8BF561E22
:1029F00002E09F42D8BF5F1C07A801F039FC2846BF
:102A000010F05DFB0500DAD1A78126820DB0BDE88C
:102A1000F08F10B50146002091F8322012F0200FFF
:102A200008BF10BDB1F95400002818BF10BD486B95
:102A300003F020FA801C10BD70B58AB00E46044623
:102A400001F036FB0990C06D856809A801F010FC03
:102A50000094002E08BF18200BD0012E08BF1620AE
:102A600007D0022E08BF152003D0032E08BF172061
:102A700000D101906968684688470AB070BD2DE9A9
:102A8000F04383B017468846814601F011FB009061
:102A9000C16D056868468C6801F0EAFB2268002178
:102AA000484690470646484610F045FA040004BFE1
:102AB00003B0BDE8F08301F0FBFA0190B0F900101B
:102AC0002AB2B0F90430891A9A1AB0F90230A3EB8D
:102AD0002543B34211D190F8280010F0800F05D0A3
:102AE00038688842A4BF481E386006E0D8F8000065
:102AF0009042DCBF501CC8F8000001A801F0B8FBF0
:102B0000204610F0DCFA0400D5D103B0BDE8F08314
:102B10002DE9FF4F85B09A4691460F46DDF848B043
:102B2000059801F0C5FA0390C16D8C68FFF771FF3D
:102B3000064603A801F09CFB2268012105989047F6
:102B40000290226803210598904701902268002195
:102B5000059890470546BE4204BF0298484506D1F5
:102B60000198504502BF5D4509B0BDE8F08FA6EB66
:102B700007044FF00007B846059810F0DCF906008E
:102B800004BF09B0BDE8F08F0198A5EB0B05AAEBD7
:102B9000000A0298A0EB0909304601F089FA00907A
:102BA000806A10F0800F03D010F4007F06D025E07B
:102BB00010F4007F22D010F0800F1FD124B12246E4
:102BC0001146304611F0ACF8009890F8280010F04B
:102BD000800F06D004FB17A12A4630467F1C11F057
:102BE0001BF80098008D10F4007F07D004FB0891BB
:102BF0002A46304608F1010811F00EF8684601F047
:102C000037FB304610F05BFA0600C5D109B0BDE8CD
:102C1000F08F70B586B0064601F04AFA0590D0E90B
:102C20001A4505A801F024FB54EA050004BF06B0CC
:102C300070BD69463046FFF748FEACB1BDF90620CD
:102C4000BDF90410204610F093FFBDF90A00BDF94C
:102C50000610401A421CBDF90800BDF90410401AC4
:102C6000411C204611F0B8FB002D04BF06B070BD1A
:102C7000BDF90600BDF90210421ABDF9041028463C
:102C800010F076FF06B070BD2DE9F04304464068B1
:102C900089B0054610F020FA814601F009FA029049
:102CA000D0F88080876C466E02A801F0E1FA2068B7
:102CB000172862D008DC0E2850D00F2816D0142810
:102CC00018BF152859D052E01E2829D01F283ED001
:102CD000222802BFE76009B0BDE8F083312801BFB8
:102CE0000020E06009B0BDE8F08340E06FF0704084
:102CF000874204D038460AF0FDFC01F075FC002E36
:102D000004BF09B0BDE8F083D4E902122068CDE920
:102D10000405CDE9061204A8B04709B0BDE8F08368
:102D2000E068002804BF09B0BDE8F083B8F1000FE7
:102D300018BFA84505D0404611F0F0F909B0BDE82C
:102D4000F083284611F066FA09B0BDE8F083214609
:102D500048460FF097F909B0BDE8F083E068416894
:102D6000002904DD00680928EBD00A280BD0002ECA
:102D70001CBFC4F804902046CED120460FF008FDB9
:102D800009B0BDE8F083284611F08EFA09B0BDE81D
:102D9000F08300002DE9F84F0F46DDF82890064635
:102DA000941BA3EB0708D9F800504FF0000A54EA2F
:102DB000080063D0002CD4BF60422046B8F1000F59
:102DC000CCBF4146C8F1000188420ADA2046444699
:102DD000804630463E46074610461A4603464FF0A8
:102DE000010A002CCCBF20466042A04208BF01204F
:102DF00008D03046164602466442C8F100081F4615
:102E00004FF0FF300090C448C449B8F1000FD0F82B
:102E100000C01CBF04EBD4724FEA620BB8BFCBF109
:102E2000000B30D09CF81A20002A00F0FA80009A9B
:102E3000002ABCBF2A19C9F800200025002CC0F2C6
:102E4000458100BF08FB05B090FBF4F0C219D9F82A
:102E5000001000980844B049C9F8000009688B7E4A
:102E6000012B00F00081022B00F00781032B00F002
:102E70000D81042B00F03A8100F019B93046BDE80D
:102E8000F84F00F08DBABAF1000F62D09CF81AC06A
:102E9000BCF1000F14D04FF00008002CA4BF8A46EC
:102EA000834640DBDBF8001028466D1C8A7E012A31
:102EB0000CD0022A14D0032A1BD0042A35D027E0D4
:102EC00031463846BDE8F84F09F04ABC801DC217AC
:102ED00000EB127222F00F02801A0C281FDB17E0A1
:102EE000C21700EB927222F00302801A022816DB4E
:102EF0000EE08AFB0032D310A3EBE272524202EBE7
:102F0000820200EB82000C2809DB1038022806D36D
:102F1000496E06EB08004A6801463846904708F1BA
:102F20000108A045BEDD681EDCE07D4A82FB003260
:102F30009310A3EBE272A2EB820200EBC2000C281A
:102F4000EDDBA0F11002022A24BF14380228E6D3D8
:102F5000DEE79CF81A80B8F1000F14D04FF000089B
:102F6000002CA4BF8A46834642DBDBF800102846CB
:102F70006D1C8A7E012A0FD0022A17D0032A1ED088
:102F8000042A3AD02AE0DCF864003946036801B02C
:102F90003046BDE8F04F1847801DC21700EB127293
:102FA00022F00F02801A0C281EDB17E0C21700EB7C
:102FB000927222F00302801A022815DB0EE08AFBCF
:102FC0000032D310A3EBE272524202EB820200EB1A
:102FD00082000C2808DB1038022805D3496E06EB66
:102FE00008004A683946904708F10108A045BCDD51
:102FF000681EC9F80000BDE8F88F494A82FB00321C
:103000009310A3EBE272A2EB820200EBC2000C2849
:10301000EADBA0F11002022A24BF14380228E3D30D
:10302000DCE70025002CACBF8146BDE8F88F00BF6F
:1030300008FB05B090FBF4F03844BAF1000F0AD059
:10304000D9F800207119526E526890476D1CA54244
:10305000EEDDBDE8F88FD9F800107319496E4A68A3
:1030600001461846F1E7801DC31700EB137323F0E8
:103070000F03C01A0C2825DB19E0C31700EB93736C
:1030800023F00303C01A02281CDB10E0234B83FB50
:1030900000C34FEAE30CACEBE3735B4203EB830347
:1030A00000EB83000C280DDB103802280AD3496E90
:1030B000BAF1000F06EB05004B680EBF1146014642
:1030C000104698476D1CA5427FF7BCAE00980028BB
:1030D00004DAD9F800002044C9F80000D9F800103B
:1030E0000098081AC9F80000BDE8F88F0C4B83FB64
:1030F00000C34FEAA30CACEBE373A3EB830300EB39
:10310000C3000C28DEDBA0F11003022B24BF14380F
:103110000228D7D3CBE70000C802002067666666A6
:10312000ABAAAA2A2DE9F047DFF86892804684B05E
:10313000D9F800000F460C99007E1D46164601285E
:1031400000F0CE80A8EB060C7C1B5CEA040104BFF7
:1031500004B0BDE8F087421E0021BCF1000FBCBFE7
:103160000121CCF1000C002CBCBF41F002016442F3
:10317000644504DD20466446844641F00401A00213
:103180000CEBDC7300EB630090FBFCF08010824CD6
:103190004FEA201C00F00F0034F81C30C0F1100082
:1031A00013FB00F3102807D004EB4C0CC0F1100007
:1031B000BCF802C01CFB003303F10800C31700EB8E
:1031C0001370001111F0040F18BFC0F5806011F0EA
:1031D000010F18BFC0F5006011F0020F18BFC0F555
:1031E000805000F5806100F50060C0F30B004FF0E7
:1031F000000AB0F5006FC4BF4FF0010AA0F50060EF
:10320000B0F5806FC8BFC0F500604FEAA01C634BEB
:1032100000F03F00C0F1400033F81C404443402818
:1032200018BFBCF1100F07DA03EB4C0CC0F14000E3
:10323000BCF802C00CFB004404F120008009BAF184
:10324000000F18BF404200FB02FC0024C1F30B003A
:10325000B0F5006FC4BF0124A0F50060B0F5806F29
:10326000C8BFC0F50060811100F03F00C0F1400010
:1032700033F811A040280AFB00FA18BF102906DA1B
:1032800003EB4101C0F14000498801FB00AA0AF1AB
:1032900020008009002C18BF404200FB02F1BCF165
:1032A000000FB4BFCCF500700CF500704FEAA02001
:1032B000B8BF40420029BDBFC1F500718912C1F1FC
:1032C000000C01F50071A8BF4FEAA12C00280FDD0A
:1032D000411C01EBD171491000EBD07042100EE09F
:1032E000009139464046FFF755FD04B0BDE8F08730
:1032F00000EBD071401E491000EBD0704210BCF1C1
:10330000000FC6BF0CF1010000EBD0700CEBDC70BD
:103310004FEA6000CEBF0CEBDC73ACF1010303EBB2
:10332000D3735B1008EB010CADF800C007EB000C89
:10333000ADF802C0A8EB020CB21AADF804C0ADF8AB
:1033400008203144A7EB030CEA1AADF80C1028440E
:10335000ADF80A20ADF80E000023ADF806C01A46FD
:103360000421684600F08EF8D9F80020404639461E
:10337000527E002A08BF00F013F83046D9F800202A
:103380002946527E002A08BF00F00AF804B0BDE8C2
:10339000F0870000C80200200A2D0E08E82C0E0855
:1033A000064A13681A7E012A05D0521E02EBD27219
:1033B000521000F005B85A6E52681047C80200203B
:1033C0002DE9F84F06460F4640F2C32050434FF414
:1033D0007A7190FBF1F000F1010A02FB02F002EBBE
:1033E000D271DFF89C8000EB61000090D8F80010EB
:1033F00014463244496E301B0B6839469847012504
:10340000BAF1010FB8BFBDE8F88F00BF05FB05F0AA
:1034100004FB0400009988421ADD544517DDD8F8F2
:10342000003006EB050BA6EB05095B6EABF1010264
:1034300039191B6809F101009847D8F80030ABF141
:103440000102391B5B6E09F101001B689847641E7D
:10345000D8F80030321979195B6E301B93461B681F
:1034600081469847D8F800305A46791B5B6E48462B
:103470001B6898476D1CAA45C8DABDE8F88F0000A4
:10348000C80200202DE9FF4F83B0074643F6FF74C2
:10349000C4F1000090460E1E0090C4BFBA1C08463E
:1034A0000EDD00BFB2F90010A142D8BF0C46009B50
:1034B0009942D8BF19460091401E02F10402F1D191
:1034C0008C490868406970B1B0F90630069A9B1AB9
:1034D000009A9342C0F20281B0F90230069A9A1A19
:1034E000A24200F3018100988442D2BFA6F10109F3
:1034F00007B0BDE8F08F00207F490546002E086028
:10350000C4BF069804EB000A7EDD4D45B4BF6A1CBB
:10351000002207EB850C07EB8201BCF90200B1F930
:103520000230A04255D1A34213D137F925005146AC
:1035300000EB080337F922006E4A404483421268C8
:10354000526ED2F800C0BABF024618461A46E0478B
:1035500087E000222946B9F1000F0CDD002914BFD5
:10356000491E711E07EB8100B0F90200A04203D191
:10357000521C4A45F2DB2046A04272D0001B37F9AC
:1035800025101A1B90EA020F09D45A4A01EB0800D1
:1035900051461268526E13680246984761E0DFF8A0
:1035A00058B1DBF800C0BCF10C0F5ADA0020BCF1B6
:1035B000000FC4BF6046514A4CDD00BF02EB400320
:1035C00033F9023C8B4245DB22F81030401EF5D126
:1035D00040E0A34245D0A8BF844203DAA042A8BF7E
:1035E0009C423EDB98424EDC0246A042DFBF1846BA
:1035F0008442BCF90030B1F9001032DCA1EB030CBD
:10360000A11A0CFB01F100E02FE00029A0EB020C55
:10361000CEBF01EB6C01A1EB6C01491C801A91FB40
:10362000F0F0DFF8D4B0C118DBF800C0BCF10C0F2B
:1036300017DA0020BCF1000FC4BF60462F4A09DD35
:1036400002EB400333F9023C8B4203DB22F81030DB
:10365000401EF5D1294A22F810100CF10100CBF8D8
:1036600000006D1CB542FFF650AF069800252044BF
:1036700001902148AB4601680029C4BF1F49B1F938
:1036800000A022DD18E01A46A342DEBF8442B1F951
:103690000030BCF90010B1DDE3E7184931F91BA097
:1036A00055B108EB000C134808EB0A0201990068B9
:1036B000406E0368604698470F490BF1010B85F097
:1036C0000105096850465945E7DC0098641C8442AE
:1036D0007FF711AF07B0BDE8F08F00BFB0F906303B
:1036E000069A9A1A0092F7E6B0F902200698141A80
:1036F000F9E60000C8020020940C0020A040002041
:1037000070B52048046802F065FC204609F0F2FF1D
:1037100004F018FF1C48046802F05CFC20460AF024
:1037200023F804F00FFF012502F054FC174C206829
:10373000057604F007FF02F04DFC20680025858522
:1037400004F000FF02F046FC2068458504F0FAFE14
:1037500002F040FC28460AF035F804F0F3FE0C486D
:10376000056802F037FC2068002D18BFC56104F021
:10377000E9FE002502F02EFC20688576BDE8704049
:1037800004F0E0BEC4020020C0020020C8020020F5
:10379000BC020020F0B50A4600210023002400BF2F
:1037A0003DE0012505FA01F3156805EA03049C4292
:1037B00034D105684F000326BE40B5430560157936
:1037C0004E00B5400668354305601579012D02D0DD
:1037D0001579022D16D185684F000326BE40B543EA
:1037E000856055794E00B5408668354385604568EB
:1037F00001268E40B5434560456896798E40B6B245
:1038000035434560C5684F000326BE40B543C560DB
:10381000D5794E00B540C6683543C560491C1029AE
:10382000BFD3F0BDF0B5002300244D07ED0E02FA22
:1038300005F3CE1000F1200555F826504E07F70E7F
:103840000F26BE40B543CF1000F1200646F82750A2
:10385000CE1000F1200555F8265045EA0304CE109D
:1038600000F1200545F82640F0BD418370470183F3
:1038700070470AB1018300E041837047014AC2E901
:10388000000170476C020020014AC2E90001704744
:1038900074020020014AC2E900017047840300203D
:1038A000014AC2E9000170477C020020014AC2E9D6
:1038B000000170478C0300202DE9F04F4B4989B07F
:1038C0000968B1F922200692D1F81CC0B1F9247020
:1038D000DCF81C40A28982429CBFE389984205D84B
:1038E000A0EB02094FF0FF38266812E0D4E901622C
:1038F000002A71D0138883429CBF5588A8426BD898
:10390000C01A526880B202EB8000B0F90090B0F9A2
:103910000280B9F1FF3F5FD09CF81800A27C10FB39
:1039200002FB94F810A00790B1F92A50284609F03C
:1039300049FFC0B208902D4809FB0B620068A37CC8
:103940004FF00109816BCDE90293CDE90421C069F3
:103950005246C17E807ECDE90001DDE9060339468D
:1039600008F08CFCB8F1FF3F18D045F0020009F0D8
:1039700029FF1E48A37C08FB0B620068816BCDE920
:103980000293CDE90421C0695246C17E807ECDE913
:103990000001DDE90603394608F070FC134E30687B
:1039A000C069417E007E814213D9022D11D085F07D
:1039B000040009F007FF3068C069017EC27E11FB78
:1039C0000271427ED319827E06981AFB020208F029
:1039D000F9FE089809F0F6FE0448627C0068418C04
:1039E0001144418409B0BDE8F08F0000C8020020F6
:1039F000044800290068C069C0691CBF027C0A60D5
:103A0000407C7047C8020020022008807047C069CF
:103A100082898A429CBFC289914210D9806880B154
:103A200002888A429CBF438899420AD8406800EBCA
:103A30008100A0EB8200B0F90000002801DB01202A
:103A400070470020704700002DE9F043394D0246D1
:103A500087B02868B0F92A60C069C169104600299A
:103A600004BF07B0BDE8F0830B8883429CBF4B883E
:103A7000984205D989680029F6D107B0BDE8F083DE
:103A8000002904BF07B0BDE8F08348680988511ACF
:103A900000EBC1043046A77809F094FE8046286800
:103AA00062680123816BCDE90237CDE90421C16948
:103AB000CB7E8A7ECDE900230B7EB0F924102278DC
:103AC000B0F9220008F0DAFB2868C069417E027E66
:103AD00091421FD9C07E11FB00F912FB00F7022EA4
:103AE00018D002F012F9064602F0D8F804F0A9F94D
:103AF00029682278CB69B1F92200DB7E12FB030230
:103B0000B1F9241001EB0903394408F05BFE30469B
:103B100004F097F9404609F055FE28686278C369B9
:103B2000B0F922109B7E12FB0311418407B0BDE85F
:103B3000F0830000C802002010B404461548006855
:103B4000D0F81CC02046DCF81C2002B31388834246
:103B50009CBF5388984203D99268002AF6D116E098
:103B6000AAB110885368221A012000EBC2009CF809
:103B70001AC0185C10FB0CF0002904BF10BC704781
:103B800013F8322012FB0CF20A6010BC704710BC14
:103B900000207047C8020020012008807047C069DB
:103BA00068B102888A429CBF4288914203D98068EA
:103BB0000028F6D103E000281CBF01207047002038
:103BC000704700002DE9F047DFF8A480DFF8A4A0DB
:103BD0004FF00009D8F80840002CC4BFD8F8106096
:103BE00000251DDDD8F81000C5EB051700EBC70058
:103BF0007022001DDAF80010FCF792FB46F8789B63
:103C0000D8F8100005F1010500EBC70000F10C0128
:103C10008161011D0A1DC0E90F124164641EE1D1DA
:103C2000D8F808000024002810DD00BF04F0A9FC2B
:103C3000D8F81020C4EB041152F83110814206D09C
:103C400081B1D8F80800641C8442EFDB4C46D8F8F8
:103C50001010C4EB041001EBC000001DCAF80000F6
:103C6000BDE8F087C4EB041142F83100EFE7000033
:103C700040090020C802002070B51B49194808609F
:103C8000084606F0D1FB194CA068C0EB0010C50037
:103C9000284600F071F9164B20612A461B68002166
:103CA00098474FF0FF30206004F098FCA068002592
:103CB0000028D8BF70BD00BF04F063FC2269C5EBCB
:103CC000051152F83110814208BF70BD21B16D1C41
:103CD000A0688542F0DB70BDC5EB051142F83100EC
:103CE00070BD000069B5010854090020400900209A
:103CF000F0080020002904BF002070472DE9F041A2
:103D00000F46804602F066F902F064F9384611F079
:103D1000AFFC044604F016FC002C2FD01A4D3A4696
:103D2000E869401CE861686B00EBC4000178491C3D
:103D300001700421686B01EBC401B8F1000F405819
:103D400000F1080605D0114B414630461B689847E4
:103D500004E00F4B002130461B68984756F8081CBA
:103D6000686B00EBC1000178022904D3E9690029DE
:103D70001CBF491EE9610178491E017004F0E2FB95
:103D80002046BDE8F08100000C3E0020F408002031
:103D9000F0080020002808BF704710B5044602F064
:103DA00019F9204611F064FC044604F0CBFB2046D0
:103DB00010BD00002DE9F041074602F00BF9002F7D
:103DC00008BF002430D002F005F9384611F050FC4D
:103DD000044604F0B7FB002C26D0164D164B3A468D
:103DE000E869401CE861686B00EBC4000178491C7D
:103DF00001700421686B01EBC4011B68405800216D
:103E000000F108063046984756F8081C686B00EB2E
:103E1000C1000178022904D3E96900291CBF491EA9
:103E2000E9610178491E017004F08CFB2046BDE871
:103E3000F08100000C3E0020F0080020024A1060D3
:103E400021F0030050607047CC3E0020002808BFDE
:103E5000704770B5044602F0BDF80C4D042000EB2D
:103E6000C406696B8959486811F090FB6868401C6A
:103E70006860696B686A8851696B002001F83400DA
:103E80006C62BDE8704004F05DBB00000C3E002099
:103E9000002808BF7047044AD16B0160002918BF91
:103EA0004860D063704700000C3E00202DE9F041CF
:103EB000064602F08FF834680027C4B102F08AF891
:103EC0000D4D042000EBC408696B51F808104868D8
:103ED00011F05CFB6868401C6860696B686A41F8B7
:103EE0000800686B00F834706C6204F02BFB3760DC
:103EF000BDE8F04104F026BB0C3E00202DE9F05F48
:103F00000F1E81464FF00005C6BFDFF868804FF0F6
:103F1000000ABDE8F09F00BF09EB850602F05AF8E1
:103F20003468F4B102F056F80420D8F8341000EBED
:103F3000C40B51F80B10486811F028FBD8F80400A6
:103F4000401CC8F80400D8F83410D8F8240041F810
:103F50000B00D8F8340000F834A0C8F8244004F06E
:103F6000F1FAC6F800A004F0EDFA6D1CBD42D3DBF7
:103F7000BDE8F09F0C3E00202DE9F041044616F00C
:103F80004DFEE01C274E20F00300051D306CA842BA
:103F900088BF0546F46BBCB154F8041CA94210D18B
:103FA0009CB1206800281CBF6168416060680028DF
:103FB0001CBF21680160F16BA14204BF2068F0635F
:103FC0002DE02468002CE7D10024F168B06B00EBF1
:103FD000010858F8040CA8EB0007386840B100202D
:103FE00018F080FE58F8040CA8EB00073868B0B948
:103FF0007868A84213DB3844401B041D384618F08B
:1040000043FEF068401BF060706928447061786876
:10401000401B1CBF394611F0B9FA44F8045C204635
:10402000BDE8F0810C3E002010B5002416F0F6FD2E
:104030000D490F2001EBC002526C8AB101EBC000A8
:10404000406C806848B14168A14288BF0C468068D6
:1040500000281CBF80680028F5D1A4F10C0010BD19
:10406000401EE7D5F9E700000C3E00200348006839
:104070000C380028D8BF0020704700000C3E0020FC
:10408000002140B10549042202EBC000496B0858E9
:104090004068A0F10C010846704700000C3E00206B
:1040A00002488169491C8161704700000C3E002074
:1040B0000849CA69521CCA614A6B02EBC0021378F4
:1040C0005B1C1370496B042202EBC00008580830D7
:1040D000704700000C3E00202DE9F05F0E00054601
:1040E0004FF0000808BF474674D001F073FF304618
:1040F00011F0BEFA074604F025FA002F18BF002D74
:1041000068D0364C4FF0040909EBC50A606B50F8D3
:104110000A004068A0F10C00B042B8BF064601F0AA
:1041200059FFE0692E4B401CE061606B324600EBAA
:10413000C7000178491C0170606B09EBC701415849
:1041400000EBC50001F1080BE169491CE161017850
:10415000491C0170606B1B6850F80A0000F10809E7
:104160004946584698475BF8081C606B00EBC10055
:104170000178022904D3E16900291CBF491EE161CD
:104180000178491E017059F8081C606B00EBC100F2
:104190000178022904D3E16900291CBF491EE161AD
:1041A0000178491E017001F015FF606B50F80A108C
:1041B000486811F0EBF96068401C6060616B606AF0
:1041C00041F80A00606B00F83580656204F0BAF9C6
:1041D00004F0B8F93846BDE8F09F00000C3E00201E
:1041E000F408002010B501F0F5FE002416F016FDCD
:1041F000194B1A490F2000BF01EBC002526CE2B10B
:1042000001EBC000406C8068C8B14268A24288BF20
:104210001446806800281CBF80680028F5D1A4F1EE
:104220000C00B0F5800F0DD983FB00204211096A04
:10423000A2EBE07000FB01F409E0401EDCD5A4F124
:104240000C00F1E7096A4843A3FB0010440904F09D
:1042500079F9204610BD00001F85EB510C3E00206F
:1042600002488169491E8161704700000C3E0020B0
:104270000A4902684B6B52F8082C03EBC202137810
:10428000022B04D3CB69002B1CBF5B1ECB611178C2
:10429000491E117000210160084670470C3E002045
:1042A0000349042202EBC000496B085808307047EC
:1042B0000C3E00202DE9F0414FF0000682B00B4685
:1042C0005FEA000834462BD032B111461846FFF79A
:1042D00011FD060008BF01244046FFF7E9FE0090EB
:1042E000078845686846FFF7C3FFCCB9B800011DD1
:1042F0002846FFF7F1FE050016D0FFF7D9FE019022
:1043000040F8276001A8FFF7B3FF4046FFF7D0FE53
:10431000009045600188491C01806846FFF7A8FFAE
:1043200002B02046BDE8F0813046FFF78FFD012442
:10433000F6E70820FFF73EBD002808BF704730B5FC
:1043400083B00546FFF7B4FE00904068D8B1FFF790
:10435000AFFE0190009800240088002809DD019834
:1043600000EB8400FFF7A2FD0098641C0088A042C7
:10437000F5DC01A8FFF77CFF0098001DFFF796FD14
:104380000099002008806846FFF772FF2846FFF773
:104390005DFD03B030BD30B583B00C46FFF788FE3D
:1043A00000900188A1422CD9456855B301F012FE56
:1043B0002846FFF77DFE019000EB8400FFF776FDB5
:1043C00000990888401E80B20880011B002913DD77
:1043D000019811F0010F00EB840003D050F8042F76
:1043E00040F8042C491007D0426840F8082B491EB9
:1043F000026840F8042CF7D101A8FFF739FF04F058
:10440000A1F86846FFF734FF03B030BD38B500248B
:1044100030B1FFF74DFE009004886846FFF728FF93
:10442000204638BD30B583B00C46002590B1FFF76B
:104430003FFE00900188A14209D9406838B1FFF7DA
:1044400037FE019050F8245001A8FFF711FF68468D
:10445000FFF70EFF03B0284630BD30B583B00D46E0
:104460000024B8B1FFF724FE00900188A9420ED9BC
:10447000406860B1FFF71CFE019050F8255001A87C
:10448000FFF7F6FE280002D0FFF712FE044668464A
:10449000FFF7EEFE03B0204630BD00002DE9F043EB
:1044A000002483B01E4690460D4600283BD0FFF7FF
:1044B000FFFD0190B0F80090476801A8FFF7D8FE13
:1044C0004D4530D27FB33846FFF7F2FD009050F8EB
:1044D00025406846FFF7CCFE24B12046FFF7D0FD0B
:1044E000B04211D03046FFF765FC04001BD03846BF
:1044F000FFF7DEFD00EB850500902846FFF7D6FCB0
:1045000068462C60FFF7B4FEB8F1000F0BD02046D0
:10451000FFF7CEFD064B029032461B684146984796
:1045200002A8FFF7A5FE03B02046BDE8F083000017
:10453000F408002070B514460D46064601F04AFD09
:10454000204601F0EFFB0300164804EB840109D07C
:1045500050F8210041688068711A2A1A184603F041
:10456000C7FC1AE000EB8104A268B24214BF01222A
:104570000022E368AB4214BF012300231A430CD08E
:10458000236943B150F82100816840686A1A311AE2
:10459000184603F0D3F8C4E90265BDE8704003F0A3
:1045A000D1BF000060400020C2B2CBB2D21A48BFD7
:1045B000524292B202FB02F3C0F30722C1F3072C6E
:1045C000B2EB0C0248BF524292B2000CA0EB114079
:1045D00002FB023200B20028BCBF404200B280B2EF
:1045E00000FB0020704700002DE9F041002182B05F
:1045F000084601F055FC43F6FF76374601F0EAFC29
:10460000042009F0DFF8804612484069C16C006D53
:104610008D1B841B0E440744ADF80050ADF80460B8
:10462000ADF80240ADF80670684610F0ADFA48B13A
:104630003B4632462146284608F0C4F810F0CAF836
:104640000028F5D1404609F0BDF803F07BFF02B029
:10465000BDE8F081B40200202DE9F04182B01C4693
:1046600017460D46064601F0B5FC042009F0AAF8ED
:10467000804613484169C86C096D064407440D44DF
:104680000C44ADF80060ADF80470ADF80250ADF820
:104690000640684610F078FA48B123463A46294663
:1046A000304608F08FF810F095F80028F5D1404614
:1046B00009F088F803F046FF02B0BDE8F081000081
:1046C000B40200202DE9F8431C00DDE908981646E5
:1046D0000F46054602D10EF0B3FB04460096D5F80E
:1046E00000C043464A4621462846E047061E08BF0A
:1046F000BDE8F8830EF097FB8146698A30460DF0DD
:104700008CFD30460FF09EFE48460FF09BFE7F1E4C
:10471000002FC8BF4FF000080FDD00BFCDF80080AC
:1047200055F81CCF00231A4649462846E04718B3DF
:104730000FF088FE7F1E002FF0DC1D2148460FF091
:1047400021FCB4F1FF3F14D001F044FC0EF000FC5A
:1047500040B100BFFFF7A4FD8469B44218BF5FEA0F
:104760000400F7D1B4421CBF30460FF053FD03F0F4
:10477000E9FE3046BDE8F88330460EF043F80020ED
:10478000BDE8F8830249496A002908BF7047084715
:10479000B4020020022BA4BF002070472DE9F04195
:1047A00006461C4615460F461C20FFF7E5FB002871
:1047B00008BFBDE8F081002F18BF07610BD10A4A7E
:1047C00052F8241039B10A681AB111461268002A49
:1047D000FBD109690161846185820021016041602A
:1047E000C0E90216BDE8F081F40200202DE9F04195
:1047F00000241D46074688461646022B27DA1C2051
:10480000FFF7BAFB18B3B8F1000F18BFC0F810805B
:104810000BD1104A52F8251039B10A681AB1114665
:104820001268002AFBD109690161856186820460F2
:104830004460C0E90247040009D000F011F8E068C4
:10484000006820B90448006800EB850084652046B4
:10485000BDE8F081F4020020C8020020FFF718BB79
:1048600000281CBF8369022BA4BF01207047234A84
:10487000591C92F800C08C45B8BF117010B4204C80
:1048800054F82310002908BF44F8230030D04A68A8
:104890002AB111465268002AFBD100292BD0C268E8
:1048A000D2F800C0CA681268624503DD09680029B1
:1048B000F8D120E0F9B1CA681268624504BF828A63
:1048C000012A08D10A682AB11146D26812686245E5
:1048D000F8DA00E079B14A68002A1DBF10604A6822
:1048E000426044F823004860884208BF002101600C
:1048F00010BC0020704710BC012070471A03002034
:10490000F4020020002808BF704770B4244D254CE5
:10491000D0F800C000281CBF8669022E3ADA2A7837
:10492000711C8A42B8BF297054F82610002908BFAC
:1049300044F826002ED04A6822B111465268002A57
:10494000FBD139B3C2681268CB681B68934203DDA0
:1049500009680029F8D11DE0E1B1CB681B689342DA
:1049600004BF838A012B08D10B682BB11946DB6881
:104970001B689342F8DA00E061B14A68002A1DBF63
:1049800010604A68426044F826004860884208BFC8
:10499000002101605FEA0C00BAD170BC70470000D2
:1049A0001A030020F40200200D4B8269002153F805
:1049B00022C0844507D1D0F800C043F822C0026865
:1049C000002A18BF51604268002A1CBF03681360A8
:1049D0000268002A1CBF4368536001604160704751
:1049E000F40200200020704702280BDA064A52F831
:1049F000200038B1C26812688A4208BF7047006858
:104A00000028F7D100207047F40200200228A4BF3C
:104A100000207047064951F82000002808BF704761
:104A2000C168096800291CBF00680028F8D17047D8
:104A3000F4020020F8B5074614460D460C20FFF797
:104A4000B9F906000FD001F0C5FA3046FFF730FB88
:104A500006490090C0E90017058144816846FFF7C8
:104A600007FC03F06FFD3046F8BD000058480E0803
:104A7000002808BF70472DE9F8431E4617468846B0
:104A80000446FFF715FB0090006805686846FFF7CD
:104A9000EFFB33463A4641462046A847BDE8F88337
:104AA00038B504004FF0000008BF38BD2046FFF7BE
:104AB000FFFA0090006845686846FFF7D9FB20467A
:104AC000A84738BD38B504004FF0000008BF38BD16
:104AD0002046FFF7EDFA0090006885686846FFF70A
:104AE000C7FB2046A84738BD2DE9F047044603F030
:104AF0004FFD00EB0408174FDFF85C901EE000BF8D
:104B000000F0D2FF38688642C8BF064601F062FA5C
:104B1000D9F80040FFF7C4FA250017D003F012FDC2
:104B20006D1EFBD1304603F021FD1CB101F052FA9D
:104B3000641EFBD1FFF794FB03F004FD03F028FD96
:104B4000A8EB0006002EDBDCBDE8F087304603F062
:104B50000DFDEFE7800300204C090020002808BF6E
:104B600070472DE9F04F83B0054601F033FA01F0AC
:104B7000EFF83C4C80462068B0F9227001F058F9FB
:104B800082462068818CA1EB0A0181842878002864
:104B900018BFA8F1010946D047F6FF71284605F075
:104BA000A7FA83460146284605F068FA21680646BA
:104BB00091F82C0000F00300012808BF304605D012
:104BC000022812BF002006EBD67040104A8C101A43
:104BD0004884ADF80000721E1044ADF80400888CC3
:104BE000ADF802004844ADF806006A46594628462A
:104BF00003F008FF2168BDF8020088845946284662
:104C000003F074FB054428780A2818BF0D2817D034
:104C1000BDF80000216830444884287818B115F8A0
:104C2000010F0028B8D12068818C51448184818D86
:104C300021F00301818503F085FC03B0BDE8F08F0E
:104C4000206890F82C1001F0030101291DBF0229F2
:104C5000018C4184478429780A29DED1818C414422
:104C60008184DAE7C802002070B514460D46064676
:104C700001F0B0F90548016830464D848C84FFF797
:104C80006DFFBDE8704003F05DBC0000C80200206D
:104C90002DE9F0410D4F0646154638680C46B0F92F
:104CA0002C0040F0020003F053F9804601F092F925
:104CB0003868448485843046FFF750FF03F042FC97
:104CC0004046BDE8F04103F043B90000C8020020AF
:104CD0002DE9F04182B006000D46174647F6FF78F1
:104CE0004FF0000404BF02B0BDE8F08101F072F99A
:104CF00065B128460FF096FB040007D0024629460E
:104D0000684605F06EFA68460FF08CFB43463A465B
:104D10002946304603F068FF20460FF083FB03F07E
:104D200011FC02B0BDE8F0812DE9FF4F85B09A4635
:104D3000129E93460C46002E48D00027B946009795
:104D4000019701F047F9ACB161682068CDE9000135
:104D50002148DDE900120160426020460FF062FB4D
:104D6000070007D00246214602A805F03AFA02A839
:104D70000FF058FB01F02EF9DFF86480174DD8F8DA
:104D800000002C68C0F814902E6003F0DBFB716803
:104D90006846884753465A466946059803F024FFFB
:104DA00038460FF03FFB01F015F9D8F80000002C51
:104DB00012BFC0F8149000F1080141612C6003F0AB
:104DC000C1FB03F0BFFB09B0BDE8F08F059809B047
:104DD000BDE8F04F00F006B80C09002020030020C9
:104DE000C80200202DE9F04182B01F4690460D46D2
:104DF00006004FF0000404BF02B0BDE8F08101F0EE
:104E0000E9F865B128460FF00DFB040007D0024613
:104E10002946684605F0E5F968460FF003FB3B4676
:104E200042462946304603F0DFFE20460FF0FAFAEC
:104E300003F088FB02B0BDE8F081002808BF70478E
:104E40002DE9FF4F87B093460E46054601F0C2F8A4
:104E50003468776821B238B2401A401C029000F0E2
:104E600077FF82461BF00C0F2FD0029801900A9812
:104E7000A8464FF00009009001F0ACF8DDE90021F0
:104E8000404605F075FB8044002818BF09F1010970
:104E9000F4D103F057FB0BF00C00042818BF0828CE
:104EA00002D00C2805D010E0381409FB1A00401C71
:104EB00009E02114C1EB274009FB1A00401C00EB5C
:104EC000D07001EB600060F31F4430460FF0AAFA87
:104ED0005FEA000909D0CDE904470246314604A83B
:104EE00005F07FF904A80FF09DFAAAF10108284601
:104EF0000A9A029905F07EFB039008EB244060F3C8
:104F00001F47CDE900472846039905F0B7F81BF085
:104F1000030108BF30880ED001290FD0022912D119
:104F2000B6F90420B6F90010521A101A401C00EB12
:104F3000D07001EB6000ADF8000004E0B188081A01
:104F4000401CADF800006A462846039903F05AFD5C
:104F500028460A9A029905F00BFB05440AEB244007
:104F600060F31F4428780028C1D148460FF05AFA50
:104F700003F0E8FA0BB0BDE8F08F00002DE9F04F28
:104F800089B015460E46044601F024F8364F3868BD
:104F9000C16C006D0E4405442088711E0844ADF8B4
:104FA0001860ADF81C006088691E0844ADF81E004A
:104FB000ADF81A5006A80FF0E7FD00281CBFDFF877
:104FC000ACB04FF0010A42D00020D4F80C9002F0AF
:104FD00055FF8046B9F1000F1BBF99F80400002867
:104FE00028F0020048F0020002F048FF206970B18A
:104FF000D4E902120091CDE9012ACDF80CA0D0F835
:1050000000C06388228829463046E04718E03868A7
:10501000DBF800302146427CE0689847E0B1A28886
:10502000E388A168CDF800A0CDE90410CDE90232F3
:10503000CDF804A0638822882946304607F01EF97F
:10504000404602F01BFF0FF0C5FB0028BCD103F067
:1050500079FA09B0BDE8F08FE088012812BF00207E
:105060003868806BDBE70000C8020020B80200202F
:1050700010B50A4682B00146684605F0C7F900F04F
:10508000A9FF2B48BDF800100068B0F84C2011446F
:10509000ADF80010BDF80210B0F850201144ADF882
:1050A0000210BDF80410B0F84C201144ADF8041003
:1050B000BDF80610B0F850000844ADF80600684688
:1050C0000FF062FD78B300BFBDF90040BDF90400E8
:1050D000A0420EDBBDF90210204607F009FBBDF926
:1050E0000610204607F004FBBDF90400A41CA042F2
:1050F000F0DABDF90240BDF90600A0420FDB00BFA7
:10510000BDF90000214607F0F3FABDF9040021467D
:1051100007F0EEFABDF90600A41CA042F0DA0FF089
:1051200059FB0028D0D103F00DFA02B010BD0000E9
:10513000C80200202DE9FF4FA3B01C4615460E46BD
:10514000074600F047FF70480168D1F84CC00CEBEF
:1051500007002390096D881924900CEB0500259019
:10516000081926902398ADF868002598ADF86C00D2
:105170002498ADF86A002698ADF86E001AA80FF0D2
:1051800003FD002800F0BA8025992398091A319868
:105190000391C1B23098C0B2091A1C9103994843D7
:1051A000109001EBD1700C9030983199C0F307202A
:1051B000C1F30721091A19910399484311903098B6
:1051C0003199C0F30740C1F30741091A1D910399B2
:1051D0004843129030983199000EC0EB11611E9136
:1051E0000399484313902498029023980890269896
:1051F00001902598DDE9304506904448049000F080
:1052000084FD1F90AC4209D1204608F0ADFADDE9DB
:105210000131069A089807F0D5FA66E0039F012647
:10522000002F65D01C991791109A0C99089C02EBDD
:10523000610B199A1692119A02EB610A1D9A159246
:10524000129A02EB61091E9A1492139A02EB6108FA
:1052500006998C4242DC00BF9BFBF7FC9AFBF7F3FC
:10526000179999FBF7F28B441699149D8A44159966
:105270004CEA0323894498FBF7F1A84443EA02422D
:1052800042EA016508998C4214DD854208BF761C0C
:1052900010D008F069FA012E06DDDDE90131A01B0E
:1052A000621E07F08FFA04E0DDE90121049B601E15
:1052B000984701260699641C28468C42CCDD08F0EC
:1052C00053FA0698012E0CDD811B01F1010CDDE97A
:1052D00001310246604607F075FA06E008F044FA2C
:1052E0000698DDE90121049B98471F9808F03CFAD5
:1052F0000FF070FA00287FF476AF00BF03F022F9B8
:1053000027B0BDE8F08F0000C802002061C7000888
:105310002DE9FF4FA3B01C4615460E46074600F088
:1053200059FE6748D0F800C0DCF84C10C81923902B
:10533000DCF85020901924904819259010192690D7
:105340002398ADF858002598ADF85C002498ADF886
:105350005A002698ADF85E0016A80FF015FC00283C
:1053600000F0A88026992498081A22903198C0F35A
:10537000072021903198C0F3074020903198000E0B
:105380001F903298C0F307201E903298C0F3074058
:105390001D903298000E1C90309840431B9023982B
:1053A0001090DDE924800E90DDE9315445480290EB
:1053B0000120DDF898A0309E1A9000F0A6FC19900C
:1053C0002298401C012814BFA0F101094FF00109E7
:1053D000E8B20D9021980C9020980B90DDE91D30DB
:1053E000DDE91B2104F0FF0CDDF87CB0444611928E
:1053F000D04557DC0D9AACEB020215920C9A801A3C
:1054000013900B98181A1290A1EB0B00CDF85000D6
:10541000A4EB0805B542B8BF701B05DBAAEB04007E
:105420008642C8BF301A07DD30B1119900FB101059
:1054300005F05EF9371A00E0002715980D996843CA
:1054400090FBF9F00844C2B21398684390FBF9F15D
:105450000C980844C1B2129842EA0121684390FBBB
:10546000F9F30B981844C3B2149841EA0341684316
:1054700090FBF9F0584441EA006008F075F91A9879
:1054800000280E98A0EB0702109804D0029B384425
:105490002146984703E0C119029B20469847641CA7
:1054A0005445B5DD199808F05FF90FF093F900281D
:1054B0007FF475AF03F046F827B0BDE8F08F000029
:1054C000C80200208DC600082DE9FF4FA3B01C467E
:1054D00015460E46074600F07DFD80480168D1F86C
:1054E0004CC00CEB07002390086D811924910CEB44
:1054F00005012044CDE925102398ADF86800ADF8EA
:105500006C1026982499ADF86E00ADF86A101AA8B0
:105510000FF03AFB002800F0DB8026992498081A47
:1055200002903198C2B23098C1B2501A1C900298C1
:1055300048431090029800EBD0700F903098C0F361
:1055400007213198C0F30720401A19900298484368
:1055500011903098C0F307413198C0F30740401ACA
:105560001D900298484312903098010E3198C1EB7B
:1055700010601E900298484313902398039024983B
:105580000790259801902698DDE93045059054480C
:1055900004900120209000F0B8FB1F90AC4207D18E
:1055A000204608F0E1F8059B019A0799039879E0F5
:1055B000029F0125002F6ED01C991791DDE90F1273
:1055C00002EB610B199A1692119A079C02EB610A81
:1055D0001D9A1592129A02EB61091E9A1492139A5F
:1055E00002EB610805998C4251DC00BF9BFBF7FC84
:1055F0009AFBF7F3179999FBF7F28B441699149ECF
:105600008A4415994CEA0323894498FBF7F1B04486
:1056100043EA024242EA016607998C4216DD86425D
:1056200008BF6D1C12D008F09FF82098012D23DDD3
:1056300000281FBF611B631E019A039801BF601BF6
:10564000019B621E039907F0BDF801250599641CB2
:1056500030468C42CADD08F087F805982099012D64
:1056600023DD0029A0EB050116D00346491C019A51
:10567000039807F0A7F823E0019A002819BF611EDC
:10568000DDE90303601EDDE903139847DDE708F059
:105690006BF805980FE016E001F1010C0246604638
:1056A000019B039907F08EF80AE0002904BF019AD4
:1056B000DDE9031303D00146DDE90303019A9847AE
:1056C0001F9808F051F80FF085F800287FF455AFC7
:1056D00002F038FF27B0BDE8F08F0000C8020020BC
:1056E0008DC60008F0B583B015460E46074600F09B
:1056F00071FC114C2168C86C096D064405440F44C7
:10570000ADF80060ADF80450ADF80270ADF8067069
:1057100068460FF039FA50B120682A463946406E83
:105720000368304698470FF055F80028F4D102F08E
:1057300009FF03B0F0BD0000C80200202DE9F043CE
:1057400083B01C4615460E46074600F043FC114840
:105750000168C86C096D074405440E440C440020E0
:105760000FF012FA00281CBF4FF000080DF10409D9
:105770000BD0CDE90098384631462A462346FDF73E
:10578000D1FC0FF027F80028F3D103B0BDE8F043B7
:1057900002F0D8BEC802002070B582B00D460646A1
:1057A00000F018FC0F4C2068C16C006D0E440544DD
:1057B000ADF80460ADF80060ADF80650ADF80250E9
:1057C00068460FF0E1F948B120682946406E42680A
:1057D000304690470EF0FEFF0028F5D102F0B2FEF1
:1057E00002B070BDC80200202DE9F04182B0984699
:1057F00017460D46064600F0EDFB1E480468207E65
:10580000216DA0F1010CE06C0D4406440744A6EBA9
:105810000C00ADF8000007EB0C00ADF80400A5EBA0
:105820000C0001EB0804ADF8020004EB0C00ADF82D
:10583000060068460FF0A8F9B8B13A462946304646
:1058400006F024FF3A462146304606F01FFF621E4E
:10585000691C304606F084FF621E691C384606F05B
:105860007FFF0EF0B7FF0028E7D102F06BFE02B019
:10587000BDE8F081C80200202DE9FF4F99B01C4619
:1058800015460E46074600F0A5FB62480268D16C3B
:10589000C8191990126D90191A9048191B90101977
:1058A0001C901998ADF850001B98ADF854001A9848
:1058B000ADF852001C98ADF8560014A80FF064F92A
:1058C00000287DD01C991A98081A401C10901B992A
:1058D0001998081A401C0F9026981A994043169060
:1058E00026980844139019980790DDE91A600690ED
:1058F00026981099DDF870800090B1EB400F7FDBA7
:1059000000990F98B0EB410F7ADB16980E90139820
:105910000F464FF0FF3935460D9086424EDC084663
:105920000799084406991290C81B11900E9807FB1E
:10593000170004F0DDFE04461299A81BA1EB040B2E
:105940001199A8EB0000A4EB090901EB040A0490EB
:10595000B9F1010F1CDD0BEB0900421E179029461F
:10596000584606F093FEAAEB090909F101005246D8
:10597000294606F08BFE17980499421E584606F0F9
:1059800085FE09F101005246049906F07FFE0FE002
:105990002946584606F0ACFE2946504606F0A8FEB9
:1059A0005846049906F0A4FE5046049906F0A0FE5D
:1059B0000D986D1C7F1EA146A842B7DA009900E041
:1059C00023E00698441A0798621E4518681C314661
:1059D00006F05CFE621E681C414606F057FE009809
:1059E000A8EB00040D98621E411C079806F0B8FE53
:1059F0000D98621E411C069800E001E006F0B0FE22
:105A00000EF0E8FE00287FF46EAF02F09BFD1DB0A3
:105A1000BDE8F08FC802002070B582B014460D4674
:105A2000064600F0D7FA10480068C16C006D0E44BD
:105A300005440444ADF80060ADF80460ADF80250D0
:105A4000ADF8064068460FF09FF840B1224629465F
:105A5000304606F085FE0EF0BDFE0028F6D102F0BD
:105A600071FD02B070BD0000C802002030B585B0E5
:105A70000D4600210191029103912A2100910446D3
:105A800069460EF06FFA039A002A1CBF0120C2E992
:105A9000000500F09FFA20460EF0FCFD05B0BDE8C1
:105AA000304002F04FBD00002DE9F0411C4E0025B2
:105AB0002C46306818B18047002818BF01240CF02C
:105AC000ABFF002818BF0124164F386818B1804773
:105AD000002818BF0124DFF85080D8F80000002803
