:020000040800F2
:10000000F04B0020C101000815860108CF0200084E
:1000100011860108DD1300082FB901080000000057
:1000200000000000000000000000000037AF0108E1
:10003000AD330008000000001B02000825B10108D4
:10004000DF010008DF010008DF010008DF01000810
:10005000DF010008DF010008DF010008DF01000800
:10006000DF010008DF010008DF010008DF010008F0
:10007000DF010008F5280008DF0100083529000825
:10008000DF010008DF010008DF010008DF010008D0
:10009000DF010008DF010008DF010008DF010008C0
:1000A000DF010008DF010008DF010008DF010008B0
:1000B000DF010008DF010008DF010008DF010008A0
:1000C000DF010008DF010008DF010008DF01000890
:1000D000DF01000871B60108DF010008DF01000838
:1000E000DF010008DF010008DF010008DF01000870
:1000F000DF010008DF010008DF010008DF01000860
:10010000DF010008DF010008DF010008DF0100084F
:10011000DF010008DF01000895B40108DF010008D5
:10012000DF010008712A0008DF010008DF01000874
:10013000DF010008DF010008DF010008DF0100081F
:10014000DF010008DF010008DF010008DF0100080F
:10015000DF010008DF010008DF010008DF010008FF
:10016000DF010008DF010008DF010008DF010008EF
:10017000DF010008DF010008DF010008DF010008DF
:10018000DF010008DF010008DF010008DF010008CF
:10019000DF010008DF010008DF010008DF010008BF
:1001A000BD510108DF0100085D2A0008DFF80CD00E
:1001B00000F0C6FC004800471F0D0008F04B00206F
:1001C000074880470748804707480047FEE7FEE7A3
:1001D000FEE7FEE7FEE7FEE7FEE7FEE7FEE7FEE7F7
:1001E00049B10108319D0108AD010008EFF310800D
:1001F00072B6704780F310887047434A1368012B2A
:1002000004D04FF001031360404A1060404A11606F
:1002100040484FF0805101607047EFF3108272B692
:100220003948016851B34FF0000101603748016857
:1002300091B1EFF309811EF0100F08BF21ED108B73
:1002400021E9F00F4FF000041EF0100F08BF012449
:1002500041F8044D006801602D490968096808C922
:10026000B1E8F00F002B18BFB1EC108B81F30988B7
:100270004EF0100E002B18BF2EF0100E82F31088D7
:100280004EF0040E704722490860EFF3148222F00A
:10029000040282F314881D494FF0000008601A49D7
:1002A0004FF0010008601C484FF47F01D0F8002097
:1002B00041EA0201016017484FF080510160174880
:1002C0000068006880F3088861B662B670471EF067
:1002D000040F0CBFEFF30880EFF3098020E9F00F63
:1002E00040F804ED40F804ED1EF0040F0CBF80F35D
:1002F000088880F3098800B541F09AF95DF804EBAD
:100300004EF0040E70470000CC020020C402002012
:10031000C802002004ED00E020ED00E008ED00E060
:1003200010B5441A0346944209D28418114403E0DC
:1003300011F8013D04F8013D521EF9D210BD40EA0A
:100340000104A40703D009E010C9121F10C3042A36
:10035000FAD203E011F8014B03F8014B521EF9D217
:1003600010BDD2B201E000F8012B491EFBD270474C
:100370000022F6E710B513460A4604461946FFF771
:10038000F0FF204610BD30B505462A460B4612F850
:10039000010B13F8014B08B1A042F8D01CB10028A2
:1003A00002D06D1CF1E7284630BD10B5044604E0CC
:1003B0000B7800F8013B03B1491C521EF8D22046CD
:1003C00010BD421C10F8011B0029FBD1801A704798
:1003D00010B5002200E0521C835C8C5CA34201D16A
:1003E000002BF8D1D8B2E1B2401A10BD30B50446A6
:1003F0000020034600E05B1C934203D2E05CCD5C2E
:10040000401BF8D030BD034611F8012B00F8012B3A
:10041000002AF9D11846704770B506462EF028F923
:10042000046805460A220021304600F0A5FA2C6037
:1004300070BD2DE9FE4F804681EA0300C00F0C46D7
:10044000009021F0004123F00045B8EB0200A941E3
:1004500005D24046214690461C460B46024623F0F4
:100460000040104347D0270DC7F30A00C3F30A51D9
:100470000290401A019040286BDAC3F3130040F455
:10048000801B0098924620B10023D2EB030A63EB55
:100490000B0B01985946C0F14002504600F03BFA60
:1004A00006460D4650465946019A00F053FA10EBA5
:1004B00008006141002487EA115284EAE7731A4375
:1004C00040D0009A62B3019A012A4FEA075215DC24
:1004D000001B61EB02014FF0004202EA0752CDE936
:1004E0000042001C41F5801132462B4600F0C2FA52
:1004F00003B0BDE8F08F40462146F9E7001B61EBF1
:100500000201001C41F5801300185B412018A2F580
:10051000001747EB030140EAD570B6196D4111E0B1
:100520006D084FEA360645EAC0754FEA0752001BD0
:1005300061EB0201001C41F5801149084FEA3000CF
:100540000019514132462B4603B0BDE8F04F00F090
:1005500082BA0098012240000023D0EB020263EB34
:10056000E073009821464FEAE074B8EB000061EBBD
:100570000401E9E783F000435BE781F0004158E7BD
:100580002DE9FE4F81EA030404F0004421F000410C
:1005900000944FF0000B23F0004350EA01045ED0BA
:1005A00052EA03045BD0C3F30A54C1F30A552C4446
:1005B000A4F2F3340194A0FB0254C1F3130141F4FB
:1005C0008011C3F3130343F4801301FB024400FBC7
:1005D000034E840A970A44EA815447EA8357A4FBEE
:1005E000076802958D0A05FB07854FEA932C04FBEB
:1005F0000C542705029D4FEA065847EA1637B5EB1B
:1006000008056EEB070C870E920E47EA811742EA47
:100610008312A7FB0201B6EB0B0164EB00042B0D68
:1006200043EA0C335E1844EB1C50DA465146E7FBB4
:100630000201C5F313044FEA0B3343EA14534FEAA4
:100640000432019C43EA0603A4F10C040294009CCA
:10065000CDE900B400F00EFA03B0BDE8F08F002041
:100660000146F9E72DE9F04D81EA030404F0004B5F
:1006700021F0004514464FF0000A23F0004150EAF3
:10068000050220D054EA01021DD0C5F30A570246E4
:10069000C5F31303C1F31300C1F30A5640F48015E8
:1006A00043F48013A7EB0608101BD64608F2FD386A
:1006B00073EB050002D308F1010801E092185B41D9
:1006C000B8F1000F03DA00200146BDE8F08D0020EC
:1006D0004FF48011064684460EE0171B73EB0507A6
:1006E00005D3121B63EB050306434CEA010C4908D2
:1006F0004FEA300092185B4150EA0107EDD152EA0F
:10070000030012D082EA040083EA0501084305D001
:10071000101BAB4106D20122002306E000224FF05D
:10072000004302E06FF0010253101AEB06004CEB9D
:10073000085110EB0A0041EB0B01BDE8F04D00F051
:100740008AB90EB5C10F80EAE0700844CA070021DB
:1007500040F233438DE80E000A460B4600F08AF95A
:1007600003B000BD0EB540F2334102910021CDE946
:1007700000110A460B4600F07DF903B000BD70B5CC
:10078000C1F30A5201F000450024C1F3130140F205
:10079000FF3341F480119A4201DA002070BD40F22B
:1007A00033439A42A2F2334203DC524200F0C2F8D1
:1007B00000E090402C43F1D0404270BDC1F30A529A
:1007C00010B5C1F3130140F2FF3341F480119A4296
:1007D00001DA002010BD40F233439A42A2F23342C4
:1007E00003DC524200F0A6F810BD904010BD00F0AE
:1007F000004230F000400AD0C10D01F56071C0F335
:10080000160042EA0151C208400711437047002018
:100810000146704730B5041E71F1000404DB4FF04F
:100820000044404264EB0101141E73F1000405DB37
:100830001C464FF00043524263EB04038B4208BF57
:10084000824230BD30B5041E71F1000404DB4FF06C
:100850000044404264EB0101141E73F1000405DB07
:100860001C464FF00043524263EB0403994208BF19
:10087000904230BD01F0004330B421F0004150EA15
:10088000010206D00A0DA2F56072C1F31301002A1D
:1008900002DC30BC00207047440F44EAC104C100B0
:1008A000E01830BC00EBC25000F09EB8A0E8004F4A
:1008B000F0C040F804DB01B5AFF30080BDE80240B2
:1008C00001C10020704700F12C080C4658F8040DB7
:1008D000AFF3008058F8040D8546200008BF0120C2
:1008E00038E9F00018E9004F704730B50B46014673
:1008F00000202022012409E021FA02F59D4205D3BF
:1009000003FA02F5491B04FA02F52844151EA2F168
:100910000102F1DC30BD202A04DB203A00FA02F1AA
:10092000002070479140C2F1200320FA03F31943DD
:1009300090407047202A04DB203A21FA02F000217F
:10094000704721FA02F3D040C2F1200291400843DF
:1009500019467047202A06DBCB17203A41FA02F0ED
:1009600043EAE07306E041FA02F3D040C2F120020C
:1009700091400843194670472DE9F04791460F46CC
:1009800080460446002614F8015B2DB100F0EAF819
:100990000068405DC007F6D12B2D02D02D2D18D058
:1009A000641E4A463946204600F0E0F827B139680F
:1009B000A14201D1C7F8008071054FF002040BD5A8
:1009C0004042002803DD2DF053FE0460A007BDE87F
:1009D000F08746F48066E4E70028F8DA2DF048FE58
:1009E00004606FF00040F2E70029A8BF7047401C88
:1009F000490008BF20F00100704710B4B0FA80FC35
:100A000000FA0CF050EA010404BF10BC704749B171
:100A1000CCF1200421FA04F411FA0CF118BF0121E1
:100A200021430843A3EB0C01CB1D4FEA00614FEAC1
:100A3000102042BF002010BC704700EBC350104490
:100A40000029A4BF10BC7047401C490008BF20F01B
:100A5000010010BC704710B5141E73F1000408DAD1
:100A6000401C41F1000192185B411A4301D120F072
:100A7000010010BD2DE9F04D92469B4611B1B1FA2F
:100A800081F202E0B0FA80F220329046FFF743FF95
:100A900004460F4640EA0A0041EA0B0153465A4613
:100AA000084313D0114653EA010019D0C8F140029F
:100AB0005046FFF73FFF05460E4650465946424610
:100AC000FFF729FF084305D0012004E020463946FE
:100AD000BDE8F08D0020054346EAE0762C4337431D
:100AE0000A986305E40AA0EB08000022FD0A44EA24
:100AF00047540A3002D500200146E9E701051019E4
:100B00006941DDE9084500196941BDE8F04DA2E7FA
:100B100070B521F0004303430CD0C1F30A55002403
:100B2000D5EB040564EB0403D617AD1AB34102DB21
:100B30000020014670BD201841EB025170BD00003D
:100B4000064C074D06E0E06840F0010394E807001A
:100B500098471034AC42F6D3FFF72CFBD4001108B1
:100B6000140111080048704794FD10082DE9F05F4A
:100B700082460078002715468B460AF10104B946E3
:100B8000302801D09DB113E014F8010B012778281B
:100B900003D0582801D045B10AE00DB1102D07D17E
:100BA0000027102514F8010B02E0082500E00A25B3
:100BB0000026B0460EE005FB080005FB06F1012704
:100BC00001EB10461FFA80F8B6F5803F00D3B94616
:100BD00014F8010B294600F069F80028EBDABBF1A4
:100BE000000F05D00FB1641E00E05446CBF8004062
:100BF000B9F1000F06D02DF03BFD02210160C81EA7
:100C0000BDE8F09F48EA0640FAE72DE9F04D0023E1
:100C10001A461B1A8A4103DB00200146BDE8F08D0D
:100C2000C1F30A52C1F3130141F480154FF0000BD8
:100C3000D10702D100186D41521E0027044640F230
:100C4000FF11384601EB620A3E468046024600200C
:100C50004FF48011FFF76EFEC2197141BB1846EBCD
:100C60000100B4EB030C75EB000C04D3E41A65EB44
:100C7000000517460E46241908F101006D41804613
:100C80003428E3DDF91946EB0600091BA84103D21D
:100C90004FF0FF32134601E0002213461BEB070022
:100CA00046EB0A51BDE8F04DFFF7D5BE3A2800D219
:100CB000303820F02002412A01D3A2F137008842C7
:100CC00001D34FF0FF30704770B58C1810F8015BFE
:100CD00015F0070301D110F8013B2A1106D110F8D5
:100CE000012B03E010F8016B01F8016B5B1EF9D1D9
:100CF0002B0705D40023521E0DD401F8013BFAE75F
:100D000010F8013BCB1A921C03E013F8015B01F8C9
:100D1000015B521EF9D5A142D8D3002070BD10B599
:100D2000FFF764FA41F09EFF002010BD38B544681B
:100D30000546014620461BF0C8F9002808BF38BD0B
:100D4000464A286811280DD006DC0B282AD00E2828
:100D500038D00F2817D07CE0282873D0B0F5107F4A
:100D60000AD076E09268002A08BF38BD294601B053
:100D70002046BDE830401047526801B02946204661
:100D8000BDE8304010472546204607F0F3F90090B3
:100D9000406E0468684607F0CDFA002C1CBF284658
:100DA000A04738BD204607F0E5F90090683007F00D
:100DB000DFF8009803216C3007F002F9684607F06D
:100DC000B9FA46E0E968486809680D2902D0202987
:100DD00018D037E0002835DD4FF4807120461BF035
:100DE0003FFA204607F0C6F9009090F82850684670
:100DF00007F0A0FA15F0020F1ED0012120461DF0C9
:100E000030FA19E0002817DD25464FF4807120469E
:100E10001BF026FA284607F0ADF9009090F828401C
:100E2000684607F087FA14F0020F08BF38BD0121A9
:100E300028461DF016FA38BD2046BDE8384002218C
:100E400029F09AB9E86820B920464FF480711BF068
:100E5000CDF82846BDE838401BF076BF7C04002062
:100E600070B586B04FF0000CDDE90A450C9ECDE967
:100E700002C5CDE90046CDF810C000F051F806B02B
:100E800070BDF0B585B00AAF97E8701000270497E1
:100E90008DE8701000F044F805B0F0BD70B5044660
:100EA00088B08069B4F908C0658A00260091CDE950
:100EB0000165CDE903C0B4F90C00B4F91050C118B4
:100EC000B4F90A00B4F90EC010442B46624600F093
:100ED00027F86468050020D009F0DEFC284607F0FA
:100EE00049F90190866E01A8009607F023FA214681
:100EF00068460EF0C9FC70B10098B04208D0284690
:100F000007F038F901900099816601A807F012FAFC
:100F100028461DF09DF80CF0BFFA08B0284670BDB9
:100F20002DE9F04F85B09846DDE91164DDE90E57F3
:100F300091468A46834609F0AFFC04F14C001749FC
:100F4000CDE90210CDE9005743464A46514658467E
:100F50001BF03EFE05001BD007F00CF910223146B5
:100F600004901BF06FFB0E4C0499B4E8CD133431A0
:100F7000A1E8CD1394E80D10A1E80D1054F82C0D44
:100F8000086004A807F0D6F9206841682846884719
:100F90000CF082FA05B02846BDE8F08F2D0D000850
:100FA00088040020F0B5044680688C4989B051F867
:100FB00020506068002800F00A81052806D0062825
:100FC0007DD0122800F0B48000F004B9E869002850
:100FD00008BF002651D0D5E90012AB688DE80F009C
:100FE00004F110010FC90DF0F9FC002655F8260098
:100FF0000BF045FEA169E8690A1A2169014460699C
:10100000304408F02DFFA169E8690A1A21690144FA
:10101000E069801B08F024FFE169E8690A1A616948
:1010200001442069304409F0FDF8E169E8690A1AD1
:1010300061690144A069801B09F0F4F8761C022E56
:10104000D4DBA8680BF01BFEE069E969D4F814C092
:10105000431A206942186144801C521E09F06CF941
:10106000E169E869A2690B1A61690144101A401C20
:10107000921E09F061F9EE6911E055F826000BF0B7
:10108000FEFDE069831BA069821B606981192069EC
:10109000304408F067FF761C022EEEDB0226D5E90D
:1010A0000301CDE90001E169606901444B10A169C8
:1010B0008A1B811C2069304408F088FC00E011E0A4
:1010C000D5E90501CDE90001E0696169831E0144AC
:1010D0000122A06902EB6101821B2069304408F003
:1010E00075FC77E0206807F045F8049020681EF052
:1010F00021FB50B1A068002818BF00200AD1049835
:10110000006F002818BF012004E00498406F0028F9
:1011100018BF0220049901EB8000C56E04A807F0F7
:1011200009F900231A462846216807F0D9FE51E044
:10113000206807F01FF80490866E002E08BF04A8F0
:1011400042D0A168B0F95C70002908BF012103D02A
:1011500003290CBF0221002100EB8101406D0C6CC2
:101160000BF0B6FD20460BF08AFD06A809F012FA36
:10117000BDF81810A88B0144ADF81810BDF81C106C
:10118000081AADF81C00BDF81A00801CADF81A0052
:10119000BDF81E00801EADF81E000498B0F9602056
:1011A000B0F95E1006A80AF000FF04A807F0C2F824
:1011B00002200BF035FE304606F0DCFF3A4606A969
:1011C000059008F007F805A807F0B4F802E02068D9
:1011D0001DF030FC09B00020F0BD00005CEC1008F0
:1011E00038B506F0C7FF04460090684607F0A2F83D
:1011F000204638BD70B594460C46054619466046F3
:10120000049A07F02FFE024621462846BDE87040AA
:1012100000F062B8044A0349116004494A6A48620E
:1012200010467047B80400207C0400208804002089
:1012300070B505460C46104600210A4607F032FEFE
:10124000024621462846BDE8704000F045B800003F
:1012500038B50C46054609F01FFB284606F08AFF04
:101260000090064984654166684607F063F82846A1
:101270001CF0EEFE0CF010F938BD0000B8040020A0
:10128000F0B583B00F4605004FF0010421D009F0FE
:1012900003FB284606F06EFF0190866E01A80096BB
:1012A00007F048F8394668460EF0EEFA78B1009833
:1012B0000024B04208D0284606F05CFF0190009957
:1012C000816601A807F036F828461CF0C1FE0CF034
:1012D000E3F803B02046F0BD002808BF7047F8B51A
:1012E00015460C46064609F0D7FA304606F042FF8E
:1012F0000090032C0BD200EB84006C3006F038FE1B
:10130000009800EB8400C56630461CF0A1FE6846DC
:1013100007F010F80CF0C0F8F8BD00002DE9F04718
:1013200007464FF0140838680F2845D126480BF0BF
:101330009BFC07F037FB11F0F5FA24494988A0EB34
:10134000010911F0ABFA21490988A0EB010A09EB68
:10135000D97042100AEBDA7041101C4808F090F87E
:10136000002411F09BFA814600EBD9704010022155
:1013700001FB180085B21CE015480068A04201D1AD
:10138000144800E014480646B6F8029009EBD970FC
:101390004010C0F1FA02B6F800A00AEBDA70A5EB33
:1013A0006001304608F06CF8601C84B205EB080060
:1013B00085B2052CE0DB03E038461BF0C5FC00BF1E
:1013C00000BFBDE8F08700008080FF005CB40B0820
:1013D000B0010020A4B60B0800B50B0800BFFEE763
:1013E0002DE9F04F466804460146CDB030461AF06C
:1013F0006CFE002804BF4DB0BDE8F08FFC4F2068A4
:10140000DFF8F0B30E280FD00F2800F02D82262829
:1014100000F07A83B0F5107F00F0618120461BF068
:1014200093FC4DB0BDE8F08F30461EF083F90028E4
:1014300004BF4DB0BDE8F08F6C2225A930461BF0EB
:101440000FFA2B9828B9DDE92501279A2D92CDE9CD
:101450002B0128992B9888421CBF4DB0BDE8F08F16
:101460002C99299881421CBF4DB0BDE8F08FE068EF
:1014700041680029DCBF4DB0BDE8F08FDDE92C45A7
:101480000068DDF8AC80132808BFE81D17D00CDC1D
:10149000102808BF681E12D0112808BFE81F0ED000
:1014A000122808BF681C0AD00AE0212808BF601E65
:1014B00003D0222808BF601C02D12C9000E02D90A0
:1014C0002C980C2804DD0C382C9008F1010005E064
:1014D000012804DA0C302C90A8F101002B90083779
:1014E000B7E80F56CDE9400142A880E80C5697E8CE
:1014F0000F000DF59079283F89E80F002C98401EC9
:101500008BFB00214A10A2EBE171A1EB810100EB02
:10151000810040A951F820002C99022905BF2B9980
:1015200011F0030F0021012108442D9981420DDDA6
:10153000081A2D902C98401C2C900C283BDD2B98E1
:10154000401C2B902C980C382C9034E0012932DA76
:101550002C98401E2C90012805DA2B98401E2B90C9
:101560002C980C302C900837B7E80F56CDE9400185
:1015700042A880E80C5697E80F000DF5907989E8AD
:101580000F002C98401E8BFB00214A10A2EBE1714A
:10159000A1EB810100EB810140A850F821102C98AB
:1015A000022805BF2B9810F0030F002001200844EB
:1015B0002D9908442D904FF4B07130461BF032FF46
:1015C00007462C9A6FF003003D9900EB82002B9B9D
:1015D0000A5840A8CDF80800029912F8010B01F84A
:1015E000010B02910028F7D143B1481E202100F8D9
:1015F000011B029002A9184607F06BF840A9384673
:1016000019F0EBFE2C9829902B9828906C2225A994
:1016100030461BF03BF92998844204BF2898804546
:101620001CD04FF00000ADF80000DDE93B10014494
:101630003A98ADF80210C0EBC000A0F101023B984F
:10164000ADF80420C0EBC000A0F101000144ADF8EA
:101650000610694630461CF08BFC30E02D9925A819
:10166000CDE9085107AA40A926F0DEFB002508AC09
:1016700054F8253003B3DDE94001CDE90401002130
:1016800007985B1E0A4644F8253018BF3A9B0CD0D9
:10169000401C072818BF194418D000BF54F825C0B3
:1016A000BCF1010C44F825C0F2D104A80AF07DFC7D
:1016B00004A930461CF05CFC6D1C022DD8D304211B
:1016C00030461CF0CEFD4DB0BDE8F08FA3EB830C8F
:1016D00001EB4C01DDF8ECC000206244DEE7E46879
:1016E000002C04BF4DB0BDE8F08F207A00287DD0DB
:1016F0006C2225A930461BF0B3F8DDE92B012D9AA9
:101700000792CDE90501D4E9005425A808AA694645
:1017100026F08AFB3A983A9995FBF0F048433C99B9
:101720003B9A611A891A91FBF2F13C9B083701FB45
:1017300002311144BDF900200DF5807A801A3A9AE1
:1017400090FBF2F2BDF90200081A3B9990FBF1F010
:10175000C0EBC0001044B7E83E138AE83E1397E898
:101760000E1048AD401C85E80E102999491E8BFBD0
:1017700001325310A3EBE272A2EB820201EB820171
:1017800040AA52F82110299A022A03BF289A12F07F
:10179000030F0122002211440128A8BF81424CDB23
:1017A000DDE92812CDE92C202B910C222BA905A8CC
:1017B000FEF71CFED8B16C2225A930461BF066F856
:1017C0002D990798CDE9400125AB44AA08A91846F0
:1017D00026F02AFB002440AD55F8243033B3DDE970
:1017E0000801CDE9420100210A4605E035E020E08C
:1017F0006CEC1008ABAAAA2A44985B1E45F824306A
:1018000018BF3A9B0BD0401C072818BF19441BD0A7
:1018100055F824C0BCF1010C45F824C0F3D142A80E
:101820000AF0C3FB42A930461CF0A2FB641C022C48
:10183000D2D3042130461CF014FD012130461CF0A7
:1018400010FD4DB0BDE8F08FA3EB830C01EB4C0114
:10185000DDF8ECC000206244DAE7022130461CF0DB
:1018600000FD4DB0BDE8F08F4FF000096C2225A9B6
:101870003046CDF808901AF0F3FF30461CF052F8CD
:10188000804630461CF066F8044634986FF0704A83
:10189000504509D00BF0F3F93C980021431EA8F104
:1018A0000102084608F048FDADF820903C98ADF8DC
:1018B00022003A98CC4D401EADF82400601EADF8D1
:1018C0002600002425AE3F984A4601190846C5FB6C
:1018D00001208210A2EBE070A0EBC000084403904E
:1018E0000228ACBF0120002006EB8000406A504572
:1018F00004D00BF0C4F908A808F04AFD002208A89B
:101900003A990AF052FB641C072CDCDBADF82090FE
:101910003C98ADF822003A99491EADF824103B9945
:101920000844401EADF8260038980BF0D1F902208B
:101930000BF076FA36980BF0A2F900243F9849464E
:1019400002191046C5FB02108110A1EBE070A0EB5C
:10195000C00010443E9903900E2251F8200008A9BF
:1019600007F038FC002208A83A990AF01EFB641C14
:10197000072CE3DBBDF92600A8F10302022108F0E1
:101980006FFA03AA08A925A826F04EFA3F99002964
:1019900040F31E8111F0010F05D003980628B4BF53
:1019A000401C0020039048100CD003990629B4BFB6
:1019B000491C002103910629B4BF491C0021039151
:1019C000401EF2D108370DF5807EB7E83F118EE852
:1019D0003F1197E80F0048AC84E80F002998401E9B
:1019E0008BFB00214A10A2EBE171A1EB810100EB1E
:1019F000810040A951F820002999022905BF2899A2
:101A000011F0030F0021012100EB01054FF000044C
:101A1000002DCEBFDFF8D4814DB0BDE8F08F00BF00
:101A200004F131008DF8080014E0092CF8DB601C8B
:101A300088FB00108110A1EBE07000F130018DF8FF
:101A400008104042611C00EB800001EB4000303088
:101A50008DF809002B992898814241D12C99299819
:101A600081423DD12D98611C884239D13098504532
:101A700004D00BF004F908A808F08AFC339F2599DC
:101A8000289881420DD129992698884209D1279911
:101A9000601C814205D137980BF0F1F808A808F0D6
:101AA000A9FA38460BF0EBF80E2208A902A807F0B5
:101AB00091FB0398401C0390072808BFCDF80C90B9
:101AC0003F990398814214D1002108A83B9A0AF05B
:101AD0006CFAADF820903A98401EADF824000DE065
:101AE00003980228ACBF0120002006EB8000076BA2
:101AF000C5E7002208A83A990AF057FA641CAC42DC
:101B000093DB4DB0BDE8F08FA0681BF01EFDE168CF
:101B1000B0F5B87F15D0A0F58070713807BF0229E5
:101B200001244DB0BDE8F08F4FF06C020AA9304699
:101B30001AF096FE0E9800190E900AD00D280DD0BE
:101B400011E002290EBF4FF0FF344DB0BDE8F08F19
:101B5000EAE70D98401E0D900C2003E00D98401C04
:101B60000D9001200E904FF4B07130461BF05AFCDE
:101B700004460E9A6FF00300229900EB82000B5886
:101B800025A90D98CDF80010009A13F8011B02F852
:101B9000011B00920029F7D138B1511E202201F813
:101BA000012B0091694606F094FD25A9204619F005
:101BB00014FC6C220AA930461AF068FE30461CF06C
:101BC00047FA0A2130461CF04CFB4DB0BDE8F08FBF
:101BD00000293FF4F7AE03980628B4BF401C00204C
:101BE0000390491EF7D1EDE6932449926766666635
:101BF0002DE9FF4FC9B00E46DDE95749DDE95987A8
:101C00009A46154670211EA8DDF858B1FEF7B0FBC4
:101C10006C2103A8FEF7ACFBABF101000C2880F0AF
:101C2000E280AAF22E6042F2E201884280F0DB807C
:101C300044226F490CA8FEF773FB6E4B00211A4635
:101C40000846E4FB0320C008A0EB40102044CDE987
:101C500003ABCDE9050A0120CDE907B06648059B35
:101C6000CDF824A0CDE91D90CDE90AB318981A9BB0
:101C7000C0EBC0021998ADF88260C0EBC0001844F8
:101C8000ADF888006C202490ADF88A704FF4B870DD
:101C9000ADF89C000320ADF89E001A98574B0A3807
:101CA000ADF8808025932C93ADF8A40040F2711319
:101CB000ADF88450ADF8B830ADF886201A9B4FF0DF
:101CC000050CD21AD21DADF8BA204D4B3393ADF8A6
:101CD000C0004FF4B073ADF8D430C31CADF8A0C051
:101CE000ADF8A200D21AADF8DC00ADF8BCC0ADF87A
:101CF000D8C0ADF8BE00ADF8D630ADF8DA2000910E
:101D00000191404A04211EA8499B06F0F3FE0500FC
:101D100069D06FF070411AF0A6FD3B4928461CF0CF
:101D2000BDFC4FF4B87128461BF07CFB0446002133
:101D30001AF0BEFA35492046FFF78AFA40F27111CF
:101D400028461BF06FFB044600211AF0B1FA2F4918
:101D50002046FFF77DFA4FF4B07128461BF062FB76
:101D600004462B491CF09AFC0E21204619F061FB19
:101D70002046139919F074FB2046179919F014FBAB
:101D800020461AF0D5FE2046129919F0EBFA079971
:101D90006FF003021B9802EB81013AAA41580698A2
:101DA000CDF80020009B11F8012B03F8012B0093C4
:101DB000002AF7D138B1591E202201F8012B0091D9
:101DC000694606F086FC3AA9204619F006FB28462B
:101DD0001CF032FD6C2203A928461AF057FD4DB0C5
:101DE0002846BDE8F08F4DB00020BDE8F08F000020
:101DF000D005002021841042D9C701089D0E00089B
:101E00007BB20108E1130008E1100308B95F020882
:101E1000E1DD020830B59BB00C46054608F03CFDFC
:101E20006C22694628461AF01BFDDDE90601089A76
:101E3000A260C4E900010BF02FFB1BB030BD000015
:101E4000022828BF7047024A02EB80008162704777
:101E5000D0050020064A002804BF9163704701287E
:101E600004BF11637047022808BF51637047000028
:101E7000D00500202DE9F04F0446006889B028B154
:101E80001DF058FC002808BF012500D00025FE48A1
:101E900050F8256060680A2800F0738108DC00288B
:101EA00000F0DD81062841D007280CD000F0E8B909
:101EB000122800F03081192802BFB06909B0BDE8CE
:101EC000F08F00F0DDB9256808F0E6FC284606F042
:101ED00051F90090C76F684606F02CFA0BF0DCFA57
:101EE0005FF0000556F825000AF0C9FE2069C11907
:101EF000491B4B1E61691A462944284408F032F8F0
:101F00006D1C032DEED3D6E90301CDE90001D4F811
:101F100010C00CEB0700401B431E60691A464119B4
:101F20000CEB050007F052FD00F0AAB9A068401EB6
:101F30000690246808F0B0FC204606F01BF90090DB
:101F4000D0F87C80684606F0F5F90BF0A5FADFF8CA
:101F50003C9359F82570002F1CBF069800EB8000B9
:101F60000DD000BFB7F84810414505D107EB8001FF
:101F7000896809B11FB1C4E0FF6C002FF2D1502075
:101F800006F05CF8070000F07B81C14C5022002174
:101F90002368984770697864A7F8488059F8250045
:101FA000F864BC48A8F1060880FB081049F82570C1
:101FB0004110A1EBE071032008900120049007F18B
:101FC0004000CDE90280069D05EB850007EB80000F
:101FD000019005EB450007EB80002830009008EBEE
:101FE000D8704210401000EBD073A0EB630046188D
:101FF000501A059008F10700C11700EB51704FEA25
:10200000E00A0AFB08FB584606F018F85FEA0009E8
:1020100077D023685A4600219847DDE9042001283B
:1020200026DD089B01213046334483421BDD4FEA05
:10203000E27C02EB5C7E02F0070C802424FA0CFCAC
:10204000404509DA0AFB00F404EBEE0419F804B089
:102050004BEA0C0B09F804B06940401C834202DDD6
:102060000029F9D0ECE70598521C761C9042D8DC88
:1020700004990298401A0490904225DD08990120A5
:1020800034463144A1421ADDD31702EB537E02F0ED
:10209000070C802323FA0CF3444509DA0AFB04FCFD
:1020A0000CEBEE0C19F80CB04BEA030B09F80CB072
:1020B0006840641CA14202DD0028F9D0ECE70498D6
:1020C000521C761E9042D9DC0098022101600099D2
:1020D00001200871009A039991600199C8800198C4
:1020E0000021A0F804A00198C0F8089001980161AF
:1020F000DDE90001C860DDE9010101800198A0F877
:1021000002800698032200EB800007EB8000114656
:1021100007F0B6F9B4E0206806F02CF80290B0F9A8
:10212000547090F85650D0F84490D0F8348002A8FB
:1021300006F000F9266808F0AFFB304606F01AF802
:102140000390B0F87C6003A806F0F4F80BF0A4F953
:1021500068461BF01DF9BDF8000071190844ADF880
:102160000000246A40460AF0B3FD02200AF058FE3F
:1021700048460AF084FD3A466946204607F02AF8A8
:102180007EE0206805F0F6FF0290B0F9548090F8E8
:102190005660D0F83490876C02A806F0CBF825681A
:1021A00008F07AFB284605F0E5FF0390B0F87C5074
:1021B00003A806F0BFF80BF06FF968461BF0E8F8CB
:1021C000BDF80000A9190844ADF80000206A08F025
:1021D00085FA0446484608F0AFFA28F003010429BE
:1021E00004BFBDF80610091A08D00C2908D1BDF9A2
:1021F0000610091A491C01EBD1714910ADF8021003
:1022000028F00C0101290CD0022913D1BDF90410CA
:10221000BDF90020891A091B01EBD17102EB6101A4
:1022200006E0BDF80420BDF80010521A121B11443C
:10223000ADF80010BDF80010621E1144ADF8041096
:10224000BDF80210401E0844ADF8060038460AF0FA
:1022500016FD4FF0FF31684607F08CF910E020685A
:102260001CF0E8FB206805F085FF0790B0F9061028
:10227000B0F90220891A491CC16707A806F05AF86C
:1022800009B00020BDE8F08FA4EC1008580600202B
:102290005803002067666666044A034911600449D2
:1022A000CA69C8611046704714060020A00C0020BF
:1022B000A40C002000B589B000200090029003908B
:1022C000049005900690079008901920019004480A
:1022D0000068806841686846884709B000BD000012
:1022E000A00C002070B5234C054682B02068418CBC
:1022F000B0F84C2011444184818CB0F85020114436
:102300008184284608F020F92168498CADF8001036
:10231000461828460DF0E2F83044401EADF804009F
:1023200008F08AF92168898CADF802100844401E33
:10233000ADF8060068461DF033F830B1284603F0CA
:10234000C9FC1CF015FE0028F8D10A2D04D0BDF8F8
:1023500004002168401C48842068418CB0F84C205F
:10236000891A4184818CB0F85020891A818402B086
:1023700070BD0000740300202DE9FE4304460E46A4
:10238000154620460DF016FC07460F4850F824006D
:1023900007FB06080C4850F8240007FB050900213C
:1023A0000A4850F82400CDE900010948029150F88C
:1023B00024304A464146204600F0F2FA054840F8EB
:1023C0002450BDE8FE830000A4000020B4000020DB
:1023D000B0000020AC0000202DE9F04F85B004468D
:1023E0000D4616461F46DDE90F8BDDF838A0204666
:1023F0000DF0E0FB81461C4850F824001B4951F8C1
:10240000241009FB01001A4951F8241006FB015160
:10241000184A52F8242001FB02000490124850F898
:102420002400124951F8241009FB0100104951F809
:1024300024100AFB01710F4A52F8242001FB02000C
:10244000039000210A4850F82400A0EB08004346FE
:10245000CDE900B002912046DDE9032100F0A0FAA9
:1024600005B0BDE8F08F0000A4000020AC00002003
:10247000B0000020B80000202DE9FE4F04460D46B4
:1024800016461F46DDF8309008F0A0F8012810D15C
:1024900000221921204611F071F84B463A46314688
:1024A000284610F087F8194A1921204611F066F8DD
:1024B0002AE0781B00F10108A9EB0600401C0290FD
:1024C00020460DF077FB8246114850F82400114950
:1024D00051F824100AFB01000F4951F8241006FBA3
:1024E00001510E4A52F8242001FB020B0A4951F80F
:1024F0002410A1EB08010D98CDE900104246594681
:102500002046029B00F07CFABDE8FE8F792400088B
:10251000A4000020AC000020B0000020B800002083
:10252000F8B504460D4616461F4603203B46324684
:1025300029460090204600F00BFBF8BDF8B5044694
:102540000D4616461F4604203B463246294600905B
:10255000204600F0FDFAF8BDF8B504460D461646D3
:102560001F4602203B46324629460090204600F096
:10257000EFFAF8BDF8B504460D4616461F46002092
:102580003B46324629460090204600F0E1FAF8BD6D
:10259000F8B504460D4616461F4600203B46324617
:1025A00029460090204600F0D3FAF8BD7CB51AF019
:1025B00023FF0546002000902B460A4A0521019082
:1025C000094806F097FA044620461AF008FF054627
:1025D00000234FF47A7219461AF0CAFA03490860C8
:1025E00020467CBD4D0F030850891008E0010020F3
:1025F0001CB504461A2000212346044ACDE90010E8
:102600000221034806F076FA1CBD000085FB020893
:10261000B4A306087CB51AF0EFFE05460020009032
:102620002B460A4A06210190094806F063FA04463F
:1026300020461AF0D4FE054600234FF4C87219460E
:102640001AF096FA0349086020467CBD41FF020853
:10265000AC871008D80100207CB51AF0CDFE0546E5
:10266000002000902B46044A09210190034806F0FF
:1026700041FA044620467CBD05080308548810082A
:102680001CB504461A2000212346044ACDE9001057
:102690000221034806F02EFA1CBD00005DFC020872
:1026A00064350C081CB504460B48006858B9002076
:1026B00000902346094A03210190094806F01AFABE
:1026C0000549086007E0044800681CF089FA0248E0
:1026D00000681AF0B5F91CBDB8010020AD0D030863
:1026E00084760D087CB51AF087FE05460020009020
:1026F0002B460A4A0B210190094806F0FBF90446D3
:1027000020461AF06CFE054600234FF47A721946F3
:102710001AF02EFA0349086020467CBD39FD0208F4
:10272000D8760D08D401002010B5044620463FF0AD
:10273000E6FD10BD1CB50121022016F0A1F94FF4F1
:102740008050009001208DF8040000208DF80600D4
:1027500001208DF8070002208DF805006946024827
:1027600004F0C4F81CBD00000004024010B50024B1
:102770001448006820F0407012490860084600685C
:10278000086004E0601CC4B2012000F0DBFD0E48CC
:10279000006808B1642CF5DB642C01DB012010BD5E
:1027A000002404E0601CC4B2012000F0CBFD064808
:1027B000006808B9642CF5DB642C01DB0120EEE72E
:1027C0000020ECE7000402403082404210B5064889
:1027D000006840F0020004490860FFF7ABFF00F01A
:1027E00067F8FFF7C3FF10BD3038024010B5002472
:1027F00004E0601CC4B2012000F0A4FD0D48006894
:1028000008B1642CF5DB002404E0601CC4B2012094
:1028100000F098FD0748006808B9642CF5DB282013
:1028200000F090FD0348006808B1012010BD0020B1
:10283000FCE700003082404270B50024002506E02D
:102840006006040EFFF7D2FF0443681CC5B2082DD2
:10285000F6DB204670BD7CB505460E4600F028F834
:10286000FFF784FFF8B9002405E0FFF7E5FF0DF856
:102870000400601CC4B2052CF7DB9DF800009DF835
:10288000011008449DF8021008449DF80310084404
:102890009DF80410884208D19DF8000030709DF822
:1028A0000200287001E001207CBD0020FCE7000050
:1028B00010B50D48006820F040700B4908600846CC
:1028C000006840F08070086000200849086044F605
:1028D000206000F037FD01200549C1F8B0021E203C
:1028E00000F030FD10BD000000040240B082404204
:1028F0000080404210B54FF081510B4800F08AF93A
:1029000080B1012109480DF019FE0021064800F0B0
:1029100013F94FF08151044800F0F4F80020044905
:102920000968088010BD000040600240005C004063
:102930002C00002010B51449144800F06BF910B3B6
:102940000021124800F0F8F80F49104800F0DAF8BA
:102950004FF420400E49086007E00D490868411E09
:102960000B4A116008B940F092F90A490A480DF083
:10297000F1FD0028F1D0012107480DF0DFFD002016
:1029800006490968087010BD2000002070600240F0
:102990002800002004000010005C004030000020EF
:1029A0002DE9F05F07460C4615461E46DDE90B9AF9
:1029B000DDF8288038460DF021F983464FF4007089
:1029C0000E4908600846C460C563C0F81090C0F89E
:1029D00040A0C0F81CB0404666F31F40486408465B
:1029E000006840F00100086000BF0448006800F083
:1029F00001000028F9D1BDE8F09F000000B00240BE
:102A00002DE9F04707460C4615461E46DDE90889C4
:102A100038460DF0F3F882460E480F490860084624
:102A2000C0F83890C463C0F84080C0F834A0304685
:102A300065F31F4048640846006840F001000860E4
:102A400000BF0548006800F001000028F9D1BDE88A
:102A5000F08700000002030000B0024010B500F053
:102A600001F810BD022001498860704700B00240A3
:102A7000704700002DE9F04107460C4615461E46FA
:102A800032460B4938460FF049F93246094920468B
:102A90000FF044F93346084A0649054800F00EF89D
:102AA0003246294604480FF039F9BDE8F0810000AC
:102AB00078230020783200207814002030B50F4CA5
:102AC0000F4D2C602C46E0606161E26300242C61B4
:102AD000AC612C64EC616C626C63012404EB034414
:102AE0006C642C46246844F001042C6000BF044C44
:102AF000246804F00104002CF9D130BD000202006A
:102B000000B002400246094B9A4201D2084801E057
:102B10000648103801F000531BB1064B0B40C36050
:102B200002E0044B0B4083607047000010640240D9
:102B3000006002407D0F7D0F21B1026842F001026A
:102B4000026003E0026822F00102026070470000A8
:102B50002DE9F84305460E4614469846089F22463E
:102B6000064928460FF0E4F83B4600223146034868
:102B7000009400F005F8BDE8F88300007814002008
:102B800070B5049C4FF481350D4E35603546E860D4
:102B9000E9630025356135643546EA616B630125DB
:102BA00005EB0445756435462D6845F00105356033
:102BB00000BF034D2D6805F00105002DF9D170BD52
:102BC00000B00240F0B505AC70CC4FF48137DFF8AF
:102BD00040C0CCF800706746F860F9633A613B6426
:102BE0000527CCF81C7067467C6346EA0547CCF89D
:102BF000447067463F6847F00107CCF8007000BF9B
:102C0000034F3F6807F00107002FF9D1F0BD000026
:102C100000B0024030B503460A46002000240B4DA8
:102C2000AB4201D20A4901E00849103902F00055CF
:102C30000DB14C6800E00C68064D2C4004EA02051A
:102C40000DB1012000E0002030BD00001064024002
:102C5000006002407D0F7D0F2DE9F84305460E46CA
:102C600014469846089F00233A4606492846009491
:102C7000FFF786FF2246314602480FF059F8BDE8BB
:102C8000F883000078140020074AD0624A1ED2B2AE
:102C9000012343EA0222044BDA611A46D26942F068
:102CA0002002DA617047000000B002401EB5034602
:102CB00001F07F40B0F17F4F01D118461EBD83F077
:102CC0007F40029081F07F4001901548154C2060B4
:102CD00002A8E06001A86061C4F83CD04FF48030E5
:102CE00040EA0260E061C2F1FF00002444EA0060B3
:102CF0000C4C6062002060634FF00110606420465D
:102D0000006840F00100206000BF0648006800F045
:102D100001000028F9D1009880F07F40CEE7000044
:102D20000002020000B0024070B5049C124D134E28
:102D300035603546E8606961EA634FF4803545EAFD
:102D40000365F561C3F1FF05002646EA05650B4EF4
:102D5000756200257563012505EB044575643546EC
:102D60002D6845F00105356000BF044D2D6805F064
:102D70000105002DF9D170BD0002020000B0024033
:102D80002DE9F041044688B0006805F0F3F906909B
:102D9000468ED0F8885006A805F0CCFA002D18BF52
:102DA000012506F0010620681CF0C4FC002D18BFA8
:102DB00000200FD07D4951F820506068002800F0B5
:102DC000EE80022800F0CE8005280CD012287DD09D
:102DD00000F0E8B8002E18BF0120EBD1002814BF86
:102DE00002200320E6E7D5E90123A86A29688DE8D7
:102DF0000F0004F110000FC80BF0F0FD5FF00006AB
:102E000055F8260009F03BFFA169A86A0A1A216952
:102E100001446069304407F023F8A169A86A0A1ADE
:102E200021690144E069801B07F01AF8E169A86A8A
:102E30000A1A616901442069304407F0F3F9E16935
:102E4000A86A0A1A61690144A069801B07F0EAF9BF
:102E5000761C022ED4DBA86A02281BDDA86809F0C4
:102E60000EFFE169A86AD4F810C00B1A0CEB000140
:102E70004A1E616901440CF1020007F05DFAE16944
:102E8000A86AA2690B1A61690144101A401C921EBB
:102E900007F052FAD5E90301CDE90001E169606963
:102EA000A26901444B10A96AD4F810C0521A8C448C
:102EB000811C604606F08AFDD5E90501CDE90001D7
:102EC000A069AB6A6169C21AE06900E019E00144D7
:102ED0004FF0010C0CEB6101D4F810C09C44831E30
:102EE000604606F073FD686A09F0C9FEE26961692F
:102EF000A369501A181A401C091D121F07F092F9F5
:102F000050E0206805F036F90090B0F88060B0F924
:102F10008280C76C684605F00DFA208AB11C08440F
:102F2000ADF80800A08A801CADF80A00A08BA18A29
:102F3000401A218B891B081AC01EADF80C00A08B0B
:102F4000801EADF80E00022009F06AFF384609F035
:102F5000BFFE286A09F093FE424602A9206A06F0E5
:102F600039F91FE06169E0694FF0FF32401AA0F1C2
:102F7000080102EB6106411CA269801B4410A2EB10
:102F80006107E86909F07BFE002E0BDBBA19B91B5B
:102F9000204606F065FF641C761EF7D502E0206827
:102FA0001BF048FD08B00020BDE8F081ACEC100833
:102FB000044A0349116004490A6B086310467047CC
:102FC00060060020E00C0020E40C002038B50D461F
:102FD000002405F0CFF80090C06B294605F087FA71
:102FE0000546684605F0A6F91DB1284605F0C2F869
:102FF0000446204638BD000010B50024144800687F
:1030000020F440501249086008460068086004E057
:10301000601CC4B2012000F0AFF90E48006808B18E
:10302000C82CF5DBC82C01DB012010BD002404E016
:10303000601CC4B2012000F09FF90648006808B97E
:10304000F02CF5DBF02C01DB0120EEE70020ECE7B3
:1030500000140240188242421CB50121202015F0C4
:103060000FFD4020009001208DF8040000208DF815
:10307000060001208DF8070002208DF80500694642
:10308000014803F033FC1CBD001402402DE9F04759
:103090002DED048B814600F0E9F800F0C5F8FFF74C
:1030A000ABFF552000F0EEF8002423E0B9F1010F4A
:1030B00009D0B9F1020F0BD0B9F1030F0DD0B9F15E
:1030C000040F14D10EE02649085D00F0DBF80EE095
:1030D0002449085D00F0D6F809E02349085D00F0B6
:1030E000D1F804E02149085D00F0CCF800BF00BF32
:1030F000601CC4B2082CD9DBBE2000F0C3F800F07D
:1031000081F8804600F07EF80546072D07DDE8438C
:10311000C5B26FEA080000F0FF08002700E00127B1
:103120002E46300206B206EB080006B23046FDF726
:1031300008FB41EC190B9FED0E0B53EC102BFDF728
:103140001FFA41EC180BFDF71AFB06B227B1304607
:10315000BDEC048BBDE8F087704200B2F8E70000D8
:10316000442E04084C2E0408542E04085C2E040837
:10317000000000000000E43F70B50124FFF76CFF81
:10318000FDF734F8054600F04FF8FFF735FF044629
:103190002846FDF72FF8204670BD000010B51648F0
:1031A000006820F44050144908600846006840F464
:1031B00080500860002011490860022000F0DCF80F
:1031C00001200F49C1F898020B48006820F44050D4
:1031D000094908600846006808600C2000F0CCF837
:1031E00006488038006808B1012400E0002432203D
:1031F00000F0C2F8204610BD0014024098824242FE
:103200000080424270B50026012508E0FFF7C6FFA6
:103210000446E00140EA6600C6B2681CC5B2082D4B
:10322000F4DD304670BD000010B50D48006820F494
:1032300040500B4908600846006840F48050086020
:1032400000200849086040F2EE2000F095F80120C7
:103250000549C1F898020F2000F08EF810BD00005B
:1032600000140240988242420080424210B5FFF7AB
:10327000DBFFFFF7C1FECC2000F004F8442000F093
:1032800001F810BD70B504461848006820F440509D
:10329000164908600846006840F48050086001251F
:1032A00020E004F0010664106EB1002010490860AF
:1032B000022000F061F801200E49C1F898023C207C
:1032C00000F05AF80CE00020094908603C2000F0AA
:1032D00053F801200749C1F89802022000F04CF889
:1032E000681CC5B2082DDCDD70BD00000014024072
:1032F00098824242008042421048006820F080706C
:103300000E4908600846006840F0807008600C486C
:10331000006820F001000A4908600846006840F093
:10332000010008600020486000BF00BF00BF0448E3
:10333000406808B1002070470120FCE7FCED00E088
:10334000001000E001B50949486809490968094ABF
:10335000B1FBF2F1009A5143009100BF0349496863
:10336000091A009A9142F9D308BD0000001000E04C
:103370000000002040420F0001B509494868094992
:103380000968094AB1FBF2F1009A5143009100BF6C
:1033900003494968091A009A9142F9D308BD00000F
:1033A000001000E00000002040420F0070470000C5
:1033B00070B504460D461646022C0DD1FF2009F0CB
:1033C0005EFC06EB460305EB45020A4901EB0410DF
:1033D000042104F065FB0CE0074809F050FC06EB03
:1033E000460305EB4502034901EB0410042104F0F8
:1033F00057FB70BD784100208080FF00002808BF87
:1034000070472DE9F04F91B00F46044607F044FA9B
:10341000204604F0AFFE039090F854A0D0F834900A
:10342000866DC56C03A804F085FF26B13946204699
:10343000B04700F0ABB900264FF00108122F7DD045
:1034400006DC082F7BD0102F7AD0112F3CD006E05D
:10345000132F5BD01D2F00F0E4801E2F71D0202F82
:10346000C0F29481BAF1000F00F0F280204604F01F
:1034700081FE0590D0F834A0D0F84C9005A804F057
:1034800059FFBAF1000F00F0E380504604F072FEDD
:1034900082464946069009F0D3FE81465046FCF725
:1034A00090FF48457DD9D144484609F083FE09EB99
:1034B00000014846FCF7A7FF06A804F03BFF0521E2
:1034C00020461AF0CEFEC3E0B9F1000F00F05E8195
:1034D000484604F04FFE07462946049009F0B0FE26
:1034E0000744384609F056FE0546029609F072FE7A
:1034F0008046681C86B2304609F06CFE0546A84539
:1035000026D004A804F016FF00F040B9B9F1000F6E
:1035100000F03C81484604F02DFE07462946049001
:1035200009F08EFE0744384609F034FE054602963F
:1035300009F050FE8046681E86B203E016E021E0E6
:103540001AE043E0304609F045FE0546A845D8D1CB
:10355000314602A809F00CFE2A4602A93846FCF7BB
:10356000DFFE052120461AF07CFECAE7691C2046D2
:1035700000F02AFC00F00AB9691E204600F024FC85
:1035800000F004B9002D00F00181691E204600F012
:103590001BFC204604F0EEFD0190C76C456B01A8B2
:1035A00000E052E004F0C6FE002D00F0EF80284657
:1035B00004F0E0FD06463946029009F041FE05465A
:1035C0003046FCF7FEFEA84229D918E0204604F058
:1035D000D1FD0190C76C456B01A804F0ABFE002D36
:1035E0007ED0284604F0C6FD06463946029009F012
:1035F00027FE05463046FCF7E4FEA8420FD93544C5
:10360000284609F0D7FD29182846FCF7FCFE02A839
:1036100004F090FE052120461AF023FEB6E002A831
:1036200010E0204604F0A6FD0390BAF1010F08BF98
:1036300080F8546005D080F854802946204600F078
:10364000C3FB03A804F076FEA0E006A804F072FE17
:103650001FFA87FB204604F08DFD07460290B0F963
:103660003800002812DD786B4FF0000940B104F0FB
:1036700081FD00900BF00EFF8146684604F05AFE73
:10368000B7F9381009F10100884200DC464602987B
:10369000C06C079002A804F04DFE002E76D058466C
:1036A00009F098FD074626464FF00008204604F032
:1036B00061FD0B90406B40B104F05CFD0890FCF79D
:1036C00080FE804608A804F035FE0B9907EB080041
:1036D000498F401A00F101080BA804F02BFE00E00E
:1036E00054E0B8F1000F2CDD304608F1100804F06A
:1036F00041FD0090D0F834A0408F8044684604F02B
:1037000019FE4146504604F049FD5FEA00093DD0EC
:10371000BAF1000F0AD104F02DFD204B0D90424666
:103720001B68002198470DA804F004FE304604F001
:1037300021FD0090A0F83A80C0F83490684604F06B
:10374000F9FD204604F016FD0290466B02A804F035
:10375000F1FD304604F00EFD06460F90079909F082
:103760006FFD06443046FCF72CFE421CF019314632
:10377000FCF7D6FD5946304609F0FAFC0FA804F0D4
:10378000D9FD052120461AF06CFDEFE620461AF01F
:103790005FFC09F081FE11B0BDE8F08F58030020F6
:1037A00070B54568044682B028461BF0C3FF064644
:1037B0002146284618F089FC002804BF02B070BDDD
:1037C00020680F2844D004DC0B2847D00E2850D0A6
:1037D00066E0A0F58070133804D0A0F580702D3815
:1037E0001FD05DE028461AF0E9FE284604F0C2FC2E
:1037F000009090F8561081F0040180F85610684649
:1038000004F098FD0021284628F0BCFB284604F06F
:10381000B1FC0090D0F8840000211AF018FE684630
:1038200024E0E06878B1017A41B10168284600F0EF
:1038300010F9012128461AF014FD31E00221284632
:103840001AF00FFD2CE0032128461AF00AFD27E0AC
:103850000121284628F096FB02B070BD284604F0EE
:1038600089FC0190343004F083FB01A804F062FD70
:1038700016E0AEB1E0684168002911DD01681B293E
:103880000ED009DC09291CBF0A290D2908D02846B9
:10389000FFF7B4FD02B070BD212918BF2229F6D16F
:1038A000204619F051FA02B070BD2DE9F04186B002
:1038B0000DF1300898E8F0104FF00008CDF81480B2
:1038C0008DE8F01000F004F806B0BDE8F0810000CB
:1038D0002DE9FF4F85B09846DDE91654DDE9126BFE
:1038E00091468A46159F06F0D7FF04F16001324ADF
:1038F00003914BF480500096CDE9010243464A46BD
:103900005146059819F064F904004FD004F032FCD8
:1039100010223946049018F095FE2848049990E842
:10392000CC1701F1600B8BE8CC17006AC1F880005E
:10393000012081F85500681C18BF012081F888001B
:10394000002DD8BF08252AB20A870020488748637F
:10395000551C04A804F0EEFC204604F00BFC00907B
:10396000476B408F0544684604F0E4FC294638461E
:1039700004F014FC060015D057B904F0FBFB104B03
:1039800001902A461B680021984701A804F0D2FC48
:10399000204604F0EFFB009045874663684604F03C
:1039A000C9FC03E0204619F009FA002409F074FD6F
:1039B00009B02046BDE8F08FA13700081C0D00209B
:1039C0005803002001488068704700001C0D00204B
:1039D00038B505004FF000040BD006F05DFF284617
:1039E00004F0C8FB0090846C684604F0A3FC09F066
:1039F00053FD204638BD002808BF7047F8B516466D
:103A00000C46054606F048FF284604F0B3FB00903C
:103A1000002818BF032C05D200EB840086672846D7
:103A20001AF016FB684604F085FC09F035FDF8BD78
:103A300070B50D46044606F02FFF34B129462046E6
:103A400000F0C2F920461AF003FBBDE8704009F00F
:103A500023BD002808BF70472DE9F04186B00C4611
:103A6000074606F019FF384604F084FB0090406BCF
:103A7000002849D004F07EFB03900098806E09F086
:103A800027F98046384619F04DFF0646039806F0A0
:103A900025FE0546009890F8601001F00301012909
:103AA00018D002290FD0416EC06A00680844201A5D
:103AB000441E03980BF0EEFC002C11DA002138466E
:103AC00000F082F917E0701B401C00EBD070A4EBF3
:103AD0006004EEE7406E711B081A201A441CE8E7E8
:103AE000A54204DB0246214603980BF067FC014621
:103AF000384600F069F903A804F01CFC404609F0C0
:103B0000E7F838461AF0A4FA684604F013FC09F006
:103B1000C3FC06B0BDE8F0812DE9F8431D46DDE9A0
:103B2000086714468946804606F0B6FEB8F1000FD5
:103B300075D0404604F01EFB3B49009081653B492F
:103B4000C1650021C0E91291C0E90F4580F84460C9
:103B500080F85670012180F8541090F888906846DB
:103B600004F0E8FBB9F1000F40D0002DA7BF012100
:103B70000B460221CB1EB8BF6D422D4A0A2D08DB31
:103B800082FB05C04FEAA00CACEBE075491C0A2D86
:103B9000F6DAB3F1FF3F02BF4B1EB342491C002CC3
:103BA000BDBF02204FF0FF3C64420120A8BF844605
:103BB0000A2C07DB82FB04439C10A4EBE374401C3B
:103BC0000A2CF7DABCF1FF3F02BF431EB342401C90
:103BD000002E1CBF401C491C17F0010F18BF491CC8
:103BE0008142D8BF0146404600F026F840462AF000
:103BF00011FA404604F0BEFA009000F0CFF80D49EB
:103C00000978884205D10098C06C411C404600F0FC
:103C1000DBF8684604F08EFB40461AF019FA09F00A
:103C20003BFCBDE8F8830000C906020815E0020865
:103C30006766666660030020002808BF70472DE9AC
:103C4000F04184B00C46064606F026FE304604F0ED
:103C500091FA0090B0F93810458FA14248D012DD9A
:103C6000406B80B104F086FA01900BF013FCA04287
:103C700006DD2146019809F0E3FA019A002111546A
:103C800001A804F057FB684604F054FB601B451C78
:103C9000304604F06FFA0290D0F83480408F05442B
:103CA00002A804F047FB2946404604F077FA0700D3
:103CB00016D0B8F1000F0AD104F05CFA104B039053
:103CC0002A461B680021984703A804F033FB3046BE
:103CD00004F050FA02904587476302A804F02AFBDB
:103CE000304604F047FA0090048730461AF0B0F9E5
:103CF000684604F01FFB09F0CFFB04B0BDE8F0817B
:103D000058030020002808BF7047F8B516460C4637
:103D1000054606F0C1FD284604F02CFA0090002864
:103D200018BF032C05D200EB8400C66628461AF0A3
:103D30008FF9684604F0FEFA09F0AEFBF8BD38B51D
:103D400005000C4608BF38BD06F0A6FD284604F065
:103D500011FA0090C16BA1421CDC016CA1421BDB7B
:103D6000816CA14210D08464C16D00291CBF28461B
:103D7000884728461AF06CF9684604F0DBFA0521FA
:103D800028461AF06EFA02E0684604F0D3FA09F009
:103D900083FB38BD0C46E0E70C46E1E738B5054645
:103DA000406B002468B104F0E5F900900446E96C2A
:103DB00009F046FA204409F0EDF90446684604F09B
:103DC000B9FA204638BD000010B582B00C4604F0A8
:103DD000D1F90090406BE8B104F0CCF901900BF000
:103DE00059FB009991F85420002A18BF0122002C99
:103DF00015DB844215DC00BFB1F93800801AA042FF
:103E000011DBC86CA04218BFCC640020086501A873
:103E100004F090FA684604F08DFA02B010BD002458
:103E2000E7E70446E8E7B1F93800841AE9E700005B
:103E300010B502A000F060FB10BD000041540D0A57
:103E40000000000010B502A000F056FB10BD0000FD
:103E5000415445300D0A00001FB50446224604A116
:103E600068462AF0D9FB684600F046FB04B010BD56
:103E700041542B4349504D55583D25640D0A0000CF
:103E800010B512A1144818F09CF814A02AF0B4FB45
:103E90001148808920F400500F4988814FF47A70CE
:103EA000FEF742FC4FF47A70FEF73EFC4FF47A7056
:103EB000FEF73AFC4FF47A70FEF736FC064880892C
:103EC00040F4005004498881002010BD41542B5219
:103ED00053540D0A000000000010014045535038B3
:103EE000323636207265736574207375636365734B
:103EF00073210A0010B504A1054818F062F84FF4C8
:103F00007A70FEF711FC10BD2B2B2B0D0A00000060
:103F1000001001402DE9F0410020254908602549A5
:103F2000086000243FE00020214908602149086022
:103F300021A1244818F045F8002530E06420FEF760
:103F4000F3FB1B480068002828D000201E49194AAE
:103F5000126888541DA02AF04FFB21A11A48FCF7D3
:103F600012FAD0B11FA11848FCF70DFA06461FA19E
:103F7000B01DFCF708FA07461DA11348FCF703FA29
:103F800006461AA1B01DFCF7FEF9074600200849B5
:103F9000086008490860BDE8F08102E06D1C042D4E
:103FA000CCDB00BF641C052CBDDB0120F3E7000067
:103FB000540000205000002041542B4349465352E6
:103FC0000D0A0000001001403410002055534152EA
:103FD000543120726573697665203A2573200A0092
:103FE0004F4B0000544149502C00000022000000BB
:103FF000414D41432C00000070B500201B49086072
:104000001B49086000242DE0002018490860184969
:10401000086018A11B4817F0D4FF00251EE02820D7
:10402000FEF782FB11480068B8B100201649104A1B
:104030001268885415A02AF0DFFA00200B490860A6
:104040000B49086016A11048FCF79DF920B115A096
:104050002AF0D2FA002070BD02E06D1C042DDEDBD8
:1040600000BF641C052CCFDB0120F4E754000020C6
:104070005000002041542B43495053454E440D0AF3
:104080000000000000100140341000205553415240
:10409000543120726573697665203A2573200A00D1
:1040A0003E00000045535038323636206275696C48
:1040B0006420636F6E6E65637420737563636573EC
:1040C00073210A00F0B58DB004460D4600201F494B
:1040D00008601F4908602B4622461EA168462AF048
:1040E0009BFA00262DE06946214817F06AFF002759
:1040F00023E04FF47A70FEF717FB1448006800289D
:104100001AD000201B49124A126888541AA02AF0BB
:1041100073FA00200D4908600D4908601BA115487D
:10412000FCF731F938B12A4621461AA02AF064FA80
:1041300000200DB0F0BD02E07F1C042FD9DB00BFD2
:10414000761C052ECFDB0120F3E700005400002091
:104150005000002041542B43495053544152543D88
:1041600022544350222C222573222C25640D0A0050
:104170000010014034100020555341525431207238
:104180006573697665203A2573200A00434F4E4EC9
:10419000454354004553503832363620636F6F6EB6
:1041A0006E6563742069703A25732C706F72743A6F
:1041B00025642073756363657373210A0000000032
:1041C00010B5FFF735FE10B129A02AF015FAFFF758
:1041D00039FE10B12DA02AF00FFA012000F06CFA80
:1041E00010B131A02AF008FAFFF74AFE10B136A04C
:1041F0002AF002FAFFF726FE10B124A02AF0FCF9FB
:10420000C820FEF791FA36A139A000F009F910B1E3
:1042100038A02AF0F1F94FF47A70FEF785FA002001
:10422000FFF71AFE10B13DA02AF0E6F9FFF772FE83
:1042300010B143A02AF0E0F94FF4FA5146A0FFF77D
:1042400041FF10B148A02AF0D7F9012000F0C0F8D2
:1042500010B14DA02AF0D0F9FFF7CEFE10B150A05A
:104260002AF0CAF956A1594817F0ABFE10BD00005C
:104270004553503832363620636F756C646E277440
:1042800020666F756E64210A0000000045535038A7
:1042900032363620636C6F7365206563686F206605
:1042A00061696C210A0000004553503832363620CF
:1042B00073657420776F726B206D6F646520666123
:1042C000696C210A00000000455350383236362010
:1042D0007265736574206661696C210A00000000D4
:1042E000323031353330303430333032000000007A
:1042F000484A00004553503832363620636F6E6EA0
:1043000065637420737369642670617373776F7269
:104310006473206661696C210A00000045535038BF
:104320003236362073657420636F6E6E6563742059
:1043300073657474696E67206661696C210A000098
:1043400045535038323636206765742069702066D0
:1043500061696C210A0000003139322E3136382E65
:10436000312E31303100000045535038323636207E
:10437000636F6E6E65637420736572766572206616
:1043800061696C210A0000004553503832363620EE
:10439000736574206D6F6465206661696C210A0025
:1043A00045535038323636206275696C6420636F2D
:1043B0006E6E656374206661696C210A00000000FE
:1043C00073657449443A31323334000000100140BF
:1043D00010B586B0044614B1012C0AD104E008A13E
:1043E00001A8FCF710F804E009A101A8FCF70BF8FC
:1043F00000BF00BF01A800F07FF806B010BD0000AC
:1044000041542B4349504D4F44453D300D0A000067
:1044100041542B4349504D4F44453D310D0A000056
:10442000F0B58DB004460D4600201B4908601B49BD
:1044300008602B4622461AA168462AF0EDF80026AD
:1044400026E069461C4817F0BCFD00271DE04FF42C
:104450007A60FEF769F910480068A8B10020174992
:104460000E4A126888540C4908600C49086014A16F
:104470001248FBF788FF38B12A46214613A02AF0DC
:10448000BBF800200DB0F0BD7F1C042FDFDB761CD5
:10449000052ED6DB0120F5E7540000205000002057
:1044A00041542B43574A41503D222573222C22254B
:1044B00073220D0A0000000000100140341000209B
:1044C0005749464920474F542049500045535038DA
:1044D00032363620636F6E6E656374207373696461
:1044E0003A25732C5053573A2573207375636365CF
:1044F0007373210A0000000070B50546002034499E
:1045000008603449086034A12846FBF761FF20B9F0
:10451000FFF7F0FC0020FFF75BFF002453E00020D2
:104520002B4908602B49086029462D4817F049FDA2
:10453000002644E06420FEF7F7F8254800680028CC
:104540003CD000202749234A1268885426A02AF02C
:1045500053F800201E4908601E49086027A1214821
:10456000FBF711FF002828D025A12846FBF70BFFF9
:1045700018B125A02AF040F81DE02BA12846FBF732
:1045800002FF18B12AA02AF037F814E032A1284619
:10459000FBF7F9FE18B131A02AF02EF80BE037A195
:1045A0002846FBF7F0FE18B136A02AF025F802E005
:1045B0003DA02AF021F8002070BD02E0761C042EF8
:1045C000B8DB00BF641C052CA9DB0120F4E7000068
:1045D000540000205000002041540D0A000000004B
:1045E00000100140341000205553415254312072C4
:1045F0006573697665203A2573200A004F4B0000E9
:1046000043574D4F4445000045535038323636200D
:1046100073657420776F726B206D6F64652073759E
:104620006363657373210A004349504D5558000078
:104630004553503832363620636F6E6E6563742092
:1046400073657474696E6720736574207375636332
:10465000657373A3A10A000045300000455350382C
:1046600032363620636C6F7365206563686F207324
:10467000756363657373A3A10A0000004349504D3D
:104680004F4445004553503832363620535441206C
:104690004349506D6F64652073657420737563635F
:1046A000657373210A0000004553503832363620B6
:1046B00065786973740A000010B586B00446012C51
:1046C00004D0022C07D0032C0FD109E00AA101A8C5
:1046D000FBF799FE09E00CA101A8FBF794FE04E0AA
:1046E0000DA101A8FBF78FFE00BF00BF01A8FFF7D7
:1046F00003FF06B010BD000041542B43574D4F44FB
:10470000453D310D0A00000041542B43574D4F44A5
:10471000453D320D0A00000041542B43574D4F4494
:10472000453D330D0A00000010B50246002000236D
:10473000102A03D14FF02044636E0FE0B2F5807F62
:1047400002D10A4C236809E0B2F5805F03D1074C1F
:104750002034236802E0054CD434236803EA0104C2
:104760008C4201D0002000E0012010BD840000A098
:104770000021D0E900231A4383685B1E42EA4312FA
:10478000C36842EA4321014A11607047500100A00A
:1047900070B500220021002300240568AD00A5F1BA
:1047A000C045D5F840216FF30E02D0E901563543DC
:1047B000C6683543066935434669354386693543DE
:1047C000C6693543066A3543466A35432A43056858
:1047D00035B90568AD00A5F1C045C5F8402111E027
:1047E0003B4D2B686FF30E03D0E907563543466AFD
:1047F00035432B43364D2B600568AD00A5F1C04510
:10480000C5F84021056875BB314D0835066855F877
:10481000261001F07041856A2D686D1E866A7668E3
:10482000761E45EA0616856AAD686D1E46EA0526BF
:10483000856AED686D1E46EA0536856A2D8A6D1E0D
:1048400046EA0546856AAD8A6D1E46EA0556856AC2
:104850002D7E6D1E46EA056529431D4D0835066807
:1048600045F8261032E0FFE7194D0835066855F87F
:10487000261001F07041856A2D686D1E866A766883
:10488000761E45EA0616856AAD686D1E46EA05265F
:10489000856A2D8A6D1E46EA054529430C4D08356B
:1048A0002C6804F07044856AED686D1E2E03856ADD
:1048B000AD8A6D1E46EA05552C434FF02045C5F8DC
:1048C0004841034D0835066845F8261070BD0000C4
:1048D000400100A00449096841EA40014FF020422C
:1048E000C2F8541170470000540100A02DE9F043B4
:1048F00089B0984615460F4606004FF0000423D0B5
:1049000000F0C8FC0446304600F0A4FC814605F0E7
:10491000C3FF03A9304600F079FF17F0010F17D04D
:10492000BDF91C008221001B401B401C0096CDE9F4
:10493000018123461A464946FCF792FA04460021B3
:1049400017F0B6FC08F0A8FD09B02046BDE8F083DA
:10495000BDF9180017F0020F284414BF40F20221DD
:104960000221E3E710B50523FFF7C0FF0446054A1F
:104970000021FCF75DFC0449204619F08FFE20461B
:1049800010BD00003128020801FA020810B5072303
:10499000FFF7ACFF0446054A0021FCF749FC044937
:1049A000204619F07BFE204610BD00009129020828
:1049B000D502030810B50823FFF798FF0446054AFF
:1049C0000021FCF735FC0449204619F067FE20461B
:1049D00010BD0000112C02080D0303082DE9F0475B
:1049E000446805468EB04FF00008204603F0C2FB35
:1049F0000090B0F87CA0D0F86890D0F88070D0F823
:104A00008860C06D002818BFD0F80080684603F0A9
:104A100091FC56B171682846884700281CBF0EB02B
:104A2000BDE8F0873668002EF4D12868172802BF49
:104A3000C5F80C900EB0BDE8F08713DC0F2844D009
:104A40000ADC0B2800F053810D2808BF1AF0080F6C
:104A500000F0F68000F054B9112814D0142870D05A
:104A600000F04EB926286DD006DC1E286BD0202819
:104A700000F0F08000F044B92A2818D0B0F5107F7B
:104A80002AD000F03DB92046EE6803F073FB019098
:104A9000717A002904BF317A012905D1B0F87C1060
:104AA00041F48071A0F87C1001A800F0FDB8204608
:104AB00003F060FB0090E968002912BFC0F8841081
:104AC000D0F88400E860684649E0B8F1000F1CBFE8
:104AD0002046C04700F014B927462046EE6803F090
:104AE00049FB0190B0F87C4001A803F023FCE86882
:104AF000002804BF0EB0BDE8F087307A20B314F070
:104B0000080F04BF384619F097FE384617F098FF93
:104B100014F0100F12BF14F4807F0EB0BDE8F087C0
:104B2000002314F0800F1CBF0EB0BDE8F087794859
:104B30003146B0F90020384619F0F2FD0EB0BDE85C
:104B4000F0870FE018E024E0384603F013FB0190F3
:104B5000B0F87C1021F48071A0F87C1001A803F05B
:104B6000E9FBEBE705A9204600F050FEDDE906125F
:104B7000E86801604260E1E7E8680228DED10C9451
:104B8000E8680D9027200A900AA9A8681AF0FAFF91
:104B9000D4E7E868012819D0002CCFD005F07CFEBE
:104BA000204603F0E7FA0190B0F87C1011F0080FEE
:104BB00006D021F00801A0F87C10204619F048FA30
:104BC00001A803F0B7FB08F067FCB7E7384619F017
:104BD000C9FA58B1384619F02FFE384619F016F9BF
:104BE00088B10121384617F03BFB0CE0484619F02C
:104BF0009FFE0746204603F0BDFA0090C0F8807083
:104C0000684603F097FBB4B105F046FE204603F07A
:104C1000B1FA0290B0F87C1011F0080F06D141F003
:104C20000801A0F87C10204619F012FA02A803F03F
:104C300081FB08F031FC002F04BF0020E8607DE715
:104C4000E868C06800281FBF007A0028204619F0D5
:104C5000F3FD55E0EE684EB3214670681AF042FD50
:104C600000282746204622D003F084FA0490B0F8AA
:104C70007C1011F0080F06D141F00801A0F87C105B
:104C8000384619F0E5F904A803F054FB2146706892
:104C90001AF014FD50B1204603F06CFA02907168CE
:104CA000C0F880100DF1080003F044FB28E003F089
:104CB00061FA0490B0F87C1011F0080F06D021F0D2
:104CC0000801A0F87C10384619F0C2F904A803F0D6
:104CD00031FB214630681AF0F1FC88B1204603F020
:104CE00049FA02903168C0F8801002A8DCE720463B
:104CF00003F040FA0090703003F03AF96846D3E7C9
:104D00002946204617F0E1F900281CBF284618F074
:104D10001BF813E71C07002070B588B0B0F90840F5
:104D20000DF10C0E0C9ED0F818C045688EE870107E
:104D3000B0F812C00024CDE90014CDF808C0B0F9D5
:104D40000C10B0F91040B0F90EC0B0F90A001944C7
:104D500010442346624600F003F808B070BD00001E
:104D60002DE9FF4F8BB09946DDE91885DDE91B671A
:104D700092468B461E9C05F08FFD04F1600044496D
:104D800045F48055CDE90210CDE900854B465246E9
:104D900059460B9817F01CFF040073D003F0EAF992
:104DA00030223146049017F04DFC3A4E049A06F139
:104DB000080102F1340E91E80B1F8EE80B1FD6E9B3
:104DC0000A01C2E915011D9850661A98A2F87C00E4
:104DD0004FF00008C2F88080C2F86C80C2F888806A
:104DE0007068D06504A803F0A5FA05A9204600F074
:104DF0000DFD294841F28271CDF80C800094CDE977
:104E00000110BDF91E00BDF91A10BDF91C20401A91
:104E1000431CBDF91800121A521C17F0D9FE804627
:104E20007068416820468847204603F0A3F9049043
:104E3000C0F8688004A803F07DFA42F2040005423D
:104E400004BF204618F0AFF805F026FD204603F019
:104E500091F90090006F0190684603F06BFA3946B3
:104E600001A80AF011FD58B1204603F083F9009023
:104E700001990167684603F05DFA204619F0E8F8E9
:104E800008F00AFB08F008FB0FB02046BDE8F08FE1
:104E9000DD4900081C070020CB5B00082DE9F0412C
:104EA000044698B0006800F0BDF9002814BFDB4D3F
:104EB000DB4D6068152802BFA86A18B0BDE8F08114
:104EC00012DC0B282AD007DC002800F0928105288C
:104ED00000F02C8100F09DB90E2800F07781122897
:104EE00000F03B8100F095B9162802BFE86918B0C0
:104EF000BDE8F081172802BF286A18B0BDE8F0812C
:104F0000182802BF686A18B0BDE8F0811C2802BFEB
:104F1000686918B0BDE8F08100F07BB920680E9098
:104F20001C200F90206803F025F90390016D0EA856
:104F30008847064603A803F0FDF9022E11DBD5E9E8
:104F40000001AA680292CDE90001D4E904023346C7
:104F5000A16909F041FC20698719A069A0EB060846
:104F60002CE0286807F08BFE2169E8690844421E9E
:104F7000606904F075FFA269E869101A411C606954
:104F800004F06EFF6069471C3946206904F0C2FFD7
:104F90003946A06904F0BEFF686807F070FE20691A
:104FA0003946401C04F0B6FFA0693946401E04F0A3
:104FB000B1FF2069871CA069A0F10208286807F0EA
:104FC0005EFE42463946606904F04AFF686807F0B1
:104FD00056FE606942463946401C04F041FF686A4B
:104FE00002287DDDA86807F04AFE60696A6A811CB4
:104FF0001044431E4246384605F09EF96069022E71
:10500000ACBF0644861CE069471E286807F037FEDF
:105010003A463146206905F005F93A463146A0691D
:1050200005F000F9E069871E686807F028FE20692E
:105030003A463146401C05F0F5F8A0693A4631463B
:10504000401E05F0EFF8E8690228DCBF286A022854
:1050500020DDA86A0228C7BFE1690F1AE069871E30
:10506000A86807F00CFEE969022907DD22693B46C2
:10507000901C11444A1E314605F05EF9286A022848
:1050800008DDA169E8698A1E081A3B463146401CC2
:1050900005F052F9286807F0F2FDD4E906202169ED
:1050A00004F0DEFE686807F0EAFDA069421E206990
:1050B000411CE069401E04F0D3FEA86A02284BDDC3
:1050C00021698E1CA1698F1EE169081A441CA1F197
:1050D0000208A86807F0D3FD43463A46214600E09F
:1050E00003E0304605F028F993E0296AB14285DDF6
:1050F0006069022E00F10208ACBF8719474620699B
:10510000ACBF3044801C22693B461144A1F101022E
:10511000414605F011F9A069022EACBF821B821E28
:10512000E9693B46401A4146401C65E7208A00B2C7
:10513000ADF81800A18A09B2ADF81A10228B12B28C
:10514000ADF81C20A38B1BB2ADF81E30D5E9034C83
:10515000CDE9004C04F03AFC5BE0208A298B08443E
:10516000ADF81800A08AADF81A00208B298B401AE0
:10517000ADF81C00A08BADF81E00206802F0FAFF0D
:105180000390006FF0B1022007F04AFE039991F8F6
:105190007C00C0F3C00001EB8000006C07F06FFDE5
:1051A0000398406B07F094FD0398006F02F0E2FF54
:1051B00003990A90B1F95A2006A904F00BF80AA83D
:1051C00003F0B8F803A803F0B5F822E0208AADF8A0
:1051D0001800A08AADF81A00208BADF81C00A08B37
:1051E000ADF81E00A86807F04AFD06A805F0D0F843
:1051F0000FE0206802F0BEFF0390B0F85A1041F0B3
:105200000C01A0F85A1003A803F094F8206819F0D4
:1052100011FC18B00020BDE8F081000060070020FC
:105220008C07002038B505004FF0000410D005F0C1
:1052300033FB284602F09EFF009090F87C0010F0AF
:10524000080F18BF0124684603F074F808F024F929
:10525000204638BD38B505004FF0000411D005F0E8
:105260001BFB284602F086FF0090C06D002180687D
:105270000268284690470446684603F05BF808F049
:105280000BF9204638BD0000014840697047000016
:105290002407002030B587B005004FF0000414D07B
:1052A00005F0FAFA01A9284600F0B0FA284602F003
:1052B00061FF0090B0F95440684603F03BF8002CC1
:1052C00008BFBDF9044008F0E7F807B0204630BD3C
:1052D000002808BF70472DE9F04184B0064605F06C
:1052E000DBFA304602F046FF0190304602F042FF02
:1052F000009090F87C1011F0400F3ED0B0F90610ED
:10530000B0F90220891A4C1CB0F97A10B0F9760075
:10531000081A451C684603F00DF82A1B0021304688
:1053200019F014F8304602F025FF0090806E19F055
:1053300057FC0098C06E19F053FC304600F00AFC90
:1053400000980825B0F87C1021F04001A0F87C10EE
:10535000C46994B1204602F00DFF0290204618F077
:10536000F4F8A84204BF204618F072FE0298046ABE
:1053700002A802F0DFFF002CECD1684602F0DAFF51
:10538000019890F87C1011F0800F07D001A802F06E
:10539000D1FF04B0BDE8F04108F07EB8806902F0AA
:1053A000E9FE0290D0E90074806938B90DF076FA10
:1053B00060F30F040DF0B6FA60F31F4402A802F088
:1053C000B9FF01984FF00708D0E90012C0E91D129B
:1053D000B0F87C1041F08001A0F87C10C56995B14F
:1053E000284602F0C7FE0090284618F0AEF8404567
:1053F00004BF284618F02CFE0098056A684602F0A3
:1054000099FF002DECD101A802F094FF3A1439B2B3
:1054100015460F46304618F0F8FEC5EB2440421CF6
:1054200020B2C01B411C304619F0A4FB304600F0EE
:1054300091FBAEE7002808BF70472DE9F04188B026
:10544000064605F029FA304602F094FE05903046F3
:1054500002F090FE019090F87C1011F0800F31D096
:10546000D0E91D140A1409B215460F46304618F04B
:10547000CCFEC5EB2440421C20B2C01B411C304670
:1054800019F078FB304600F065FB01980725B0F86D
:105490007C1021F08001A0F87C10C46994B12046F2
:1054A00002F068FE0090204618F04FF8A84204BFB2
:1054B000204618F0CDFD0098046A684602F03AFFD5
:1054C000002CECD101A802F035FF059890F87C1073
:1054D00011F0400F07D005A802F02CFF08B0BDE87E
:1054E000F04107F0D9BFB0F90610B0F90220891ACF
:1054F00001F1010800F02EFA01460598C26A12680F
:1055000001EB42018F1CD0E90012C0E91D12806E30
:1055100018F08AFC0598C06E18F086FC05980825DE
:10552000B0F87C1041F04001A0F87C10C46994B13F
:10553000204602F01FFE0290204618F006F8A8420E
:1055400004BF204618F084FD0298046A02A802F005
:10555000F1FE002CECD105A802F0ECFEA7EB08024E
:105560000021304618F0F2FE304600F0F3FAB5E7BD
:10557000002808BF7047F0B585B0054605F08CF9E6
:10558000284602F0F7FD009090F87C1011F0400FD3
:105590003ED0B0F90610B0F90220891A4C1CB0F9BF
:1055A0007A10B0F97600081A461C684602F0C2FE6E
:1055B000321B0021284618F0C9FE284602F0DAFD09
:1055C0000090806E19F00CFB0098C06E19F008FB7B
:1055D000284600F0BFFA00980826B0F87C1021F0A9
:1055E0004001A0F87C10C46994B1204602F0C2FDCD
:1055F0000190204617F0A9FFB04204BF204618F0E2
:1056000027FD0198046A01A802F094FE002CECD159
:10561000684602F08FFE284602F0ACFD019090F83B
:105620007C1011F0800F31D0D0E91D140A1409B29A
:1056300017460E46284618F0E8FDC7EB2440421CEA
:1056400020B2801B411C284619F094FA284600F02D
:1056500081FA01980725B0F87C1021F08001A0F8AC
:105660007C10C46994B1204602F084FD009020466D
:1056700017F06BFFA84204BF204618F0E9FC009821
:10568000046A684602F056FE002CECD101A802F034
:1056900051FE05B0BDE8F04007F0FEBE064A0549E0
:1056A000074B1160054AD16958601B68C2E9063092
:1056B00008467047540700202007002024070020D8
:1056C0004C0700202DE9F04383B00E4607004FF051
:1056D00000053CD005F0E0F8384602F04BFD0190A3
:1056E000B0F954100D468E422CD090F83220002490
:1056F00012F0200F05D02C0003D1406B05F01CF8F0
:10570000841C01980121A0F85460C06D8668384659
:105710003268904781463268032138469047804678
:1057200032680021384690470646384600F012FAA3
:1057300043464A4621463846009600F08AF93846E4
:1057400018F086FC01A802F0F5FD07F0A5FE03B0F5
:105750002846BDE8F083002808BF70472DE9F043D4
:1057600083B00C46804605F097F8404602F002FDF3
:105770000090428E002C114614BF41F0200621F00B
:105780002006B2423AD04686404600F0E3F9009D3A
:10579000EC690CB3204602F0EDFC0190076AB0F909
:1057A0000200B5F90210A0EB010901A802F0C2FD48
:1057B000B5F9560048450DD1A86EA0420AD095F81B
:1057C000320010F0200F204602D019F009FA01E053
:1057D00018F02AFB3C00DDD1009890F87C0010F016
:1057E000400F08D016F0200F404602D019F0F8F90B
:1057F00001E018F019FB404618F02AFC684602F058
:1058000099FD07F049FE03B0BDE8F0832DE9F04FA4
:1058100000278DB00C468146BA4602F0ABFC0190E1
:10582000C06D0121856848462A68904780462A68ED
:1058300003214846904707902A680221484690472E
:1058400006902A680021484690470646019819F0BC
:1058500099FD0590019819F09CFD8346019890F8F8
:10586000321001F02001002918BFB0F958A04FF004
:10587000000506D0B0F954501DB9406B04F05CFF30
:10588000851C0198C06E10B118F064F80746258099
:105890006780A4F8048007990598401A06EB0A016E
:1058A000401E294420813944E1800699ABEB010177
:1058B000491E6181A4F80C8020827019E681401E87
:1058C000608201A802F036FDB4F90C70B4F91060E2
:1058D0004D46484602F04EFC0690C16DD0F800805F
:1058E00006A8D1F8089002F025FDD9F80020002183
:1058F000284690478146284617F0F9FD050024D038
:1059000002F038FC0790B0F900200FFA88F1B0F9E6
:105910000430521A5B1AB0F90210A1EB2841494534
:105920000BD190F8280010F0800F03D09642A8BF4A
:10593000561E02E09F42D8BF5F1C07A802F0FAFC87
:10594000284617F098FE0500DAD1A78126820DB00F
:10595000BDE8F08F10B50146002091F8322012F01A
:10596000200F08BF10BDB1F95400002818BF10BDAA
:10597000486B04F0E1FE801C10BD70B58AB00E4685
:10598000044602F0F7FB0990C06D856809A802F093
:10599000D1FC0094002E08BF18200BD0012E08BFA8
:1059A000162007D0022E08BF152003D0032E08BFF3
:1059B000172000D101906968684688470AB070BD19
:1059C0002DE9F04383B017468846814602F0D2FBAA
:1059D0000090C16D056868468C6802F0ABFC2268D7
:1059E0000021484690470646484617F080FD0400CF
:1059F00004BF03B0BDE8F08302F0BCFB0190B0F936
:105A000000102AB2B0F90430891A9A1AB0F902309B
:105A1000A3EB2543B34211D190F8280010F0800F7A
:105A200005D038688842A4BF481E386006E0D8F820
:105A300000009042DCBF501CC8F8000001A802F032
:105A400079FC204617F017FE0400D5D103B0BDE85D
:105A5000F0832DE9FF4F85B09A4691460F46DDF859
:105A600048B0059802F086FB0390C16D8C68FFF783
:105A700071FF064603A802F05DFC2268012105982B
:105A80009047029022680321059890470190226870
:105A90000021059890470546BE4204BF029848453C
:105AA00006D10198504502BF5D4509B0BDE8F08FB1
:105AB000A6EB07044FF00007B846059817F017FD4E
:105AC000060004BF09B0BDE8F08F0198A5EB0B05F7
:105AD000AAEB000A0298A0EB0909304602F04AFB43
