:020000040800F2
:10000000E04B0020C1010008D1850108CF020008A3
:10001000CD850108DD130008EBB8010800000000E1
:10002000000000000000000000000000F3AE010826
:1000300069330008000000001B020008E1B001085D
:10004000DF010008DF010008DF010008DF01000810
:10005000DF010008DF010008DF010008DF01000800
:10006000DF010008DF010008DF010008DF010008F0
:10007000DF010008B1280008DF010008F1280008AE
:10008000DF010008DF010008DF010008DF010008D0
:10009000DF010008DF010008DF010008DF010008C0
:1000A000DF010008DF010008DF010008DF010008B0
:1000B000DF010008DF010008DF010008DF010008A0
:1000C000DF010008DF010008DF010008DF01000890
:1000D000DF0100082DB60108DF010008DF0100087C
:1000E000DF010008DF010008DF010008DF01000870
:1000F000DF010008DF010008DF010008DF01000860
:10010000DF010008DF010008DF010008DF0100084F
:10011000DF010008DF01000851B40108DF01000819
:10012000DF0100082D2A0008DF010008DF010008B8
:10013000DF010008DF010008DF010008DF0100081F
:10014000DF010008DF010008DF010008DF0100080F
:10015000DF010008DF010008DF010008DF010008FF
:10016000DF010008DF010008DF010008DF010008EF
:10017000DF010008DF010008DF010008DF010008DF
:10018000DF010008DF010008DF010008DF010008CF
:10019000DF010008DF010008DF010008DF010008BF
:1001A00079510108DF010008192A0008DFF80CD096
:1001B00000F0C6FC004800471F0D0008E04B00207F
:1001C000074880470748804707480047FEE7FEE7A3
:1001D000FEE7FEE7FEE7FEE7FEE7FEE7FEE7FEE7F7
:1001E00005B10108ED9C0108AD010008EFF3108096
:1001F00072B6704780F310887047434A1368012B2A
:1002000004D04FF001031360404A1060404A11606F
:1002100040484FF0805101607047EFF3108272B692
:100220003948016851B34FF0000101603748016857
:1002300091B1EFF309811EF0100F08BF21ED108B73
:1002400021E9F00F4FF000041EF0100F08BF012449
:1002500041F8044D006801602D490968096808C922
:10026000B1E8F00F002B18BFB1EC108B81F30988B7
:100270004EF0100E002B18BF2EF0100E82F31088D7
:100280004EF0040E704722490860EFF3148222F00A
:10029000040282F314881D494FF0000008601A49D7
:1002A0004FF0010008601C484FF47F01D0F8002097
:1002B00041EA0201016017484FF080510160174880
:1002C0000068006880F3088861B662B670471EF067
:1002D000040F0CBFEFF30880EFF3098020E9F00F63
:1002E00040F804ED40F804ED1EF0040F0CBF80F35D
:1002F000088880F3098800B540F0A2FF5DF804EBA0
:100300004EF0040E70470000C0020020B80200202A
:10031000BC02002004ED00E020ED00E008ED00E06C
:1003200010B5441A0346944209D28418114403E0DC
:1003300011F8013D04F8013D521EF9D210BD40EA0A
:100340000104A40703D009E010C9121F10C3042A36
:10035000FAD203E011F8014B03F8014B521EF9D217
:1003600010BDD2B201E000F8012B491EFBD270474C
:100370000022F6E710B513460A4604461946FFF771
:10038000F0FF204610BD30B505462A460B4612F850
:10039000010B13F8014B08B1A042F8D01CB10028A2
:1003A00002D06D1CF1E7284630BD10B5044604E0CC
:1003B0000B7800F8013B03B1491C521EF8D22046CD
:1003C00010BD421C10F8011B0029FBD1801A704798
:1003D00010B5002200E0521C835C8C5CA34201D16A
:1003E000002BF8D1D8B2E1B2401A10BD30B50446A6
:1003F0000020034600E05B1C934203D2E05CCD5C2E
:10040000401BF8D030BD034611F8012B00F8012B3A
:10041000002AF9D11846704770B506462EF098F8B4
:10042000046805460A220021304600F0A5FA2C6037
:1004300070BD2DE9FE4F804681EA0300C00F0C46D7
:10044000009021F0004123F00045B8EB0200A941E3
:1004500005D24046214690461C460B46024623F0F4
:100460000040104347D0270DC7F30A00C3F30A51D9
:100470000290401A019040286BDAC3F3130040F455
:10048000801B0098924620B10023D2EB030A63EB55
:100490000B0B01985946C0F14002504600F03BFA60
:1004A00006460D4650465946019A00F053FA10EBA5
:1004B00008006141002487EA115284EAE7731A4375
:1004C00040D0009A62B3019A012A4FEA075215DC24
:1004D000001B61EB02014FF0004202EA0752CDE936
:1004E0000042001C41F5801132462B4600F0C2FA52
:1004F00003B0BDE8F08F40462146F9E7001B61EBF1
:100500000201001C41F5801300185B412018A2F580
:10051000001747EB030140EAD570B6196D4111E0B1
:100520006D084FEA360645EAC0754FEA0752001BD0
:1005300061EB0201001C41F5801149084FEA3000CF
:100540000019514132462B4603B0BDE8F04F00F090
:1005500082BA0098012240000023D0EB020263EB34
:10056000E073009821464FEAE074B8EB000061EBBD
:100570000401E9E783F000435BE781F0004158E7BD
:100580002DE9FE4F81EA030404F0004421F000410C
:1005900000944FF0000B23F0004350EA01045ED0BA
:1005A00052EA03045BD0C3F30A54C1F30A552C4446
:1005B000A4F2F3340194A0FB0254C1F3130141F4FB
:1005C0008011C3F3130343F4801301FB024400FBC7
:1005D000034E840A970A44EA815447EA8357A4FBEE
:1005E000076802958D0A05FB07854FEA932C04FBEB
:1005F0000C542705029D4FEA065847EA1637B5EB1B
:1006000008056EEB070C870E920E47EA811742EA47
:100610008312A7FB0201B6EB0B0164EB00042B0D68
:1006200043EA0C335E1844EB1C50DA465146E7FBB4
:100630000201C5F313044FEA0B3343EA14534FEAA4
:100640000432019C43EA0603A4F10C040294009CCA
:10065000CDE900B400F00EFA03B0BDE8F08F002041
:100660000146F9E72DE9F04D81EA030404F0004B5F
:1006700021F0004514464FF0000A23F0004150EAF3
:10068000050220D054EA01021DD0C5F30A570246E4
:10069000C5F31303C1F31300C1F30A5640F48015E8
:1006A00043F48013A7EB0608101BD64608F2FD386A
:1006B00073EB050002D308F1010801E092185B41D9
:1006C000B8F1000F03DA00200146BDE8F08D0020EC
:1006D0004FF48011064684460EE0171B73EB0507A6
:1006E00005D3121B63EB050306434CEA010C4908D2
:1006F0004FEA300092185B4150EA0107EDD152EA0F
:10070000030012D082EA040083EA0501084305D001
:10071000101BAB4106D20122002306E000224FF05D
:10072000004302E06FF0010253101AEB06004CEB9D
:10073000085110EB0A0041EB0B01BDE8F04D00F051
:100740008AB90EB5C10F80EAE0700844CA070021DB
:1007500040F233438DE80E000A460B4600F08AF95A
:1007600003B000BD0EB540F2334102910021CDE946
:1007700000110A460B4600F07DF903B000BD70B5CC
:10078000C1F30A5201F000450024C1F3130140F205
:10079000FF3341F480119A4201DA002070BD40F22B
:1007A00033439A42A2F2334203DC524200F0C2F8D1
:1007B00000E090402C43F1D0404270BDC1F30A529A
:1007C00010B5C1F3130140F2FF3341F480119A4296
:1007D00001DA002010BD40F233439A42A2F23342C4
:1007E00003DC524200F0A6F810BD904010BD00F0AE
:1007F000004230F000400AD0C10D01F56071C0F335
:10080000160042EA0151C208400711437047002018
:100810000146704730B5041E71F1000404DB4FF04F
:100820000044404264EB0101141E73F1000405DB37
:100830001C464FF00043524263EB04038B4208BF57
:10084000824230BD30B5041E71F1000404DB4FF06C
:100850000044404264EB0101141E73F1000405DB07
:100860001C464FF00043524263EB0403994208BF19
:10087000904230BD01F0004330B421F0004150EA15
:10088000010206D00A0DA2F56072C1F31301002A1D
:1008900002DC30BC00207047440F44EAC104C100B0
:1008A000E01830BC00EBC25000F09EB8A0E8004F4A
:1008B000F0C040F804DB01B5AFF30080BDE80240B2
:1008C00001C10020704700F12C080C4658F8040DB7
:1008D000AFF3008058F8040D8546200008BF0120C2
:1008E00038E9F00018E9004F704730B50B46014673
:1008F00000202022012409E021FA02F59D4205D3BF
:1009000003FA02F5491B04FA02F52844151EA2F168
:100910000102F1DC30BD202A04DB203A00FA02F1AA
:10092000002070479140C2F1200320FA03F31943DD
:1009300090407047202A04DB203A21FA02F000217F
:10094000704721FA02F3D040C2F1200291400843DF
:1009500019467047202A06DBCB17203A41FA02F0ED
:1009600043EAE07306E041FA02F3D040C2F120020C
:1009700091400843194670472DE9F04791460F46CC
:1009800080460446002614F8015B2DB100F0EAF819
:100990000068405DC007F6D12B2D02D02D2D18D058
:1009A000641E4A463946204600F0E0F827B139680F
:1009B000A14201D1C7F8008071054FF002040BD5A8
:1009C0004042002803DD2DF0C3FD0460A007BDE810
:1009D000F08746F48066E4E70028F8DA2DF0B8FDE9
:1009E00004606FF00040F2E70029A8BF7047401C88
:1009F000490008BF20F00100704710B4B0FA80FC35
:100A000000FA0CF050EA010404BF10BC704749B171
:100A1000CCF1200421FA04F411FA0CF118BF0121E1
:100A200021430843A3EB0C01CB1D4FEA00614FEAC1
:100A3000102042BF002010BC704700EBC350104490
:100A40000029A4BF10BC7047401C490008BF20F01B
:100A5000010010BC704710B5141E73F1000408DAD1
:100A6000401C41F1000192185B411A4301D120F072
:100A7000010010BD2DE9F04D92469B4611B1B1FA2F
:100A800081F202E0B0FA80F220329046FFF743FF95
:100A900004460F4640EA0A0041EA0B0153465A4613
:100AA000084313D0114653EA010019D0C8F140029F
:100AB0005046FFF73FFF05460E4650465946424610
:100AC000FFF729FF084305D0012004E020463946FE
:100AD000BDE8F08D0020054346EAE0762C4337431D
:100AE0000A986305E40AA0EB08000022FD0A44EA24
:100AF00047540A3002D500200146E9E701051019E4
:100B00006941DDE9084500196941BDE8F04DA2E7FA
:100B100070B521F0004303430CD0C1F30A55002403
:100B2000D5EB040564EB0403D617AD1AB34102DB21
:100B30000020014670BD201841EB025170BD00003D
:100B4000064C074D06E0E06840F0010394E807001A
:100B500098471034AC42F6D3FFF72CFB28FC100862
:100B600068FC100800487047F4F810082DE9F05FA1
:100B700082460078002715468B460AF10104B946E3
:100B8000302801D09DB113E014F8010B012778281B
:100B900003D0582801D045B10AE00DB1102D07D17E
:100BA0000027102514F8010B02E0082500E00A25B3
:100BB0000026B0460EE005FB080005FB06F1012704
:100BC00001EB10461FFA80F8B6F5803F00D3B94616
:100BD00014F8010B294600F069F80028EBDABBF1A4
:100BE000000F05D00FB1641E00E05446CBF8004062
:100BF000B9F1000F06D02DF0ABFC02210160C81E38
:100C0000BDE8F09F48EA0640FAE72DE9F04D0023E1
:100C10001A461B1A8A4103DB00200146BDE8F08D0D
:100C2000C1F30A52C1F3130141F480154FF0000BD8
:100C3000D10702D100186D41521E0027044640F230
:100C4000FF11384601EB620A3E468046024600200C
:100C50004FF48011FFF76EFEC2197141BB1846EBCD
:100C60000100B4EB030C75EB000C04D3E41A65EB44
:100C7000000517460E46241908F101006D41804613
:100C80003428E3DDF91946EB0600091BA84103D21D
:100C90004FF0FF32134601E0002213461BEB070022
:100CA00046EB0A51BDE8F04DFFF7D5BE3A2800D219
:100CB000303820F02002412A01D3A2F137008842C7
:100CC00001D34FF0FF30704770B58C1810F8015BFE
:100CD00015F0070301D110F8013B2A1106D110F8D5
:100CE000012B03E010F8016B01F8016B5B1EF9D1D9
:100CF0002B0705D40023521E0DD401F8013BFAE75F
:100D000010F8013BCB1A921C03E013F8015B01F8C9
:100D1000015B521EF9D5A142D8D3002070BD10B599
:100D2000FFF764FA41F0A6FD002010BD38B5446815
:100D30000546014620461BF038F9002808BF38BD9B
:100D4000464A286811280DD006DC0B282AD00E2828
:100D500038D00F2817D07CE0282873D0B0F5107F4A
:100D60000AD076E09268002A08BF38BD294601B053
:100D70002046BDE830401047526801B02946204661
:100D8000BDE8304010472546204607F0D1F90090D5
:100D9000406E0468684607F0ABFA002C1CBF28467A
:100DA000A04738BD204607F0C3F90090683007F02F
:100DB000BDF8009803216C3007F0E0F8684607F0B2
:100DC00097FA46E0E968486809680D2902D02029A9
:100DD00018D037E0002835DD4FF4807120461BF035
:100DE000AFF9204607F0A4F9009090F82850684623
:100DF00007F07EFA15F0020F1ED0012120461DF0EB
:100E0000A0F919E0002817DD25464FF4807120462F
:100E10001BF096F9284607F08BF9009090F82840CF
:100E2000684607F065FA14F0020F08BF38BD0121CB
:100E300028461DF086F938BD2046BDE8384002211D
:100E400029F00AB9E86820B920464FF480711BF0F8
:100E50003DF82846BDE838401BF0E6BE700400208F
:100E600070B586B04FF0000CDDE90A450C9ECDE967
:100E700002C5CDE90046CDF810C000F051F806B02B
:100E800070BDF0B585B00AAF97E8701000270497E1
:100E90008DE8701000F044F805B0F0BD70B5044660
:100EA00088B08069B4F908C0658A00260091CDE950
:100EB0000165CDE903C0B4F90C00B4F91050C118B4
:100EC000B4F90A00B4F90EC010442B46624600F093
:100ED00027F86468050020D009F0BCFC284607F01C
:100EE00027F90190866E01A8009607F001FA2146C5
:100EF00068460EF0A7FC70B10098B04208D02846B2
:100F000007F016F901900099816601A807F0F0F941
:100F100028461DF00DF80CF09DFA08B0284670BD6B
:100F20002DE9F04F85B09846DDE91164DDE90E57F3
:100F300091468A46834609F08DFC04F14C0017491E
:100F4000CDE90210CDE9005743464A46514658467E
:100F50001BF0AEFD05001BD007F0EAF81022314669
:100F600004901BF0DFFA0E4C0499B4E8CD13343131
:100F7000A1E8CD1394E80D10A1E80D1054F82C0D44
:100F8000086004A807F0B4F920684168284688473B
:100F90000CF060FA05B02846BDE8F08F2D0D000872
:100FA0007C040020F0B5044680688C4989B051F873
:100FB00020506068002800F00A81052806D0062825
:100FC0007DD0122800F0B48000F004B9E869002850
:100FD00008BF002651D0D5E90012AB688DE80F009C
:100FE00004F110010FC90DF0D7FC002655F82600BA
:100FF0000BF023FEA169E8690A1A216901446069BE
:10100000304408F00BFFA169E8690A1A216901441C
:10101000E069801B08F002FFE169E8690A1A61696A
:1010200001442069304409F0DBF8E169E8690A1AF3
:1010300061690144A069801B09F0D2F8761C022E78
:10104000D4DBA8680BF0F9FDE069E969D4F814C0B5
:10105000431A206942186144801C521E09F04AF963
:10106000E169E869A2690B1A61690144101A401C20
:10107000921E09F03FF9EE6911E055F826000BF0D9
:10108000DCFDE069831BA069821B6069811920690E
:10109000304408F045FF761C022EEEDB0226D5E92F
:1010A0000301CDE90001E169606901444B10A169C8
:1010B0008A1B811C2069304408F066FC00E011E0C6
:1010C000D5E90501CDE90001E0696169831E0144AC
:1010D0000122A06902EB6101821B2069304408F003
:1010E00053FC77E0206807F023F8049020681EF096
:1010F00091FA50B1A068002818BF00200AD10498C6
:10110000006F002818BF012004E00498406F0028F9
:1011100018BF0220049901EB8000C56E04A807F0F7
:10112000E7F800231A462846216807F0B7FE51E089
:10113000206806F0FDFF0490866E002E08BF04A80C
:1011400042D0A168B0F95C70002908BF012103D02A
:1011500003290CBF0221002100EB8101406D0C6CC2
:101160000BF094FD20460BF068FD06A809F0F0F99D
:10117000BDF81810A88B0144ADF81810BDF81C106C
:10118000081AADF81C00BDF81A00801CADF81A0052
:10119000BDF81E00801EADF81E000498B0F9602056
:1011A000B0F95E1006A80AF0DEFE04A807F0A0F869
:1011B00002200BF013FE304606F0BAFF3A4606A9AD
:1011C000059007F0E5FF05A807F092F802E0206817
:1011D0001DF0A0FB09B00020F0BD0000C0E1100828
:1011E00038B506F0A5FF04460090684607F080F881
:1011F000204638BD70B594460C46054619466046F3
:10120000049A07F00DFE024621462846BDE87040CC
:1012100000F062B8044A0349116004494A6A48620E
:1012200010467047AC040020700400207C040020AD
:1012300070B505460C46104600210A4607F010FE20
:10124000024621462846BDE8704000F045B800003F
:1012500038B50C46054609F0FDFA284606F068FF49
:101260000090064984654166684607F041F82846C3
:101270001CF05EFE0CF0EEF838BD0000AC0400205F
:10128000F0B583B00F4605004FF0010421D009F0FE
:10129000E1FA284606F04CFF0190866E01A8009600
:1012A00007F026F8394668460EF0CCFA78B1009877
:1012B0000024B04208D0284606F03AFF0190009979
:1012C000816601A807F014F828461CF031FE0CF0E6
:1012D000C1F803B02046F0BD002808BF7047F8B53C
:1012E00015460C46064609F0B5FA304606F020FFD2
:1012F0000090032C0BD200EB84006C3006F016FE3D
:10130000009800EB8400C56630461CF011FE68466C
:1013100006F0EEFF0CF09EF8F8BD00002DE9F04756
:1013200007464FF0140838680F2845D126480BF0BF
:1013300079FC07F015FB11F0D3FA24494988A0EB9A
:10134000010911F089FA21490988A0EB010A09EB8A
:10135000D97042100AEBDA7041101C4808F06EF8A0
:10136000002411F079FA814600EBD9704010022177
:1013700001FB180085B21CE015480068A04201D1AD
:10138000144800E014480646B6F8029009EBD970FC
:101390004010C0F1FA02B6F800A00AEBDA70A5EB33
:1013A0006001304608F04AF8601C84B205EB080082
:1013B00085B2052CE0DB03E038461BF035FC00BFAE
:1013C00000BFBDE8F08700008080FF006CB00B0814
:1013D000A8010020B4B20B0810B10B0800BFFEE753
:1013E0002DE9F04F466804460146CDB030461AF06C
:1013F000DCFD002804BF4DB0BDE8F08FFC4F206835
:10140000DFF8F0B30E280FD00F2800F02D82262829
:1014100000F07A83B0F5107F00F0618120461BF068
:1014200003FC4DB0BDE8F08F30461EF0F3F8002805
:1014300004BF4DB0BDE8F08F6C2225A930461BF0EB
:101440007FF92B9828B9DDE92501279A2D92CDE95E
:101450002B0128992B9888421CBF4DB0BDE8F08F16
:101460002C99299881421CBF4DB0BDE8F08FE068EF
:1014700041680029DCBF4DB0BDE8F08FDDE92C45A7
:101480000068DDF8AC80132808BFE81D17D00CDC1D
:10149000102808BF681E12D0112808BFE81F0ED000
:1014A000122808BF681C0AD00AE0212808BF601E65
:1014B00003D0222808BF601C02D12C9000E02D90A0
:1014C0002C980C2804DD0C382C9008F1010005E064
:1014D000012804DA0C302C90A8F101002B90083779
:1014E000B7E80F56CDE9400142A880E80C5697E8CE
:1014F0000F000DF59079283F89E80F002C98401EC9
:101500008BFB00214A10A2EBE171A1EB810100EB02
:10151000810040A951F820002C99022905BF2B9980
:1015200011F0030F0021012108442D9981420DDDA6
:10153000081A2D902C98401C2C900C283BDD2B98E1
:10154000401C2B902C980C382C9034E0012932DA76
:101550002C98401E2C90012805DA2B98401E2B90C9
:101560002C980C302C900837B7E80F56CDE9400185
:1015700042A880E80C5697E80F000DF5907989E8AD
:101580000F002C98401E8BFB00214A10A2EBE1714A
:10159000A1EB810100EB810140A850F821102C98AB
:1015A000022805BF2B9810F0030F002001200844EB
:1015B0002D9908442D904FF4B07130461BF0A2FED7
:1015C00007462C9A6FF003003D9900EB82002B9B9D
:1015D0000A5840A8CDF80800029912F8010B01F84A
:1015E000010B02910028F7D143B1481E202100F8D9
:1015F000011B029002A9184607F049F840A9384695
:1016000019F0C9FE2C9829902B9828906C2225A9B6
:1016100030461BF0ABF82998844204BF28988045D7
:101620001CD04FF00000ADF80000DDE93B10014494
:101630003A98ADF80210C0EBC000A0F101023B984F
:10164000ADF80420C0EBC000A0F101000144ADF8EA
:101650000610694630461CF0FBFB30E02D9925A8AA
:10166000CDE9085107AA40A926F04EFB002508AC99
:1016700054F8253003B3DDE94001CDE90401002130
:1016800007985B1E0A4644F8253018BF3A9B0CD0D9
:10169000401C072818BF194418D000BF54F825C0B3
:1016A000BCF1010C44F825C0F2D104A80AF05BFC9F
:1016B00004A930461CF0CCFB6D1C022DD8D30421AC
:1016C00030461CF03EFD4DB0BDE8F08FA3EB830C1F
:1016D00001EB4C01DDF8ECC000206244DEE7E46879
:1016E000002C04BF4DB0BDE8F08F207A00287DD0DB
:1016F0006C2225A930461BF023F8DDE92B012D9A39
:101700000792CDE90501D4E9005425A808AA694645
:1017100026F0FAFA3A983A9995FBF0F048433C994A
:101720003B9A611A891A91FBF2F13C9B083701FB45
:1017300002311144BDF900200DF5807A801A3A9AE1
:1017400090FBF2F2BDF90200081A3B9990FBF1F010
:10175000C0EBC0001044B7E83E138AE83E1397E898
:101760000E1048AD401C85E80E102999491E8BFBD0
:1017700001325310A3EBE272A2EB820201EB820171
:1017800040AA52F82110299A022A03BF289A12F07F
:10179000030F0122002211440128A8BF81424CDB23
:1017A000DDE92812CDE92C202B910C222BA905A8CC
:1017B000FEF71CFED8B16C2225A930461AF0D6FFE0
:1017C0002D990798CDE9400125AB44AA08A91846F0
:1017D00026F09AFA002440AD55F8243033B3DDE901
:1017E0000801CDE9420100210A4605E035E020E08C
:1017F000D0E11008ABAAAA2A44985B1E45F8243011
:1018000018BF3A9B0BD0401C072818BF19441BD0A7
:1018100055F824C0BCF1010C45F824C0F3D142A80E
:101820000AF0A1FB42A930461CF012FB641C022CFA
:10183000D2D3042130461CF084FC012130461CF038
:1018400080FC4DB0BDE8F08FA3EB830C01EB4C01A5
:10185000DDF8ECC000206244DAE7022130461CF0DB
:1018600070FC4DB0BDE8F08F4FF000096C2225A947
:101870003046CDF808901AF063FF30461BF0C2FFE7
:10188000804630461BF0D6FF044634986FF0704A0D
:10189000504509D00BF0D1F93C980021431EA8F126
:1018A0000102084608F026FDADF820903C98ADF8FE
:1018B00022003A98CC4D401EADF82400601EADF8D1
:1018C0002600002425AE3F984A4601190846C5FB6C
:1018D00001208210A2EBE070A0EBC000084403904E
:1018E0000228ACBF0120002006EB8000406A504572
:1018F00004D00BF0A2F908A808F028FD002208A8DF
:101900003A990AF030FB641C072CDCDBADF8209020
:101910003C98ADF822003A99491EADF824103B9945
:101920000844401EADF8260038980BF0AFF90220AD
:101930000BF054FA36980BF080F900243F98494692
:1019400002191046C5FB02108110A1EBE070A0EB5C
:10195000C00010443E9903900E2251F8200008A9BF
:1019600007F016FC002208A83A990AF0FCFA641C59
:10197000072CE3DBBDF92600A8F10302022108F0E1
:101980004DFA03AA08A925A826F0BEF93F99002917
:1019900040F31E8111F0010F05D003980628B4BF53
:1019A000401C0020039048100CD003990629B4BFB6
:1019B000491C002103910629B4BF491C0021039151
:1019C000401EF2D108370DF5807EB7E83F118EE852
:1019D0003F1197E80F0048AC84E80F002998401E9B
:1019E0008BFB00214A10A2EBE171A1EB810100EB1E
:1019F000810040A951F820002999022905BF2899A2
:101A000011F0030F0021012100EB01054FF000044C
:101A1000002DCEBFDFF8D4814DB0BDE8F08F00BF00
:101A200004F131008DF8080014E0092CF8DB601C8B
:101A300088FB00108110A1EBE07000F130018DF8FF
:101A400008104042611C00EB800001EB4000303088
:101A50008DF809002B992898814241D12C99299819
:101A600081423DD12D98611C884239D13098504532
:101A700004D00BF0E2F808A808F068FC339F259921
:101A8000289881420DD129992698884209D1279911
:101A9000601C814205D137980BF0CFF808A808F0F8
:101AA00087FA38460BF0C9F80E2208A902A807F0F9
:101AB0006FFB0398401C0390072808BFCDF80C90DB
:101AC0003F990398814214D1002108A83B9A0AF05B
:101AD0004AFAADF820903A98401EADF824000DE087
:101AE00003980228ACBF0120002006EB8000076BA2
:101AF000C5E7002208A83A990AF035FA641CAC42FE
:101B000093DB4DB0BDE8F08FA0681BF08EFCE16860
:101B1000B0F5B87F15D0A0F58070713807BF0229E5
:101B200001244DB0BDE8F08F4FF06C020AA9304699
:101B30001AF006FE0E9800190E900AD00D280DD04E
:101B400011E002290EBF4FF0FF344DB0BDE8F08F19
:101B5000EAE70D98401E0D900C2003E00D98401C04
:101B60000D9001200E904FF4B07130461BF0CAFB6F
:101B700004460E9A6FF00300229900EB82000B5886
:101B800025A90D98CDF80010009A13F8011B02F852
:101B9000011B00920029F7D138B1511E202201F813
:101BA000012B0091694606F072FD25A9204619F027
:101BB000F2FB6C220AA930461AF0D8FD30461CF020
:101BC000B7F90A2130461CF0BCFA4DB0BDE8F08FE1
:101BD00000293FF4F7AE03980628B4BF401C00204C
:101BE0000390491EF7D1EDE6932449926766666635
:101BF0002DE9FF4FC9B00E46DDE95749DDE95987A8
:101C00009A46154670211EA8DDF858B1FEF7B0FBC4
:101C10006C2103A8FEF7ACFBABF101000C2880F0AF
:101C2000E280AAF22E6042F2E201884280F0DB807C
:101C300044226F490CA8FEF773FB6E4B00211A4635
:101C40000846E4FB0320C008A0EB40102044CDE987
:101C500003ABCDE9050A0120CDE907B06648059B35
:101C6000CDF824A0CDE91D90CDE90AB318981A9BB0
:101C7000C0EBC0021998ADF88260C0EBC0001844F8
:101C8000ADF888006C202490ADF88A704FF4B870DD
:101C9000ADF89C000320ADF89E001A98574B0A3807
:101CA000ADF8808025932C93ADF8A40040F2711319
:101CB000ADF88450ADF8B830ADF886201A9B4FF0DF
:101CC000050CD21AD21DADF8BA204D4B3393ADF8A6
:101CD000C0004FF4B073ADF8D430C31CADF8A0C051
:101CE000ADF8A200D21AADF8DC00ADF8BCC0ADF87A
:101CF000D8C0ADF8BE00ADF8D630ADF8DA2000910E
:101D00000191404A04211EA8499B06F0D1FE05001E
:101D100069D06FF070411AF016FD3B4928461CF05F
:101D20002DFC4FF4B87128461BF0ECFA0446002154
:101D30001AF02EFA35492046FFF78AFA40F271115F
:101D400028461BF0DFFA044600211AF021FA2F4939
:101D50002046FFF77DFA4FF4B07128461BF0D2FA07
:101D600004462B491CF00AFC0E21204619F03FFBCB
:101D70002046139919F052FB2046179919F0F2FAF0
:101D800020461AF045FE2046129919F0C9FA079923
:101D90006FF003021B9802EB81013AAA41580698A2
:101DA000CDF80020009B11F8012B03F8012B0093C4
:101DB000002AF7D138B1591E202201F8012B0091D9
:101DC000694606F064FC3AA9204619F0E4FA284670
:101DD0001CF0A2FC6C2203A928461AF0C7FC4DB0E7
:101DE0002846BDE8F08F4DB00020BDE8F08F000020
:101DF000C405002021841042B9C601089D0E0008C8
:101E000037B20108E1130008F50C0308995E0208D7
:101E1000C1DC020830B59BB00C46054608F01AFD3F
:101E20006C22694628461AF08BFCDDE90601089A07
:101E3000A260C4E900010BF00DFB1BB030BD000037
:101E4000022828BF7047024A02EB80008162704777
:101E5000C4050020064A002804BF9163704701288A
:101E600004BF11637047022808BF51637047000028
:101E7000C40500202DE9F04F0446006889B028B160
:101E80001DF0C8FB002808BF012500D00025FE4832
:101E900050F8256060680A2800F0738108DC00288B
:101EA00000F0DD81062841D007280CD000F0E8B909
:101EB000122800F03081192802BFB06909B0BDE8CE
:101EC000F08F00F0DDB9256808F0C4FC284606F064
:101ED0002FF90090C76F684606F00AFA0BF0BAFABD
:101EE0005FF0000556F825000AF0A7FE2069C11929
:101EF000491B4B1E61691A462944284408F010F812
:101F00006D1C032DEED3D6E90301CDE90001D4F811
:101F100010C00CEB0700401B431E60691A464119B4
:101F20000CEB050007F030FD00F0AAB9A068401ED8
:101F30000690246808F08EFC204606F0F9F8009020
:101F4000D0F87C80684606F0D3F90BF083FADFF80E
:101F50003C9359F82570002F1CBF069800EB8000B9
:101F60000DD000BFB7F84810414505D107EB8001FF
:101F7000896809B11FB1C4E0FF6C002FF2D1502075
:101F800006F03AF8070000F07B81C14C5022002196
:101F90002368984770697864A7F8488059F8250045
:101FA000F864BC48A8F1060880FB081049F82570C1
:101FB0004110A1EBE071032008900120049007F18B
:101FC0004000CDE90280069D05EB850007EB80000F
:101FD000019005EB450007EB80002830009008EBEE
:101FE000D8704210401000EBD073A0EB630046188D
:101FF000501A059008F10700C11700EB51704FEA25
:10200000E00A0AFB08FB584605F0F6FF5FEA000904
:1020100077D023685A4600219847DDE9042001283B
:1020200026DD089B01213046334483421BDD4FEA05
:10203000E27C02EB5C7E02F0070C802424FA0CFCAC
:10204000404509DA0AFB00F404EBEE0419F804B089
:102050004BEA0C0B09F804B06940401C834202DDD6
:102060000029F9D0ECE70598521C761C9042D8DC88
:1020700004990298401A0490904225DD08990120A5
:1020800034463144A1421ADDD31702EB537E02F0ED
:10209000070C802323FA0CF3444509DA0AFB04FCFD
:1020A0000CEBEE0C19F80CB04BEA030B09F80CB072
:1020B0006840641CA14202DD0028F9D0ECE70498D6
:1020C000521C761E9042D9DC0098022101600099D2
:1020D00001200871009A039991600199C8800198C4
:1020E0000021A0F804A00198C0F8089001980161AF
:1020F000DDE90001C860DDE9010101800198A0F877
:1021000002800698032200EB800007EB8000114656
:1021100007F094F9B4E0206806F00AF80290B0F9EC
:10212000547090F85650D0F84490D0F8348002A8FB
:1021300006F0DEF8266808F08DFB304605F0F8FF63
:102140000390B0F87C6003A806F0D2F80BF082F997
:1021500068461BF08DF8BDF8000071190844ADF811
:102160000000246A40460AF091FD02200AF036FE83
:1021700048460AF062FD3A466946204607F008F8EC
:102180007EE0206805F0D4FF0290B0F9548090F80A
:102190005660D0F83490876C02A806F0A9F825683C
:1021A00008F058FB284605F0C3FF0390B0F87C50B8
:1021B00003A806F09DF80BF04DF968461BF058F89F
:1021C000BDF80000A9190844ADF80000206A08F025
:1021D00063FA0446484608F08DFA28F00301042902
:1021E00004BFBDF80610091A08D00C2908D1BDF9A2
:1021F0000610091A491C01EBD1714910ADF8021003
:1022000028F00C0101290CD0022913D1BDF90410CA
:10221000BDF90020891A091B01EBD17102EB6101A4
:1022200006E0BDF80420BDF80010521A121B11443C
:10223000ADF80010BDF80010621E1144ADF8041096
:10224000BDF80210401E0844ADF8060038460AF0FA
:10225000F4FC4FF0FF31684607F06AF910E020689F
:102260001CF058FB206805F063FF0790B0F90610DA
:10227000B0F90220891A491CC16707A806F038F88E
:1022800009B00020BDE8F08F08E210084C060020DD
:102290004C03002067666666044A034911600449DE
:1022A000CA69C8611046704708060020940C0020D7
:1022B000980C002000B589B0002000900290039097
:1022C000049005900690079008901920019004480A
:1022D0000068806841686846884709B000BD000012
:1022E000940C002070B5234C054682B02068418CC8
:1022F000B0F84C2011444184818CB0F85020114436
:102300008184284608F0FEF82168498CADF8001059
:10231000461828460DF0C0F83044401EADF80400C1
:1023200008F068F92168898CADF802100844401E55
:10233000ADF8060068461CF0A3FF30B1284603F054
:10234000A7FC1CF085FD0028F8D10A2D04D0BDF8AB
:1023500004002168401C48842068418CB0F84C205F
:10236000891A4184818CB0F85020891A818402B086
:1023700070BD0000680300202DE9FE4304460E46B0
:10238000154620460DF0F4FB07460F4850F8240090
:1023900007FB06080C4850F8240007FB050900213C
:1023A0000A4850F82400CDE900010948029150F88C
:1023B00024304A464146204600F0D0FA054840F80D
:1023C0002450BDE8FE8300009C000020AC000020EB
:1023D000A8000020A40000202DE9F04F85B004469D
:1023E0000D4616461F46DDE90F8BDDF838A0204666
:1023F0000DF0BEFB81461C4850F824001B4951F8E3
:10240000241009FB01001A4951F8241006FB015160
:10241000184A52F8242001FB02000490124850F898
:102420002400124951F8241009FB0100104951F809
:1024300024100AFB01710F4A52F8242001FB02000C
:10244000039000210A4850F82400A0EB08004346FE
:10245000CDE900B002912046DDE9032100F07EFACB
:1024600005B0BDE8F08F00009C000020A400002013
:10247000A8000020B00000202DE9FE4F04460D46C4
:1024800016461F46DDF8309008F07EF8012810D17E
:1024900000221921204611F04FF84B463A463146AA
:1024A000284610F065F8194A1921204611F044F821
:1024B0002AE0781B00F10108A9EB0600401C0290FD
:1024C00020460DF055FB8246114850F82400114972
:1024D00051F824100AFB01000F4951F8241006FBA3
:1024E00001510E4A52F8242001FB020B0A4951F80F
:1024F0002410A1EB08010D98CDE900104246594681
:102500002046029B00F05AFABDE8FE8F79240008AD
:102510009C000020A4000020A8000020B0000020A3
:10252000F8B504460D4616461F4603203B46324684
:1025300029460090204600F0E9FAF8BDF8B50446B7
:102540000D4616461F4604203B463246294600905B
:10255000204600F0DBFAF8BDF8B504460D461646F5
:102560001F4602203B46324629460090204600F096
:10257000CDFAF8BDF8B504460D4616461F460020B4
:102580003B46324629460090204600F0BFFAF8BD8F
:10259000F8B504460D4616461F4600203B46324617
:1025A00029460090204600F0B1FAF8BD1CB504465B
:1025B0001A2000212346044ACDE9001002210348D5
:1025C00006F076FA1CBD000065FA0208C49F0608F2
:1025D0007CB51AF081FE0546002000902B460A4A81
:1025E00006210190094806F063FA044620461AF0D5
:1025F00066FE054600234FF4C87219461AF028FA01
:102600000349086020467CBD21FE0208BC831008F7
:10261000D00100207CB51AF05FFE05460020009036
:102620002B46044A09210190034806F041FA04466A
:1026300020467CBDD5060308648410081CB50446FA
:102640001A2000212346044ACDE900100221034844
:1026500006F02EFA1CBD00003DFB020874310C0888
:102660001CB504460B48006858B90020009023466A
:10267000094A03210190094806F01AFA0549086041
:1026800007E0044800681CF01BFA024800681AF0D2
:1026900047F91CBDB0010020550B030894720D08CA
:1026A0007CB51AF019FE0546002000902B460A4A18
:1026B0000B210190094806F0FBF9044620461AF068
:1026C000FEFD054600234FF47A7219461AF0C0F950
:1026D0000349086020467CBD19FC0208E8720D0819
:1026E000CC01002010B5044620463FF010FC10BD80
:1026F0001CB50121022016F0A1F94FF48050009082
:1027000001208DF8040000208DF8060001208DF8CE
:10271000070002208DF805006946024804F0C4F85D
:102720001CBD00000004024010B5002414480068DD
:1027300020F040701249086008460068086004E014
:10274000601CC4B2012000F0DBFD0E48006808B137
:10275000642CF5DB642C01DB012010BD002404E0B7
:10276000601CC4B2012000F0CBFD0648006808B927
:10277000642CF5DB642C01DB0120EEE70020ECE7A4
:10278000000402403082404210B50648006840F024
:10279000020004490860FFF7ABFF00F067F8FFF79D
:1027A000C3FF10BD3038024010B5002404E0601CA7
:1027B000C4B2012000F0A4FD0D48006808B1642CEB
:1027C000F5DB002404E0601CC4B2012000F098FD99
:1027D0000748006808B9642CF5DB282000F090FD5C
:1027E0000348006808B1012010BD0020FCE700008C
:1027F0003082404270B50024002506E06006040ED9
:10280000FFF7D2FF0443681CC5B2082DF6DB204653
:1028100070BD7CB505460E4600F028F8FFF784FF32
:10282000F8B9002405E0FFF7E5FF0DF80400601C8F
:10283000C4B2052CF7DB9DF800009DF80110084498
:102840009DF8021008449DF8031008449DF80410F8
:10285000884208D19DF8000030709DF80200287071
:1028600001E001207CBD0020FCE7000010B50D4810
:10287000006820F040700B4908600846006840F08E
:102880008070086000200849086044F6206000F06D
:1028900037FD01200549C1F8B0021E2000F030FDCF
:1028A00010BD000000040240B0824042008040425F
:1028B00010B54FF081510B4800F08AF980B1012129
:1028C00009480DF019FE0021064800F013F94FF0F9
:1028D0008151044800F0F4F8002004490968088098
:1028E00010BD000040600240005C00402C00002051
:1028F00010B51449144800F06BF910B300211248C8
:1029000000F0F8F80F49104800F0DAF84FF42040D2
:102910000E49086007E00D490868411E0B4A116026
:1029200008B93FF0BCFF0A490A480DF0F1FD002844
:10293000F1D0012107480DF0DFFD002006490968AC
:10294000087010BD200000207060024028000020A8
:1029500004000010005C0040300000202DE9F05F12
:1029600007460C4615461E46DDE90B9ADDF8288021
:1029700038460DF021F983464FF400700E49086087
:102980000846C460C563C0F81090C0F840A0C0F805
:102990001CB0404666F31F4048640846006840F09B
:1029A0000100086000BF0448006800F00100002832
:1029B000F9D1BDE8F09F000000B002402DE9F047DA
:1029C00007460C4615461E46DDE9088938460DF0D7
:1029D000F3F882460E480F4908600846C0F8389060
:1029E000C463C0F84080C0F834A0304665F31F408F
:1029F00048640846006840F00100086000BF0548D0
:102A0000006800F001000028F9D1BDE8F08700005F
:102A10000002030000B0024010B500F001F810BD44
:102A2000022001498860704700B0024070470000F2
:102A30002DE9F04107460C4615461E4632460B4925
:102A400038460FF049F93246094920460FF044F95B
:102A50003346084A0649054800F00EF83246294632
:102A600004480FF039F9BDE8F08100006C23002024
:102A70006C3200206C14002030B50F4C0F4D2C60D0
:102A80002C46E0606161E26300242C61AC612C643F
:102A9000EC616C626C63012404EB03446C642C46AF
:102AA000246844F001042C6000BF044C246804F046
:102AB0000104002CF9D130BD0002020000B0024038
:102AC0000246094B9A4201D2084801E006481038F4
:102AD00001F000531BB1064B0B40C36002E0044BF6
:102AE0000B408360704700001064024000600240A9
:102AF0007D0F7D0F21B1026842F00102026003E008
:102B0000026822F001020260704700002DE9F843DC
:102B100005460E4614469846089F22460649284612
:102B20000FF0E4F83B46002231460348009400F0E1
:102B300005F8BDE8F88300006C14002070B5049C13
:102B40004FF481350D4E35603546E860E963002568
:102B5000356135643546EA616B63012505EB044553
:102B6000756435462D6845F00105356000BF034D9D
:102B70002D6805F00105002DF9D170BD00B00240AF
:102B8000F0B505AC70CC4FF48137DFF840C0CCF81D
:102B900000706746F860F9633A613B640527CCF83A
:102BA0001C7067467C6346EA0547CCF8447067466C
:102BB0003F6847F00107CCF8007000BF034F3F6843
:102BC00007F00107002FF9D1F0BD000000B002406E
:102BD00030B503460A46002000240B4DAB4201D21B
:102BE0000A4901E00849103902F000550DB14C685E
:102BF00000E00C68064D2C4004EA02050DB10120EE
:102C000000E0002030BD000010640240006002407F
:102C10007D0F7D0F2DE9F84305460E461446984674
:102C2000089F00233A46064928460094FFF786FF8E
:102C30002246314602480FF059F8BDE8F8830000FB
:102C40006C140020074AD0624A1ED2B2012343EA24
:102C50000222044BDA611A46D26942F02002DA619C
:102C60007047000000B002401EB5034601F07F40EF
:102C7000B0F17F4F01D118461EBD83F07F40029016
:102C800081F07F4001901548154C206002A8E0605B
:102C900001A86061C4F83CD04FF4803040EA026083
:102CA000E061C2F1FF00002444EA00600C4C606265
:102CB000002060634FF0011060642046006840F01F
:102CC0000100206000BF0648006800F001000028F5
:102CD000F9D1009880F07F40CEE7000000020200AA
:102CE00000B0024070B5049C124D134E356035465D
:102CF000E8606961EA634FF4803545EA0365F56190
:102D0000C3F1FF05002646EA05650B4E75620025F6
:102D10007563012505EB0445756435462D6845F05E
:102D20000105356000BF044D2D6805F00105002D3B
:102D3000F9D170BD0002020000B002402DE9F0415F
:102D4000044688B0006805F0F3F90690468ED0F886
:102D5000885006A805F0CCFA002D18BF012506F012
:102D6000010620681CF056FC002D18BF00200FD073
:102D70007D4951F820506068002800F0EE8002285C
:102D800000F0CE8005280CD012287DD000F0E8B8E5
:102D9000002E18BF0120EBD1002814BF0220032011
:102DA000E6E7D5E90123A86A29688DE80F0004F158
:102DB00010000FC80BF0F0FD5FF0000655F826007C
:102DC00009F03BFFA169A86A0A1A216901446069F8
:102DD000304407F023F8A169A86A0A1A216901445E
:102DE000E069801B07F01AF8E169A86A0A1A6169AC
:102DF00001442069304407F0F3F9E169A86A0A1A2E
:102E000061690144A069801B07F0EAF9761C022E73
:102E1000D4DBA86A02281BDDA86809F00EFFE1696F
:102E2000A86AD4F810C00B1A0CEB00014A1E6169A5
:102E300001440CF1020007F05DFAE169A86AA26999
:102E40000B1A61690144101A401C921E07F052FAD5
:102E5000D5E90301CDE90001E1696069A269014496
:102E60004B10A96AD4F810C0521A8C44811C6046D9
:102E700006F08AFDD5E90501CDE90001A069AB6A3C
:102E80006169C21AE06900E019E001444FF0010CE9
:102E90000CEB6101D4F810C09C44831E604606F020
:102EA00073FD686A09F0C9FEE2696169A369501A95
:102EB000181A401C091D121F07F092F950E02068F3
:102EC00005F036F90090B0F88060B0F98280C76CE8
:102ED000684605F00DFA208AB11C0844ADF80800D8
:102EE000A08A801CADF80A00A08BA18A401A218B11
:102EF000891B081AC01EADF80C00A08B801EADF80F
:102F00000E00022009F06AFF384609F0BFFE286A69
:102F100009F093FE424602A9206A06F039F91FE043
:102F20006169E0694FF0FF32401AA0F1080102EB3D
:102F30006106411CA269801B4410A2EB6107E8698D
:102F400009F07BFE002E0BDBBA19B91B204606F0F8
:102F500065FF641C761EF7D502E020681BF0DAFCE2
:102F600008B00020BDE8F08110E21008044A0349CF
:102F7000116004490A6B086310467047540600202C
:102F8000D40C0020D80C002038B50D46002405F0E4
:102F9000CFF80090C06B294605F087FA05466846D1
:102FA00005F0A6F91DB1284605F0C2F804462046F2
:102FB00038BD000010B500241448006820F44050CB
:102FC0001249086008460068086004E0601CC4B24A
:102FD000012000F0AFF90E48006808B1C82CF5DBFD
:102FE000C82C01DB012010BD002404E0601CC4B229
:102FF000012000F09FF90648006808B9F02CF5DBC5
:10300000F02C01DB0120EEE70020ECE70014024089
:10301000188242421CB50121202015F00FFD4020EE
:10302000009001208DF8040000208DF8060001209A
:103030008DF8070002208DF805006946014803F06D
:1030400033FC1CBD001402402DE9F0472DED048B2C
:10305000814600F0E9F800F0C5F8FFF7ABFF552016
:1030600000F0EEF8002423E0B9F1010F09D0B9F126
:10307000020F0BD0B9F1030F0DD0B9F1040F14D129
:103080000EE02649085D00F0DBF80EE02449085DFB
:1030900000F0D6F809E02349085D00F0D1F804E01B
:1030A0002149085D00F0CCF800BF00BF601CC4B22D
:1030B000082CD9DBBE2000F0C3F800F081F8804670
:1030C00000F07EF80546072D07DDE843C5B26FEA3C
:1030D000080000F0FF08002700E001272E4630021C
:1030E00006B206EB080006B23046FDF72AFB41ECBB
:1030F000190B9FED0E0B53EC102BFDF741FA41EC31
:10310000180BFDF73CFB06B227B13046BDEC048B33
:10311000BDE8F087704200B2F8E70000542A0408C6
:103120005C2A0408642A04086C2A040800000000D1
:103130000000E43F70B50124FFF76CFFFDF756F87F
:10314000054600F04FF8FFF735FF04462846FDF727
:1031500051F8204670BD000010B51648006820F4F4
:103160004050144908600846006840F480500860E8
:10317000002011490860022000F0DCF801200F490E
:10318000C1F898020B48006820F4405009490860D3
:103190000846006808600C2000F0CCF8064880382B
:1031A000006808B1012400E00024322000F0C2F8D9
:1031B000204610BD001402409882424200804242E4
:1031C00070B50026012508E0FFF7C6FF0446E001C0
:1031D00040EA6600C6B2681CC5B2082DF4DD304670
:1031E00070BD000010B50D48006820F440500B4938
:1031F00008600846006840F48050086000200849D4
:10320000086040F2EE2000F095F801200549C1F871
:1032100098020F2000F08EF810BD0000001402404C
:10322000988242420080424210B5FFF7DBFFFFF771
:10323000C1FECC2000F004F8442000F001F810BDDD
:1032400070B504461848006820F4405016490860DC
:103250000846006840F480500860012520E004F032
:10326000010664106EB1002010490860022000F0D1
:1032700061F801200E49C1F898023C2000F05AF88C
:103280000CE00020094908603C2000F053F80120C0
:103290000749C1F89802022000F04CF8681CC5B23A
:1032A000082DDCDD70BD000000140240988242420F
:1032B000008042421048006820F080700E4908608B
:1032C0000846006840F0807008600C48006820F0F4
:1032D00001000A4908600846006840F001000860E3
:1032E0000020486000BF00BF00BF0448406808B12C
:1032F000002070470120FCE7FCED00E0001000E03A
:1033000001B50949486809490968094AB1FBF2F160
:10331000009A5143009100BF03494968091A009A75
:103320009142F9D308BD0000001000E00000002029
:1033300040420F0001B50949486809490968094A2E
:10334000B1FBF2F1009A5143009100BF0349496873
:10335000091A009A9142F9D308BD0000001000E05C
:103360000000002040420F007047000070B5044686
:103370000D461646022C0DD1FF2009F05EFC06EB2F
:10338000460305EB45020A4901EB0410042104F051
:1033900065FB0CE0074809F050FC06EB460305EB23
:1033A0004502034901EB0410042104F057FB70BDF2
:1033B0006C4100208080FF00002808BF70472DE985
:1033C000F04F91B00F46044607F044FA204604F04F
:1033D000AFFE039090F854A0D0F83490866DC56C81
:1033E00003A804F085FF26B139462046B04700F017
:1033F000ABB900264FF00108122F7DD006DC082F54
:103400007BD0102F7AD0112F3CD006E0132F5BD049
:103410001D2F00F0E4801E2F71D0202FC0F2948168
:10342000BAF1000F00F0F280204604F081FE059012
:10343000D0F834A0D0F84C9005A804F059FFBAF1A8
:10344000000F00F0E380504604F072FE82464946C9
:10345000069009F0D3FE81465046FCF7B2FF48457E
:103460007DD9D144484609F083FE09EB0001484666
:10347000FCF7C9FF06A804F03BFF052120461AF01F
:1034800060FEC3E0B9F1000F00F05E81484604F031
:103490004FFE07462946049009F0B0FE074438461F
:1034A00009F056FE0546029609F072FE8046681C39
:1034B00086B2304609F06CFE0546A84526D004A821
:1034C00004F016FF00F040B9B9F1000F00F03C81A4
:1034D000484604F02DFE07462946049009F08EFE6A
:1034E0000744384609F034FE0546029609F050FEBE
:1034F0008046681E86B203E016E021E01AE043E051
:10350000304609F045FE0546A845D8D1314602A807
:1035100009F00CFE2A4602A93846FCF701FF0521F6
:1035200020461AF00EFECAE7691C204600F02AFC6D
:1035300000F00AB9691E204600F024FC00F004B92E
:10354000002D00F00181691E204600F01BFC204682
:1035500004F0EEFD0190C76C456B01A800E052E05D
:1035600004F0C6FE002D00F0EF80284604F0E0FDD8
:1035700006463946029009F041FE05463046FCF702
:1035800020FFA84229D918E0204604F0D1FD01907F
:10359000C76C456B01A804F0ABFE002D7ED0284619
:1035A00004F0C6FD06463946029009F027FE05469E
:1035B0003046FCF706FFA8420FD93544284609F0EB
:1035C000D7FD29182846FCF71EFF02A804F090FE3C
:1035D000052120461AF0B5FDB6E002A810E020460D
:1035E00004F0A6FD0390BAF1010F08BF80F8546003
:1035F00005D080F854802946204600F0C3FB03A87C
:1036000004F076FEA0E006A804F072FE1FFA87FB25
:10361000204604F08DFD07460290B0F938000028DE
:1036200012DD786B4FF0000940B104F081FD00908D
:103630000BF00EFF8146684604F05AFEB7F93810C9
:1036400009F10100884200DC46460298C06C0790F0
:1036500002A804F04DFE002E76D0584609F098FDE1
:10366000074626464FF00008204604F061FD0B9007
:10367000406B40B104F05CFD0890FCF7A2FE804670
:1036800008A804F035FE0B9907EB0800498F401A93
:1036900000F101080BA804F02BFE00E054E0B8F1A3
:1036A000000F2CDD304608F1100804F041FD0090B9
:1036B000D0F834A0408F8044684604F019FE41469B
:1036C000504604F049FD5FEA00093DD0BAF1000F11
:1036D0000AD104F02DFD204B0D9042461B680021BD
:1036E00098470DA804F004FE304604F021FD009038
:1036F000A0F83A80C0F83490684604F0F9FD2046FE
:1037000004F016FD0290466B02A804F0F1FD30466D
:1037100004F00EFD06460F90079909F06FFD064470
:103720003046FCF74EFE421CF0193146FCF7F8FD1E
:103730005946304609F0FAFC0FA804F0D9FD0521DE
:1037400020461AF0FEFCEFE620461AF0F1FB09F0E5
:1037500081FE11B0BDE8F08F4C03002070B54568C4
:10376000044682B028461BF055FF064621462846EF
:1037700018F01BFC002804BF02B070BD20680F28A1
:1037800044D004DC0B2847D00E2850D066E0A0F5CA
:103790008070133804D0A0F580702D381FD05DE004
:1037A00028461AF07BFE284604F0C2FC009090F8F0
:1037B000561081F0040180F85610684604F098FD18
:1037C0000021284628F04EFB284604F0B1FC00906A
:1037D000D0F8840000211AF0AAFD684624E0E068D1
:1037E00078B1017A41B10168284600F010F9012151
:1037F00028461AF0A6FC31E0022128461AF0A1FC66
:103800002CE0032128461AF09CFC27E001212846E1
:1038100028F028FB02B070BD284604F089FC019016
:10382000343004F083FB01A804F062FD16E0AEB171
:10383000E0684168002911DD01681B290ED009DC10
:1038400009291CBF0A290D2908D02846FFF7B4FD15
:1038500002B070BD212918BF2229F6D1204619F0E7
:10386000E3F902B070BD2DE9F04186B00DF13008EA
:1038700098E8F0104FF00008CDF814808DE8F010B3
:1038800000F004F806B0BDE8F08100002DE9FF4F1C
:1038900085B09846DDE91654DDE9126B91468A46FB
:1038A000159F06F0D7FF04F16001324A03914BF4F3
:1038B00080500096CDE9010243464A46514605989C
:1038C00019F0F6F804004FD004F032FC102239460B
:1038D000049018F027FE2848049990E8CC1701F1CD
:1038E000600B8BE8CC17006AC1F88000012081F8DA
:1038F0005500681C18BF012081F88800002DD8BF32
:1039000008252AB20A87002048874863551C04A866
:1039100004F0EEFC204604F00BFC0090476B408F57
:103920000544684604F0E4FC2946384604F014FCDB
:10393000060015D057B904F0FBFB104B01902A4646
:103940001B680021984701A804F0D2FC204604F02F
:10395000EFFB009045874663684604F0C9FC03E02E
:10396000204619F09BF9002409F074FD09B02046A7
:10397000BDE8F08F5D370008100D00204C030020DB
:103980000148806870470000100D002038B5050020
:103990004FF000040BD006F05DFF284604F0C8FB92
:1039A0000090846C684604F0A3FC09F053FD2046A7
:1039B00038BD002808BF7047F8B516460C460546C6
:1039C00006F048FF284604F0B3FB0090002818BF1B
:1039D000032C05D200EB8400866728461AF0A8FA6B
:1039E000684604F085FC09F035FDF8BD70B50D465C
:1039F000044606F02FFF34B12946204600F0C2F9F4
:103A000020461AF095FABDE8704009F023BD002861
:103A100008BF70472DE9F04186B00C46074606F016
:103A200019FF384604F084FB0090406B002849D011
:103A300004F07EFB03900098806E09F027F9804621
:103A4000384619F0DFFE0646039806F025FE0546C7
:103A5000009890F8601001F00301012918D00229A4
:103A60000FD0416EC06A00680844201A441E0398B3
:103A70000BF0EEFC002C11DA0021384600F082F940
:103A800017E0701B401C00EBD070A4EB6004EEE765
:103A9000406E711B081A201A441CE8E7A54204DB9B
:103AA0000246214603980BF067FC0146384600F0B9
:103AB00069F903A804F01CFC404609F0E7F8384611
:103AC0001AF036FA684604F013FC09F0C3FC06B09D
:103AD000BDE8F0812DE9F8431D46DDE9086714468D
:103AE0008946804606F0B6FEB8F1000F75D0404614
:103AF00004F01EFB3B49009081653B49C1650021F4
:103B0000C0E91291C0E90F4580F8446080F8567012
:103B1000012180F8541090F88890684604F0E8FB82
:103B2000B9F1000F40D0002DA7BF01210B460221A3
:103B3000CB1EB8BF6D422D4A0A2D08DB82FB05C0A3
:103B40004FEAA00CACEBE075491C0A2DF6DAB3F194
:103B5000FF3F02BF4B1EB342491C002CBDBF0220D9
:103B60004FF0FF3C64420120A8BF84460A2C07DBCB
:103B700082FB04439C10A4EBE374401C0A2CF7DA8C
:103B8000BCF1FF3F02BF431EB342401C002E1CBFCE
:103B9000401C491C17F0010F18BF491C8142D8BFB7
:103BA0000146404600F026F840462AF0A3F9404678
:103BB00004F0BEFA009000F0CFF80D490978884271
:103BC00005D10098C06C411C404600F0DBF8684607
:103BD00004F08EFB40461AF0ABF909F03BFCBDE85F
:103BE000F8830000A9050208F5DE0208676666662C
:103BF00054030020002808BF70472DE9F04184B02D
:103C00000C46064606F026FE304604F091FA009077
:103C1000B0F93810458FA14248D012DD406B80B119
:103C200004F086FA01900BF013FCA04206DD214659
:103C3000019809F0E3FA019A0021115401A804F057
:103C400057FB684604F054FB601B451C304604F0EB
:103C50006FFA0290D0F83480408F054402A804F037
:103C600047FB2946404604F077FA070016D0B8F122
:103C7000000F0AD104F05CFA104B03902A461B682F
:103C80000021984703A804F033FB304604F050FAB3
:103C900002904587476302A804F02AFB304604F0EF
:103CA00047FA0090048730461AF042F9684604F05B
:103CB0001FFB09F0CFFB04B0BDE8F0814C030020EE
:103CC000002808BF7047F8B516460C46054606F0B2
:103CD000C1FD284604F02CFA0090002818BF032CE0
:103CE00005D200EB8400C66628461AF021F9684622
:103CF00004F0FEFA09F0AEFBF8BD38B505000C463D
:103D000008BF38BD06F0A6FD284604F011FA009061
:103D1000C16BA1421CDC016CA1421BDB816CA14286
:103D200010D08464C16D00291CBF284688472846EE
:103D30001AF0FEF8684604F0DBFA052128461AF06E
:103D400000FA02E0684604F0D3FA09F083FB38BDBC
:103D50000C46E0E70C46E1E738B50546406B002429
:103D600068B104F0E5F900900446E96C09F046FA00
:103D7000204409F0EDF90446684604F0B9FA2046FB
:103D800038BD000010B582B00C4604F0D1F90090A7
:103D9000406BE8B104F0CCF901900BF059FB0099AD
:103DA00091F85420002A18BF0122002C15DB844210
:103DB00015DC00BFB1F93800801AA04211DBC86CD5
:103DC000A04218BFCC640020086501A804F090FA56
:103DD000684604F08DFA02B010BD0024E7E70446FF
:103DE000E8E7B1F93800841AE9E7000010B502A04D
:103DF00000F060FB10BD000041540D0A00000000FF
:103E000010B502A000F056FB10BD00004154453033
:103E10000D0A00001FB50446224604A168462AF098
:103E20006BFB684600F046FB04B010BD41542B43C9
:103E300049504D55583D25640D0A000010B512A19A
:103E4000144818F02EF814A02AF046FB1148808977
:103E500020F400500F4988814FF47A70FEF742FC3D
:103E60004FF47A70FEF73EFC4FF47A70FEF73AFC9E
:103E70004FF47A70FEF736FC0648808940F4005013
:103E800004498881002010BD41542B5253540D0A1F
:103E900000000000001001404553503832363620F3
:103EA00072657365742073756363657373210A00AB
:103EB00010B504A1054817F0F4FF4FF47A70FEF72F
:103EC00011FC10BD2B2B2B0D0A000000001001402F
:103ED0002DE9F041002025490860254908600024AB
:103EE0003FE00020214908602149086021A12448C1
:103EF00017F0D7FF002530E06420FEF7F3FB1B48E6
:103F00000068002828D000201E49194A12688854E9
:103F10001DA02AF0E1FA21A11A48FCF734FAD0B129
:103F20001FA11848FCF72FFA06461FA1B01DFCF789
:103F30002AFA07461DA11348FCF725FA06461AA1DE
:103F4000B01DFCF720FA0746002008490860084920
:103F50000860BDE8F08102E06D1C042DCCDB00BFE1
:103F6000641C052CBDDB0120F3E700005400002099
:103F70005000002041542B43494653520D0A000083
:103F80000010014028100020555341525431207236
:103F90006573697665203A2573200A004F4B00004F
:103FA000544149502C00000022000000414D414383
:103FB0002C00000070B500201B4908601B490860F8
:103FC00000242DE00020184908601849086018A155
:103FD0001B4817F066FF00251EE02820FEF782FB35
:103FE00011480068B8B100201649104A1268885478
:103FF00015A02AF071FA00200B4908600B490860EF
:1040000016A11048FCF7BFF920B115A02AF064FAF8
:10401000002070BD02E06D1C042DDEDB00BF641CBF
:10402000052CCFDB0120F4E75400002050000020D5
:1040300041542B43495053454E440D0A00000000A3
:104040000010014028100020555341525431207275
:104050006573697665203A2573200A003E000000EA
:1040600045535038323636206275696C6420636F70
:104070006E6E6563742073756363657373210A00E4
:10408000F0B58DB004460D4600201F4908601F4959
:1040900008602B4622461EA168462AF02DFA00260B
:1040A0002DE06946214817F0FCFE002723E04FF47D
:1040B0007A70FEF717FB1448006800281AD0002019
:1040C0001B49124A126888541AA02AF005FA0020E7
:1040D0000D4908600D4908601BA11548FCF753F90C
:1040E00038B12A4621461AA02AF0F6F900200DB070
:1040F000F0BD02E07F1C042FD9DB00BF761C052E2B
:10410000CFDB0120F3E70000540000205000002026
:1041100041542B43495053544152543D225443502F
:10412000222C222573222C25640D0A000010014048
:10413000281000205553415254312072657369761E
:1041400065203A2573200A00434F4E4E45435400E4
:104150004553503832363620636F6F6E6E65637428
:104160002069703A25732C706F72743A256420733D
:10417000756363657373210A0000000010B5FFF7D3
:1041800035FE10B129A02AF0A7F9FFF739FE10B1CA
:104190002DA02AF0A1F9012000F06CFA10B131A095
:1041A0002AF09AF9FFF74AFE10B136A02AF094F9E6
:1041B000FFF726FE10B124A02AF08EF9C820FEF7E2
:1041C00091FA36A139A000F009F910B138A02AF00F
:1041D00083F94FF47A70FEF785FA0020FFF71AFE94
:1041E00010B13DA02AF078F9FFF772FE10B143A09C
:1041F0002AF072F94FF4FA5146A0FFF741FF10B1CF
:1042000048A02AF069F9012000F0C0F810B14DA0D3
:104210002AF062F9FFF7CEFE10B150A02AF05CF947
:1042200056A1594817F03DFE10BD000045535038C7
:1042300032363620636F756C646E277420666F7536
:104240006E64210A00000000455350383236362093
:10425000636C6F7365206563686F206661696C21AC
:104260000A000000455350383236362073657420FA
:10427000776F726B206D6F6465206661696C210ACF
:1042800000000000455350383236362072657365A1
:1042900074206661696C210A0000000032303135FB
:1042A000333030343033303200000000484A0000F0
:1042B0004553503832363620636F6E6E6563742016
:1042C000737369642670617373776F7264732066A9
:1042D00061696C210A00000045535038323636209F
:1042E00073657420636F6E6E656374207365747498
:1042F000696E67206661696C210A00004553503879
:1043000032363620676574206970206661696C21D9
:104310000A0000003139322E3136382E312E31303C
:10432000310000004553503832363620636F6E6ED0
:1043300065637420736572766572206661696C21AD
:104340000A00000045535038323636207365742019
:104350006D6F6465206661696C210A0045535038B1
:10436000323636206275696C6420636F6E6E6563E9
:1043700074206661696C210A00000000736574494D
:10438000443A3132333400000010014010B586B099
:10439000044614B1012C0AD104E008A101A8FCF7DD
:1043A00032F804E009A101A8FCF72DF800BF00BF16
:1043B00001A800F07FF806B010BD000041542B4367
:1043C00049504D4F44453D300D0A000041542B43A8
:1043D00049504D4F44453D310D0A0000F0B58DB0B8
:1043E00004460D4600201B4908601B4908602B4607
:1043F00022461AA168462AF07FF8002626E0694680
:104400001C4817F04EFD00271DE04FF47A60FEF7C0
:1044100069F910480068A8B1002017490E4A1268CF
:1044200088540C4908600C49086014A11248FBF735
:10443000AAFF38B12A46214613A02AF04DF80020E1
:104440000DB0F0BD7F1C042FDFDB761C052ED6DB04
:104450000120F5E7540000205000002041542B4378
:10446000574A41503D222573222C222573220D0AE2
:104470000000000000100140281000205749464964
:1044800020474F542049500045535038323636208B
:10449000636F6E6E65637420737369643A25732C61
:1044A0005053573A25732073756363657373210AFC
:1044B0000000000070B5054600203449086034490A
:1044C000086034A12846FBF783FF20B9FFF7F0FC12
:1044D0000020FFF75BFF002453E000202B49086019
:1044E0002B49086029462D4817F0DBFC002644E0E4
:1044F0006420FEF7F7F82548006800283CD000202B
:104500002749234A1268885426A029F0E5FF002095
:104510001E4908601E49086027A12148FBF733FFA8
:10452000002828D025A12846FBF72DFF18B125A08B
:1045300029F0D2FF1DE02BA12846FBF724FF18B17C
:104540002AA029F0C9FF14E032A12846FBF71BFF7F
:1045500018B131A029F0C0FF0BE037A12846FBF7C6
:1045600012FF18B136A029F0B7FF02E03DA029F0F4
:10457000B3FF002070BD02E0761C042EB8DB00BF44
:10458000641C052CA9DB0120F4E700005400002086
:104590005000002041540D0A0000000000100140AE
:1045A00028100020555341525431207265736976AA
:1045B00065203A2573200A004F4B000043574D4FAA
:1045C0004445000045535038323636207365742018
:1045D000776F726B206D6F646520737563636573AD
:1045E00073210A004349504D555800004553503837
:1045F00032363620636F6E6E656374207365747433
:10460000696E67207365742073756363657373A344
:10461000A10A00004530000045535038323636209C
:10462000636C6F7365206563686F20737563636582
:104630007373A3A10A0000004349504D4F44450045
:104640004553503832363620535441204349506D3B
:104650006F6465207365742073756363657373217C
:104660000A000000455350383236362065786973A9
:10467000740A000010B586B00446012C04D0022C48
:1046800007D0032C0FD109E00AA101A8FBF7BBFE5C
:1046900009E00CA101A8FBF7B6FE04E00DA101A8FA
:1046A000FBF7B1FE00BF00BF01A8FFF703FF06B094
:1046B00010BD000041542B43574D4F44453D310D33
:1046C0000A00000041542B43574D4F44453D320DE5
:1046D0000A00000041542B43574D4F44453D330DD4
:1046E0000A00000010B5024600200023102A03D162
:1046F0004FF02044636E0FE0B2F5807F02D10A4C88
:10470000236809E0B2F5805F03D1074C20342368A9
:1047100002E0054CD434236803EA01048C4201D042
:10472000002000E0012010BD840000A00021D0E99D
:1047300000231A4383685B1E42EA4312C36842EABD
:104740004321014A11607047500100A070B500225A
:104750000021002300240568AD00A5F1C045D5F86F
:1047600040216FF30E02D0E901563543C668354348
:10477000066935434669354386693543C66935431D
:10478000066A3543466A35432A43056835B90568E4
:10479000AD00A5F1C045C5F8402111E03B4D2B68A7
:1047A0006FF30E03D0E907563543466A35432B4372
:1047B000364D2B600568AD00A5F1C045C5F8402118
:1047C000056875BB314D0835066855F8261001F0AF
:1047D0007041856A2D686D1E866A7668761E45EA88
:1047E0000616856AAD686D1E46EA0526856AED687F
:1047F0006D1E46EA0536856A2D8A6D1E46EA054617
:10480000856AAD8A6D1E46EA0556856A2D7E6D1E47
:1048100046EA056529431D4D0835066845F826100A
:1048200032E0FFE7194D0835066855F8261001F00B
:104830007041856A2D686D1E866A7668761E45EA27
:104840000616856AAD686D1E46EA0526856A2D8ABC
:104850006D1E46EA054529430C4D08352C6804F0C9
:104860007044856AED686D1E2E03856AAD8A6D1EE3
:1048700046EA05552C434FF02045C5F84841034D05
:104880000835066845F8261070BD0000400100A0FC
:104890000449096841EA40014FF02042C2F854112E
:1048A00070470000540100A02DE9F04389B09846FC
:1048B00015460F4606004FF0000423D000F0C8FC58
:1048C0000446304600F0A4FC814605F0C3FF03A96E
:1048D000304600F079FF17F0010F17D0BDF91C002A
:1048E0008221001B401B401C0096CDE9018123461C
:1048F0001A464946FCF7B4FA0446002117F048FC72
:1049000008F0A8FD09B02046BDE8F083BDF9180005
:1049100017F0020F284414BF40F202210221E3E7FE
:1049200010B50523FFF7C0FF0446054A0021FCF738
:104930007FFC0449204619F021FE204610BD0000EE
:1049400011270208E1F8020810B50723FFF7ACFFB2
:104950000446054A0021FCF76BFC0449204619F087
:104960000DFE204610BD000071280208A5010308B5
:1049700010B50823FFF798FF0446054A0021FCF70D
:1049800057FC0449204619F0F9FD204610BD0000EF
:10499000F12A0208DD0103082DE9F04744680546C5
:1049A0008EB04FF00008204603F0C2FB0090B0F834
:1049B0007CA0D0F86890D0F88070D0F88860C06D86
:1049C000002818BFD0F80080684603F091FC56B16B
:1049D00071682846884700281CBF0EB0BDE8F087E4
:1049E0003668002EF4D12868172802BFC5F80C904D
:1049F0000EB0BDE8F08713DC0F2844D00ADC0B288A
:104A000000F053810D2808BF1AF0080F00F0F6805F
:104A100000F054B9112814D0142870D000F04EB909
:104A200026286DD006DC1E286BD0202800F0F080F0
:104A300000F044B92A2818D0B0F5107F2AD000F031
:104A40003DB92046EE6803F073FB0190717A0029AE
:104A500004BF317A012905D1B0F87C1041F480718E
:104A6000A0F87C1001A800F0FDB8204603F060FB20
:104A70000090E968002912BFC0F88410D0F88400C3
:104A8000E860684649E0B8F1000F1CBF2046C04707
:104A900000F014B927462046EE6803F049FB019068
:104AA000B0F87C4001A803F023FCE868002804BFAC
:104AB0000EB0BDE8F087307A20B314F0080F04BFC1
:104AC000384619F029FE384617F02AFF14F0100F67
:104AD00012BF14F4807F0EB0BDE8F087002314F0FD
:104AE000800F1CBF0EB0BDE8F08779483146B0F9A1
:104AF0000020384619F084FD0EB0BDE8F0870FE0C5
:104B000018E024E0384603F013FB0190B0F87C1065
:104B100021F48071A0F87C1001A803F0E9FBEBE719
:104B200005A9204600F050FEDDE90612E8680160A4
:104B30004260E1E7E8680228DED10C94E8680D9055
:104B400027200A900AA9A8681AF08CFFD4E7E86821
:104B5000012819D0002CCFD005F07CFE204603F0B0
:104B6000E7FA0190B0F87C1011F0080F06D021F0A0
:104B70000801A0F87C10204619F0DAF901A803F02A
:104B8000B7FB08F067FCB7E7384619F05BFA58B195
:104B9000384619F0C1FD384619F0A8F888B101214E
:104BA000384617F0CDFA0CE0484619F031FE0746BA
:104BB000204603F0BDFA0090C0F88070684603F00C
:104BC00097FBB4B105F046FE204603F0B1FA02901F
:104BD000B0F87C1011F0080F06D141F00801A0F8E0
:104BE0007C10204619F0A4F902A803F081FB08F01C
:104BF00031FC002F04BF0020E8607DE7E868C06852
:104C000000281FBF007A0028204619F085FD55E0D6
:104C1000EE684EB3214670681AF0D4FC002827468F
:104C2000204622D003F084FA0490B0F87C1011F0F2
:104C3000080F06D141F00801A0F87C10384619F0A1
:104C400077F904A803F054FB214670681AF0A6FC1B
:104C500050B1204603F06CFA02907168C0F88010E1
:104C60000DF1080003F044FB28E003F061FA049022
:104C7000B0F87C1011F0080F06D021F00801A0F860
:104C80007C10384619F054F904A803F031FB214692
:104C900030681AF083FC88B1204603F049FA02908C
:104CA0003168C0F8801002A8DCE7204603F040FA23
:104CB0000090703003F03AF96846D3E72946204661
:104CC00017F073F900281CBF284617F0ADFF13E753
:104CD0001007002070B588B0B0F908400DF10C0E37
:104CE0000C9ED0F818C045688EE87010B0F812C05D
:104CF0000024CDE90014CDF808C0B0F90C10B0F9CB
:104D00001040B0F90EC0B0F90A001944104423460F
:104D1000624600F003F808B070BD00002DE9FF4FB7
:104D20008BB09946DDE91885DDE91B6792468B4615
:104D30001E9C05F08FFD04F16000444945F4805548
:104D4000CDE90210CDE900854B46524659460B98F5
:104D500017F0AEFE040073D003F0EAF930223146BA
:104D6000049017F0DFFB3A4E049A06F1080102F1B5
:104D7000340E91E80B1F8EE80B1FD6E90A01C2E939
:104D800015011D9850661A98A2F87C004FF0000893
:104D9000C2F88080C2F86C80C2F888807068D065E4
:104DA00004A803F0A5FA05A9204600F00DFD294846
:104DB00041F28271CDF80C800094CDE90110BDF96B
:104DC0001E00BDF91A10BDF91C20401A431CBDF984
:104DD0001800121A521C17F06BFE8046706841686A
:104DE00020468847204603F0A3F90490C0F8688065
:104DF00004A803F07DFA42F20400054204BF2046F5
:104E000018F041F805F026FD204603F091F90090D6
:104E1000006F0190684603F06BFA394601A80AF06A
:104E200011FD58B1204603F083F900900199016704
:104E3000684603F05DFA204619F07AF808F00AFB9C
:104E400008F008FB0FB02046BDE8F08F9949000834
:104E500010070020875B00082DE9F041044698B058
:104E6000006800F0BDF9002814BFDB4DDB4D606821
:104E7000152802BFA86A18B0BDE8F08112DC0B2823
:104E80002AD007DC002800F09281052800F02C8150
:104E900000F09DB90E2800F07781122800F03B81C8
:104EA00000F095B9162802BFE86918B0BDE8F08196
:104EB000172802BF286A18B0BDE8F081182802BF81
:104EC000686A18B0BDE8F0811C2802BF686918B094
:104ED000BDE8F08100F07BB920680E901C200F9097
:104EE000206803F025F90390016D0EA88847064657
:104EF00003A803F0FDF9022E11DBD5E90001AA6831
:104F00000292CDE90001D4E904023346A16909F017
:104F100041FC20698719A069A0EB06082CE02868ED
:104F200007F08BFE2169E8690844421E606904F0BD
:104F300075FFA269E869101A411C606904F06EFFF0
:104F40006069471C3946206904F0C2FF3946A069F0
:104F500004F0BEFF686807F070FE20693946401C07
:104F600004F0B6FFA0693946401E04F0B1FF206985
:104F7000871CA069A0F10208286807F05EFE42467F
:104F80003946606904F04AFF686807F056FE6069B8
:104F900042463946401C04F041FF686A02287DDD24
:104FA000A86807F04AFE60696A6A811C1044431EC3
:104FB0004246384605F09EF96069022EACBF0644B1
:104FC000861CE069471E286807F037FE3A463146DE
:104FD000206905F005F93A463146A06905F000F967
:104FE000E069871E686807F028FE20693A46314666
:104FF000401C05F0F5F8A0693A463146401E05F020
:10500000EFF8E8690228DCBF286A022820DDA86AD8
:105010000228C7BFE1690F1AE069871EA86807F078
:105020000CFEE969022907DD22693B46901C114408
:105030004A1E314605F05EF9286A022808DDA1699A
:10504000E8698A1E081A3B463146401C05F052F9B1
:10505000286807F0F2FDD4E90620216904F0DEFE9D
:10506000686807F0EAFDA069421E2069411CE069FA
:10507000401E04F0D3FEA86A02284BDD21698E1C75
:10508000A1698F1EE169081A441CA1F10208A868F1
:1050900007F0D3FD43463A46214600E003E03046A0
:1050A00005F028F993E0296AB14285DD6069022E96
:1050B00000F10208ACBF871947462069ACBF3044F5
:1050C000801C22693B461144A1F10102414605F0D2
:1050D00011F9A069022EACBF821B821EE9693B4612
:1050E000401A4146401C65E7208A00B2ADF818001E
:1050F000A18A09B2ADF81A10228B12B2ADF81C20A9
:10510000A38B1BB2ADF81E30D5E9034CCDE9004CA2
:1051100004F03AFC5BE0208A298B0844ADF81800C3
:10512000A08AADF81A00208B298B401AADF81C001C
:10513000A08BADF81E00206802F0FAFF0390006F0C
:10514000F0B1022007F04AFE039991F87C00C0F309
:10515000C00001EB8000006C07F06FFD0398406B0E
:1051600007F094FD0398006F02F0E2FF03990A90A4
:10517000B1F95A2006A904F00BF80AA803F0B8F810
:1051800003A803F0B5F822E0208AADF81800A08A41
:10519000ADF81A00208BADF81C00A08BADF81E00F6
:1051A000A86807F04AFD06A805F0D0F80FE02068CF
:1051B00002F0BEFF0390B0F85A1041F00C01A0F8C5
:1051C0005A1003A803F094F8206819F0A3FB18B054
:1051D0000020BDE8F0810000540700208007002077
:1051E00038B505004FF0000410D005F033FB284619
:1051F00002F09EFF009090F87C0010F0080F18BF9E
:105200000124684603F074F808F024F9204638BDFC
:1052100038B505004FF0000411D005F01BFB2846FF
:1052200002F086FF0090C06D002180680268284669
:1052300090470446684603F05BF808F00BF92046F7
:1052400038BD000001484069704700001807002081
:1052500030B587B005004FF0000414D005F0FAFA1D
:1052600001A9284600F0B0FA284602F061FF00903C
:10527000B0F95440684603F03BF8002C08BFBDF974
:10528000044008F0E7F807B0204630BD002808BF0A
:1052900070472DE9F04184B0064605F0DBFA304650
:1052A00002F046FF0190304602F042FF009090F875
:1052B0007C1011F0400F3ED0B0F90610B0F902207A
:1052C000891A4C1CB0F97A10B0F97600081A451CFE
:1052D000684603F00DF82A1B0021304618F0A6FF9F
:1052E000304602F025FF0090806E19F0E9FB00982F
:1052F000C06E19F0E5FB304600F00AFC0098082566
:10530000B0F87C1021F04001A0F87C10C46994B181
:10531000204602F00DFF0290204618F086F8A842C1
:1053200004BF204618F004FE0298046A02A802F0A6
:10533000DFFF002CECD1684602F0DAFF019890F80C
:105340007C1011F0800F07D001A802F0D1FF04B04B
:10535000BDE8F04108F07EB8806902F0E9FE0290F5
:10536000D0E90074806938B90DF076FA60F30F0463
:105370000DF0B6FA60F31F4402A802F0B9FF0198DD
:105380004FF00708D0E90012C0E91D12B0F87C10F8
:1053900041F08001A0F87C10C56995B1284602F063
:1053A000C7FE0090284618F040F8404504BF284644
:1053B00018F0BEFD0098056A684602F099FF002DBE
:1053C000ECD101A802F094FF3A1439B215460F4609
:1053D000304618F08AFEC5EB2440421C20B2C01BA8
:1053E000411C304619F036FB304600F091FBAEE729
:1053F000002808BF70472DE9F04188B0064605F047
:1054000029FA304602F094FE0590304602F090FEF4
:10541000019090F87C1011F0800F31D0D0E91D146C
:105420000A1409B215460F46304618F05EFEC5EB69
:105430002440421C20B2C01B411C304619F00AFB1C
:10544000304600F065FB01980725B0F87C1021F08C
:105450008001A0F87C10C46994B1204602F068FE77
:105460000090204617F0E1FFA84204BF204618F044
:105470005FFD0098046A684602F03AFF002CECD108
:1054800001A802F035FF059890F87C1011F0400F4C
:1054900007D005A802F02CFF08B0BDE8F04107F0E6
:1054A000D9BFB0F90610B0F90220891A01F101083C
:1054B00000F02EFA01460598C26A126801EB42011B
:1054C0008F1CD0E90012C0E91D12806E18F01CFC80
:1054D0000598C06E18F018FC05980825B0F87C10E7
:1054E00041F04001A0F87C10C46994B1204602F05C
:1054F0001FFE0290204617F098FFA84204BF2046E6
:1055000018F016FD0298046A02A802F0F1FE002CC1
:10551000ECD105A802F0ECFEA7EB08020021304612
:1055200018F084FE304600F0F3FAB5E7002808BF13
:105530007047F0B585B0054605F08CF9284602F0B5
:10554000F7FD009090F87C1011F0400F3ED0B0F9BC
:105550000610B0F90220891A4C1CB0F97A10B0F983
:105560007600081A461C684602F0C2FE321B002173
:10557000284618F05BFE284602F0DAFD0090806EA7
:1055800019F09EFA0098C06E19F09AFA284600F0B9
:10559000BFFA00980826B0F87C1021F04001A0F86E
:1055A0007C10C46994B1204602F0C2FD01902046EF
:1055B00017F03BFFB04204BF204618F0B9FC019839
:1055C000046A01A802F094FE002CECD1684602F0B7
:1055D0008FFE284602F0ACFD019090F87C1011F08F
:1055E000800F31D0D0E91D140A1409B217460E46B7
:1055F000284618F07AFDC7EB2440421C20B2801BDD
:10560000411C284619F026FA284600F081FA019834
:105610000725B0F87C1021F08001A0F87C10C46947
:1056200094B1204602F084FD0090204617F0FDFE64
:10563000A84204BF204618F07BFC0098046A684624
:1056400002F056FE002CECD101A802F051FE05B08C
:10565000BDE8F04007F0FEBE064A0549074B116061
:10566000054AD16958601B68C2E906300846704790
:1056700048070020140700201807002040070020DA
:105680002DE9F04383B00E4607004FF000053CD0F3
:1056900005F0E0F8384602F04BFD0190B0F95410E7
:1056A0000D468E422CD090F83220002412F0200FAC
:1056B00005D02C0003D1406B05F01CF8841C019828
:1056C0000121A0F85460C06D866838463268904762
:1056D000814632680321384690478046326800216F
:1056E000384690470646384600F012FA43464A4686
:1056F00021463846009600F08AF9384618F018FC22
:1057000001A802F0F5FD07F0A5FE03B02846BDE8AC
:10571000F083002808BF70472DE9F04383B00C46A2
:10572000804605F097F8404602F002FD0090428E58
:10573000002C114614BF41F0200621F02006B24291
:105740003AD04686404600F0E3F9009DEC690CB380
:10575000204602F0EDFC0190076AB0F90200B5F9AD
:105760000210A0EB010901A802F0C2FDB5F9560034
:1057700048450DD1A86EA0420AD095F8320010F02D
:10578000200F204602D019F09BF901E018F0BCFA76
:105790003C00DDD1009890F87C0010F0400F08D05C
:1057A00016F0200F404602D019F08AF901E018F0F7
:1057B000ABFA404618F0BCFB684602F099FD07F0D2
:1057C00049FE03B0BDE8F0832DE9F04F00278DB00E
:1057D0000C468146BA4602F0ABFC0190C06D012137
:1057E000856848462A68904780462A6803214846CB
:1057F000904707902A6802214846904706902A68F9
:105800000021484690470646019819F02BFD059067
:10581000019819F02EFD8346019890F8321001F09E
:105820002001002918BFB0F958A04FF0000506D09C
:10583000B0F954501DB9406B04F05CFF851C019811
:10584000C06E10B117F0F6FF074625806780A4F8F8
:10585000048007990598401A06EB0A01401E294466
:1058600020813944E1800699ABEB0101491E618139
:10587000A4F80C8020827019E681401E608201A885
:1058800002F036FDB4F90C70B4F910604D4648468C
:1058900002F04EFC0690C16DD0F8008006A8D1F849
:1058A000089002F025FDD9F80020002128469047F5
:1058B0008146284617F08BFD050024D002F038FC05
:1058C0000790B0F900200FFA88F1B0F90430521AAD
:1058D0005B1AB0F90210A1EB284149450BD190F8B1
:1058E000280010F0800F03D09642A8BF561E02E099
:1058F0009F42D8BF5F1C07A802F0FAFC284617F0A9
:105900002AFE0500DAD1A78126820DB0BDE8F08F0E
:1059100010B50146002091F8322012F0200F08BF88
:1059200010BDB1F95400002818BF10BD486B04F039
:10593000E1FE801C10BD70B58AB00E46044602F030
:10594000F7FB0990C06D856809A802F0D1FC0094AE
:10595000002E08BF18200BD0012E08BF162007D03C
:10596000022E08BF152003D0032E08BF172000D138
:1059700001906968684688470AB070BD2DE9F04318
:1059800083B017468846814602F0D2FB0090C16D75
:10599000056868468C6802F0ABFC22680021484626
:1059A00090470646484617F012FD040004BF03B0B6
:1059B000BDE8F08302F0BCFB0190B0F900102AB200
:1059C000B0F90430891A9A1AB0F90230A3EB2543D2
:1059D000B34211D190F8280010F0800F05D038683C
:1059E0008842A4BF481E386006E0D8F80000904204
:1059F000DCBF501CC8F8000001A802F079FC20466A
:105A000017F0A9FD0400D5D103B0BDE8F0832DE95E
:105A1000FF4F85B09A4691460F46DDF848B005988D
:105A200002F086FB0390C16D8C68FFF771FF06469C
:105A300003A802F05DFC22680121059890470290BE
:105A4000226803210598904701902268002105985B
:105A500090470546BE4204BF0298484506D10198CA
:105A6000504502BF5D4509B0BDE8F08FA6EB0704C5
:105A70004FF00007B846059817F0A9FC060004BFD0
:105A800009B0BDE8F08F0198A5EB0B05AAEB000A61
:105A90000298A0EB0909304602F04AFB0090806AA8
:105AA00010F0800F03D010F4007F06D025E010F432
:105AB000007F22D010F0800F1FD124B12246114662
:105AC000304618F0B3FB009890F8280010F0800FD3
:105AD00006D004FB17A12A4630467F1C18F022FB93
