:020000040800F2
:1000000000490020C1010008A57A0108CF020008BC
:10001000A17A01083D1200084DAA01080000000065
:100020000000000000000000000000003BA30108E9
:10003000BD310008000000001B02000829A50108CE
:10004000DF010008DF010008DF010008DF01000810
:10005000DF010008DF010008DF010008DF01000800
:10006000DF010008DF010008DF010008DF010008F0
:10007000DF01000805270008DF0100084527000808
:10008000DF010008DF010008DF010008DF010008D0
:10009000DF010008DF010008DF010008DF010008C0
:1000A000DF010008DF010008DF010008DF010008B0
:1000B000DF010008DF010008DF010008DF010008A0
:1000C000DF010008DF010008DF010008DF01000890
:1000D000DF010008DF010008DF010008DF01000880
:1000E000DF010008DF010008DF010008DF01000870
:1000F000DF010008DF010008DF010008DF01000860
:10010000DF010008DF010008DF010008DF0100084F
:10011000DF010008DF010008DF010008DF0100083F
:10012000DF01000881280008DF010008DF01000866
:10013000DF010008DF010008DF010008DF0100081F
:10014000DF010008DF010008DF010008DF0100080F
:10015000DF010008DF010008DF010008DF010008FF
:10016000DF010008DF010008DF010008DF010008EF
:10017000DF010008DF010008DF010008DF010008DF
:10018000DF010008DF010008DF010008DF010008CF
:10019000DF010008DF010008DF010008DF010008BF
:1001A0004D460108DF0100086D280008DFF80CD07B
:1001B00000F056FC004800477D0B00080049002075
:1001C000074880470748804707480047FEE7FEE7A3
:1001D000FEE7FEE7FEE7FEE7FEE7FEE7FEE7FEE7F7
:1001E0004DA5010835910108AD010008EFF310801D
:1001F00072B6704780F310887047434A1368012B2A
:1002000004D04FF001031360404A1060404A11606F
:1002100040484FF0805101607047EFF3108272B692
:100220003948016851B34FF0000101603748016857
:1002300091B1EFF309811EF0100F08BF21ED108B73
:1002400021E9F00F4FF000041EF0100F08BF012449
:1002500041F8044D006801602D490968096808C922
:10026000B1E8F00F002B18BFB1EC108B81F30988B7
:100270004EF0100E002B18BF2EF0100E82F31088D7
:100280004EF0040E704722490860EFF3148222F00A
:10029000040282F314881D494FF0000008601A49D7
:1002A0004FF0010008601C484FF47F01D0F8002097
:1002B00041EA0201016017484FF080510160174880
:1002C0000068006880F3088861B662B670471EF067
:1002D000040F0CBFEFF30880EFF3098020E9F00F63
:1002E00040F804ED40F804ED1EF0040F0CBF80F35D
:1002F000088880F3098800B53FF098FD5DF804EBAD
:100300004EF0040E70470000B8020020B00200203A
:10031000B402002004ED00E020ED00E008ED00E074
:1003200010B5441A0346944209D28418114403E0DC
:1003300011F8013D04F8013D521EF9D210BD40EA0A
:100340000104A40703D009E010C9121F10C3042A36
:10035000FAD203E011F8014B03F8014B521EF9D217
:1003600010BDD2B201E000F8012B491EFBD270474C
:100370000022F6E710B513460A4604461946FFF771
:10038000F0FF204610BD421C10F8011B0029FBD1D4
:10039000801A704730B504460020034600E05B1C1D
:1003A000934203D2E05CCD5C401BF8D030BD0346E5
:1003B00011F8012B00F8012B002AF9D118467047DB
:1003C0002DE9FE4F804681EA0300C00F0C460090E5
:1003D00021F0004123F00045B8EB0200A94105D20D
:1003E0004046214690461C460B46024623F00040FC
:1003F000104347D0270DC7F30A00C3F30A510290F8
:10040000401A019040286BDAC3F3130040F4801BBC
:100410000098924620B10023D2EB030A63EB0B0B4A
:1004200001985946C0F14002504600F03CFA064699
:100430000D4650465946019A00F054FA10EB080058
:100440006141002487EA115284EAE7731A4340D0DD
:10045000009A62B3019A012A4FEA075215DC001B89
:1004600061EB02014FF0004202EA0752CDE900427F
:10047000001C41F5801132462B4600F08BFA03B088
:10048000BDE8F08F40462146F9E7001B61EB020111
:10049000001C41F5801300185B412018A2F50017DD
:1004A00047EB030140EAD570B6196D4111E06D08C4
:1004B0004FEA360645EAC0754FEA0752001B61EB6A
:1004C0000201001C41F5801149084FEA3000001973
:1004D000514132462B4603B0BDE8F04F00F04BBA15
:1004E0000098012240000023D0EB020263EBE0738E
:1004F000009821464FEAE074B8EB000061EB04017C
:10050000E9E783F000435BE781F0004158E72DE91C
:10051000FE4F81EA030404F0004421F000410094FE
:100520004FF0000B23F0004350EA01045ED052EA82
:1005300003045BD0C3F30A54C1F30A552C44A4F25C
:10054000F3340194A0FB0254C1F3130141F4801170
:10055000C3F3130343F4801301FB024400FB034E77
:10056000840A970A44EA815447EA8357A4FB076840
:1005700002958D0A05FB07854FEA932C04FB0C546A
:100580002705029D4FEA065847EA1637B5EB0805DE
:100590006EEB070C870E920E47EA811742EA831230
:1005A000A7FB0201B6EB0B0164EB00042B0D43EA41
:1005B0000C335E1844EB1C50DA465146E7FB02014F
:1005C000C5F313044FEA0B3343EA14534FEA0432E2
:1005D000019C43EA0603A4F10C040294009CCDE9BB
:1005E00000B400F0D7F903B0BDE8F08F0020014659
:1005F000F9E72DE9F04D81EA030404F0004B21F006
:10060000004514464FF0000A23F0004150EA05026D
:1006100020D054EA01021DD0C5F30A570246C5F3A3
:100620001303C1F31300C1F30A5640F4801543F4D9
:100630008013A7EB0608101BD64608F2FD3873EBB3
:10064000050002D308F1010801E092185B41B8F1FE
:10065000000F03DA00200146BDE8F08D00204FF4C2
:100660008011064684460EE0171B73EB050705D381
:10067000121B63EB050306434CEA010C49084FEAE1
:10068000300092185B4150EA0107EDD152EA0300B5
:1006900012D082EA040083EA0501084305D0101B4A
:1006A000AB4106D20122002306E000224FF00043B6
:1006B00002E06FF0010253101AEB06004CEB0851F8
:1006C00010EB0A0041EB0B01BDE8F04D00F053B90F
:1006D0000EB5C10F80EAE0700844CA07002140F25D
:1006E00033438DE80E000A460B4600F053F903B081
:1006F00000BD0EB540F2334102910021CDE9001159
:100700000A460B4600F046F903B000BD70B5C1F3D0
:100710000A5201F000450024C1F3130140F2FF33F7
:1007200041F480119A4201DA002070BD40F2334357
:100730009A42A2F2334203DC524200F0C3F800E0D6
:1007400090402C43F1D0404270BDC1F30A5210B525
:10075000C1F3130140F2FF3341F480119A4201DAF0
:10076000002010BD40F233439A42A2F2334203DC30
:10077000524200F0A7F810BD904010BD00F00042BA
:1007800030F000400AD0C10D01F56071C0F31600D1
:1007900042EA0151C2084007114370470020014658
:1007A0007047000030B5041E71F1000404DB4FF007
:1007B0000044404264EB0101141E73F1000405DBA8
:1007C0001C464FF00043524263EB04038B4208BFC8
:1007D000824230BD30B5041E71F1000404DB4FF0DD
:1007E0000044404264EB0101141E73F1000405DB78
:1007F0001C464FF00043524263EB0403994208BF8A
:10080000904230BD01F0004330B421F0004150EA85
:10081000010206D00A0DA2F56072C1F31301002A8D
:1008200002DC30BC00207047440F44EAC104C10020
:10083000E01830BC00EBC25000F066B8A0E8004FF2
:10084000F0C040F804DB01B5AFF30080BDE8024022
:1008500001C10020704700F12C080C4658F8040D27
:10086000AFF3008058F8040D8546200008BF012032
:1008700038E9F00018E9004F704730B50B460146E3
:1008800000202022012409E021FA02F59D4205D32F
:1008900003FA02F5491B04FA02F52844151EA2F1D9
:1008A0000102F1DC30BD202A04DB203A00FA02F11B
:1008B000002070479140C2F1200320FA03F319434E
:1008C00090407047202A04DB203A21FA02F00021F0
:1008D000704721FA02F3D040C2F120029140084350
:1008E00019467047202A06DBCB17203A41FA02F05E
:1008F00043EAE07306E041FA02F3D040C2F120027D
:1009000091400843194670470029A8BF7047401C12
:10091000490008BF20F00100704710B4B0FA80FC15
:1009200000FA0CF050EA010404BF10BC704749B152
:10093000CCF1200421FA04F411FA0CF118BF0121C2
:1009400021430843A3EB0C01CB1D4FEA00614FEAA2
:10095000102042BF002010BC704700EBC350104471
:100960000029A4BF10BC7047401C490008BF20F0FC
:10097000010010BC704710B5141E73F1000408DAB2
:10098000401C41F1000192185B411A4301D120F053
:10099000010010BD2DE9F04D92469B4611B1B1FA10
:1009A00081F202E0B0FA80F220329046FFF77BFF3E
:1009B00004460F4640EA0A0041EA0B0153465A46F4
:1009C000084313D0114653EA010019D0C8F1400280
:1009D0005046FFF777FF05460E46504659464246B9
:1009E000FFF761FF084305D0012004E020463946A7
:1009F000BDE8F08D0020054346EAE0762C433743FE
:100A00000A986305E40AA0EB08000022FD0A44EA04
:100A100047540A3002D500200146E9E701051019C4
:100A20006941DDE9084500196941BDE8F04DA2E7DB
:100A300070B521F0004303430CD0C1F30A550024E4
:100A4000D5EB040564EB0403D617AD1AB34102DB02
:100A50000020014670BD201841EB025170BD00001E
:100A6000064C074D06E0E06840F0010394E80700FB
:100A700098471034AC42F6D3FFF79CFBECE5100826
:100A80002CE610082DE9F04D00231A461B1A8A4166
:100A900003DB00200146BDE8F08DC1F30A52C1F32B
:100AA000130141F480154FF0000BD10702D100185B
:100AB0006D41521E0027044640F2FF11384601EBFB
:100AC000620A3E468046024600204FF48011FFF73E
:100AD000F9FEC2197141BB1846EB0100B4EB030CDF
:100AE00075EB000C04D3E41A65EB000517460E46BF
:100AF000241908F101006D4180463428E3DDF9191D
:100B000046EB0600091BA84103D24FF0FF32134603
:100B100001E0002213461BEB070046EB0A51BDE83B
:100B2000F04DFFF728BF70B58C1810F8015B15F079
:100B3000070301D110F8013B2A1106D110F8012B4F
:100B400003E010F8016B01F8016B5B1EF9D12B0774
:100B500005D40023521E0DD401F8013BFAE710F82A
:100B6000013BCB1A921C03E013F8015B01F8015B17
:100B7000521EF9D5A142D8D3002070BD10B5FFF7A1
:100B800035FB40F06DFC002010BD000038B5446816
:100B900005460146204619F0ECFF002808BF38BD85
:100BA000464A286811280DD006DC0B282AD00E28CA
:100BB00038D00F2817D07CE0282873D0B0F5107FEC
:100BC0000AD076E09268002A08BF38BD294601B0F5
:100BD0002046BDE830401047526801B02946204603
:100BE000BDE8304010472546204606F00BFD00903A
:100BF000406E0468684606F0E5FD002C1CBF2846E0
:100C0000A04738BD204606F0FDFC0090683006F095
:100C1000F7FB009803216C3006F01AFC684606F0DA
:100C2000D1FD46E0E968486809680D2902D020290D
:100C300018D037E0002835DD4FF4807120461AF0D7
:100C400063F8204606F0DEFC009090F828506846D5
:100C500006F0B8FD15F0020F1ED0012120461CF051
:100C600054F819E0002817DD25464FF4807120461E
:100C70001AF04AF8284606F0C5FC009090F8284083
:100C8000684606F09FFD14F0020F08BF38BD012131
:100C900028461CF03AF838BD2046BDE8384002210D
:100CA00027F0BEBFE86820B920464FF4807119F0E4
:100CB000F1FE2846BDE838401AF09ABD68040020CD
:100CC00070B586B04FF0000CDDE90A450C9ECDE909
:100CD00002C5CDE90046CDF810C000F051F806B0CD
:100CE00070BDF0B585B00AAF97E870100027049783
:100CF0008DE8701000F044F805B0F0BD70B5044602
:100D000088B08069B4F908C0658A00260091CDE9F1
:100D10000165CDE903C0B4F90C00B4F91050C11855
:100D2000B4F90A00B4F90EC010442B46624600F034
:100D300027F86468050020D008F0F6FF284606F082
:100D400061FC0190866E01A8009606F03BFD2146ED
:100D500068460DF0E1FF70B10098B04208D0284617
:100D600006F050FC01900099816601A806F02AFD6A
:100D700028461BF0C1FE0BF0D7FD08B0284670BD19
:100D80002DE9F04F85B09846DDE91164DDE90E5795
:100D900091468A46834608F0C7FF04F14C00174984
:100DA000CDE90210CDE9005743464A465146584620
:100DB0001AF062FC05001BD006F024FC102231461C
:100DC00004901AF093F90E4C0499B4E8CD13343121
:100DD000A1E8CD1394E80D10A1E80D1054F82C0DE6
:100DE000086004A806F0EEFC2068416828468847A1
:100DF0000BF09AFD05B02846BDE8F08F8D0B00087A
:100E000074040020F0B5044680688C4989B051F81C
:100E100020506068002800F00A81052806D00628C6
:100E20007DD0122800F0B48000F004B9E8690028F1
:100E300008BF002651D0D5E90012AB688DE80F003D
:100E400004F110010FC90DF011F8002655F8260025
:100E50000BF05DF9A169E8690A1A2169014460692A
:100E6000304408F045FAA169E8690A1A2169014489
:100E7000E069801B08F03CFAE169E8690A1A6169D7
:100E800001442069304408F015FCE169E8690A1A58
:100E900061690144A069801B08F00CFC761C022EDD
:100EA000D4DBA8680BF033F9E069E969D4F814C021
:100EB000431A206942186144801C521E08F084FCC9
:100EC000E169E869A2690B1A61690144101A401CC2
:100ED000921E08F079FCEE6911E055F826000BF03F
:100EE00016F9E069831BA069821B6069811920697A
:100EF000304408F07FFA761C022EEEDB0226D5E99C
:100F00000301CDE90001E169606901444B10A16969
:100F10008A1B811C2069304407F0A0FF00E011E02B
:100F2000D5E90501CDE90001E0696169831E01444D
:100F30000122A06902EB6101821B2069304407F0A5
:100F40008DFF77E0206806F05DFB049020681DF0BF
:100F500045F950B1A068002818BF00200AD10498B4
:100F6000006F002818BF012004E00498406F00289B
:100F700018BF0220049901EB8000C56E04A806F09A
:100F800021FC00231A462846216807F0F1F951E0B8
:100F9000206806F037FB0490866E002E08BF04A878
:100FA00042D0A168B0F95C70002908BF012103D0CC
:100FB00003290CBF0221002100EB8101406D0C6C64
:100FC0000BF0CEF820460BF0A2F806A808F02AFD98
:100FD000BDF81810A88B0144ADF81810BDF81C100E
:100FE000081AADF81C00BDF81A00801CADF81A00F4
:100FF000BDF81E00801EADF81E000498B0F96020F8
:10100000B0F95E1006A80AF018FA04A806F0DAFB98
:1010100002200BF04DF9304606F0F4FA3A4606A9E4
:10102000059007F01FFB05A806F0CCFB02E0206846
:101030001CF054FA09B00020F0BD000008CC1008E4
:1010400038B506F0DFFA04460090684606F0BAFBB1
:10105000204638BD70B594460C4605461946604694
:10106000049A07F047F9024621462846BDE8704039
:1010700000F062B8044A0349116004494A6A4862B0
:1010800010467047A4040020680400207404002067
:1010900070B505460C46104600210A4607F04AF98D
:1010A000024621462846BDE8704000F045B80000E1
:1010B00038B50C46054608F037FE284606F0A2FA79
:1010C0000090064984654166684606F07BFB284629
:1010D0001BF012FD0BF028FC38BD0000A40400201A
:1010E000F0B583B00F4605004FF0010421D008F0A1
:1010F0001BFE284606F086FA0190866E01A800962F
:1011000006F060FB394668460DF006FE78B100989F
:101110000024B04208D0284606F074FA01900099E5
:10112000816601A806F04EFB28461BF0E5FC0BF09B
:10113000FBFB03B02046F0BD002808BF7047F8B5A0
:1011400015460C46064608F0EFFD304606F05AFA02
:101150000090032C0BD200EB84006C3006F050F9A9
:10116000009800EB8400C56630461BF0C5FC68465D
:1011700006F028FB0BF0D8FBF8BD00002DE9F04786
:1011800007464FF0140838680F2845D126480AF062
:10119000B3FF06F04FFE10F00DFE24494988A0EB86
:1011A000010910F0C3FD21490988A0EB010A09EBF0
:1011B000D97042100AEBDA7041101C4807F0A8FB06
:1011C000002410F0B3FD814600EBD97040100221DD
:1011D00001FB180085B21CE015480068A04201D14F
:1011E000144800E014480646B6F8029009EBD9709E
:1011F0004010C0F1FA02B6F800A00AEBDA70A5EBD5
:101200006001304607F084FB601C84B205EB0800E7
:1012100085B2052CE0DB03E038461AF0E9FA00BF9E
:1012200000BFBDE8F08700008080FF00B49A0B0883
:10123000A0010020FC9C0B08589B0B0800BFFEE798
:101240002DE9F04F466804460146CDB0304619F00E
:1012500090FC002804BF4DB0BDE8F08FFC4F206823
:10126000DFF8F0B30E280FD00F2800F02D822628CB
:1012700000F07A83B0F5107F00F0618120461AF00B
:10128000B7FA4DB0BDE8F08F30461CF0A7FF00283C
:1012900004BF4DB0BDE8F08F6C2225A930461AF08E
:1012A00033F82B9828B9DDE92501279A2D92CDE94D
:1012B0002B0128992B9888421CBF4DB0BDE8F08FB8
:1012C0002C99299881421CBF4DB0BDE8F08FE06891
:1012D00041680029DCBF4DB0BDE8F08FDDE92C4549
:1012E0000068DDF8AC80132808BFE81D17D00CDCBF
:1012F000102808BF681E12D0112808BFE81F0ED0A2
:10130000122808BF681C0AD00AE0212808BF601E06
:1013100003D0222808BF601C02D12C9000E02D9041
:101320002C980C2804DD0C382C9008F1010005E005
:10133000012804DA0C302C90A8F101002B9008371A
:10134000B7E80F56CDE9400142A880E80C5697E86F
:101350000F000DF59079283F89E80F002C98401E6A
:101360008BFB00214A10A2EBE171A1EB810100EBA4
:10137000810040A951F820002C99022905BF2B9922
:1013800011F0030F0021012108442D9981420DDD48
:10139000081A2D902C98401C2C900C283BDD2B9883
:1013A000401C2B902C980C382C9034E0012932DA18
:1013B0002C98401E2C90012805DA2B98401E2B906B
:1013C0002C980C302C900837B7E80F56CDE9400127
:1013D00042A880E80C5697E80F000DF5907989E84F
:1013E0000F002C98401E8BFB00214A10A2EBE171EC
:1013F000A1EB810100EB810140A850F821102C984D
:10140000022805BF2B9810F0030F0020012008448C
:101410002D9908442D904FF4B07130461AF056FDC6
:1014200007462C9A6FF003003D9900EB82002B9B3E
:101430000A5840A8CDF80800029912F8010B01F8EB
:10144000010B02910028F7D143B1481E202100F87A
:10145000011B029002A9184606F083FB40A93846FA
:1014600019F0BDF92C9829902B9828906C2225A969
:10147000304619F05FFF2998844204BF28988045C0
:101480001CD04FF00000ADF80000DDE93B10014436
:101490003A98ADF80210C0EBC000A0F101023B98F1
:1014A000ADF80420C0EBC000A0F101000144ADF88C
:1014B0000610694630461BF0AFFA30E02D9925A89A
:1014C000CDE9085107AA40A925F002FA002508AC89
:1014D00054F8253003B3DDE94001CDE904010021D2
:1014E00007985B1E0A4644F8253018BF3A9B0CD07B
:1014F000401C072818BF194418D000BF54F825C055
:10150000BCF1010C44F825C0F2D104A809F095FF04
:1015100004A930461BF080FA6D1C022DD8D304219B
:1015200030461BF0F2FB4DB0BDE8F08FA3EB830C0F
:1015300001EB4C01DDF8ECC000206244DEE7E4681A
:10154000002C04BF4DB0BDE8F08F207A00287DD07C
:101550006C2225A9304619F0D7FEDDE92B012D9A22
:101560000792CDE90501D4E9005425A808AA6946E7
:1015700025F0AEF93A983A9995FBF0F048433C993A
:101580003B9A611A891A91FBF2F13C9B083701FBE7
:1015900002311144BDF900200DF5807A801A3A9A83
:1015A00090FBF2F2BDF90200081A3B9990FBF1F0B2
:1015B000C0EBC0001044B7E83E138AE83E1397E83A
:1015C0000E1048AD401C85E80E102999491E8BFB72
:1015D00001325310A3EBE272A2EB820201EB820113
:1015E00040AA52F82110299A022A03BF289A12F021
:1015F000030F0122002211440128A8BF81424CDBC5
:10160000DDE92812CDE92C202B910C222BA905A86D
:10161000FEF7C0FED8B16C2225A9304619F08AFE2B
:101620002D990798CDE9400125AB44AA08A9184691
:1016300025F04EF9002440AD55F8243033B3DDE9F0
:101640000801CDE9420100210A4605E035E020E02D
:1016500018CC1008ABAAAA2A44985B1E45F824307F
:1016600018BF3A9B0BD0401C072818BF19441BD049
:1016700055F824C0BCF1010C45F824C0F3D142A8B0
:1016800009F0DBFE42A930461BF0C6F9641C022CAF
:10169000D2D3042130461BF038FB012130461BF029
:1016A00034FB4DB0BDE8F08FA3EB830C01EB4C0194
:1016B000DDF8ECC000206244DAE7022130461BF07E
:1016C00024FB4DB0BDE8F08F4FF000096C2225A936
:1016D0003046CDF8089019F017FE30461AF076FE25
:1016E000804630461AF08AFE044634986FF0704AFD
:1016F000504509D00AF00BFD3C980021431EA8F18B
:101700000102084608F060F8ADF820903C98ADF86A
:1017100022003A98CC4D401EADF82400601EADF872
:101720002600002425AE3F984A4601190846C5FB0D
:1017300001208210A2EBE070A0EBC00008440390EF
:101740000228ACBF0120002006EB8000406A504513
:1017500004D00AF0DCFC08A808F062F8002208A80F
:101760003A9909F06AFE641C072CDCDBADF8209086
:101770003C98ADF822003A99491EADF824103B99E7
:101780000844401EADF8260038980AF0E9FC022013
:101790000AF08EFD36980AF0BAFC00243F984946BC
:1017A00002191046C5FB02108110A1EBE070A0EBFE
:1017B000C00010443E9903900E2251F8200008A961
:1017C00006F050FF002208A83A9909F036FE641C82
:1017D000072CE3DBBDF92600A8F10302022107F084
:1017E00087FD03AA08A925A825F072F83F990029CA
:1017F00040F31E8111F0010F05D003980628B4BFF5
:10180000401C0020039048100CD003990629B4BF57
:10181000491C002103910629B4BF491C00210391F2
:10182000401EF2D108370DF5807EB7E83F118EE8F3
:101830003F1197E80F0048AC84E80F002998401E3C
:101840008BFB00214A10A2EBE171A1EB810100EBBF
:10185000810040A951F820002999022905BF289943
:1018600011F0030F0021012100EB01054FF00004EE
:10187000002DCEBFDFF8D4814DB0BDE8F08F00BFA2
:1018800004F131008DF8080014E0092CF8DB601C2D
:1018900088FB00108110A1EBE07000F130018DF8A1
:1018A00008104042611C00EB800001EB400030302A
:1018B0008DF809002B992898814241D12C992998BB
:1018C00081423DD12D98611C884239D130985045D4
:1018D00004D00AF01CFC08A807F0A2FF339F25994A
:1018E000289881420DD129992698884209D12799B3
:1018F000601C814205D137980AF009FC08A807F05E
:10190000C1FD38460AF003FC0E2208A902A806F021
:10191000A9FE0398401C0390072808BFCDF80C903F
:101920003F990398814214D1002108A83B9A09F0FD
:1019300084FDADF820903A98401EADF824000DE0EB
:1019400003980228ACBF0120002006EB8000076B43
:10195000C5E7002208A83A9909F06FFD641CAC4263
:1019600093DB4DB0BDE8F08FA0681AF042FBE16850
:10197000B0F5B87F15D0A0F58070713807BF022987
:1019800001244DB0BDE8F08F4FF06C020AA930463B
:1019900019F0BAFC0E9800190E900AD00D280DD03F
:1019A00011E002290EBF4FF0FF344DB0BDE8F08FBB
:1019B000EAE70D98401E0D900C2003E00D98401CA6
:1019C0000D9001200E904FF4B07130461AF07EFA5F
:1019D00004460E9A6FF00300229900EB82000B5828
:1019E00025A90D98CDF80010009A13F8011B02F8F4
:1019F000011B00920029F7D138B1511E202201F8B5
:101A0000012B0091694606F0ACF825A9204618F094
:101A1000E6FE6C220AA9304619F08CFC30461BF019
:101A20006BF80A2130461BF070F94DB0BDE8F08F1D
:101A300000293FF4F7AE03980628B4BF401C0020ED
:101A40000390491EF7D1EDE69324499267666666D6
:101A50002DE9FF4FC9B00E46DDE95749DDE9598749
:101A60009A46154670211EA8DDF858B1FEF780FC95
:101A70006C2103A8FEF77CFCABF101000C2880F080
:101A8000E280AAF22E6042F2E201884280F0DB801E
:101A900044226F490CA8FEF743FC6E4B00211A4606
:101AA0000846E4FB0320C008A0EB40102044CDE929
:101AB00003ABCDE9050A0120CDE907B06648059BD7
:101AC000CDF824A0CDE91D90CDE90AB318981A9B52
:101AD000C0EBC0021998ADF88260C0EBC00018449A
:101AE000ADF888006C202490ADF88A704FF4B8707F
:101AF000ADF89C000320ADF89E001A98574B0A38A9
:101B0000ADF8808025932C93ADF8A40040F27113BA
:101B1000ADF88450ADF8B830ADF886201A9B4FF080
:101B2000050CD21AD21DADF8BA204D4B3393ADF847
:101B3000C0004FF4B073ADF8D430C31CADF8A0C0F2
:101B4000ADF8A200D21AADF8DC00ADF8BCC0ADF81B
:101B5000D8C0ADF8BE00ADF8D630ADF8DA200091AF
:101B60000191404A04211EA8499B06F00BFA05008A
:101B700069D06FF0704119F0CAFB3B4928461BF051
:101B8000E1FA4FF4B87128461AF0A0F90446002192
:101B900019F0E2F835492046FFF78AFA40F2711150
:101BA00028461AF093F90446002119F0D5F82F4978
:101BB0002046FFF77DFA4FF4B07128461AF086F9F7
:101BC00004462B491BF0BEFA0E21204618F033FEC6
:101BD0002046139918F046FE2046179918F0E6FDA6
:101BE000204619F0F9FC2046129918F0BDFD07991E
:101BF0006FF003021B9802EB81013AAA4158069844
:101C0000CDF80020009B11F8012B03F8012B009365
:101C1000002AF7D138B1591E202201F8012B00917A
:101C2000694605F09EFF3AA9204618F0D8FD2846DF
:101C30001BF056FB6C2203A9284619F07BFB4DB024
:101C40002846BDE8F08F4DB00020BDE8F08F0000C1
:101C5000BC0500202184104281B20108FD0C00085F
:101C60007FA6010841120008B5F80208614A02087F
:101C700089C8020830B59BB00C46054608F054F8F8
:101C80006C226946284619F03FFBDDE90601089AF7
:101C9000A260C4E900010AF047FE1BB030BD00009D
:101CA000022828BF7047024A02EB80008162704719
:101CB000BC050020064A002804BF91637047012834
:101CC00004BF11637047022808BF516370470000CA
:101CD000BC0500202DE9F04F0446006889B028B10A
:101CE0001CF07CFA002808BF012500D00025FE4822
:101CF00050F8256060680A2800F0738108DC00282D
:101D000000F0DD81062841D007280CD000F0E8B9AA
:101D1000122800F03081192802BFB06909B0BDE86F
:101D2000F08F00F0DDB9256807F0FEFF284605F0CA
:101D300069FC0090C76F684605F044FD0AF0F4FDA9
:101D40005FF0000556F825000AF0E1F92069C11995
:101D5000491B4B1E61691A462944284407F04AFB77
:101D60006D1C032DEED3D6E90301CDE90001D4F8B3
:101D700010C00CEB0700401B431E60691A46411956
:101D80000CEB050007F06AF800F0AAB9A068401E45
:101D90000690246807F0C8FF204605F033FC009049
:101DA000D0F87C80684605F00DFD0AF0BDFDDFF837
:101DB0003C9359F82570002F1CBF069800EB80005B
:101DC0000DD000BFB7F84810414505D107EB8001A1
:101DD000896809B11FB1C4E0FF6C002FF2D1502017
:101DE00005F074FB070000F07B81C14C50220021FC
:101DF0002368984770697864A7F8488059F82500E7
:101E0000F864BC48A8F1060880FB081049F8257062
:101E10004110A1EBE071032008900120049007F12C
:101E20004000CDE90280069D05EB850007EB8000B0
:101E3000019005EB450007EB80002830009008EB8F
:101E4000D8704210401000EBD073A0EB630046182E
:101E5000501A059008F10700C11700EB51704FEAC6
:101E6000E00A0AFB08FB584605F030FB5FEA000970
:101E700077D023685A4600219847DDE904200128DD
:101E800026DD089B01213046334483421BDD4FEAA7
:101E9000E27C02EB5C7E02F0070C802424FA0CFC4E
:101EA000404509DA0AFB00F404EBEE0419F804B02B
:101EB0004BEA0C0B09F804B06940401C834202DD78
:101EC0000029F9D0ECE70598521C761C9042D8DC2A
:101ED00004990298401A0490904225DD0899012047
:101EE00034463144A1421ADDD31702EB537E02F08F
:101EF000070C802323FA0CF3444509DA0AFB04FC9F
:101F00000CEBEE0C19F80CB04BEA030B09F80CB013
:101F10006840641CA14202DD0028F9D0ECE7049877
:101F2000521C761E9042D9DC009802210160009973
:101F300001200871009A039991600199C880019865
:101F40000021A0F804A00198C0F808900198016150
:101F5000DDE90001C860DDE9010101800198A0F818
:101F600002800698032200EB800007EB80001146F8
:101F700006F0CEFCB4E0206805F044FB0290B0F916
:101F8000547090F85650D0F84490D0F8348002A89D
:101F900005F018FC266807F0C7FE304605F032FB56
:101FA0000390B0F87C6003A805F00CFC0AF0BCFCC0
:101FB000684619F041FFBDF8000071190844ADF8FA
:101FC0000000246A40460AF0CBF802200AF070F9BB
:101FD00048460AF09CF83A466946204606F042FB1D
:101FE0007EE0206805F00EFB0290B0F9548090F876
:101FF0005660D0F83490876C02A805F0E3FB2568A2
:1020000007F092FE284605F0FDFA0390B0F87C50E8
:1020100003A805F0D7FB0AF087FC684619F00CFF0F
:10202000BDF80000A9190844ADF80000206A07F0C7
:102030009DFD0446484607F0C7FD28F0030104292A
:1020400004BFBDF80610091A08D00C2908D1BDF943
:102050000610091A491C01EBD1714910ADF80210A4
:1020600028F00C0101290CD0022913D1BDF904106C
:10207000BDF90020891A091B01EBD17102EB610146
:1020800006E0BDF80420BDF80010521A121B1144DE
:10209000ADF80010BDF80010621E1144ADF8041038
:1020A000BDF80210401E0844ADF8060038460AF09C
:1020B0002EF84FF0FF31684606F0A4FC10E02068CF
:1020C0001BF00CFA206805F09DFA0790B0F9061095
:1020D000B0F90220891A491CC16707A805F072FBF4
:1020E00009B00020BDE8F08F50CC10084406002055
:1020F0004403002067666666044A03491160044988
:10210000CA69C86110467047000600208C0C002088
:10211000900C002000B589B0002000900290039040
:1021200004900590069007900890192001900448AB
:102130000068806841686846884709B000BD0000B3
:102140008C0C002070B5234C054682B02068418C71
:10215000B0F84C2011444184818CB0F850201144D7
:102160008184284607F038FC2168498CADF80010BE
:10217000461828460CF0FAFB3044401EADF8040027
:1021800007F0A2FC2168898CADF802100844401EBB
:10219000ADF8060068461BF057FE30B1284603F044
:1021A00025F81BF039FC0028F8D10A2D04D0BDF821
:1021B00004002168401C48842068418CB0F84C2001
:1021C000891A4184818CB0F85020891A818402B028
:1021D00070BD0000600300202DE9FE4304460E465A
:1021E000154620460CF02EFF07460F4850F82400F5
:1021F00007FB06080C4850F8240007FB05090021DE
:102200000A4850F82400CDE900010948029150F82D
:1022100024304A464146204600F0CAFA054840F8B4
:102220002450BDE8FE83000094000020A40000209C
:10223000A00000209C0000202DE9F04F85B004464E
:102240000D4616461F46DDE90F8BDDF838A0204607
:102250000CF0F8FE81461C4850F824001B4951F848
:10226000241009FB01001A4951F8241006FB015102
:10227000184A52F8242001FB02000490124850F83A
:102280002400124951F8241009FB0100104951F8AB
:1022900024100AFB01710F4A52F8242001FB0200AE
:1022A000039000210A4850F82400A0EB08004346A0
:1022B000CDE900B002912046DDE9032100F078FA73
:1022C00005B0BDE8F08F0000940000209C000020C5
:1022D000A0000020A80000202DE9FE4F04460D4676
:1022E00016461F46DDF8309007F0B8FB012810D1E4
:1022F00000221921204610F089FB4B463A46314610
:1023000028460FF09FFB194A1921204610F07EFB4A
:102310002AE0781B00F10108A9EB0600401C02909E
:1023200020460CF08FFE8246114850F824001149D7
:1023300051F824100AFB01000F4951F8241006FB44
:1023400001510E4A52F8242001FB020B0A4951F8B0
:102350002410A1EB08010D98CDE900104246594622
:102360002046029B00F054FABDE8FE8FD9220008F7
:10237000940000209C000020A0000020A800002065
:10238000F8B504460D4616461F4603203B46324626
:1023900029460090204600F0E3FAF8BDF8B504465F
:1023A0000D4616461F4604203B46324629460090FD
:1023B000204600F0D5FAF8BDF8B504460D4616469D
:1023C0001F4602203B46324629460090204600F038
:1023D000C7FAF8BDF8B504460D4616461F4600205C
:1023E0003B46324629460090204600F0B9FAF8BD37
:1023F000F8B504460D4616461F4600203B463246B9
:1024000029460090204600F0ABFAF8BD1CB5044602
:102410001A2000212346044ACDE900100221034876
:1024200005F0B0FD1CBD000025E602080C8A060878
:102430007CB519F035FD0546002000902B460A4A70
:1024400006210190094805F09DFD0446204619F03B
:102450001AFD054600234FF4C872194619F0DCF83E
:102460000349086020467CBDE1E90208046E1008BB
:10247000C80100207CB519F013FD0546002000902E
:102480002B46044A09210190034805F07BFD0446D0
:1024900020467CBD95F20208AC6E10081CB50446BF
:1024A0001A2000212346044ACDE9001002210348E6
:1024B00005F068FD1CBD0000FDE60208BC1B0C0811
:1024C0001CB504460B48006858B90020009023460C
:1024D000094A03210190094805F054FD05490860A7
:1024E00007E0044800681BF0CFF80248006818F0C5
:1024F000FBFF1CBDA801002015F70208DC5C0D08DD
:102500007CB519F0CDFC0546002000902B460A4A08
:102510000B210190094805F035FD0446204619F0CD
:10252000B2FC054600234FF47A72194619F074F88C
:102530000349086020467CBDD9E70208305D0D08DC
:10254000C40100201CB50121022015F09BFC4FF4B2
:102550008050009001208DF8040000208DF80600C6
:1025600001208DF8070002208DF805006946024819
:1025700003F004FC1CBD00000004024010B5002460
:102580001448006820F0407012490860084600684E
:10259000086004E0601CC4B2012000F0DBFD0E48BE
:1025A000006808B1642CF5DB642C01DB012010BD50
:1025B000002404E0601CC4B2012000F0CBFD0648FA
:1025C000006808B9642CF5DB642C01DB0120EEE720
:1025D0000020ECE7000402403082404210B506487B
:1025E000006840F0020004490860FFF7ABFF00F00C
:1025F00067F8FFF7C3FF10BD3038024010B5002464
:1026000004E0601CC4B2012000F0A4FD0D48006885
:1026100008B1642CF5DB002404E0601CC4B2012086
:1026200000F098FD0748006808B9642CF5DB282005
:1026300000F090FD0348006808B1012010BD0020A3
:10264000FCE700003082404270B50024002506E01F
:102650006006040EFFF7D2FF0443681CC5B2082DC4
:10266000F6DB204670BD7CB505460E4600F028F826
:10267000FFF784FFF8B9002405E0FFF7E5FF0DF848
:102680000400601CC4B2052CF7DB9DF800009DF827
:10269000011008449DF8021008449DF803100844F6
:1026A0009DF80410884208D19DF8000030709DF814
:1026B0000200287001E001207CBD0020FCE7000042
:1026C00010B50D48006820F040700B4908600846BE
:1026D000006840F08070086000200849086044F6F7
:1026E000206000F037FD01200549C1F8B0021E202E
:1026F00000F030FD10BD000000040240B0824042F6
:102700000080404210B54FF081510B4800F08AF92B
:1027100080B1012109480DF059F90021064800F067
:1027200013F94FF08151044800F0F4F800200449F7
:102730000968088010BD000040600240005C004055
:102740002C00002010B51449144800F06BF910B3A8
:102750000021124800F0F8F80F49104800F0DAF8AC
:102760004FF420400E49086007E00D490868411EFB
:102770000B4A116008B93EF088FE0A490A480DF07C
:1027800031F90028F1D0012107480DF01FF9002090
:1027900006490968087010BD2000002070600240E2
:1027A0002800002004000010005C004030000020E1
:1027B0002DE9F05F07460C4615461E46DDE90B9AEB
:1027C000DDF8288038460CF061FC83464FF4007039
:1027D0000E4908600846C460C563C0F81090C0F890
:1027E00040A0C0F81CB0404666F31F40486408464D
:1027F000006840F00100086000BF0448006800F075
:1028000001000028F9D1BDE8F09F000000B00240AF
:102810002DE9F04707460C4615461E46DDE90889B6
:1028200038460CF033FC82460E480F4908600846D3
:10283000C0F83890C463C0F84080C0F834A0304677
:1028400065F31F4048640846006840F001000860D6
:1028500000BF0548006800F001000028F9D1BDE87C
:10286000F08700000002030000B0024010B500F045
:1028700001F810BD022001498860704700B0024095
:10288000704700002DE9F04107460C4615461E46EC
:1028900032460B4938460EF089FC3246094920463B
:1028A0000EF084FC3346084A0649054800F00EF84D
:1028B0003246294604480EF079FCBDE8F08100005C
:1028C00088200020882F00208811002030B50F4C70
:1028D0000F4D2C602C46E0606161E26300242C61A6
:1028E000AC612C64EC616C626C63012404EB034406
:1028F0006C642C46246844F001042C6000BF044C36
:10290000246804F00104002CF9D130BD000202005B
:1029100000B002400246094B9A4201D2084801E049
:102920000648103801F000531BB1064B0B40C36042
:1029300002E0044B0B4083607047000010640240CB
:10294000006002407D0F7D0F21B1026842F001025C
:10295000026003E0026822F001020260704700009A
:102960002DE9F84305460E4614469846089F224630
:10297000064928460EF024FC3B4600223146034817
:10298000009400F005F8BDE8F883000088110020ED
:1029900070B5049C4FF481350D4E35603546E860C6
:1029A000E9630025356135643546EA616B630125CD
:1029B00005EB0445756435462D6845F00105356025
:1029C00000BF034D2D6805F00105002DF9D170BD44
:1029D00000B00240F0B505AC70CC4FF48137DFF8A1
:1029E00040C0CCF800706746F860F9633A613B6418
:1029F0000527CCF81C7067467C6346EA0547CCF88F
:102A0000447067463F6847F00107CCF8007000BF8C
:102A1000034F3F6807F00107002FF9D1F0BD000018
:102A200000B0024030B503460A46002000240B4D9A
:102A3000AB4201D20A4901E00849103902F00055C1
:102A40000DB14C6800E00C68064D2C4004EA02050C
:102A50000DB1012000E0002030BD000010640240F4
:102A6000006002407D0F7D0F2DE9F84305460E46BC
:102A700014469846089F00233A4606492846009483
:102A8000FFF786FF2246314602480EF099FBBDE86B
:102A9000F883000088110020074AD0624A1ED2B293
:102AA000012343EA0222044BDA611A46D26942F05A
:102AB0002002DA617047000000B002401EB50346F4
:102AC00001F07F40B0F17F4F01D118461EBD83F069
:102AD0007F40029081F07F4001901548154C2060A6
:102AE00002A8E06001A86061C4F83CD04FF48030D7
:102AF00040EA0260E061C2F1FF00002444EA0060A5
:102B00000C4C6062002060634FF00110606420464E
:102B1000006840F00100206000BF0648006800F037
:102B200001000028F9D1009880F07F40CEE7000036
:102B30000002020000B0024070B5049C124D134E1A
:102B400035603546E8606961EA634FF4803545EAEF
:102B50000365F561C3F1FF05002646EA05650B4EE6
:102B6000756200257563012505EB044575643546DE
:102B70002D6845F00105356000BF044D2D6805F056
:102B80000105002DF9D170BD0002020000B0024025
:102B90002DE9F041044688B0006804F033FD06904A
:102BA000468ED0F8885006A804F00CFE002D18BF01
:102BB000012506F0010620681BF010FB002D18BF50
:102BC00000200FD07D4951F820506068002800F0A7
:102BD000EE80022800F0CE8005280CD012287DD08F
:102BE00000F0E8B8002E18BF0120EBD1002814BF78
:102BF00002200320E6E7D5E90123A86A29688DE8C9
:102C00000F0004F110000FC80BF030F95FF0000660
:102C100055F8260009F07BFAA169A86A0A1A216909
:102C200001446069304406F063FBA169A86A0A1A8E
:102C300021690144E069801B06F05AFBE169A86A3A
:102C40000A1A616901442069304406F033FDE169E4
:102C5000A86A0A1A61690144A069801B06F02AFD6E
:102C6000761C022ED4DBA86A02281BDDA86809F0B6
:102C70004EFAE169A86AD4F810C00B1A0CEB0001F7
:102C80004A1E616901440CF1020006F09DFDE169F4
:102C9000A86AA2690B1A61690144101A401C921EAD
:102CA00006F092FDD5E90301CDE90001E169606913
:102CB000A26901444B10A96AD4F810C0521A8C447E
:102CC000811C604606F0CAF8D5E90501CDE900018E
:102CD000A069AB6A6169C21AE06900E019E00144C9
:102CE0004FF0010C0CEB6101D4F810C09C44831E22
:102CF000604606F0B3F8686A09F009FAE2696169AA
:102D0000A369501A181A401C091D121F06F0D2FCA4
:102D100050E0206804F076FC0090B0F88060B0F9D4
:102D20008280C76C684604F04DFD208AB11C0844BF
:102D3000ADF80800A08A801CADF80A00A08BA18A1B
:102D4000401A218B891B081AC01EADF80C00A08BFD
:102D5000801EADF80E00022009F0AAFA384609F0EC
:102D6000FFF9286A09F0D3F9424602A9206A05F062
:102D700079FC1FE06169E0694FF0FF32401AA0F171
:102D8000080102EB6106411CA269801B4410A2EB02
:102D90006107E86909F0BBF9002E0BDBBA19B91B12
:102DA000204606F0A5FA641C761EF7D502E02068DE
:102DB0001AF094FB08B00020BDE8F08158CC100850
:102DC000044A0349116004490A6B086310467047BE
:102DD0004C060020CC0C0020D00C002038B50D464D
:102DE000002404F00FFC0090C06B294604F0C7FDDE
:102DF0000546684604F0E6FC1DB1284604F002FCD6
:102E00000446204638BD000010B500241448006870
:102E100020F440501249086008460068086004E049
:102E2000601CC4B2012000F0AFF90E48006808B180
:102E3000C82CF5DBC82C01DB012010BD002404E008
:102E4000601CC4B2012000F09FF90648006808B970
:102E5000F02CF5DBF02C01DB0120EEE70020ECE7A5
:102E600000140240188242421CB50121202015F0B6
:102E700009F84020009001208DF8040000208DF812
:102E8000060001208DF8070002208DF80500694634
:102E9000014802F073FF1CBD001402402DE9F04709
:102EA0002DED048B814600F0E9F800F0C5F8FFF73E
:102EB000ABFF552000F0EEF8002423E0B9F1010F3C
:102EC00009D0B9F1020F0BD0B9F1030F0DD0B9F150
:102ED000040F14D10EE02649085D00F0DBF80EE087
:102EE0002449085D00F0D6F809E02349085D00F0A8
:102EF000D1F804E02149085D00F0CCF800BF00BF24
:102F0000601CC4B2082CD9DBBE2000F0C3F800F06E
:102F100081F8804600F07EF80546072D07DDE8437E
:102F2000C5B26FEA080000F0FF08002700E00127A3
:102F30002E46300206B206EB080006B23046FDF718
:102F4000C7FB41EC190B9FED0E0B53EC102BFDF75B
:102F5000DEFA41EC180BFDF7D9FB06B227B130467B
:102F6000BDEC048BBDE8F087704200B2F8E70000CA
:102F70004016040848160408501604085816040899
:102F8000000000000000E43F70B50124FFF76CFF73
:102F9000FDF72CF9054600F04FF8FFF735FF044622
:102FA0002846FDF727F9204670BD000010B51648E9
:102FB000006820F44050144908600846006840F456
:102FC00080500860002011490860022000F0DCF801
:102FD00001200F49C1F898020B48006820F44050C6
:102FE000094908600846006808600C2000F0CCF829
:102FF00006488038006808B1012400E0002432202F
:1030000000F0C2F8204610BD0014024098824242EF
:103010000080424270B50026012508E0FFF7C6FF98
:103020000446E00140EA6600C6B2681CC5B2082D3D
:10303000F4DD304670BD000010B50D48006820F486
:1030400040500B4908600846006840F48050086012
:1030500000200849086040F2EE2000F095F80120B9
:103060000549C1F898020F2000F08EF810BD00004D
:1030700000140240988242420080424210B5FFF79D
:10308000DBFFFFF7C1FECC2000F004F8442000F085
:1030900001F810BD70B504461848006820F440508F
:1030A000164908600846006840F480500860012511
:1030B00020E004F0010664106EB1002010490860A1
:1030C000022000F061F801200E49C1F898023C206E
:1030D00000F05AF80CE00020094908603C2000F09C
:1030E00053F801200749C1F89802022000F04CF87B
:1030F000681CC5B2082DDCDD70BD00000014024064
:1031000098824242008042421048006820F080705D
:103110000E4908600846006840F0807008600C485E
:10312000006820F001000A4908600846006840F085
:10313000010008600020486000BF00BF00BF0448D5
:10314000406808B1002070470120FCE7FCED00E07A
:10315000001000E001B50949486809490968094AB1
:10316000B1FBF2F1009A5143009100BF0349496855
:10317000091A009A9142F9D308BD0000001000E03E
:103180000000002040420F0001B509494868094984
:103190000968094AB1FBF2F1009A5143009100BF5E
:1031A00003494968091A009A9142F9D308BD000001
:1031B000001000E00000002040420F0070470000B7
:1031C00070B504460D461646022C0DD1FF2008F0BE
:1031D0009EFF06EB460305EB45020A4901EB04108E
:1031E000042103F0A5FE0CE0074808F090FF06EB71
:1031F000460305EB4502034901EB0410042103F0EB
:1032000097FE70BD883E00208080FF00002808BF28
:1032100070472DE9F04F91B00F46044606F084FD4B
:10322000204604F0EFF9039090F854A0D0F83490C1
:10323000866DC56C03A804F0C5FA26B13946204650
:10324000B04700F0ABB900264FF00108122F7DD037
:1032500006DC082F7BD0102F7AD0112F3CD006E04F
:10326000132F5BD01D2F00F0E4801E2F71D0202F74
:10327000C0F29481BAF1000F00F0F280204604F011
:10328000C1F90590D0F834A0D0F84C9005A804F00E
:1032900099FABAF1000F00F0E380504604F0B2F959
:1032A00082464946069009F013FA81465046FDF7DA
:1032B0006AF848457DD9D144484609F0C3F909EB7D
:1032C00000014846FDF773F806A804F07BFA0521D3
:1032D000204619F01AFDC3E0B9F1000F00F05E813D
:1032E000484604F08FF907462946049009F0F0F9A2
:1032F0000744384609F096F90546029609F0B2F9F6
:103300008046681C86B2304609F0ACF90546A845EF
:1033100026D004A804F056FA00F040B9B9F1000F25
:1033200000F03C81484604F06DF9074629460490B8
:1033300009F0CEF90744384609F074F905460296BB
:1033400009F090F98046681E86B203E016E021E09D
:103350001AE043E0304609F085F90546A845D8D182
:10336000314602A809F04CF92A4602A93846FCF772
:10337000D7FF0521204619F0C8FCCAE7691C204682
:1033800000F02AFC00F00AB9691E204600F024FC77
:1033900000F004B9002D00F00181691E204600F004
:1033A0001BFC204604F02EF90190C76C456B01A868
:1033B00000E052E004F006FA002D00F0EF8028460D
:1033C00004F020F906463946029009F081F90546D5
:1033D0003046FCF7D8FFA84229D918E0204604F06F
:1033E00011F90190C76C456B01A804F0EBF9002DB1
:1033F0007ED0284604F006F906463946029009F0C8
:1034000067F905463046FCF7BEFFA8420FD93544A0
:10341000284609F017F929182846FCF7C8FF02A822
:1034200004F0D0F90521204619F06FFCB6E002A89F
:1034300010E0204604F0E6F80390BAF1010F08BF4F
:1034400080F8546005D080F854802946204600F06A
:10345000C3FB03A804F0B6F9A0E006A804F0B2F993
:103460001FFA87FB204604F0CDF807460290B0F91A
:103470003800002812DD786B4FF0000940B104F0ED
:10348000C1F800900BF04EFA8146684604F09AF9B4
:10349000B7F9381009F10100884200DC464602986D
:1034A000C06C079002A804F08DF9002E76D0584623
:1034B00009F0D8F8074626464FF00008204604F0E9
:1034C000A1F80B90406B40B104F09CF80890FCF719
:1034D0005AFF804608A804F075F90B9907EB08001D
:1034E000498F401A00F101080BA804F06BF900E0C5
:1034F00054E0B8F1000F2CDD304608F1100804F05C
:1035000081F80090D0F834A0408F8044684604F0E1
:1035100059F94146504604F089F85FEA00093DD068
:10352000BAF1000F0AD104F06DF8204B0D9042461D
:103530001B68002198470DA804F044F9304604F0B8
:1035400061F80090A0F83A80C0F83490684604F022
:1035500039F9204604F056F80290466B02A804F0B0
:1035600031F9304604F04EF806460F90079909F0FD
:10357000AFF806443046FCF706FF421CF01931460E
:10358000FCF7CEFE5946304609F03AF80FA804F091
:1035900019F90521204619F0B8FBEFE6204619F08D
:1035A000ABFA09F0C1F911B0BDE8F08F4403002077
:1035B00070B54568044682B028461AF00FFE0646EC
:1035C0002146284617F0D5FA002804BF02B070BD86
:1035D00020680F2844D004DC0B2847D00E2850D098
:1035E00066E0A0F58070133804D0A0F580702D3807
:1035F0001FD05DE0284619F035FD284604F002F89A
:10360000009090F8561081F0040180F8561068463A
:1036100004F0D8F80021284627F008FA284603F0DD
:10362000F1FF0090D0F88400002119F064FC684696
:1036300024E0E06878B1017A41B10168284600F0E1
:1036400010F90121284619F060FB31E002212846DB
:1036500019F05BFB2CE00321284619F056FB27E00C
:103660000121284627F0E2F902B070BD284603F098
:10367000C9FF0190343003F0C3FE01A804F0A2F8A2
:1036800016E0AEB1E0684168002911DD01681B2930
:103690000ED009DC09291CBF0A290D2908D02846AB
:1036A000FFF7B4FD02B070BD212918BF2229F6D161
:1036B000204618F09DF802B070BD2DE9F04186B0AB
:1036C0000DF1300898E8F0104FF00008CDF81480A4
:1036D0008DE8F01000F004F806B0BDE8F0810000BD
:1036E0002DE9FF4F85B09846DDE91654DDE9126BF0
:1036F00091468A46159F06F017FB04F16001324A95
:1037000003914BF480500096CDE9010243464A46AE
:103710005146059817F0B0FF04004FD003F072FF38
:1037200010223946049017F0E1FC2848049990E8EB
:10373000CC1701F1600B8BE8CC17006AC1F8800050
:10374000012081F85500681C18BF012081F888000D
:10375000002DD8BF08252AB20A8700204887486371
:10376000551C04A804F02EF8204603F04BFF0090EF
:10377000476B408F0544684604F024F829463846D4
:1037800003F054FF060015D057B903F03BFF104B70
:1037900001902A461B680021984701A804F012F8FE
:1037A000204603F02FFF009045874663684604F0EB
:1037B00009F803E0204618F055F8002409F0B4F8A1
:1037C00009B02046BDE8F08FB1350008080D002093
:1037D000440300200148806870470000080D002065
:1037E00038B505004FF000040BD006F09DFA2846CE
:1037F00003F008FF0090846C684603F0E3FF09F0D3
:1038000093F8204638BD002808BF7047F8B5164623
:103810000C46054606F088FA284603F0F3FE0090B1
:10382000002818BF032C05D200EB840086672846C9
:1038300019F062F9684603F0C5FF09F075F8F8BDA4
:1038400070B50D46044606F06FFA34B1294620469D
:1038500000F0C2F9204619F04FF9BDE8704009F0B8
:1038600063B8002808BF70472DE9F04186B00C46C8
:10387000074606F059FA384603F0C4FE0090406B44
:10388000002849D003F0BEFE03900098806E08F037
:1038900067FC8046384618F099FD0646039806F006
:1038A00065F90546009890F8601001F003010129C0
:1038B00018D002290FD0416EC06A00680844201A4F
:1038C000441E03980BF02EF8002C11DA0021384624
:1038D00000F082F917E0701B401C00EBD070A4EBE5
:1038E0006004EEE7406E711B081A201A441CE8E7DA
:1038F000A54204DB0246214603980AF0A7FF0146D1
:10390000384600F069F903A803F05CFF404608F070
:1039100027FC384619F0F0F8684603F053FF09F029
:1039200003F806B0BDE8F0812DE9F8431D46DDE956
:10393000086714468946804606F0F6F9B8F1000F8C
:1039400075D0404603F05EFE3B49009081653B49DF
:10395000C1650021C0E91291C0E90F4580F84460BB
:1039600080F85670012180F8541090F888906846CD
:1039700003F028FFB9F1000F40D0002DA7BF0121AF
:103980000B460221CB1EB8BF6D422D4A0A2D08DB23
:1039900082FB05C04FEAA00CACEBE075491C0A2D78
:1039A000F6DAB3F1FF3F02BF4B1EB342491C002CB5
:1039B000BDBF02204FF0FF3C64420120A8BF8446F7
:1039C0000A2C07DB82FB04439C10A4EBE374401C2D
:1039D0000A2CF7DABCF1FF3F02BF431EB342401C82
:1039E000002E1CBF401C491C17F0010F18BF491CBA
:1039F0008142D8BF0146404600F026F8404629F0F3
:103A00005DF8404603F0FEFD009000F0CFF80D4950
:103A10000978884205D10098C06C411C404600F0EE
:103A2000DBF8684603F0CEFE404619F065F808F072
:103A30007BFFBDE8F883000071F10108BDCA0208F0
:103A4000676666664C030020002808BF70472DE9B2
:103A5000F04184B00C46064606F066F9304603F0A5
:103A6000D1FD0090B0F93810458FA14248D012DD49
:103A7000406B80B103F0C6FD01900AF053FFA042F5
:103A800006DD2146019808F023FE019A0021115419
:103A900001A803F097FE684603F094FE601B451CE6
:103AA000304603F0AFFD0290D0F83480408F0544DB
:103AB00002A803F087FE2946404603F0B7FD070041
:103AC00016D0B8F1000F0AD103F09CFD104B039003
:103AD0002A461B680021984703A803F073FE30466E
:103AE00003F090FD02904587476302A803F06AFE49
:103AF000304603F087FD00900487304618F0FCFF45
:103B0000684603F05FFE08F00FFF04B0BDE8F081E7
:103B100044030020002808BF7047F8B516460C463D
:103B2000054606F001F9284603F06CFD00900028D8
:103B300018BF032C05D200EB8400C666284618F097
:103B4000DBFF684603F03EFE08F0EEFEF8BD38B538
:103B500005000C4608BF38BD06F0E6F8284603F01D
:103B600051FD0090C16BA1421CDC016CA1421BDB2A
:103B7000816CA14210D08464C16D00291CBF28460D
:103B80008847284618F0B8FF684603F01BFE052159
:103B9000284619F0BAF802E0684603F013FE08F070
:103BA000C3FE38BD0C46E0E70C46E1E738B50546F4
:103BB000406B002468B103F025FD00900446E96CD9
:103BC00008F086FD204408F02DFD0446684603F009
:103BD000F9FD204638BD000010B582B00C4603F058
:103BE00011FD0090406BE8B103F00CFD01900AF06C
:103BF00099FE009991F85420002A18BF0122002C48
:103C000015DB844215DC00BFB1F93800801AA042F0
:103C100011DBC86CA04218BFCC640020086501A865
:103C200003F0D0FD684603F0CDFD02B010BD0024C6
:103C3000E7E70446E8E7B1F93800841AE9E700004D
:103C400010B5024600200023102A03D14FF0204473
:103C5000636E0FE0B2F5807F02D10A4C236809E061
:103C6000B2F5805F03D1074C2034236802E0054C95
:103C7000D434236803EA01048C4201D0002000E020
:103C8000012010BD840000A00021D0E900231A43C8
:103C900083685B1E42EA4312C36842EA4321014A39
:103CA00011607047500100A070B500220021002370
:103CB00000240568AD00A5F1C045D5F840216FF39B
:103CC0000E02D0E901563543C668354306693543CF
:103CD0004669354386693543C6693543066A3543C7
:103CE000466A35432A43056835B90568AD00A5F134
:103CF000C045C5F8402111E03B4D2B686FF30E0322
:103D0000D0E907563543466A35432B43364D2B6081
:103D10000568AD00A5F1C045C5F84021056875BB33
:103D2000314D0835066855F8261001F07041856A56
:103D30002D686D1E866A7668761E45EA0616856AC7
:103D4000AD686D1E46EA0526856AED686D1E46EA79
:103D50000536856A2D8A6D1E46EA0546856AAD8A56
:103D60006D1E46EA0556856A2D7E6D1E46EA05657E
:103D700029431D4D0835066845F8261032E0FFE757
:103D8000194D0835066855F8261001F07041856A0E
:103D90002D686D1E866A7668761E45EA0616856A67
:103DA000AD686D1E46EA0526856A2D8A6D1E46EAB7
:103DB000054529430C4D08352C6804F07044856A8C
:103DC000ED686D1E2E03856AAD8A6D1E46EA0555A7
:103DD0002C434FF02045C5F84841034D083506688F
:103DE00045F8261070BD0000400100A00449096894
:103DF00041EA40014FF02042C2F8541170470000E0
:103E0000540100A02DE9F04389B0984615460F46AD
:103E100006004FF0000423D000F0C8FC04463046F2
:103E200000F0A4FC814605F07FFF03A9304600F0B6
:103E300079FF17F0010F17D0BDF91C008221001B7C
:103E4000401B401C0096CDE9018123461A46494695
:103E5000FCF736FF0446002116F07EFF08F064FDF3
:103E600009B02046BDE8F083BDF9180017F0020F35
:103E7000284414BF40F202210221E3E710B50523D4
:103E8000FFF7C0FF0446054A0021FDF701F9044988
:103E9000204619F057F9204610BD0000D91202083B
:103EA000A1E4020810B50723FFF7ACFF0446054A5A
:103EB0000021FDF7EDF80449204619F043F92046AA
:103EC00010BD00003914020865ED020810B5082382
:103ED000FFF798FF0446054A0021FDF7D9F8044989
:103EE000204619F02FF9204610BD0000B91602082F
:103EF0009DED02082DE9F047446805468EB04FF06D
:103F00000008204603F07EFB0090B0F87CA0D0F8BB
:103F10006890D0F88070D0F88860C06D002818BF15
:103F2000D0F80080684603F04DFC56B17168284611
:103F3000884700281CBF0EB0BDE8F0873668002E09
:103F4000F4D12868172802BFC5F80C900EB0BDE860
:103F5000F08713DC0F2844D00ADC0B2800F05381D3
:103F60000D2808BF1AF0080F00F0F68000F054B9D1
:103F7000112814D0142870D000F04EB926286DD026
:103F800006DC1E286BD0202800F0F08000F044B939
:103F90002A2818D0B0F5107F2AD000F03DB920466D
:103FA000EE6803F02FFB0190717A002904BF317A8B
:103FB000012905D1B0F87C1041F48071A0F87C1083
:103FC00001A800F0FDB8204603F01CFB0090E96852
:103FD000002912BFC0F88410D0F88400E860684659
:103FE00049E0B8F1000F1CBF2046C04700F014B9EB
:103FF00027462046EE6803F005FB0190B0F87C40B0
:1040000001A803F0DFFBE868002804BF0EB0BDE89C
:10401000F087307A20B314F0080F04BF384619F047
:104020005FF9384617F060FA14F0100F12BF14F45D
:10403000807F0EB0BDE8F087002314F0800F1CBF16
:104040000EB0BDE8F08779483146B0F90020384617
:1040500019F0BAF80EB0BDE8F0870FE018E024E0E0
:10406000384603F0CFFA0190B0F87C1021F480714B
:10407000A0F87C1001A803F0A5FBEBE705A92046FA
:1040800000F050FEDDE90612E86801604260E1E7F9
:10409000E8680228DED10C94E8680D9027200A9089
:1040A0000AA9A8681AF0C2FAD4E7E868012819D06A
:1040B000002CCFD005F038FE204603F0A3FA019083
:1040C000B0F87C1011F0080F06D021F00801A0F81C
:1040D0007C10204618F010FD01A803F073FB08F0D7
:1040E00023FCB7E7384618F091FD58B1384619F06F
:1040F000F7F8384618F0DEFB88B10121384616F093
:1041000003FE0CE0484619F067F90746204603F025
:1041100079FA0090C0F88070684603F053FBB4B1A0
:1041200005F002FE204603F06DFA0290B0F87C1014
:1041300011F0080F06D141F00801A0F87C102046CC
:1041400018F0DAFC02A803F03DFB08F0EDFB002FAD
:1041500004BF0020E8607DE7E868C06800281FBF52
:10416000007A0028204619F0BBF855E0EE684EB3FF
:10417000214670681AF00AF800282746204622D007
:1041800003F040FA0490B0F87C1011F0080F06D14B
:1041900041F00801A0F87C10384618F0ADFC04A8E6
:1041A00003F010FB2146706819F0DCFF50B1204687
:1041B00003F028FA02907168C0F880100DF1080031
:1041C00003F000FB28E003F01DFA0490B0F87C1027
:1041D00011F0080F06D021F00801A0F87C10384635
:1041E00018F08AFC04A803F0EDFA2146306819F0B3
:1041F000B9FF88B1204603F005FA02903168C0F893
:10420000801002A8DCE7204603F0FCF90090703033
:1042100003F0F6F86846D3E72946204616F0A9FCD5
:1042200000281CBF284617F0E3FA13E70807002010
:1042300070B588B0B0F908400DF10C0E0C9ED0F8A6
:1042400018C045688EE87010B0F812C00024CDE99F
:104250000014CDF808C0B0F90C10B0F91040B0F956
:104260000EC0B0F90A00194410442346624600F01B
:1042700003F808B070BD00002DE9FF4F8BB09946E0
:10428000DDE91885DDE91B6792468B461E9C05F02B
:104290004BFD04F16000444945F48055CDE902101E
:1042A000CDE900854B46524659460B9817F0E4F984
:1042B000040073D003F0A6F930223146049016F0C2
:1042C00015FF3A4E049A06F1080102F1340E91E806
:1042D0000B1F8EE80B1FD6E90A01C2E915011D98D4
:1042E00050661A98A2F87C004FF00008C2F880804F
:1042F000C2F86C80C2F888807068D06504A803F0AA
:1043000061FA05A9204600F00DFD294841F28271AD
:10431000CDF80C800094CDE90110BDF91E00BDF967
:104320001A10BDF91C20401A431CBDF91800121ABE
:10433000521C17F0A1F980467068416820468847F2
:10434000204603F05FF90490C0F8688004A803F0E9
:1043500039FA42F20400054204BF204617F077FB09
:1043600005F0E2FC204603F04DF90090006F01904B
:10437000684603F027FA394601A80AF0CDFC58B187
:10438000204603F03FF9009001990167684603F069
:1043900019FA204618F0B0FB08F0C6FA08F0C4FA83
:1043A0000FB02046BDE8F08FF53E0008080700205A
:1043B000E35000082DE9F041044698B0006800F091
:1043C000BDF9002814BFDB4DDB4D6068152802BF26
:1043D000A86A18B0BDE8F08112DC0B282AD007DCEF
:1043E000002800F09281052800F02C8100F09DB992
:1043F0000E2800F07781122800F03B8100F095B97B
:10440000162802BFE86918B0BDE8F081172802BF7E
:10441000286A18B0BDE8F081182802BF686A18B091
:10442000BDE8F0811C2802BF686918B0BDE8F081C2
:1044300000F07BB920680E901C200F90206803F0DC
:10444000E1F80390016D0EA88847064603A803F023
:10445000B9F9022E11DBD5E90001AA680292CDE973
:104460000001D4E904023346A16909F0FDFB20698B
:104470008719A069A0EB06082CE0286807F047FE22
:104480002169E8690844421E606904F031FFA269AD
:10449000E869101A411C606904F02AFF6069471C32
:1044A0003946206904F07EFF3946A06904F07AFF9E
:1044B000686807F02CFE20693946401C04F072FF42
:1044C000A0693946401E04F06DFF2069871CA06971
:1044D000A0F10208286807F01AFE424639466069D2
:1044E00004F006FF686807F012FE6069424639462C
:1044F000401C04F0FDFE686A02287DDDA86807F014
:1045000006FE60696A6A811C1044431E42463846B2
:1045100005F05AF96069022EACBF0644861CE069BA
:10452000471E286807F0F3FD3A463146206905F03A
:10453000C1F83A463146A06905F0BCF8E069871E2B
:10454000686807F0E4FD20693A463146401C05F0F2
:10455000B1F8A0693A463146401E05F0ABF8E8696B
:104560000228DCBF286A022820DDA86A0228C7BF0B
:10457000E1690F1AE069871EA86807F0C8FDE969BC
:10458000022907DD22693B46901C11444A1E314630
:1045900005F01AF9286A022808DDA169E8698A1E6F
:1045A000081A3B463146401C05F00EF9286807F012
:1045B000AEFDD4E90620216904F09AFE686807F090
:1045C000A6FDA069421E2069411CE069401E04F05E
:1045D0008FFEA86A02284BDD21698E1CA1698F1EFF
:1045E000E169081A441CA1F10208A86807F08FFDD0
:1045F00043463A46214600E003E0304605F0E4F841
:1046000093E0296AB14285DD6069022E00F102085B
:10461000ACBF871947462069ACBF3044801C226973
:104620003B461144A1F10102414605F0CDF8A069D5
:10463000022EACBF821B821EE9693B46401A4146EE
:10464000401C65E7208A00B2ADF81800A18A09B2C3
:10465000ADF81A10228B12B2ADF81C20A38B1BB23E
:10466000ADF81E30D5E9034CCDE9004C04F0F6FB63
:104670005BE0208A298B0844ADF81800A08AADF8C9
:104680001A00208B298B401AADF81C00A08BADF8C6
:104690001E00206802F0B6FF0390006FF0B1022008
:1046A00007F006FE039991F87C00C0F3C00001EB0F
:1046B0008000006C07F02BFD0398406B07F050FD65
:1046C0000398006F02F09EFF03990A90B1F95A20F7
:1046D00006A903F0C7FF0AA803F074F803A803F0C3
:1046E00071F822E0208AADF81800A08AADF81A000F
:1046F000208BADF81C00A08BADF81E00A86807F059
:1047000006FD06A805F08CF80FE0206802F07AFF9D
:104710000390B0F85A1041F00C01A0F85A1003A809
:1047200003F050F8206818F0D9FE18B00020BDE85A
:10473000F08100004C0700207807002038B5050004
:104740004FF0000410D005F0EFFA284602F05AFFAF
:10475000009090F87C0010F0080F18BF0124684604
:1047600003F030F808F0E0F8204638BD38B5050011
:104770004FF0000411D005F0D7FA284602F042FFAE
:104780000090C06D0021806802682846904704466A
:10479000684603F017F808F0C7F8204638BD000057
:1047A00001484069704700001007002030B587B00D
:1047B00005004FF0000414D005F0B6FA01A9284610
:1047C00000F0B0FA284602F01DFF0090B0F9544006
:1047D000684602F0F7FF002C08BFBDF9044008F05E
:1047E000A3F807B0204630BD002808BF70472DE968
:1047F000F04184B0064605F097FA304602F002FF19
:104800000190304602F0FEFE009090F87C1011F00E
:10481000400F3ED0B0F90610B0F90220891A4C1CA6
:10482000B0F97A10B0F97600081A451C684602F013
:10483000C9FF2A1B0021304618F0DCFA304602F08E
:10484000E1FE0090806E18F01FFF0098C06E18F017
:104850001BFF304600F00AFC00980825B0F87C10D9
:1048600021F04001A0F87C10C46994B1204602F008
:10487000C9FE0290204617F0BCFBA84204BF2046A8
:1048800018F03AF90298046A02A802F09BFF002C83
:10489000ECD1684602F096FF019890F87C1011F078
:1048A000800F07D001A802F08DFF04B0BDE8F041F1
:1048B00008F03AB8806902F0A5FE0290D0E90074D1
:1048C000806938B90DF032FA60F30F040DF072FA16
:1048D00060F31F4402A802F075FF01984FF007082B
:1048E000D0E90012C0E91D12B0F87C1041F080013F
:1048F000A0F87C10C56995B1284602F083FE0090AF
:10490000284617F076FB404504BF284618F0F4F817
:104910000098056A684602F055FF002DECD101A809
:1049200002F050FF3A1439B215460F46304618F0DF
:10493000C0F9C5EB2440421C20B2C01B411C3046CC
:1049400018F06CFE304600F091FBAEE7002808BF7F
:1049500070472DE9F04188B0064605F0E5F930468C
:1049600002F050FE0590304602F04CFE019090F8A7
:104970007C1011F0800F31D0D0E91D140A1409B257
:1049800015460F46304618F094F9C5EB2440421CFA
:1049900020B2C01B411C304618F040FE304600F0EB
:1049A00065FB01980725B0F87C1021F08001A0F884
:1049B0007C10C46994B1204602F024FE0090204689
:1049C00017F017FBA84204BF204618F095F800988E
:1049D000046A684602F0F6FE002CECD101A802F051
:1049E000F1FE059890F87C1011F0400F07D005A853
:1049F00002F0E8FE08B0BDE8F04107F095BFB0F95D
:104A00000610B0F90220891A01F1010800F02EFA0F
:104A100001460598C26A126801EB42018F1CD0E979
:104A20000012C0E91D12806E17F052FF0598C06E8B
:104A300017F04EFF05980825B0F87C1041F04001B2
:104A4000A0F87C10C46994B1204602F0DBFD02900E
:104A5000204617F0CEFAA84204BF204618F04CF8C2
:104A60000298046A02A802F0ADFE002CECD105A861
:104A700002F0A8FEA7EB08020021304618F0BAF9B0
:104A8000304600F0F3FAB5E7002808BF7047F0B5EC
:104A900085B0054605F048F9284602F0B3FD0090C0
:104AA00090F87C1011F0400F3ED0B0F90610B0F92C
:104AB0000220891A4C1CB0F97A10B0F97600081A55
:104AC000461C684602F07EFE321B0021284618F084
:104AD00091F9284602F096FD0090806E18F0D4FD02
:104AE0000098C06E18F0D0FD284600F0BFFA00987C
:104AF0000826B0F87C1021F04001A0F87C10C469B1
:104B000094B1204602F07EFD0190204617F071FA24
:104B1000B04204BF204617F0EFFF0198046A01A8D5
:104B200002F050FE002CECD1684602F04BFE284605
:104B300002F068FD019090F87C1011F0800F31D0E8
:104B4000D0E91D140A1409B217460E46284618F07B
:104B5000B0F8C7EB2440421C20B2801B411C284601
:104B600018F05CFD284600F081FA01980725B0F89E
:104B70007C1021F08001A0F87C10C46994B120461B
:104B800002F040FD0090204617F033FAA84204BF1F
:104B9000204617F0B1FF0098046A684602F012FE42
:104BA000002CECD101A802F00DFE05B0BDE8F040EC
:104BB00007F0BABE064A0549074B1160054AD1699C
:104BC00058601B68C2E9063008467047400700205D
:104BD0000C07002010070020380700202DE9F043C3
:104BE00083B00E4607004FF000053CD005F09CF85E
:104BF000384602F007FD0190B0F954100D468E4280
:104C00002CD090F83220002412F0200F05D02C0078
:104C100003D1406B04F0D8FF841C01980121A0F857
:104C20005460C06D86683846326890478146326865
:104C30000321384690478046326800213846904725
:104C40000646384600F012FA43464A4621463846A0
:104C5000009600F08AF9384617F04EFF01A802F0DE
:104C6000B1FD07F061FE03B02846BDE8F0830028DF
:104C700008BF70472DE9F04383B00C46804605F02D
:104C800053F8404602F0BEFC0090428E002C1146C4
:104C900014BF41F0200621F02006B2423AD04686E9
:104CA000404600F0E3F9009DEC690CB3204602F0A9
:104CB000A9FC0190076AB0F90200B5F90210A0EB57
:104CC000010901A802F07EFDB5F9560048450DD155
:104CD000A86EA0420AD095F8320010F0200F2046AE
:104CE00002D018F0D1FC01E017F0F2FD3C00DDD15C
:104CF000009890F87C0010F0400F08D016F0200FBC
:104D0000404602D018F0C0FC01E017F0E1FD40463B
:104D100017F0F2FE684602F055FD07F005FE03B0FD
:104D2000BDE8F0832DE9F04F00278DB00C46814699
:104D3000BA4602F067FC0190C06D012185684846C3
:104D40002A68904780462A68032148469047079082
:104D50002A6802214846904706902A680021484662
:104D600090470646019819F061F80590019819F0EE
:104D700064F88346019890F8321001F02001002970
:104D800018BFB0F958A04FF0000506D0B0F9545044
:104D90001DB9406B04F018FF851C0198C06E10B15E
:104DA00017F02CFB074625806780A4F8048007993C
:104DB0000598401A06EB0A01401E29442081394417
:104DC000E1800699ABEB0101491E6181A4F80C80DA
:104DD00020827019E681401E608201A802F0F2FC78
:104DE000B4F90C70B4F910604D46484602F00AFC64
:104DF0000690C16DD0F8008006A8D1F8089002F0A6
:104E0000E1FCD9F800200021284690478146284639
:104E100017F0C1F8050024D002F0F4FB0790B0F9B8
:104E200000200FFA88F1B0F90430521A5B1AB0F979
:104E30000210A1EB284149450BD190F8280010F051
:104E4000800F03D09642A8BF561E02E09F42D8BFF3
:104E50005F1C07A802F0B6FC284617F060F90500B1
:104E6000DAD1A78126820DB0BDE8F08F10B50146DA
:104E7000002091F8322012F0200F08BF10BDB1F9C8
:104E80005400002818BF10BD486B04F09DFE801C24
:104E900010BD70B58AB00E46044602F0B3FB09900F
:104EA000C06D856809A802F08DFC0094002E08BF33
:104EB00018200BD0012E08BF162007D0022E08BFE5
:104EC000152003D0032E08BF172000D10190696878
:104ED000684688470AB070BD2DE9F04383B0174695
:104EE0008846814602F08EFB0090C16D05686846D9
:104EF0008C6802F067FC226800214846904706460D
:104F0000484617F048F8040004BF03B0BDE8F0833A
:104F100002F078FB0190B0F900102AB2B0F9043029
:104F2000891A9A1AB0F90230A3EB2543B34211D182
:104F300090F8280010F0800F05D038688842A4BF90
:104F4000481E386006E0D8F800009042DCBF501CD4
:104F5000C8F8000001A802F035FC204617F0DFF881
:104F60000400D5D103B0BDE8F0832DE9FF4F85B033
:104F70009A4691460F46DDF848B0059802F042FB8C
:104F80000390C16D8C68FFF771FF064603A802F01D
:104F900019FC22680121059890470290226803219C
:104FA0000598904701902268002105989047054692
:104FB000BE4204BF0298484506D10198504502BF41
:104FC0005D4509B0BDE8F08FA6EB07044FF0000780
:104FD000B846059816F0DFFF060004BF09B0BDE82B
:104FE000F08F0198A5EB0B05AAEB000A0298A0EB45
:104FF0000909304602F006FB0090806A10F0800F2D
:1050000003D010F4007F06D025E010F4007F22D0FA
:1050100010F0800F1FD124B122461146304617F000
:10502000E9FE009890F8280010F0800F06D004FBED
:1050300017A12A4630467F1C17F058FE0098008DB5
:1050400010F4007F07D004FB08912A46304608F18F
:10505000010817F04BFE684602F0B4FB304617F02B
:105060005EF80600C5D109B0BDE8F08F70B586B016
:10507000064602F0C7FA0590D0E91A4505A802F0E5
:10508000A1FB54EA050004BF06B070BD6946304676
:10509000FFF748FEACB1BDF90620BDF9041020466B
:1050A00017F0D0FDBDF90A00BDF90610401A421CE8
:1050B000BDF90800BDF90410401A411C204618F043
:1050C000ADFA002D04BF06B070BDBDF90600BDF9F4
:1050D0000210421ABDF90410284617F0B3FD06B0BD
:1050E00070BD2DE9F0430446406889B0054617F0CD
:1050F0004BF8814602F086FA0290D0F88080876CE7
:10510000466E02A802F05EFB2068172862D008DC19
:105110000E2850D00F2816D0142818BF152859D0A3
:1051200052E01E2829D01F283ED0222802BFE76067
:1051300009B0BDE8F083312801BF0020E06009B06C
:10514000BDE8F08340E06FF07040874204D03846FD
:105150000DF010FC02F06EFE002E04BF09B0BDE899
:10516000F083D4E902122068CDE90405CDE90612E6
:1051700004A8B04709B0BDE8F083E068002804BF88
:1051800009B0BDE8F083B8F1000F18BFA84505D0FD
:10519000404618F0A5F809B0BDE8F083284618F09D
:1051A0001BF909B0BDE8F0832146484615F0E1FC43
:1051B00009B0BDE8F083E0684168002904DD0068BB
:1051C0000928EBD00A280BD0002E1CBFC4F804908D
:1051D0002046CED1204616F00BFB09B0BDE8F08387
:1051E000284618F043F909B0BDE8F08370B5154CB6
:1051F00005460A2813D00D2D08BF70BD04F094FD9C
:105200002068C0690168284688470F48016800295E
:105210001CBF28468847BDE8704007F085BB04F0F6
:1052200083FD04F081FD2068C069457E07F07CFBAA
:105230002068818C29448184018C4184BDE87040C0
:1052400007F072BB60030020A00300202DE9F04F9F
:1052500085B08A468346DDE90E0100F5B4749846B0
:10526000914601F5B475B4F5B47F0FDB61424FF49C
:10527000B47091FBF0F04042002807DDA0EB001075
:1052800000EB400004EBC00405EBC0054FF0FF3617
:105290000127002DDCBF05B0BDE8F08F5A2C0FDAD6
:1052A000002C63DB5A2DB4BF28465A204346CDE973
:1052B0000040CDE902764A46514658461CF0A8FA0D
:1052C0005A3C5A3D002DDCBF05B0BDE8F08F5A2C8A
:1052D00013DA002C4CDB5A2DB4BF28465A20C4F1F7
:1052E0005A01C0F15A000090CDE9011643464A46E2
:1052F0005146584603961CF08BFA5A3C5A3D002DF5
:10530000DCBF05B0BDE8F08F5A2C0FDA002C31DB82
:105310005A2DB4BF28465A204346CDE900404A469C
:1053200051465846CDE902671CF072FA5A3C5A3D84
:10533000002DDCBF05B0BDE8F08F5A2C13DA002C2D
:105340001ADB5A2DB4BF28465A20C4F15A01C0F1C5
:105350005A000090CDE9011743464A465146584647
:1053600003971CF055FA5A3C5A3D92E7002499E7FE
:105370000024B0E70024CBE70024E2E72DE9F84F52
:105380000F46DDF828900646941BA3EB0708D9F8D2
:1053900000504FF0000A54EA080063D0002CD4BF3C
:1053A00060422046B8F1000FCCBF4146C8F1000171
:1053B00088420ADA20464446804630463E46074642
:1053C00010461A4603464FF0010A002CCCBF204677
:1053D0006042A04208BF012008D03046164602466F
:1053E0006442C8F100081F464FF0FF300090C448E7
:1053F000C449B8F1000FD0F800C01CBF04EBD47250
:105400004FEA620BB8BFCBF1000B30D09CF81A20EA
:10541000002A00F0FA80009A002ABCBF2A19C9F8B5
:1054200000200025002CC0F2458100BF08FB05B01C
:1054300090FBF4F0C219D9F8001000980844B04964
:10544000C9F8000009688B7E012B00F00081022B57
:1054500000F00781032B00F00D81042B00F03A814E
:1054600000F019B93046BDE8F84F00F08DBABAF136
:10547000000F62D09CF81AC0BCF1000F14D04FF09E
:105480000008002CA4BF8A46834640DBDBF80010EE
:1054900028466D1C8A7E012A0CD0022A14D0032AC9
:1054A0001BD0042A35D027E031463846BDE8F84FF6
:1054B0000CF096BA801DC21700EB127222F00F0298
:1054C000801A0C281FDB17E0C21700EB927222F043
:1054D0000302801A022816DB0EE08AFB0032D3108A
:1054E000A3EBE272524202EB820200EB82000C2834
:1054F00009DB1038022806D3496E06EB08004A681B
:1055000001463846904708F10108A045BEDD681EF7
:10551000DCE07D4A82FB00329310A3EBE272A2EB47
:10552000820200EBC2000C28EDDBA0F11002022A7F
:1055300024BF14380228E6D3DEE79CF81A80B8F1BD
:10554000000F14D04FF00008002CA4BF8A468346F9
:1055500042DBDBF8001028466D1C8A7E012A0FD042
:10556000022A17D0032A1ED0042A3AD02AE0DCF8F7
:1055700064003946036801B03046BDE8F04F184773
:10558000801DC21700EB127222F00F02801A0C2845
:105590001EDB17E0C21700EB927222F00302801AA2
:1055A000022815DB0EE08AFB0032D310A3EBE27277
:1055B000524202EB820200EB82000C2808DB10381A
:1055C000022805D3496E06EB08004A683946904721
:1055D00008F10108A045BCDD681EC9F80000BDE85F
:1055E000F88F494A82FB00329310A3EBE272A2EBE0
:1055F000820200EBC2000C28EADBA0F11002022AB2
:1056000024BF14380228E3D3DCE70025002CACBF0C
:105610008146BDE8F88F00BF08FB05B090FBF4F0B1
:105620003844BAF1000F0AD0D9F800207119526E2F
:10563000526890476D1CA542EEDDBDE8F88FD9F8A1
:1056400000107319496E4A6801461846F1E7801D3B
:10565000C31700EB137323F00F03C01A0C2825DBCC
:1056600019E0C31700EB937323F00303C01A022859
:105670001CDB10E0234B83FB00C34FEAE30CACEBD5
:10568000E3735B4203EB830300EB83000C280DDB29
:10569000103802280AD3496EBAF1000F06EB050054
:1056A0004B680EBF11460146104698476D1CA54237
:1056B0007FF7BCAE0098002804DAD9F80000204437
:1056C000C9F80000D9F800100098081AC9F80000BD
:1056D000BDE8F88F0C4B83FB00C34FEAA30CACEB87
:1056E000E373A3EB830300EBC3000C28DEDBA0F124
:1056F0001003022B24BF14380228D7D3CBE70000B5
:105700006003002067666666ABAAAA2A2DE9F04707
:10571000DFF86892804684B0D9F800000F460C99F3
:10572000007E1D461646012800F0CE80A8EB060C30
:105730007C1B5CEA040104BF04B0BDE8F087421E94
:105740000021BCF1000FBCBF0121CCF1000C002CEA
:10575000BCBF41F002016442644504DD204664465A
:10576000844641F00401A0020CEBDC7300EB630003
:1057700090FBFCF08010824C4FEA201C00F00F00E0
:1057800034F81C30C0F1100013FB00F3102807D0D0
:1057900004EB4C0CC0F11000BCF802C01CFB003341
:1057A00003F10800C31700EB1370001111F0040F90
:1057B00018BFC0F5806011F0010F18BFC0F5006080
:1057C00011F0020F18BFC0F5805000F5806100F5A0
:1057D0000060C0F30B004FF0000AB0F5006FC4BFCB
:1057E0004FF0010AA0F50060B0F5806FC8BFC0F5AA
:1057F00000604FEAA01C634B00F03F00C0F1400086
:1058000033F81C404443402818BFBCF1100F07DA9E
:1058100003EB4C0CC0F14000BCF802C00CFB004490
:1058200004F120008009BAF1000F18BF404200FBCC
:1058300002FC0024C1F30B00B0F5006FC4BF0124CB
:10584000A0F50060B0F5806FC8BFC0F500608111A1
:1058500000F03F00C0F1400033F811A040280AFBDF
:1058600000FA18BF102906DA03EB4101C0F140002D
:10587000498801FB00AA0AF120008009002C18BF0A
:10588000404200FB02F1BCF1000FB4BFCCF5007048
:105890000CF500704FEAA020B8BF40420029BDBF00
:1058A000C1F500718912C1F1000C01F50071A8BFAA
:1058B0004FEAA12C00280FDD411C01EBD1714910EA
:1058C00000EBD07042100EE0009139464046FFF7E1
:1058D00055FD04B0BDE8F08700EBD071401E4910C3
:1058E00000EBD0704210BCF1000FC6BF0CF10100FC
:1058F00000EBD0700CEBDC704FEA6000CEBF0CEB1D
:10590000DC73ACF1010303EBD3735B1008EB010C08
:10591000ADF800C007EB000CADF802C0A8EB020C1C
:10592000B21AADF804C0ADF808203144A7EB030C5F
:10593000EA1AADF80C102844ADF80A20ADF80E00B4
:105940000023ADF806C01A460421684600F08EF820
:10595000D9F8002040463946527E002A08BF00F0A0
:1059600013F83046D9F800202946527E002A08BF95
:1059700000F00AF804B0BDE8F087000060030020E2
:10598000B2D0100890D01008064A13681A7E012A77
:1059900005D0521E02EBD272521000F005B85A6EBA
:1059A00052681047600300202DE9F84F06460F4665
:1059B00040F2C32050434FF47A7190FBF1F000F1B4
:1059C000010A02FB02F002EBD271DFF89C8000EBCF
:1059D00061000090D8F8001014463244496E301B24
:1059E0000B68394698470125BAF1010FB8BFBDE8E9
:1059F000F88F00BF05FB05F004FB04000099884206
:105A00001ADD544517DDD8F8003006EB050BA6EB80
:105A100005095B6EABF1010239191B6809F1010040
:105A20009847D8F80030ABF10102391B5B6E09F1E1
:105A300001001B689847641ED8F8003032197919A4
:105A40005B6E301B93461B6881469847D8F8003040
:105A50005A46791B5B6E48461B6898476D1CAA45E1
:105A6000C8DABDE8F88F0000600300202DE9FF4F81
:105A700083B0074643F6FF74C4F1000090460E1E43
:105A80000090C4BFBA1C08460EDD00BFB2F900107A
:105A9000A142D8BF0C46009B9942D8BF194600913D
:105AA000401E02F10402F1D18C490868406970B1CE
:105AB000B0F90630069A9B1A009A9342C0F202810E
:105AC000B0F90230069A9A1AA24200F301810098B6
:105AD0008442D2BFA6F1010907B0BDE8F08F0020D3
